S00F0000566172696F53572E737265636A
S21400200000800020B53501009B3501009B3501009E
S21400201000000000000000000000000000000000BB
S2140020200000000000000000000000009B350100DA
S21400203000000000000000009B3501000D36010086
S2140020409B3501009B3501009B350100C1870000D0
S214002050795001009B3501009B350100A135010038
S2140020609B350100E95B01009B3501009B350100B3
S214002070C15B01009B350100F95B01009B35010047
S2140020809B3501009B3501009B350100294D000062
S214002090000000009B3501009B3501009B350100C8
S2140020A09B3501009B3501009B3501009B350100E7
S2140020B010B5064C2378002B07D1054B002B02D019
S2140020C0044800E000BF0123237010BD6008002014
S2140020D00000000004920200084B10B5002B03D04D
S2140020E00749084800E000BF07480368002B00D1F6
S2140020F010BD064B002BFBD09847F9E70000000008
S21400210064080020049202005C0800200000000022
S214002110F7B506003E4B05000C001E4004D508220D
S214002120013E5242164301360720EA171040401976
S214002130C010234004D50822013B5242134301330A
S2140021400721E21711400919324DCA1001922F00DB
S21400215000222C0039788E4205D17978884202D147
S214002160B97801291AD001320637202AF2D1012681
S214002170213A00202F78BB4206D16F780199B942E8
S21400218002D1AF78012F25D0013006352028F1D1B5
S214002190002E05D00120350040421CE00026E8E76E
S2140021A00620504323546B4601211B7920184370A8
S2140021B0417106235343E418E378012B09D1637871
S2140021C0002B01D0072B04D106214A43114B9A1845
S2140021D0D170F7BD00252E43B446EAD106273E004F
S2140021E0784356432018A51929790779B942E0D0D3
S2140021F0A3556B461B7961466B7001236B7181702A
S214002200C1780529D5D12100C3310B70D1E7C0466E
S214002210070000807C08002001226F4BF0B5991C57
S214002220CA7719000831CA7719002D310A701900CB
S2140022300226333118000E7000213030017018006D
S214002240393006701800072436300470180003254D
S2140022503F30057018003C30027018001C004530F6
S2140022600570062042341F00207004244B373C7053
S2140022701F0048373E701F0051373C704E27BC4643
S2140022809C446146493F0F7057218C469C446146EA
S214002290087054218C469C4461460D705D218C4626
S2140022A09C44614605270F705A218C469C44614623
S2140022B00C7063218C469C4461460A7069218C46EA
S2140022C09C4461460A706F218C469C4461460A70A5
S2140022D075218C469C4461460A707B218C469C4442
S2140022E061460A7081218C469C4461460A708721AB
S2140022F08C469C446146DA705A72DA735A75DA76FE
S2140023000A708D218C469C4461460A7093218C4647
S2140023109C4461460E7090218C469C446146002782
S2140023200F7099218C469C4461460E7096218C460F
S2140023309C44614607270F709F218C469C4461464B
S2140023400D709C218C469C4461460A70A5218C46E3
S2140023509C4461460D70A2218C469C4461460870E0
S214002360AB218C469C4461460C70A8218C469C444C
S21400237061460E701E00B13634701E000521AE3662
S21400238031701E00B73630701E00B43635701D0032
S2140023900521BD3529701D000021BA352C700D00B1
S2140023A003349A705D710F2909DC1D71072910DC52
S2140023B058701970013106332029F2D1F0BD1A7118
S2140023C0172901DD5D70F5E70E0026405A701E7075
S2140023D0F0E75C70EEE7C0467C08002010B5FFF71B
S2140023E01BFF074BFF211A00C23211701900002292
S2140023F0C1310A701900C033C3310A701A7010BD9B
S2140024007C080020F8B505000F0016001C00002907
S2140024105CDB0FF04CF8B84258DD002E56DB280087
S2140024200FF048F8B04251DD324BEB5C002B05D084
S21400243028000FF03CF8FF433F183FB228000FF08B
S21400244025F8022843D003284AD0012804D1F643B1
S2140024502B899B193E001FB2274BEA5ABA1A12B2B2
S214002460002A33DB254BEB5A9A422FDA2449695A65
S214002470711A89B208B2002828DB224EAE5BB04241
S21400248024DA9F2040012F5A1F48285A7843081AFA
S2140024901E4986B2695C002902D0781E861BB6B239
S2140024A031B2002912DBB94210DAD8087043D310D3
S2140024B0C01807239343012280B228184C309A4054
S2140024C0002C13D01300027813430370F8BDF343B7
S2140024D02A896E89013AD71BF6183FB236B2BBE797
S2140024E06B89013BDB1B37001EB2B5E703789343CD
S2140024F0EBE7C046D6130000E2130000E613000028
S214002500E4130000E8130000DC130000D7130000FB
S214002510F0B59F2300240600070089B007910494B5
S214002520039402945B01C35E203601930822835E07
S2140025304C3722000500009339002300300004F0D9
S21400254089FA0799300004F035FC9F235B01EB5EA7
S214002550049401930822AB5E039400930294230034
S21400256022003900300004F075FA09B0F0BD000012
S214002570F0B5172568434D4399B083B203930933EA
S214002580CE4CCF4EADB21BB2069317006A1D12B2E8
S21400259000960423069920000EF0CFFA039B0096BF
S2140025A008331BB20593AB1D1BB20993099A062389
S2140025B0059920000EF0C1FA039B009607331BB264
S2140025C00493EB1D1BB20A930A9A08230499200071
S2140025D00EF0B3FA2B0008331BB20B9300960823B9
S2140025E00B9A049920000EF0A8FA2B0009331BB2B0
S2140025F00C93009608230C9A049920000EF09DFA7E
S2140026002B000A331BB20D93009608230D9A0499EB
S21400261020000EF092FA2B000B331BB20E9300969E
S21400262006230E9A059920000EF087FA2B000C332D
S2140026301BB2089300960823089A049920000EF00F
S2140026407CFA039B009606331BB202932B000D33D5
S2140026501BB20F930F9A0A23029920000EF06DFA10
S2140026602B000E331BB2109300960A23109A029981
S21400267020000EF062FA039B009605331BB2079308
S2140026802B000F331BB21193119A0C2307992000CD
S2140026900EF053FA2B0010331BB2129300960C2345
S2140026A0129A079920000EF048FA2B0011331BB23D
S2140026B0139300960C23139A079920000EF03DFA08
S2140026C02B0012331BB2149300960C23149A07990E
S2140026D020000EF032FA2B0013331BB2159300962F
S2140026E00C23159A079920000EF027FA2B001433B6
S2140026F01BB2169300960C23169A079920001535E0
S2140027000EF01BFA00962AB20C23079920000EF052
S21400271014FA039E0A36002F00D0D3E033B2079394
S214002720099A3B0007992000FFF76CFE039B099A65
S2140027300B331BB2179317993B002000FFF762FE7E
S2140027403B000A9A06992000FFF75CFE039E3B00BA
S2140027500C3636B20A9A31002000FFF753FE3B00D3
S2140027600B9A05992000FFF74DFE039D3B000D35A3
S2140027702DB229000B9A2000FFF744FE3B000C9A6E
S21400278005992000FFF73EFE29003B000C9A20002A
S214002790FFF738FE3B000D9A06992000FFF732FE41
S2140027A03B000D9A31002000FFF72CFE3B000E9AEE
S2140027B007992000FFF726FE3B000E9A1799200087
S2140027C0FFF720FE3B00089A06992000FFF71AFE46
S2140027D03B00089A07992000FFF714FE3B00089A72
S2140027E017992000FFF70EFE3B00089A31002000E4
S2140027F0FFF708FE3B000F9A05992000FFF702FE40
S21400280029003B000F9A2000FFF7FCFD3B00109AC2
S21400281004992000FFF7F6FD039D3B000E352DB210
S2140028202900109A2000FFF7EDFD3B00119A04994D
S2140028302000FFF7E7FD29003B00119A2000FFF774
S214002840E1FD3B00129A02992000FFF7DBFD039D95
S2140028503B000F352DB2129A29002000FFF7D2FD5B
S2140028603B00139A02992000FFF7CCFD3B00139A19
S21400287029002000FFF7C6FD3B00149A02992000AD
S214002880FFF7C0FD3B00149A29002000FFF7BAFDB1
S2140028903B00159A02992000FFF7B4FD3B00159AFD
S2140028A029002000FFF7AEFD00970A23169A02992A
S2140028B020000EF042F919B0F0BDC0460C150020FD
S2140028C0FFFF0000002536B20223099A31002000DF
S2140028D000950EF032F904230A9A06992000009516
S2140028E00EF02BF906230B9A0599200000950EF0A2
S2140028F024F906230C9A0599200000950EF01DF980
S21400290004230D9A0699200000950EF016F902236E
S2140029100E9A3100200000950EF00FF90423089A55
S2140029200699200000950EF008F906230F9A0599DF
S214002930200000950EF001F90823109A0499200053
S21400294000950EF0FAF80823119A049920000095D5
S2140029500EF0F3F80A23129A0299200000950EF062
S214002960ECF80A23139A0299200000950EF0E5F879
S2140029700A23149A0299200000950EF0DEF80095BE
S2140029800A23159A029920000EF0D7F800958CE7D6
S214002990F0B5172568434D439BB083B202930A33C4
S2140029A0754CADB2754E1BB209931700EA1C12B2F5
S2140029B003230999200000960EF0BFF82B1D1BB2CA
S2140029C01793179A03230999200000960EF0B5F87E
S2140029D0029B200009331BB205936B1D1BB2189394
S2140029E0189A0523059900960EF0A7F8AB1D1BB2A2
S2140029F00F930F9A05230599200000960EF09DF878
S214002A00EB1D1BB21093109A052305992000009623
S214002A100EF093F8029B200001331BB206932B00A6
S214002A2008331BB21193119A1523069900960EF0DF
S214002A3084F82B0009331BB20393039A15230699D7
S214002A40200000960EF079F82B000A331BB2049390
S214002A50049A15230699200000960EF06EF8029B45
S214002A60200002331BB212932B000B331BB20793CA
S214002A70079A1323129900960EF05FF82B000C337A
S214002A801BB20893089A13231299200000960EF0A2
S214002A9054F8029B200003331BB20A932B000D331D
S214002AA01BB20C930C9A11230A9900960EF045F867
S214002AB02B000E331BB20D930D9A11230A9920009A
S214002AC000960EF03AF8029B200004331BB20B93DC
S214002AD02B000F331BB20E930E9A0F230B99009602
S214002AE00EF02BF82B0010331BB21393139A0F2300
S214002AF00B99200000960EF020F82B0011331BB225
S214002B001493149A0F230B99200000960EF015F8D4
S214002B10029B200005331BB206932B0012331BB218
S214002B201593159A0D23069900960EF006F82B00BD
S214002B3013331BB21693169A0D230699200000969F
S214002B400DF0FBFF2B0014331BB21993199A0D23BB
S214002B5006992000153500960DF0EFFF2AB2009674
S214002B600D23069920000DF0E8FF029D0B352DB2CF
S214002B70002F00D06AE103E00C150020FFFF0000E4
S214002B8029003B00179A2000FFF73CFC29003B0079
S214002B90189A2000FFF736FC3B000F9A0999200090
S214002BA0FFF730FC029D3B000C352DB229000F9A32
S214002BB02000FFF727FC3B00109A09992000FFF73A
S214002BC021FC29003B00109A2000FFF71BFC3B006D
S214002BD0119A09992000FFF715FC29003B00119A6D
S214002BE02000FFF70FFC3B00039A05992000FFF733
S214002BF009FC029E3B000D3636B23100039A2000D7
S214002C00FFF700FC3B00039A12992000FFF7FAFB3F
S214002C103B00039A0A992000FFF7F4FB029D3B0055
S214002C2013352DB22900039A2000FFF7EBFB02991B
S214002C303B00143109B2039A2000FFF7E3FB3B0088
S214002C40049A05992000FFF7DDFB31003B00049A4B
S214002C502000FFF7D7FB3B00049A0A992000FFF7F5
S214002C60D1FB3B00049A0B992000FFF7CBFB3B00FF
S214002C70049A06992000FFF7C5FB029B049A1133BD
S214002C801BB2099309993B002000FFF7BBFB029B90
S214002C90049A12331BB20F930F993B002000FFF7E4
S214002CA0B1FB29003B00049A2000FFF7ABFB3B007A
S214002CB0079A05992000FFF7A5FB31003B00079A0D
S214002CC02000FFF79FFB3B00079A0A992000FFF7BA
S214002CD099FB029B079A06331BB2039303993B00AA
S214002CE02000FFF78FFB029B079A10331BB204935A
S214002CF004993B002000FFF785FB29003B00079A5C
S214002D002000FFF77FFB3B00089A05992000FFF79D
S214002D1079FB31003B00089A2000FFF773FB3B006D
S214002D20089A0B992000FFF76DFB029B089AD91DA5
S214002D3009B23B002000FFF765FB02993B000F310C
S214002D4009B2089A2000FFF75DFB3B00089A0F992E
S214002D502000FFF757FB029E3B00083636B20C9A5F
S214002D6031002000FFF74EFB029D3B000E352DB2D2
S214002D700C9A29002000FFF745FB3B000C9A0B99A4
S214002D802000FFF73FFB3B000C9A0F992000FFF74F
S214002D9039FB3B000D9A31002000FFF733FB3B0068
S214002DA00D9A29002000FFF72DFB3B000D9A06998F
S214002DB02000FFF727FB3B000D9A09992000FFF73C
S214002DC021FB3B000E9A06992000FFF71BFB3B00F9
S214002DD00E9A09992000FFF715FB3B00139A0699F7
S214002DE02000FFF70FFB3B00139A09992000FFF71E
S214002DF009FB3B00149A03992000FFF703FB3B00F6
S214002E00149A04992000FFF7FDFA3B00159A0399DF
S214002E102000FFF7F7FA3B00159A04992000FFF709
S214002E20F1FA3B00169A03992000FFF7EBFA3B00F5
S214002E30169A04992000FFF7E5FA0B23199A0399CE
S214002E40009720000DF079FE1BB0F0BD002629008B
S214002E500023179A2000FFF7D5FA29000023189AB6
S214002E602000FFF7CFFA03230F9A09992000009657
S214002E700DF063FE0323109A0999200000960DF0CA
S214002E805CFE0323119A0999200000960DF055FE6A
S214002E900523039A0599200000960DF04EFE330098
S214002EA0039A12992000FFF7ADFA3300039A0A99A5
S214002EB02000FFF7A7FA02993300133109B2039AEC
S214002EC02000FFF79FFA02993300143109B2039AE3
S214002ED02000FFF797FA0523049A0599200000962C
S214002EE00DF02BFE0323049A0A99200000960DF09D
S214002EF024FE029D032311352DB22900049A2000DA
S214002F0000960DF01AFE0523079A059920000096F4
S214002F100DF013FE0423079A0A99200000960DF080
S214002F200CFE02990423103109B2079A200000967D
S214002F300DF003FE0523089A0599200000960DF073
S214002F40FCFD0423089A0B99200000960DF0F5FD71
S214002F50029904230F3109B2089A200000960DF05A
S214002F60ECFD0F230C9A0B99200000960DF0E5FD62
S214002F700D230D9A0699200000960DF0DEFD0D2318
S214002F800E9A0699200000960DF0D7FD2900330012
S214002F900E9A2000FFF736FA0D23139A06992000A2
S214002FA000960DF0CAFD029D0B2306352DB2149A2D
S214002FB02900200000960DF0C0FD0B23159A29006D
S214002FC0200000960DF0B9FD0B23169A29000096F6
S214002FD020000DF0B2FD00960B23199A290030E769
S214002FE0F0B5172670434E439DB083B20293083364
S214002FF0734CB6B2734F1BB204931500F21C12B298
S21400300006230499200000970DF097FD331D1BB290
S2140030100993099A06230499200000970DF08DFD68
S214003020029B200007331BB20393731D1BB20D9344
S2140030300D9A0823039900970DF07FFDB31D1BB270
S2140030401193119A09230399200000970DF075FD3E
S214003050029B200006331BB20593F31D1BB20E9392
S2140030600E9A0B23059900970DF067FD029B200032
S21400307005331BB20A93330008331BB20893089A31
S2140030800C230A9900970DF058FD029B200004338C
S2140030901BB20F93330009331BB21293129A0E23FE
S2140030A00F9900970DF049FD029B200003331BB2D9
S2140030B00C9333000A331BB21393139A10230C9904
S2140030C000970DF03AFD33000B331BB20B930B9AAF
S2140030D010230C99200000970DF02FFD33000C33C1
S2140030E01BB20693069A10230C99200000970DF049
S2140030F024FD33000D331BB20793079A10230C9957
S214003100200000970DF019FD33000E331BB20C9310
S2140031100C9A10230F99200000970DF00EFD330037
S2140031200F331BB21493149A0F230A9920000097AA
S2140031300DF003FD330010331BB21593159A0E23C2
S2140031400599200000970DF0F8FC330011331BB2F0
S2140031501693169A0E230599200000970DF0EDFCA5
S214003160330012331BB21793179A0E2305992000CB
S21400317000970DF0E2FC330013331BB21993199A33
S2140031800D230599200000970DF0D7FC330014336B
S2140031901BB21A931A9A0D2305992000153600972C
S2140031A00DF0CBFC32B200970C23039920000DF0F3
S2140031B0C4FC029E0936002D00D090E104E0C04613
S2140031C00C150020FFFF000033B21093099A2B0065
S2140031D010992000FFF716F9029B099A0B331BB2D1
S2140031E0189318992B002000FFF70CF9029B099AF8
S2140031F00C331BB21B931B992B002000FFF702F920
S2140032002B000D9A10992000FFF7FCF8029B0D9AF0
S2140032100A331BB2099309992B002000FFF7F2F836
S2140032202B000D9A18992000FFF7ECF82B000D9A4A
S2140032301B992000FFF7E6F82B00119A049920004E
S214003240FFF7E0F82B00119A10992000FFF7DAF844
S21400325002992B000D3109B2119A2000FFF7D2F81F
S2140032602B000E9A04992000FFF7CCF82B000E9A3C
S21400327009992000FFF7C6F8029E2B000E3636B2DC
S21400328031000E9A2000FFF7BDF82B00089A03992C
S2140032902000FFF7B7F82B00089A10992000FFF7D8
S2140032A0B1F82B00089A09992000FFF7ABF8029FA7
S2140032B02B000F373FB23900089A2000FFF7A2F81C
S2140032C02B00129A05992000FFF79CF831002B007E
S2140032D0129A2000FFF796F839002B00129A200069
S2140032E0FFF790F82B00139A0A992000FFF78AF848
S2140032F039002B00139A2000FFF784F8029E2B005B
S214003300103636B2139A31002000FFF77BF82B00F8
S2140033100B9A0F992000FFF775F82B000B9A189957
S2140033202000FFF76FF82B000B9A1B992000FFF781
S21400333069F839002B000B9A2000FFF763F8029F0C
S2140033402B0011373FB20B9A39002000FFF75AF8CE
S2140033502B00069A0F992000FFF754F82B00069AC8
S2140033600A992000FFF74EF82B00069A10992000C5
S214003370FFF748F82B00069A09992000FFF742F855
S2140033802B00069A18992000FFF73CF82B00069AA7
S21400339031002000FFF736F82B00069A390020008F
S2140033A0FFF730F82B00079A0A992000FFF72AF853
S2140033B02B00079A03992000FFF724F82B00079AA2
S2140033C004992000FFF71EF82B00079A1899200092
S2140033D0FFF718F82B00079A31002000FFF712F8C5
S2140033E02B00079A39002000FFF70CF82B000C9AE8
S2140033F005992000FFF706F82B000C9A0999200083
S214003400FFF700F82B000C9A31002000FEF7FAFFB9
S2140034102B000C9A39002000FEF7F4FF2B00149ABC
S21400342010992000FEF7EEFF2B00149A31002000C2
S214003430FEF7E8FF029B149A12331BB2029302991E
S2140034402B002000FEF7DEFF2B00159A04992000C3
S214003450FEF7D8FF2B00159A31002000FEF7D2FFAA
S2140034602B00159A02992000FEF7CCFF2B00169A27
S21400347003992000FEF7C6FF2B00169A31002000A5
S214003480FEF7C0FF2B00169A02992000FEF7BAFF3F
S2140034902B00179A03992000FEF7B4FF2B00179A0B
S2140034A031002000FEF7AEFF2B00179A39002000EF
S2140034B0FEF7A8FF2B00199A03992000FEF7A2FF3B
S2140034C02B00199A39002000FEF79CFF00950A236E
S2140034D01A9A049920000DF030FB1DB0F0BD0025AF
S2140034E036B2099A310020000023FEF78BFF029BBC
S2140034F0099A0B331BB21093109920000023FEF795
S21400350081FF0299099A0C31200009B20023FEF7C8
S21400351079FF0D9A31002000009504230DF00DFB75
S214003520119A04992000009506230DF006FB0E9ACA
S21400353004992000009507230DF0FFFA029B0E9ACF
S2140035400A331BB2029302993B002000FEF75AFF93
S214003550089A03992000009509230DF0EEFA3B0027
S214003560089A31002000FEF74DFF3B00089A0299AA
S2140035702000FEF747FF129A0599200000950A23BF
S2140035800DF0DBFA139A0A99200000950C230DF033
S214003590D4FA0B9A0F99200000950E230DF0CDFA61
S2140035A0069A0F99200000950E230DF0C6FA079A8A
S2140035B00A992000009504230DF0BFFA079A109987
S2140035C02000009507230DF0B8FA2B000C9A0599F9
S2140035D02000FEF717FF0C9A02992000009508239A
S2140035E00DF0ABFA149A3100200000950A230DF076
S2140035F0A4FA159A0499200000950B230DF09DFA65
S214003600169A0399200000950C230DF096FA179A47
S2140036100399200000950B230DF08FFA00950B23DD
S214003620199A039920000DF088FA4FE7F0B517268F
S21400363070434E439DB083B203930A33F04CB6B248
S214003640F04F1BB21A931500F21C12B203231A99FC
S214003650200000970DF071FA039B200008331BB280
S2140036601693331D1BB21793179A072316990097C4
S2140036700DF063FA039B200007331BB21893731DEB
S2140036801BB20793079A0923189900970DF055FA6D
S214003690039B200006331BB20A93B31D1BB20B9389
S2140036A00B9A0B230A9900970DF047FA039B20000C
S2140036B005331BB20593F31D1BB20C930C9A0D2316
S2140036C0059900970DF039FA330008331BB20D93B5
S2140036D00D9A0D230599200000970DF02EFA039BF6
S2140036E0200004331BB20493330009331BB2089343
S2140036F0089A0F23049900970DF01FFA33000A3337
S2140037001BB20E930E9A0F230499200000970DF01B
S21400371014FA039B200003331BB2069333000B33CB
S2140037201BB20F930F9A1123069900970DF005FA16
S21400373033000C331BB20993099A11230699200013
S21400374000970DF0FAF933000D331BB21093109A60
S21400375011230699200000970DF0EFF933000E3381
S2140037601BB21193119A11230699200000970DF0B1
S214003770E4F933000F331BB21293129A1123069901
S214003780200000970DF0D9F9330010331BB21393C5
S214003790139A11230699200000970DF0CEF93300F6
S2140037A011331BB21493149A112306992000009724
S2140037B00DF0C3F9330012331BB21593159A11237B
S2140037C00699200000970DF0B8F9330013331BB2AA
S2140037D00693069A0F230499200000970DF0ADF982
S2140037E0330014331BB21993199A0F23049920003F
S2140037F0009715360DF0A1F90F2332B20097049901
S21400380020000DF09AF9039B0B331BB2002D00D05D
S214003810FAE01B93179A2B001B992000FEF7F2FD87
S214003820039B079A09331BB2179317992B002000A6
S214003830FEF7E8FD2B00079A1A992000FEF7E2FD36
S21400384003992B000C3109B2079A2000FEF7DAFD27
S21400385003992B000D3109B2079A2000FEF7D2FD1E
S2140038602B000B9A16992000FEF7CCFD03992B002F
S2140038700E3109B20B9A2000FEF7C4FD2B000C9AFD
S21400388018992000FEF7BEFD03992B000F3109B2F0
S2140038900C9A2000FEF7B6FD2B000D9A0A99200020
S2140038A0FEF7B0FD039E2B00103636B231000D9A9F
S2140038B02000FEF7A7FD2B00089A0A992000FEF7C5
S2140038C0A1FD31002B00089A2000FEF79BFD2B007F
S2140038D00E9A05992000FEF795FD039F2B001137E1
S2140038E03FB20E9A39002000FEF78CFD2B000F9A8F
S2140038F005992000FEF786FD2B000F9A3900200060
S214003900FEF780FD2B00099A04992000FEF77AFD49
S214003910039E2B00123636B2099A31002000FEF7BD
S21400392071FD2B00109A04992000FEF76BFD2B000A
S214003930109A31002000FEF765FD2B00119A0499BD
S2140039402000FEF75FFD2B00119A31002000FEF7E5
S21400395059FD2B00129A04992000FEF753FD2B0008
S214003960129A31002000FEF74DFD2B00139A0499A1
S2140039702000FEF747FD2B00139A31002000FEF7CB
S21400398041FD2B00149A04992000FEF73BFD2B0006
S214003990149A31002000FEF735FD2B00159A059984
S2140039A02000FEF72FFD2B00159A39002000FEF7A9
S2140039B029FD2B00069A05992000FEF723FD2B0013
S2140039C0069A39002000FEF71DFD0D23199A059969
S2140039D0200000950DF0B1F80923089A00931B9972
S2140039E0073B019520000DF0C6F80223099A1799A7
S2140039F000930195043320000DF0BDF81DB0F0BD16
S214003A000C150020FFFF000000251A93179A0023CC
S214003A101A992000FEF7F6FC039E0523093636B2F7
S214003A20079A3100200000950DF087F807230B9ABF
S214003A301699200000950DF080F809230C9A189925
S214003A40200000950DF079F80B230D9A0A992000B6
S214003A5000950DF072F80B23089A0A99200000953D
S214003A600DF06BF80D230E9A0599200000950DF0C9
S214003A7064F80D230F9A0599200000950DF05DF867
S214003A800F23099A0499200000950DF056F80F238D
S214003A90109A0499200000950DF04FF80F23119A04
S214003AA00499200000950DF048F80F23129A049907
S214003AB0200000950DF041F80F23139A049920007A
S214003AC000950DF03AF80F23149A049920000095FB
S214003AD00DF033F80D23159A0599200000950DF08A
S214003AE02CF80D23069A0599200000950DF025F870
S214003AF00D23199A0599200000950DF01EF809234C
S214003B00089A00931A99073B019720000DF033F8A6
S214003B10022301970093099A043331006BE7C046ED
S214003B20F0B5172568434D4395B083B202930A3328
S214003B30C84CADB2C84E1BB203931700AA1C12B2F3
S214003B4004230399200000960CF0F7FFEB1C1BB231
S214003B501193119A04230399200000960CF0EDFFB0
S214003B60029B2A1D08331BB2059312B2082305993F
S214003B70200000960CF0E1FF6B1D1BB21293129A08
S214003B8008230599200000960CF0D7FFAA1D12B254
S214003B9008230599200000960CF0CFFFEA1D12B20C
S214003BA008230599200000960CF0C7FF2A0008326B
S214003BB012B204230399200000960CF0BEFF2A00E0
S214003BC0093212B207230599200000960CF0B5FFC3
S214003BD0029B200006331BB208932B000A331BB24D
S214003BE01393139A0B23089900960CF0A6FF029BDA
S214003BF0200005331BB204932B000B331BB2069335
S214003C00069A0D23049900960CF097FF029B20005D
S214003C1004331BB203932B000C331BB20993099A8F
S214003C200F23039900960CF088FF2B000D331BB270
S214003C300A930A9A0F230399200000960CF07DFF42
S214003C40029B200003331BB207932B000E331BB2DC
S214003C500B930B9A1123079900960CF06EFF2B001E
S214003C600F331BB20C930C9A112307992000009671
S214003C700CF063FF2B0010331BB20D930D9A11232B
S214003C800799200000960CF058FF2B0011331BB24A
S214003C900E930E9A11230799200000960CF04DFF04
S214003CA02B0012331BB20F930F9A11230799200093
S214003CB000960CF042FF2B0013331BB21093109AA1
S214003CC011230799200000960CF037FF2B001433C1
S214003CD01BB20793079A0F23039920000096153509
S214003CE00CF02BFF04992AB200960D2320000CF04E
S214003CF024FF02990B3109B2002F00D0AEE0072353
S214003D00119A00932000053B01970CF034FF022324
S214003D10029D009309352DB229000433129A200023
S214003D2001970CF028FF29000523139A200000971E
S214003D300CF003FF029B069AD91D09B23B00200037
S214003D40FEF760FB3B00069A05992000FEF75AFB3B
S214003D5002993B000E3109B2069A2000FEF752FB8C
S214003D6002993B000F3109B2069A2000FEF74AFB83
S214003D703B00099A08992000FEF744FB02993B0095
S214003D80103109B2099A2000FEF73CFB3B000A9A64
S214003D9004992000FEF736FB029E3B00113636B231
S214003DA00A9A31002000FEF72DFB3B000B9A04997F
S214003DB02000FEF727FB3B000B9A31002000FEF7A1
S214003DC021FB3B000C9A03992000FEF71BFB029D8B
S214003DD03B0012352DB20C9A29002000FEF712FB8C
S214003DE03B000D9A03992000FEF70CFB3B000D9A52
S214003DF029002000FEF706FB3B000E9A03992000E0
S214003E00FEF700FB3B000E9A29002000FEF7FAFAA8
S214003E103B000F9A03992000FEF7F4FA3B000F9A36
S214003E2029002000FEF7EEFA3B00109A04992000C5
S214003E30FEF7E8FA3B00109A31002000FEF7E2FA9F
S214003E4000970B23079A089920000CF076FE15B011
S214003E50F0BDC0460C150020FFFF0000002607231B
S214003E60119A00932000053B01960CF084FE022375
S214003E70029D009309352DB20433129A29002000C2
S214003E8001960CF078FE0523139A29002000009670
S214003E900CF053FE02990923073109B2069A200056
S214003EA000960CF04AFE0B23099A0899200000960B
S214003EB00CF043FE0D230A9A0499200000960CF09D
S214003EC03CFE0D230B9A0499200000960CF035FE5C
S214003ED00F230C9A0399200000960CF02EFE0F2359
S214003EE00D9A0399200000960CF027FE0F230E9AD9
S214003EF00399200000960CF020FE0F230F9A0399DA
S214003F00200000960CF019FE00960D23109A0499D6
S214003F1020000CF012FE009693E7C046F0B51500A0
S214003F201722504395B083B24A430393991C092342
S214003F3097B2E04CE04E3A1D12B209B201960093D9
S214003F4020000A330CF017FE039B009605331BB2C5
S214003F5004933B000D331BB20993099A0D23049971
S214003F6020000CF0EAFD039B009606331BB2059377
S214003F703B000E331BB20A930A9A0B2305992000C6
S214003F800CF0DBFD3B000F331BB20B9300960B23AC
S214003F900B9A059920000CF0D0FD3B0010331BB2A5
S214003FA00C9300960D230C9A049920000CF0C5FD86
S214003FB0039B009604331BB207933B0011331BB2DE
S214003FC00F930F9A0F23079920000CF0B6FD3B00C5
S214003FD012331BB20D9300960F230D9A07992000FB
S214003FE00CF0ABFD3B0013331BB20E9300960F2371
S214003FF00E9A079920000CF0A0FD3B0014331BB26C
S214004000109300960F23109A079920000CF095FD48
S2140040103A00153200960F2312B2079920000CF0D2
S2140040208CFD039B7E1D03331BB2069336B2002D18
S21400403000D043E1320004230699200000950CF0DE
S2140040407CFD039B320009331BB2119311990523A3
S214004050200000950CF071FD039B320010331BB25C
S2140040601293BE1D36B204231299200000950CF060
S21400407064FD32002B0006992000FEF7C3F93200DB
S2140040802B0005992000FEF7BDF932002B00119990
S2140040902000FEF7B7F9039B32000D331BB21393D3
S2140040A013992B002000FEF7ADF932002B00129971
S2140040B02000FEF7A7F9039B320013331BB20893C8
S2140040C0FE1D36B22B0008992000FEF79BF9320041
S2140040D02B0006992000FEF795F932002B00059973
S2140040E02000FEF78FF932002B0011992000FEF712
S2140040F089F932002B0013992000FEF783F932006D
S2140041002B0012992000FEF77DF932003E0008369B
S21400411036B22B0008992000FEF774F932002B0007
S21400412006992000FEF76EF9320004230599200058
S21400413000950CF002FD3200042313992000009530
S2140041400CF0FBFC32003E00093636B22B00089914
S2140041502000FEF757F932002B0006992000FEF7E4
S21400416051F932003E000A3636B22B00089920007C
S214004170FEF748F932002B0006992000FEF742F9B8
S21400418032003E000B3636B22B0008992000FEF7B0
S21400419039F932002B0006992000FEF733F9320079
S2140041A02B0007992000FEF72DF932002B0004990A
S2140041B02000FEF727F9039B320011331BB206934B
S2140041C006992B002000FEF71DF9039932001231E4
S2140041D009B22B002000FEF715F932002B000899D3
S2140041E02000FEF70FF93A000C3212B20B230599A5
S2140041F0200000950CF0A1FC039B099ADF1D3FB23E
S2140042002B0039002000FEF7FDF8039E2B000F362A
S21400421036B2099A31002000FEF7F4F82B000A9A0D
S21400422039002000FEF7EEF82B000A9A3100200035
S214004230FEF7E8F82B000B9A39002000FEF7E2F8AC
S2140042402B000B9A31002000FEF7DCF82B000C9AAE
S21400425039002000FEF7D6F82B000C9A310020001B
S214004260FEF7D0F80B230F9A0599200000950CF066
S21400427064FC2B000D9A04992000FEF7C3F82B006F
S2140042800D9A06992000FEF7BDF82B000E9A0499A9
S2140042902000FEF7B7F82B000E9A06992000FEF7CE
S2140042A0B1F800950D23109A049920000CF045FCF7
S2140042B015B0F0BD0C150020FFFF000000253200F1
S2140042C006992000009504230CF037FC039B32006F
S2140042D009331BB2079307992000009505230CF0BD
S2140042E02CFC039B320010331BB20893BE1D36B263
S2140042F008992000009504230CF01FFC3200069954
S2140043002000009504230CF018FC320007992000CA
S214004310009505230CF011FC3200FE1D36B20899FC
S2140043202000009504230CF008FC320006992000BB
S214004330009504230CF001FC32000799200000953C
S21400434005230CF0FAFB32000899200000950423A0
S2140043500CF0F3FB3A0008320699200012B20095E2
S21400436011230CF0EAFB3A0009320699200012B23B
S214004370009511230CF0E1FB3A000A320699200062
S21400438012B2009511230CF0D8FB3A000B320699B6
S214004390200012B2009511230CF0CFFB3A000C322D
S2140043A00599200012B200950B230CF0C6FB039E65
S2140043B0099A073636B231002000009509230CF022
S2140043C0BCFB0A9A31002000009509230CF0B5FBCF
S2140043D00B9A31002000009509230CF0AEFB0C9AD6
S2140043E031002000009509230CF0A7FB0F9A0599D1
S2140043F0200000950B230CF0A0FB0D9A04992000DA
S21400440000950D230CF099FB00950D230E9A049948
S21400441020000CF092FB44E7F7B50023FF20434F43
S214004420434A190001334C3178549342F9D10025A0
S21400443001261721280014F0A1FD00243040019029
S2140044402B00234333420ED1019B17212000002B63
S2140044505CD014F093FD0300334004D122B229B29D
S2140044603800FDF7CFFF354210D034420ED0019B06
S21400447017212000002B51D014F080FD030033409C
S21400448004D122B229B23800FDF7BCFF0134B82CA3
S214004490D6D10135B82DCCD1264C2500C035A37811
S2140044A0012B2FD1E378012B04D122796178207873
S2140044B0FEF75EF8E378022B04D122796178207843
S2140044C0FFF72CFDE378032B04D12279617820785E
S2140044D0FEF786FDE378042B04D1227961782078F4
S2140044E0FFF7A4F8E378062B04D1227961782078C8
S2140044F0FEF74EFAE378052B04D12279617820780E
S214004500FFF70EFB0634A542C9D1F7BD14F036FD01
S2140045103042A8D022B229B2019BA1E714F02EFDAA
S2140045203042B3D022B229B2019BACE70C15002072
S214004530881300007C080020F0B5C3B289B03F2B7A
S21400454057D80724C31004401725069323006B434F
S21400455007936B4600270594069C1C229B5E6C43C3
S214004560A4B2254E039323B20493049A2B00039916
S2140045703000013400970CF0E0FA22B22B000399C9
S214004580300000970CF0D9FA069B03995C1C6C432C
S214004590A4B222B22B003000013C00970CF0CDFAFA
S2140045A022B22B000399300000970CF0C6FA2B00BD
S2140045B0049A0399300000970CF0A1FA059B049A20
S2140045C05C1C6C432B0021B2300000970CF097FA6D
S2140045D0079B049A591C09B22B0030000097013C37
S2140045E00CF08DFA21B200972B00049A30000CF0E4
S2140045F086FA09B0F0BDC0460C150020F0B5C3B26F
S2140046008DB03F2B00D9E9E007241723044063430D
S2140046100794172405936B460026C5106C43142296
S2140046209B5EA4B26E4F039323B20493049A0823AE
S2140046300399380000960CF080FA631C1BB20893AE
S214004640089A082303993800023400960CF075FA8D
S21400465023B20993099A08230399380000960CF0B0
S2140046606CFA172301355D43ABB20693013B1BB2D0
S2140046700A930A9A08230399380000960CF05DFA0C
S214004680069B0399023B1BB20B930B9A0823380038
S21400469000960CF052FA069B0399DD1E2DB22A00F6
S2140046A00823380000960CF048FA079B049A5C1C16
S2140046B017235C43083C24B221000F3B38000096C9
S2140046C00CF03BFA21000823089A380000960CF0FC
S2140046D034FA21000823099A380000960CF02DFAC7
S2140046E0210008230A9A380000960CF026FA2100CA
S2140046F008230B9A380000960CF01FFA2A002100B7
S2140047000823380000960CF018FA0823049A039938
S214004710380000960CF0F3F9059B049A01331BB29F
S214004720079307990823380000960CF0E8F9059BD4
S214004730049A9D1C2DB229000823380000960CF020
S214004740DEF9069C0823083C24B2220003993800B0
S21400475000960CF0D4F9082322000799380000963A
S2140047600CF0CDF9290008232200380000960CF042
S214004770C6F9059B049A16331BB2039303990823C4
S214004780380000960CF0BBF9059B049A15331BB253
S214004790069306990823380000960CF0B0F9059D9C
S2140047A0082314352DB2049A2900380000960CF020
S2140047B0A6F9082322000399380000960CF09FF90A
S2140047C0082322000699380000960CF098F9009607
S2140047D008232200290038000CF091F90DB0F0BD36
S2140047E00C150020F7B5FDF7F9FDFFF715FEC22002
S2140047F0354C01272056FFF79FFEC1202056FFF7B5
S214004800FDFE00213148FDF783FE314E30000DF0ED
S2140048101DFC30000DF018FC00284DD0002301933D
S21400482030000DF011FC002836D030000DF06CFC86
S2140048300428F5D814F00EFB030B10151A002200FE
S214004840C1321378083B3F210B401370E8E7220083
S214004850C13213780833F6E72200C1321378013BE1
S214004860F1E72200C13213780133ECE7230025007C
S2140048700020C133C23519782856814202D1FF2361
S2140048802B70CDE7431C01D12970C9E7FDF740FC2A
S214004890FF2301972B70C3E7FFF7BEFDC22020560B
S2140048A0FFF74AFEC1202056FFF7A8FE01990748E9
S2140048B079403940FDF72CFE2300C3331B785BB2EA
S2140048C0002BA2D0F7BDC0467C0800200C150020A7
S2140048D01C0D0020F8B5838804000D1C9B062AD505
S2140048E0081C15F023FB002815D0134B236022E08C
S2140048F0781E15F053FB311C15F05CF8291C14F0DB
S214004900D7FC051C380015F049FB011C281C14F0C8
S21400491061FE20600FE02668311C301C15F006FB97
S214004920002807D1238B002B01D101232383278B5B
S214004930012FDDD12560F8BD0000C07FF0B587B03F
S2140049400591838807009A0600D4F1E0904C5B0638
S21400495009D58379427A017A00200190F87900908F
S21400496020000CF07CF9BB7A002B12D0397A7A7AC8
S214004970083120000CF082FD864920000CF088FDEE
S214004980390020000A310EF0DBFE834920000CF0CF
S2140049907FFD3B7D002B26D020007E490CF078FD65
S2140049A003223800BB88BD7913403A7A7E7A1430E9
S2140049B00292022B38D0032B3BD018F059FD320060
S2140049C014320C214143029B20005D19691A09B27A
S2140049D00CF054FD3900200014310EF0B1FE6E4983
S2140049E020000CF055FD0322BB881340022B2CD070
S2140049F0934231D0012B21D0664920000CF048FDAF
S214004A007A7A1432397A200005310CF037FD3D6889
S214004A10291C281C15F08AFA002800D19BE05F4963
S214004A2020000EF08DFE83E018F022FD32001932D1
S214004A30C7E718F01DFD32002032C2E756492000B5
S214004A400CF026FD7A7A1632DCE7554920000CF089
S214004A501FFD7A7A1C32D5E7524920000CF018FD6B
S214004A607A7A2332CEE73D680021281C14F0E0FB5A
S214004A70002842D0281C17F0CFF800224A4B15F029
S214004A8023FB17F01BF884423FDC601E15F086FA05
S214004A90386000253E680021301C14F0BFFB331C34
S214004AA0002802D180231B06F318181C17F0B4F850
S214004AB002900391200017F035F83C4A3C4B16F064
S214004AC0C7FC02000B000298039914F077FB00283D
S214004AD021D0059B2E4C013D301C002B04D0FE201F
S214004AE0311C800514F076FD17F096F802000B00D6
S214004AF0009520000EF06AFF16E0281C17F08CF8D0
S214004B000022294B16F0A4FCBBE763429842C0DCA7
S214004B100120001BBAE7012CDBD020000A2114F08C
S214004B202DFA0135041EB5D11B4919480CF0B0FC0E
S214004B3007B0F0BD059B002B0BD0FE203968800522
S214004B4014F048FD17F068F80B00072102000D402E
S214004B50CEE73868F6E7BB881B0609D50021281C77
S214004B6014F066FB002803D0124920000EF0E8FD82
S214004B70BB889D10DB05DDD5072301241D400A22D6
S214004B8000239D4200D16EE754430133F9E7C04647
S214004B900C150020C0020200CC020200BC0202007B
S214004BA0D8020200E40202000000E03F9A999999B8
S214004BB09999A93FA145020010B500211948FFF7B1
S214004BC0BDFE00211848FFF7B9FE00211748FFF781
S214004BD0B5FE00211648FFF7B1FE00211548FFF785
S214004BE0ADFE00211448FFF7A9FE00211348FFF789
S214004BF0A5FE00211248FFF7A1FE00211148FFF78D
S214004C009DFE00211048FFF799FE01210F48FFF78F
S214004C1095FE00210E48FFF791FE00210D48FFF794
S214004C208DFE10BDE00E0020180F0020340F00206F
S214004C30880F0020A40F0020500F00206C0F0020CB
S214004C40C00F0020DC0F0020FC0E0020F80F002014
S214004C501410002030100020C122254B2549920058
S214004C6010B51A600A004B78DB09FCD12249234BA9
S214004C7019605378DB09FCD12149224B19805378FF
S214004C80DB09FCD10422204B19880A431A80DA7B00
S214004C90D209FCD1FF211D4A1170DA7BD209FCD162
S214004CA0FF211B4A1170DA7BD209FCD1FF21194A79
S214004CB01170DA7BD209FCD1C424C0201649A400A6
S214004CC00A5900061202120A02430A5180221203EF
S214004CD00A603121114802780A430270104A1170A6
S214004CE01988104A0A431A80DA7BD209FCD110BD13
S214004CF0080C0040000C004004070300040C0040B1
S214004D001C440000020C00400030004218300042F4
S214004D10193000421430004200E100E00E3000423C
S214004D200D300042020700000022F0B5022591B0C7
S214004D300EAB5A711A71D6490F9AD6480E9110F0DA
S214004D4087FDD54C23782B4210D009F081FC09F062
S214004D5005FDD24914F02EFED14B186016F05CFF0C
S214004D60009502000B00CF480EF039FE2378DB07D3
S214004D7000D4DBE10023079309F09AFB079B8342EC
S214004D8000DBD3E109F0A6FBC74DC84FEB693868D6
S214004D90C01A15F003F9A96914F00CFE15F0DEF838
S214004DA0C34B1860C34B18686B6AC01A15F0F6F848
S214004DB0296A14F0FFFD15F0D1F8BF4B1860BF4B01
S214004DC01868EB6AC01A15F0E9F8A96A14F0F2FD43
S214004DD015F0C4F8BA4B696B1860BA4B1A68BA4B30
S214004DE05A43521AB9490A60B94A1268E96B5A43DB
S214004DF0B84C521A2260B84AB84E1268296B534310
S214004E006A6C9B1A3360B14B186814F0B7F8AF4B56
S214004E10A96B1860206814F0B1F820603068296C1F
S214004E2014F0ACF8AE4930600B680D685B0138686A
S214004E305B1B1B185B110B60AA499E4A0B680D682A
S214004E405B0110685B1B1B185B110B60A6490B68A7
S214004E500D689A4A5B0110685B1B1B18A34A5B111E
S214004E600B601368A24D17685B012868DB1B1B18D4
S214004E705B1113609F4AA048136817685B010168BE
S214004E80DB1B5918491111609C4A136811685B01B5
S214004E908C469B490F6861465B1ADB195B111360F1
S214004EA0974B2D6807681868814B1B680893824BE0
S214004EB01B680993824B1B680A93844B1B68246803
S214004EC00B9315F06BF88F4914F074FD0C903800B6
S214004ED015F064F88B4914F06DFD0D90280015F060
S214004EE05DF8884914F066FD3668071C300015F03A
S214004EF055F80590200015F051F804900B9815F021
S214004F004DF803900A9815F049F80290099815F0A4
S214004F1045F80190089815F041F87B4D0D9A391C1C
S214004F2000900C9B280002F0A7FE614B1B680993BB
S214004F30614B1B680A93624B1B686868A9680B93F1
S214004F4014F038FDEE682F69041C391C301C14F070
S214004F5031FD011C201C14F0ABF90890A868A96864
S214004F6014F028FD011CFC20800514F043FEEE68BA
S214004F70EF68041C391C301C14F01CFD011C201C9E
S214004F8014F038FE0899041C081C14F013FD211CAC
S214004F90061C201C14F00EFD011C301C14F088F9B1
S214004FA002F0D2FB071CA86829696E68EB680C93B0
S214004FB014F000FD0C99051C301C14F0FBFC011CC1
S214004FC0281C14F017FEC021090614F0F3FC011C7F
S214004FD0051C14F0EFFC011CFE20800514F00AFEF0
S214004FE011F008FB061C0B9814F0D8FFE421890585
S214004FF014F0E0FC211C14F0DDFC391C14F0DAFC83
S214005000311C14F0D7FC041C099814F0C7FFE421E7
S214005010890514F0CFFC291C14F0CCFC011C201CC4
S21400502014F0E8FD041C0A9814F0B8FFE421890582
S21400503014F0C0FC089914F0BDFC391C14F0BAFC3E
S214005040311C14F0B7FC011C201C14F031F9FE21B1
S2140050502E4B8905186014F0CDFD2D4914F0AAFCDE
S2140050602C4D011C0E4800952B4B2C4A006802F074
S21400507083F92B4C2B49206814F09CFC296814F00B
S21400508017F9294914F096FC079B2060153372E641
S214005090404B4C00700D0020800E00200000C842DF
S2140050A0840D0020002900208C0E00208C0D00208E
S2140050B0940D0020980D0020A00D0020A40D0020C7
S2140050C0AC0D0020600E002040420F00640E002051
S2140050D0680E00206C0E0020700E0020740E00205B
S2140050E0900D00209C0D0020A80D0020D40D00205F
S2140050F0D00D0020DC0D0020D80D0020E40D00208F
S214005100E00D0020787D0B3940090020800D00203E
S214005110000075447C100020880D00200AD7233C30
S2140051208010002000C015440E74DA3A444810F08F
S214005130ADFB444D4449286814F03CFC011C434830
S214005140FFF7C8FB4049286814F034FC011C4048AF
S214005150FFF7C0FB3F4C0E23E05E14F01FFF16F077
S2140051605BFD3D4B3D4A15F0F3FE06000C23E05E6A
S2140051700F0014F013FF16F04FFD02000B00300076
S214005180390014F0A1FF16F099FD354914F012FC11
S2140051900021061C14F028F8324C00283DD1324974
S2140051A0301C14F007FC011C286814F013FA011CCC
S2140051B02000FFF78FFB2D4B2D4C1A791823134038
S2140051C0182B2CD153072CD42A4A136801331360AA
S2140051D0236801332360284B22681B689A4201DD4E
S2140051E00023236025480CF031FF254B1A68013256
S2140051F01A60244A11680131116012681E2A02DD05
S2140052000221214A116020221B68204B1A701F3A87
S2140052101A700F321A7011B0F0BD1D49C8E7082B7E
S214005220D2D1286814F09AFE08F090FF194B226835
S2140052301B6801209A4200DB002008F057FFC3E7F6
S214005240700D00207C1000200AD7233CE00E0020C2
S214005250FC0E0020A40B00204D62503FFCA9F1D2AA
S214005260560EED3FF80F0020E438DE418C0E00208D
S214005270D00A002064090020D80A00201C0D002057
S21400528008150020B80D0020840E00200E300042C5
S2140052900000C07FD40A0020054B064A1A60FE2292
S2140052A092055A6000229A60DA601A617047C0461A
S2140052B040090020CDCCCC3D0022002330B5026052
S2140052C043608260C36000248261C3610023034D93
S2140052D0836304614561C36330BDC0460000F03F90
S2140052E00023F0B587B001930022002305000C00D0
S2140052F0029203936868019B83423EDADE00AB6845
S2140053009919086849682268636816F0A1F8EB687E
S214005310049005919E1930687168A268E36816F0DB
S21400532097F8049A059B06000F001000190015F068
S2140053300FFE3200049005913B003000390015F056
S21400534007FE02000B000498059914F0BDFE11F04C
S21400535099F82269636916F07BF802000B0015F0D5
S214005360F7FD0B0002000298039914F0ADFE019BB6
S2140053700290039101330193BCE716F0D3FB0200C1
S2140053800B000298039915F0AFF911F07BF807B0FF
S214005390F0BD0000F0B5ABB007910690FFF78CFFAC
S2140053A0079800F0EFFA079B002600275B68149624
S2140053B01597109300230E960F970C960D970A9646
S2140053C00B97089609970093009B109A934200DB70
S2140053D07DE0DC00079B9B6819190293079B086811
S2140053E049681A695B6916F033F8079B02900391C7
S2140053F0DB681C190493079B206861689A69DB695F
S21400540016F026F8029A039B0490059110001900E6
S21400541015F09EFD049A059B12901391100019003A
S21400542015F096FD02000B0016901791129813992E
S21400543014F04AFE049A059B04000D000298039996
S21400544015F086FD02000B000898099914F03CFE42
S214005450129A139B089009910A980B9914F034FE3F
S214005460169A179B0A900B910C980D9914F02CFE27
S21400547022000C900D91029803992B0015F068FD00
S21400548002000B000E980F9914F01EFE22000E90DC
S2140054900F91049805992B0015F05AFD02000B0099
S2140054A01498159914F010FE2200149015912B00F4
S2140054B02000290015F04CFD0B00020039003000DA
S2140054C014F002FE009B06000F0001337BE71098E5
S2140054D016F028FB04000D0002000B000A980B993A
S2140054E015F002F922002B00109011910C980D99DE
S2140054F015F0FAF822002B001290139108980999DB
S21400550015F0F2F822002B00009001910E980F99EA
S21400551015F0EAF822002B000890099114981599C6
S21400552015F0E2F822000A900B912B0030003900AB
S21400553015F0DAF8129A139B06000F0010981199CE
S21400554014F0C2FD129A139B0490059110981199BD
S21400555015F0FEFC009A019B04000D0010001900D7
S21400556015F0F6FC02000B002000290015F070FF75
S214005570049A059B189019911000190015F0E8FC84
S21400558002000B003000390015F062FF0022029086
S214005590039104980599E04B15F0DAFC002214906C
S2140055A0159104980599DD4B15F0D2FC049A059BDD
S2140055B015F0CEFC32003B0015F04AFF0022060034
S2140055C00F0018981999D44B15F0C2FC049A059B45
S2140055D015F0BEFC029A039B04000D000498059982
S2140055E015F0B6FC02000B002000290014F06CFD3C
S2140055F0089A099B04000D001000190015F0A8FC7D
S21400560002000B002000290015F022FF0A9A0B9BCF
S21400561004000D001000190015F09AFC02000B00A3
S2140056202000290015F014FF0A9A0B9B1C901D9170
S2140056300098019915F08CFC089A099B1E901F9102
S2140056400098019915F084FC089A099B20902191F6
S2140056501298139915F07CFC1E9A1F9B15F0F8FE05
S214005660089A099B15F074FC0A9A0B9B04000D001F
S2140056701098119915F06CFC209A219B15F0E8FE05
S2140056800A9A0B9B15F064FC02000B002000290010
S21400569014F01AFD029A039B04000D00189819993D
S2140056A015F056FC02000B002000290015F0D0FE75
S2140056B03200239024913B003000390014F004FDA2
S2140056C0149A159B269027911000190014F0FCFCE4
S2140056D0149A159B14F0F8FC239B289029911A9392
S2140056E0249B0C930023009302931693009A029B2C
S2140056F02898299915F02CFC269A279B14F0E4FC90
S214005700009A029B15F024FC1C9A1D9B14F0DCFCEE
S21400571002000B001A980C9914F0E6FF02000B002A
S2140057200098029915F094FE009A029B0C00050062
S2140057300E9113F01FFD002862D101226400640858
S2140057405242774B2800210016F098F9002857D1CE
S2140057500122734B52422800210013F025FD002839
S2140057604ED1149815992A000E9B15F0F1FB3200C5
S2140057703B0014F0A9FC2A000E9B15F0E9FB1C9ACE
S2140057801D9B14F0A1FC2A000E9B15F0E1FB239A4A
S214005790249B14F099FC1B912591002300221B9951
S2140057A0040013F001FD1B9B2293002805D18022E4
S2140057B012069446259B63442293002200231A98DF
S2140057C00C9913F0F1FC002805D1802212069446AD
S2140057D00C9B63440C931A9A0C9B2000229913F09E
S2140057E0EDFC00280CD1169B0095013316930E9BFA
S2140057F01A9402931B9B0C93169B632B00D075E7A1
S214005800009A029B0098029915F0A2FB009A029B50
S21400581004000D000498059915F09AFB02000B0091
S2140058202000290015F014FE189A199B14F04CFC61
S21400583006000F0012981399009A029B15F008FEB6
S214005840089A099B15F084FB1E9A1F9B15F000FE14
S21400585032003B0014F048FF0022324B15F078FB74
S214005860009A04000D0010981199029B15F0F0FDA7
S2140058700A9A0B9B15F06CFB209A219B15F0E8FD0D
S21400588032003B0014F030FF0022264B15F060FB80
S2140058900F00079906000869496922002B0014F0DA
S2140058A013FC069B32001860596007993B00886914
S2140058B0C96914F009FC069B22009860D9602B0089
S2140058C02000290015F044FB320004000D003B00C8
S2140058D03000390015F03CFB02000B0020002900C8
S2140058E014F0F2FB049A059B14F0EEFB10F0CAFDD0
S2140058F0069B1861596119000798FFF7F1FC069B93
S214005900069A9861D9610023936313001800169ACB
S214005910DA632BB008E0C04600001040000008C064
S214005920FFFFEF7F0000E03FF0BDC046F8B5002364
S214005930134D040003604160C800A94201D901204C
S21400594040420DF0E1FEA0606068A84213D8C00097
S2140059500DF0DAFE0026002300276568E060AB4203
S2140059600CDAA168DA00891882180E604F600133DD
S21400597016605760F3E701204042E9E72000F8BDD3
S214005980FFFFFF0FF8B50022002304000025026188
S21400599043618261C3614668B54216DA206961696F
S2140059A0A368EF00DB191A685B6814F08DFBE368E8
S2140059B020616161A069E169DF193A687B6814F0CB
S2140059C083FB0135A061E161E6E7300016F0AAF836
S2140059D006000F0002000B002069616914F084FEC7
S2140059E0320020616161A069E1693B0014F07CFE31
S2140059F0A061E161F8BD10B504008068002801D000
S214005A000DF086FEE068002801D00DF081FE200033
S214005A1010BD0000F0B585B0141C0D0014F0BEFAE1
S214005A202249061C201C13F0C5FF041C10F03CFB8A
S214005A30071C201C10F0ACFA041C280014F0AEFA68
S214005A40051C011C381C13F0B5FF194913F030FC77
S214005A5014F084FA211C03B2301C029313F0AAFF40
S214005A60144913F025FC14F079FA391C03B2301CE3
S214005A70039313F09FFF0E4913F01AFC14F06EFA0E
S214005A80002306B2291C201C019313F093FF09493A
S214005A9013F00EFC14F062FA00B20090029B039A18
S214005AA0310005480BF09AF805B0F0BD34FA8E3C8C
S214005AB00000C8420000DC420C150020F0B591B092
S214005AC0894C20000CF0C0FA0790031E00D006E1B7
S214005AD0FF20864E864A190001334C31705493429B
S214005AE0F9D11222502130000BF0C8FC814F3868E3
S214005AF016F092F80B0000210200009130000DF025
S214005B0065FF3C687C49201C13F0D2FB7B4913F0F0
S214005B1051FF051C10F0C8FA0890281C10F038FA3F
S214005B2076490990201C13F045FF051C10F0BCFABE
S214005B300E90281C10F02CFA71490F90201C14F0BF
S214005B4059F86E4913F036FF041C10F0ADFA6D4993
S214005B5013F030FF051C201C10F01AFA694913F0E8
S214005B6029FF6949041C089813F024FF674913F0BD
S214005B709FFB14F0F3F9644903B20998089313F0F5
S214005B8019FF634913F094FB14F0E8F95F4903B278
S214005B90281C099313F08CFB14F0E0F95C4903B25F
S214005BA0201C0A9313F084FB14F0D8F903B20B936D
S214005BB0002303930B9B6E2202930A9B642101939E
S214005BC0099B30000093089B0BF07BF9291C4F487B
S214005BD014F010F814F0C2F9211C03B24C480C93D0
S214005BE014F008F814F0BAF903B20D9300230393E7
S214005BF00D9B6E2202930C9B64210193099B30003F
S214005C000093089B0BF05DF93F490E9813F0D2FE07
S214005C103E4913F04DFB14F0A1F93B4904B20F982E
S214005C2013F0C8FE3A4913F043FB14F097F900232B
S214005C3001930B9B05B2210000932A000A9B3000BB
S214005C400AF0CCFF002301930D9B210000932A004D
S214005C500C9B30000AF0C2FF00236E2200936421E2
S214005C6050333000B4240BF065F86400079814F045
S214005C7095F9396813F01CFB5021021C4120FFF7F0
S214005C80C9FE079B1E330793A342EFD100249F2330
S214005C90164D0494039402945B01EB5E1D4E019333
S214005CA00822AB5E1C4F2200009339002300300010
S214005CB000F0D0FE3000012101F07CF89F23049410
S214005CC0039402945B01EB5E390001930822AB5EFD
S214005CD0300000932200230000F0BCFEF0E6200017
S214005CE00CF012FA11B0F0BD1C0D00200C150020AF
S214005CF0881300008C1000200000344334FA8E3CD9
S214005D000000B442000020410000A0420000C8424B
S214005D100000DC422C1500205815002070B500212C
S214005D20051C13F07BFA431E9841012440420440B0
S214005D300021281C13F05EFA431E9841201A14F026
S214005D402DF970BDF0B54D1E060028000C00684306
S214005D5087B08000049216F0A1F9A30003930027F1
S214005D60F31801260193A6421CDA00230293A342ED
S214005D7011D004998B420BD00299591AC9198A007E
S214005D800592019A99005158059A11500133EEE791
S214005D9001210291FAE7019A039B0136D3187F1975
S214005DA00193E0E707B0F0BDF0B5070085B00E1E22
S214005DB007DC1B48FE2417F001FBA405201C05B0D9
S214005DC0F0BD012901D10468F8E700250024154B31
S214005DD00193802212069446019B2A0063443100F8
S214005DE038000193FFF7AEFFAB00F9580290019818
S214005DF013F0E0FD711E03900298FFF7D5FF011C1B
S214005E00039813F0D7FD011C201C13F051FA01353E
S214005E10041C029816F04CF9AE42DAD1CEE7C04622
S214005E20EC420200000080BFF0B589B00691110078
S214005E30019207930290FFF7B7FF0021039013F03B
S214005E40D3F9061E35D1019B9B001800009316F06F
S214005E5025F90500009B029FC3180593019BB342DA
S214005E6021DD3B0000241A682A51069A1259043490
S214005E701A600492009A9B18A242F4D101990298E3
S214005E80FFF792FF039913F0A5FB079BB20098500B
S214005E902B003A0002CB1160059912199942F9D1EC
S214005EA001360437DAE7280016F002F9002009B0B8
S214005EB0F0BD01204042FAE770B5049C05000020C2
S214005EC0052B21D8180012F0C5FF0320252B2E31F4
S214005ED0A40028590D591459011C13F06BFD291CF8
S214005EE0061C281C13F066FD011C301C13F0E0F99C
S214005EF0211C051C201C13F0DBF9211C13F05AFD95
S214005F00011C281C13F076FE70BDA40028591559F4
S214005F100C59E1E7A4006059011C13F0C9F9F3E736
S214005F20A4006058F8E7A400A058F5E7FE20800516
S214005F30EAE7F0B5C3B00C900D910E92002118223E
S214005F4012A80F93489F16F004F9002307930893AE
S214005F5009930A9305930B9300230493049A0F99CD
S214005F608A4274DA0C9B95005B59191C181C069320
S214005F7013F020FD0D9B041C5B59191C181C039381
S214005F8013F018FD211C13F093F90E9B10905E5928
S214005F90311C301C13F00EFD011C1190109813F0EC
S214005FA087F9311C051C301C13F082F9311C13F0E4
S214005FB001FD011C109813F01DFE291C13F0FAFCBD
S214005FC0011C079813F074F911990790201C13F020
S214005FD06FF90399041C081C13F06AF9039913F06F
S214005FE0E9FC011C201C13F005FE291C13F0E2FC42
S214005FF0011C089813F05CF9291C0890281C13F063
S21400600057F9041C011C069813F0D4FC011C0998CF
S21400601013F04EF9211C0990039813F0CBFC011CD9
S2140060200A9813F045F9211C0A90301C13F0C2FCA4
S214006030011C059813F03CF9291C05900B9813F0E9
S21400604037F9049B0B9001330493012386E7002B5A
S2140060500BD0079B1293089B1393099B14930A9BE0
S2140060601593059B16930B9B179300251EAC902249
S2140060700021200016F06DF805940F9B00249D4229
S21400608026DA1C266643059B03949E1923000E9A67
S2140060900D9900950C98FFF70FFF039B0E9A04903E
S2140060A00D9900950C98FFF707FF011C049813F054
S2140060B081FC011C306813F0FBF8039B01C601331A
S2140060C00393062BE2D10134062CDAD10135D4E74E
S2140060D018252A0062431EABA10059189A180023FF
S2140060E0581CA34206D02E005E438E599B00D65005
S2140060F00300F5E704000628EBD11822002118A8B3
S21400610016F027F818AB220012A91EA8FFF78CFE7F
S214006110061E31D1189D199C281C211C13F0C8F8A6
S214006120FE21890513F066FD211C3860201C13F043
S214006130BFF8011C281C13F05DFDFE21890513F035
S21400614059FD291C7860281C13F0B2F8011C201C8D
S21400615013F050FDFE21890513F04CFD0023FB6073
S2140061603B617B611A9BB860BB611B9BFB611C9B00
S21400617003933B621D9B7B62300043B0F0BD000082
S214006180F0B504000D0016009DB012AF28220021C5
S2140061903800049315F0DDFF0097049B32002900B9
S2140061A02000FFF7C6FE0490002800D0BDE0129E37
S2140061B00021301C13F018F8002800D0C5E07D68D8
S2140061C00021281C13F010F8002800D0BDE0BC68A1
S2140061D00021201C13F008F8002800D0B5E080222B
S2140061E0BB6912060593059B311C981813F0F2F94B
S2140061F08022FB6912060793079B291C06909818B5
S21400620013F0E8F980223B6A12060993099B211CC9
S2140062100890981813F0DEF980231B06F618ED1880
S214006220E3180B930B9B06990A9005980E930C9611
S2140062300D9513F0BFFB796A13F03AF80899041C21
S214006240079813F0B7FB011C201C13F031F80A99CD
S214006250041C099813F0AEFB011C201C13F028F850
S214006260059015F0D9FC02000B003A4817F02CF800
S2140062700599301C13F0AEF915F0CEFC06000F00A1
S2140062800B98059913F0A6F915F0C6FC0290039139
S2140062900599281C13F09EF915F0BEFC32000090FC
S2140062A001913B002C4817F00FF80C2204990FA818
S2140062B015F04FFF049CA300A20007930CABD55823
S2140062C0281CFFF72BFD011C061C281C13F072FB74
S2140062D0071C15F0A1FC214A214B12F065FF00288F
S2140062E026D00599381C13F075F910F083F9011CB7
S2140062F0301C13F06FF90FABA200D0500134032C02
S214006300D9D1239B0F9A1A60109B0593059A239B5D
S2140063105A60119B0593059A239B9A60229B069AC6
S2140063201A60089A5A600A9A9A6004981DB0F0BDDE
S214006330281C15F071FC0B0002002100094816F01D
S214006340C3FF01235B420493D8E701235B42049317
S214006350EBE7C04608430200154302008DEDB5A0EA
S214006360F7C6B03E2D43020010B50368DB689847B9
S21400637010BDF0B587B00CAC0025645FA4460DAC2C
S2140063800025655F0EAC26780FAC277810AC247815
S2140063900397049464460094046802960195246961
S2140063A0A04707B0F0BDF0B591B016AC0025645F0D
S2140063B00B93A44617AC0025645F06AB0C9418AC90
S2140063C00025645F0D9419AC0025645F0E941AAC2A
S2140063D00025645F0F941BAC0025655F1CAC267817
S2140063E01DAC27784124E418E47F079708940F9C97
S2140063F0069604940E9C059503940D9C0B9B0294A4
S2140064000C9C01946446009404686469A04711B02B
S214006410F0BD7047F0B591B01A0016AB00241B5FB4
S21400642017AC0025645F0B93A44618AC0025645F88
S21400643006AB0C9419AC0025645F0D941AAC0025CD
S214006440645F0E941BAC0025645F0F941CAC0025A3
S214006450655F1DAC26784124E418E77F4524E418E0
S214006460E47F002911D008940F9C079704940E9C93
S214006470069603940D9C059502940C9C0B9B019428
S2140064806446009404686469A04711B0F0BDF0B596
S21400649087B01A000CAB00241B5F0DAC0025645FB0
S2140064A0A4460EAC0025655F0FAC267810AC2778A6
S2140064B011AC2478002908D004946446009404683B
S2140064C00397029601952469A04707B0F0BDF0B582
S2140064D015001E0004008DB012AB00229B5E0891D2
S2140064E0069313AB00229B5E079314AB1B780993AD
S2140064F015AB1B780A9316AB1B780B930B9A0368A5
S21400650004920A9A0392099A0292079A0192069AAC
S21400651000921F692A003300B847079A2368009242
S2140065201F6C3200069B29002000B8470B9A236890
S21400653004920A9A08990392099A20000292079AEE
S2140065400192069A00921F692A003300B8470DB0E0
S214006550F0BDF0B595B00E931AAB0D9200229B5E7F
S21400656004000F931BAB00229B5E0C9110931CAB98
S21400657000255D5F1DAB00269E5F1EAB00229B5E66
S2140065800A931FAB00229B5E0AAA0B9320AB1B78D4
S214006590119321AB1B78129341239B18DB7F139337
S2140065A0139A03680892129A03960792119A069213
S2140065B00B9A05920A9A04920295109A01920F9AE3
S2140065C000925F690D9A0E9BB8470B9A236800925B
S2140065D01F6C32000A9B29002000B847139A2368D4
S2140065E00892129A03960792119A029506920B9AAF
S2140065F00C9905920A9A20000492109A01920F9A1A
S21400660000925F690D9A0E9BB84715B0F0BDF0B5C5
S2140066101D0004008FB014AB00269E5F15AB0A92D7
S21400662000229B5E0991079316AB00229B5E08939F
S21400663017AB1B780B9318AB1B780C9319AB1B7816
S2140066400D930D9A036805920C9A009604920B9A85
S2140066500392089A0292079A01929F690A9A2B005F
S214006660B847089A236800921F6C3200079B2900DF
S2140066702000B8470D9A236805920C9A009604925B
S2140066800B9A09990392089A20000292079A01929F
S2140066909F690A9A2B00B8470FB0F0BDF0B597B0C7
S2140066A00F931CAB0E9200229B5E040010931DAB52
S2140066B000229B5E0D9111931EAB00229B5E1293EF
S2140066C01FAB00255D5F20AB00269E5F21AB00223E
S2140066D09B5E0B9322AB00229B5E0CAA0C9323AB13
S2140066E01B78139341239B18DB7F149345239B1839
S2140066F0DB7F1593159A03680992149A0892139AE9
S21400670007920C9A06920B9A0592129A0496029297
S214006710119A03950192109A0092DF690E9A0F9BC8
S214006720B8470C9A236800921F6C32000B9B290016
S2140067302000B847159A23680992149A049608927E
S214006740139A039507920C9A0D9906920B9A2000BD
S2140067500592129A0292119A0192109A0092DF699B
S2140067600E9A0F9BB84717B0F0BD000070B5002614
S21400677000258AB004000EA88657012006950595C8
S214006780C83504950395074D08900790019002952B
S2140067900096200000F010FC2000034B0833236016
S2140067A00AB070BD80969800B0430200F0B50E00A7
S2140067B01F000400F508F619072785B00AAB1B88EA
S2140067C011210192039300F0C1FC0321200000F088
S2140067D0EDFCEDB24421200000F0B8FC013E29009B
S2140067E0200000F0E3FCF11739408919C910C9B23E
S2140067F0200000F0DBFC4521200000F0A7FC6B46E3
S2140068001F792000390000F0D1FC019B20001B0AF4
S2140068101900029300F0CAFC019A039B9446634455
S2140068201E001549013E314003D5144B013919436A
S21400683001312000C9B200F0B9FCF117C9B28919BC
S21400684009122000C9B200F0B1FC20004E2100F071
S2140068507DFC2900200000F0A9FC20004F2100F05C
S21400686075FC3900200000F0A1FC0299200000F021
S2140068709DFC05B0F0BDC046FF00008000FFFFFF96
S21400688070B5C51DEB7F0400002B0FD1222100F050
S2140068905DFCC021200000F089FC2021200000F0D3
S2140068A055FC50220349200000F00EFC0123EB7734
S2140068B070BDC0469C43020010B50400222100F0C3
S2140068C045FC2000C32100F071FC2000202100F0D0
S2140068D03DFC20005022044900F0F6FB0023E21D98
S2140068E00834D377E37710BDA543020010B5FFF751
S2140068F0E3FF10BD10B50400FFF7DEFFA37B7F2B80
S2140069000AD82000102100F021FC2000012100F010
S2140069104DFC01232834237010BD030013B5283323
S2140069201B780400002B01D000F094FB200001210E
S21400693000F00CFC2000C72100F038FC20000021ED
S21400694000F034FC2000002100F030FC20000C2178
S21400695000F0FCFB2000D72100F028FC2000D62108
S21400696000F024FC20009D2100F020FC20002C21BB
S21400697000F0ECFB20009B2100F018FC20003A21E0
S21400698000F0E4FB20001A2100F010FC20003B2160
S21400699000F0DCFB2000082100F008FCC8230022E1
S2140069A0009311002000FFF701FF13BD10B504008F
S2140069B0FFF7B3FF1F220549200000F019FC200056
S2140069C0FFF75EFF00230834E37710BD5E43020046
S2140069D010B50400FFF7A1FF1F220549200000F0B4
S2140069E007FC2000FFF74CFF01230834E37710BDB7
S2140069F07D430200030073B50833DB7F04000E00FE
S214006A00002B01D1FFF7E4FFC823002200931100FA
S214006A102000FFF7CBFE2421200000F097FB044D5A
S214006A2031002000013D00F0C1FB002DF8D173BD00
S214006A3088130000002210B5431DDA77831DDB7F24
S214006A40934203D003689B68984710BDFFF7D2FFB8
S214006A50FBE70000F0B5424C1D00A544414B170073
S214006A6004AA9B1800241C5F3F4B05919B1800222C
S214006A709B5E06000393431DDB7F002B03D0036859
S214006A80FF21DB68984701200CF004FE374B3B40A3
S214006A9004D50822013B5242134301330721E21D6D
S214006AA0D4170C40FF1AA418BFB2E4103BB2E4009F
S214006AB024B21A1C002B00DA00221B1912B2C72BB4
S214006AC002DDC824E41B24B2039BEB18C72B03DDAE
S214006AD0C8235B1B1BB2039393B2DF1BE41BA4B259
S214006AE0049323B2002B37DD2F1C002D00DA00277D
S214006AF0039BBFB27D1B5D1BADB22BB2002B2BDD03
S214006B0033000833DB7F002B02D13000FFF760FF35
S214006B102300002400953A0004993000FFF746FE53
S214006B202421300000F012FB114B06AD059A125DD1
S214006B30625501349C42F9D1002126200EF074FCE7
S214006B40220029000B480DF052F8262001210EF0F5
S214006B506BFC01200CF09EFD074B9D44F0BDC0462B
S214006B605CECFFFFA8130000AC13000007000080D9
S214006B70881300009C310020A4130000F0B591B0EB
S214006B80049316AB059200229B5E0390069317AB08
S214006B9000229B5E0EAA079318AB00241C5F19AB5D
S214006BA000255D5F1AAB00269E5F1BAB0027DF5FEC
S214006BB01CAB1B780C910D931DAB1B780E932123F9
S214006BC09B18DB7F0F9303000533DB7F002B03D07E
S214006BD00368FF21DB68984701200CF05BFD069BED
S214006BE0002B00DAC4E0079B002B00DAC0E0002E82
S214006BF000DABDE0002F00DABAE0059B002B00DAD1
S214006C00B6E0069B059A934200DCB1E0049B002B9D
S214006C1000DAADE0079B049A934200DCA8E0991ADC
S214006C20B94200DD39005348204004D50823013816
S214006C305B4218430130201A0724059B069A80B24F
S214006C40A34307B2D31AB34200DD3300DE1DF317A9
S214006C5023409B19DB10DB001BB23A1C002F00DA26
S214006C60002212B22E1C002D00DA0026FF1836B2C3
S214006C70C72F02DDC8231B1A1BB26C18C72C64DC96
S214006C8092B2101AB6B2751B089282B20992AAB2D4
S214006C900A92099A09B29C1A0A9BA4B2C91A8DB222
S214006CA02BB227B20B93002F62DD002B60DD039B17
S214006CB00833DB7F002B02D10398FFF789FE3200F2
S214006CC02300009508990398FFF770FD2421039888
S214006CD000F03CFAFB100893059B0721DC106B467E
S214006CE024229B5E0026DA170A40D2186B46D21082
S214006CF0A21828241C5F049B069DDB436D18079989
S214006D001B1BED10ADB25B186B4392B2D3189BB24F
S214006D100593049B1C196C431419A4B20027089A07
S214006D203BB2934216DA0E9B002B11D0059BDB1963
S214006D300C9A1BB2D15C0D9B002B01D0C943C9B283
S214006D40039800F033FA0137E9E7C821491B97E7B3
S214006D50E319EDE7059B01365B1B9BB205930B9B86
S214006D602C1936B2A4B2B342D8D101200CF092FC52
S214006D7011B0F0BD0700008010B50400222100F01D
S214006D80E5F92000C42100F011FA2021200000F0CF
S214006D90DDF9002009F046FC96222000D2000449C6
S214006DA000F092F9FF21200000F0D0F910BDC04697
S214006DB04443020037B50400002907D0C823026800
S214006DC00093156C00221100A84737BD0300083356
S214006DD0DB7F002B01D0FFF7E9FD2000FFF7CCFF9B
S214006DE000230634E377F0E710B50400222100F014
S214006DF0ADF92000042100F0D9F92021200000F090
S214006E00A5F9002009F00EFC962220005200044945
S214006E1000F05AF9FF21200000F098F910BDC04696
S214006E2051430200F0B50027431DDF7785B0831D70
S214006E300393DB7F04000D00C826BB4239D0FFF762
S214006E40B5FD330000963A0039002000FFF7AEFC8F
S214006E502421200000F07AF9254E29002000013E6A
S214006E6000F0A4F9002EF8D12000FFF785FF039B61
S214006E70DE7723000833DB7F002B02D12000FFF7EC
S214006E80A7FDC8230022009311002000FFF78EFC08
S214006E902421200000F05AF9154E29002000013E5A
S214006EA000F084F9002EF8D12000FFF79DFF05B012
S214006EB0F0BD03000833DB7F002B01D1FFF788FD10
S214006EC0002200961100C8232000FFF76FFC242143
S214006ED0200000F03BF9064E29002000013E00F09D
S214006EE065F9002EF8D12000FFF77EFFC1E7C04607
S214006EF088130000F0B5050085B00AA80024045FDA
S214006F00A81DC07F002806D02B680021DB6B280058
S214006F10984705B0F0BD0E002248064004D5082765
S214006F20013E7F423E430136891B89B20EB2304095
S214006F3004D5082701387F42384301301B1A1BB29C
S214006F40301C002E00DA002000B2171C002A00DADF
S214006F500027F6183FB2C72E02DDC8235B1A1BB205
S214006F601619C72E02DDC824A41A24B286B2891BBD
S214006F70CB189BB203932B00BFB20833D21BDB7F28
S214006F801419A4B2002B02D12800FFF721FD280017
S214006F900094039B3A003100FFF708FC2800FFF737
S214006FA023FFB6E70700008010B5036801225C687F
S214006FB00023A04710BD0000F0B585B00AAC2478C9
S214006FC005AD64B200940BAC2478837364B201946C
S214006FD00DAC24886B46A4460EAC27880FAC2478EC
S214006FE01B78029410AC2478C373039411AC2678F3
S214006FF015246419E57F154C6B4608340460644616
S21400700084806C461B79247A037404720C9B6C464D
S21400701043610023247B42730D4A0173C780447288
S2140070208672C5720376C261821CD377421CD37700
S2140070300122411DCA77811DCA77C21DD37701324E
S214007040D3772032137005B0F0BDC0461C44020052
S21400705000093D0070B504000E202056002818DBFD
S214007060657E002D16D000210EF0DEF90E200121DF
S21400707020560EF08BF914200CF00CFB0E2002218B
S21400708020560EF083F9C8200CF004FB00232834A9
S214007090237070BD01210EF0C7F90E200121205685
S2140070A00EF074F914200CF0F5FA0E202900205684
S2140070B00EF0BAF914200CF0EDFA0E20012120563D
S2140070C00EF0B2F9DFE7000070B5C37B04000E00D7
S2140070D07F2B31D801200CF0DDFA0CF0ABFA05005E
S2140070E00F2020560EF0BEF91023E35698420CD11E
S2140070F001200CF0CFFA0CF09DFA6369401B984211
S214007100EED90F490F480CF02DFB002E13D0237E2E
S214007110002B10D00CF08EFA0A4C451B31002000D4
S2140071200CF00EFB084920000CF00AFB0A2229008E
S21400713020000CF085FB70BD10000CF0ABFAFAE7EF
S21400714008440200CC3000201644020070B5164DEC
S2140071500400026A0E00C16928000EF079FB0D20BB
S2140071602056002802DB00210EF05EF90C20205687
S214007170002802DB00210EF057F9310028000EF03F
S21400718099FB0C202056002802DB01210EF04CF95A
S2140071900D202056002802DB01210EF045F92800BC
S2140071A00EF074FB70BDC0460030002070B50F4D69
S2140071B00400026A0E00C16928000EF049FB0C208C
S2140071C02056002802DB00210EF02EF931002800A0
S2140071D00EF070FB0C202056002802DB01210EF07A
S2140071E023F928000EF052FB70BDC0460030002088
S2140071F0F7B51D4D040001920F00026AC169280010
S2140072000EF026FB0D202056002802DB00210EF093
S2140072100BF90C202056002802DB00210EF004F9A2
S214007220397828000EF046FB0D202056002802DB99
S21400723001210EF0F9F80026FF22019B3240013BA7
S21400724001369A4204DAB95D28000EF033FBF3E704
S2140072500C202056002802DB01210EF0E5F828005D
S2140072600EF014FBF7BDC0460030002010B5040039
S2140072700530C277A01DC27763760023E21DD37760
S2140072800132D37720321370994204D015480CF09F
S21400729007FF012323760C202056002807DB012158
S2140072A00EF0C2F80C20012120560EF06FF80D20CB
S2140072B02056002807DB01210EF0B6F80D2001212C
S2140072C020560EF063F82000FFF7C4FE0F2020566D
S2140072D0002802DB00210EF059F803480EF090FA61
S2140072E010BDC046CC3000200030002010B5124C37
S2140072F020601248016012490A60124A124913605F
S214007300029A124B1A60039A114B1A60FE22114B16
S21400731092051A6000230B600F490B600F490B6043
S2140073200F490A600F4A13600F4A13600F4A136032
S2140073300F4A104B1A6010BD680900206C09002027
S21400734070090020780900209809002074090020A0
S214007350A00900209C090020940900209009002024
S2140073608C0900208809002084090020800900205C
S2140073700050C3477C090020F0B595B01293CB4B64
S214007380171C1B681190081C191C089312F032FC7D
S214007390391C12F00FFBC64B196811F089FF0990D3
S2140073A0011C381C12F006FBC24B196811F080FF56
S2140073B0391C0A90381C12F0FDFAFC2189050B9046
S2140073C012F0F8FABC4B041C1B68381C0493BB4B29
S2140073D01E68BB4B1B680293BA4B02991B68059349
S2140073E012F0E8FAB84B196811F062FF0599051C0F
S2140073F0201C12F0DFFA011C281C12F0FBFBB34B1A
S2140074000C901B68201C0693B14B1B68191C039339
S21400741012F0D0FA0699051C381C12F0CBFAAD4BC8
S214007420196811F045FF291C12F0E4FB059901903C
S214007430381C12F0BFFA0D90011C029812F0DAFB0D
S21400744003990E90381C12F0B5FA0F90011C06989E
S21400745012F0D0FB0D990790301C11F029FF291C63
S21400746012F0C8FB9C4B04991B680D90381C0693C1
S21400747012F0A0FA994B196811F01AFF311C051C7E
S214007480201C12F097FA011C281C12F0B3FB0C9972
S214007490051C381C12F08EFA011C281C11F008FF7F
S2140074A00199051C201C12F085FA011C281C12F0FC
S2140074B0A1FB211C051C201C12F07CFA069912F078
S2140074C079FA011C281C11F0F3FE211C0290381CCE
S2140074D012F070FA069912F06DFA0199051C381C24
S2140074E012F068FA011C0C9812F084FB291C11F0AB
S2140074F0DFFE311C0C90381C12F05CFA011C04985C
S21400750012F078FB0E99061C381C12F053FA011C78
S214007510301C11F0CDFE0799061C201C12F04AFA0A
S214007520011C301C12F066FB291C11F0C1FE6C4BCE
S21400753010901968039811F0BBFE0A9913901198E1
S21400754012F058FB674B051C1968029811F0B0FE44
S214007550011CFE20800512F03DF8061C011C029856
S21400756012F028FA311C041C109812F023FA311C71
S21400757003900D9812F01EFA211C0490281C12F09D
S21400758019FA0A9911F094FE4A4B039918600A906A
S214007590281C12F00FFA099911F08AFE444B049940
S2140075A01860061C281C12F005FA089911F080FED7
S2140075B03E4B0A9A1860129B211C1A601A9B1E608A
S2140075C0029812F0F7F9011C029812F013FB434BD5
S2140075D0061C1860211C0C9812F0ECF9011C0C9883
S2140075E012F008FB384B051C1860211C019812F09D
S2140075F0E1F9011C019812F0FDFA364B041C1860E4
S214007600311C039812F0D6F9011C109812F0F2FA09
S214007610294B07991860381C12F0CCF9011C0E98FB
S21400762012F0E8FA0699071C0B9812F0C3F9011C31
S214007630381C11F03DFE291C071C039812F0BAF9FD
S214007640011C381C12F0D6FA1D4B211C186003983A
S21400765012F0B0F9011C079812F0CCFA1B4B311C43
S2140076601860049812F0A6F9011C0D9812F0C2FAE0
S214007670124B0F991860059812F0BCFA291C061CCC
S214007680049812F097F9011C301C12F0B3FA0D4B57
S214007690211C1860049812F08DF9011C139812F042
S2140076A0A9FA0B4B186015B0F0BDC046A009002023
S2140076B07409002078090020900900208409002021
S2140076C08C090020800900209809002088090020E5
S2140076D07C090020940900206C0900209C090020E9
S2140076E070090020680900200223024A11680B4333
S2140076F01360704710E000E070B5104C05002000E5
S21400770001F048FA411D200001F0BCF90121002DCE
S21400771005D00221012D02D0022D03D10321200025
S21400772001F05CF82000064901F06CF80021012207
S214007730044B08001A6007F0EFFE70BDA809002091
S214007740E9760000E80D002010B50EF053FF011C8E
S214007750FE20800511F03EFF10BD0000F0B50700CA
S2140077601C1C8068FB6895B0029380231B06C0181B
S2140077700192009112F01EF90199061C029812F06F
S21400778019F9011C301C12F035FA3D69061C211C43
S214007790281C12F00FF9011C301C12F02BFAFC21E9
S2140077A0890512F007F97968FB680490009802933F
S2140077B012F000F90299061C201C12F0FBF8011CBE
S2140077C0301C11F075FD3D69061C291C019812F04D
S2140077D0F1F8011C301C12F00DFAFC21890512F09C
S2140077E0E9F87968BE683B6905900198029312F043
S2140077F0E1F8311C051C201C12F0DCF8011C281CCA
S21400780012F0F8F90299051C009812F0D3F8011C42
S214007810281C11F04DFDFC21890512F0CBF8796883
S2140078200690201C12F0C6F8BD68041C291C01989E
S21400783012F0C0F8011C201C11F03AFDFE68041C72
S214007840311C009812F0B6F8011C201C12F0D2F978
S214007850FC21890512F0AEF8002107901A9811F065
S214007860C3FC00280CD000211B9811F0BDFC00289A
S21400787006D000211C9811F0B7FC002800D091E13A
S2140078801A99081C12F096F81B99041C081C12F092
S21400789091F8011C201C11F00BFD1C99041C081CFF
S2140078A012F088F8011C201C11F002FDFFF74CFFB7
S2140078B0041C011C1A9812F07DF8211C00901B98DD
S2140078C012F078F8211C01901C9812F073F80B90B7
