:1020000000800020B16E00009B6E00009B6E0000FF
:1020100000000000000000000000000000000000C0
:102020000000000000000000000000009B6E0000A7
:1020300000000000000000009B6E0000096F00001F
:102040009B6E00009B6E00009B6E00000923000049
:102050008D8400009B6E00009B6E00009D6E000052
:102060009B6E0000A1A500009B6E00009B6E00000F
:1020700079A500009B6E0000B1A500009B6E0000DA
:102080009B6E00009B6E00009B6E0000E121000033
:10209000000000009B6E00009B6E00009B6E000025
:1020A0009B6E00009B6E00009B6E00009B6E00000C
:1020B00010B5064C2378002B07D1054B002B02D01E
:1020C000044800E000BF0123237010BD300500204C
:1020D00000000000183B0100084B10B5002B03D096
:1020E0000749084800E000BF07480368002B00D1FB
:1020F00010BD064B002BFBD09847F9E7000000000D
:1021000034050020183B01002805002000000000D5
:10211000C122254B2549920010B51A600A004B7860
:10212000DB09FCD12249234B19605378DB09FCD130
:102130002149224B19805378DB09FCD10422204B22
:1021400019880A431A80DA7BD209FCD1FF211D4A83
:102150001170DA7BD209FCD1FF211B4A1170DA7BA6
:10216000D209FCD1FF21194A1170DA7BD209FCD1C6
:10217000C424C0201649A4000A5900061202120AFB
:1021800002430A51802212030A6031211148027869
:102190000A430270104A11701988104A0A431A80C3
:1021A000DA7BD209FCD110BD080C0040000C0040C5
:1021B00004070300040C00401C440000020C004013
:1021C0000030004218300042193000421430004202
:1021D00000E100E00E3000420D3000420207000036
:1021E000F7B500211B2006F053FA3C4D3C212E6828
:1021F00030000AF01BF83A4C00292CD101312000A4
:1022000003F0D4FF0122374B1A60374C374B22685A
:102210001B6801209A4200DB002001F017F82B68B0
:1022200001332B60236801332360314B22681B6824
:102230009A4201DD002323602E4803F087FD01212F
:102240001B2006F025FA20222B4B1A701F3A1A7019
:102250000F321A70F7BD701E3C2109F0E7FF00290C
:1022600007D12000023103F0A1FF200003F000FE9F
:10227000CBE7200003F08FFF204E0100300004F078
:1022800003F9200003F0F4FD300004F00FF9010021
:10229000200003F02DFE00900191300004F013F9AE
:1022A0000100200003F024FE06000F0000980199B1
:1022B0000CF0C6FB3900041C30000CF0C1FB011C03
:1022C000201C0AF0B7FB0E4B0E49186018680AF084
:1022D00091FA0AF04BFD00F0E3FF96E7500500206D
:1022E000F80500204C050020C0050020BC0500209A
:1022F000C4050020E80500200E30004280060020C2
:10230000140900200000C842044B10B51B68002BC4
:1023100000D098470122024B1A7210BD54050020CC
:1023200000140040037810B5002B0BD03F24064B5F
:1023300021401A690800A2431100014319619A7AE9
:10234000D209FCD110BDC046001400400378002B18
:102350000BD03F20054B08401A6905498001114008
:10236000014319619A7AD209FCD1704700140040E8
:102370003FF0FFFF0378002B0BD01F20054B0840D8
:102380001A69054900031140014319619A7AD2097B
:10239000FCD1704700140040FF0FFEFF70B516001F
:1023A000027804000D00002A0AD01900FFF7BAFFD6
:1023B00031002000FFF7CAFF29002000FFF7DAFFF5
:1023C00070BD00000378002B0BD01F20054B084088
:1023D0001A69054940041140014319619A7AD209EA
:1023E000FCD1704700140040FFFFC1FF0378002BB1
:1023F0000BD00F20054B08401A6905498005114094
:10240000014319619A7AD209FCD170470014004047
:10241000FFFF3FFC0378002B09D0054A88061369AB
:102420009901890901431161937ADB09FCD1704755
:102430000014004070B51D00037804001600002B46
:1024400009D0FFF7BFFF31002000FFF7CFFF2900C1
:102450002000FFF7DFFF70BD094B0A4A9A605A78E7
:1024600052B2002AFBDB084A5A605A7852B2002A5C
:10247000FBDB064A5A805A78D209FCD17047C04625
:10248000000C00400204000002051100044200009C
:102490000378002B05D0034B034A5A809A7AD2095D
:1024A000FCD17047001400400080FFFF10B5FFF71B
:1024B000EFFF024B18698006800E10BD001400402B
:1024C00010B5FFF7E5FF024B18690005800E10BD3F
:1024D0000014004010B5FFF7DBFF024B1869C00382
:1024E000C00E10BD0014004010B5FFF7D1FF024B25
:1024F00018698002C00E10BD0014004010B5FFF72F
:10250000C7FF024B18698001000F10BD0014004086
:1025100010B5FFF7BDFF024B1869800E10BDC04615
:10252000001400400221044B1A888A431A809A7AC8
:10253000D209FCD17047C046001400400222044B6F
:1025400019880A431A809A7AD209FCD17047C0468A
:10255000001400400122044B19880A431A809A7A19
:10256000D209FCD17047C046001400400121044B41
:102570001A888A431A809A7AD209FCD17047C046D9
:10258000001400402023F7B50026294A0F00916966
:1025900005000B439361274A274B284C9A82B74288
:1025A00014D1274B1A7870231A4209D13E000DE04E
:1025B000002E39D0019B2361A37ADB09FCD133E0E3
:1025C00023881B07F2D50126236901932800FFF712
:1025D00043FF2800FFF7A6FF2800FFF7BBFF638833
:1025E000184A13406380184B2380A37ADB09FCD17F
:1025F000C021164A08331360890053581B021B0A76
:1026000053500123E27913430722E371237F93435D
:102610002377A37ADB09FCD12800FFF78FFF28007E
:10262000FFF7A4FF002FC3D001232B70F7BDC046D6
:1026300000040040CE0600000008004000140040E6
:1026400038040040FFBFFFFF080A000000E100E07F
:102650000022014B1A7070475805002070B50625FE
:102660003A4B3B4A9D601A603A4A3B4C5A603B4A9F
:1026700086B01268DA603A4B3A4A1A6005229A60CC
:10268000394A5A60394A1268DA60394B394A1A6055
:1026900003229A60384A5A60384A1268DA60384B26
:1026A0002360384B18680AF081FB374909F0B2FE05
:1026B0000222011C684606F03CF9344E684631009F
:1026C00006F070F921680F223C316846002306F0BD
:1026D00083F92F4B18680AF069FB2B4909F09AFE21
:1026E0000222011C03A806F024F903A9684606F09B
:1026F000F6F803A806F060F83100684606F052F9D3
:10270000216868464B3100230F2206F065F9082343
:10271000A360204B204A6360204B68461B68E3603F
:102720001F4B1A601F4A9D605A601F4A1268DA6088
:102730001E4B1F4A9D601A601E4A5A601E4A12684C
:10274000DA6006F039F806B070BDC046AC0500206E
:10275000000000206C0200207C05002068020020A0
:102760005C05002060000020AB0000205C00002021
:102770006C050020C0000020ED000020BC000020FF
:1027800000010020880200200000C842100E010055
:102790008C020020780100208C010020FC00002029
:1027A0008C050020E6010020880100209C05002007
:1027B000FC01002056020020F80100200023F0B5A3
:1027C000060087B00393C82300225C4C5C4D1100C7
:1027D00000932000019501F006F8202700236622CF
:1027E00001930021C8332000009700F0FCFF002374
:1027F0001E2200930021C833200000F0A3FF002315
:102800001F2200930021C833200000F09BFF00230B
:102810003A0000930021C833200000F093FF1422F7
:102820000A21200001F08CFA7168200004F00CFCF1
:1028300005950027B3680493039B0499981EC0195B
:1028400009F0F4FC0D1E01DA049BCD18022F15D1FE
:102850003B49200001F077FA7C220A21200001F098
:102860006FFA0F21694333682000591804F0ECFB1C
:102870000021200001F067FA0137DBE77A013C32E2
:1028800012B20A21200001F05BFA0F235D43336886
:1028900020005919013704F0D7FB052FCAD10023B6
:1028A00000220193C83300931100200001F084FF3F
:1028B000244D280003F048FA002803D1280003F033
:1028C00045FAF5E7059B21220193C82300210093D7
:1028D000200000F088FF00230193203300932000A4
:1028E000A8336622002100F07EFF280003F02CFAB6
:1028F00000289ED0280003F054FA002809D1039B39
:10290000013B039395D5B268039B944663440393BC
:102910008FE7012806D10398B168013009F086FCE1
:10292000039186E7022807D00338012881D803994C
:10293000300000F009F846E707B0F0BD2809002094
:10294000FFFF0000E8050020C36870B505000C001B
:10295000012B07D13448002902D0012932D1334854
:10296000FFF72CFFEB68112B11D1002C40D1304B1D
:10297000186859680BF064FF00F04AFB06002D4808
:1029800003F094FD310002002B4803F02DFBEB68AF
:10299000122B0AD1002C36D1284E306800F038FBBB
:1029A000002838DB3060FFF759FEEB68132B08D1A5
:1029B000002C32D10122224B22491A60224804F015
:1029C00055FB70BD022903D1204800F049F8C9E742
:1029D0001F480329C4D0042902D100F0CDFDC1E76E
:1029E0000529BFD100F086FD1A4803F0DAF9B9E7EE
:1029F000012CCCD1FA20400000F00AFB01000E4867
:102A000003F036FBC3E7012CCFD1134E306800F042
:102A1000FFFA0028C6DD4042C4E7012CD1D10022D4
:102A2000074B0E491A60C9E75C0500206C050020C1
:102A30008002002080060020F80500208802002087
:102A4000401D0020040E0100741D00207C050020A4
:102A50008C050020E80500208C0200200A0E0100F1
:102A60000023F0B5040087B00393C8260022814DEF
:102A7000814F1100330028000197009600F0B3FE4B
:102A8000002301933A3300935A2233000021280097
:102A900000F0A9FE00231E2200930021330028002D
:102AA00000F050FE00231F22009300213300280075
:102AB00000F048FE0023202200930021330028006C
:102AC00000F040FE14220A21280001F039F9616863
:102AD000280004F0B9FA05973A2300270493039BD2
:102AE000013B0293A368DD0FED18029B6D10D8190E
:102AF000290009F09BFB0E1E00DA4E19022F37DC6D
:102B00005C4D012F54D15C49280001F01CF974225E
:102B10000A21280001F014F90F21714323682800CD
:102B2000591804F091FA0021280001F00CF95349DA
:102B3000280001F0F7F95049280001F004F9882233
:102B40005021280001F0FCF8A3682800D90FC9180B
:102B50000F234910891959432368591804F074FA4E
:102B60000021280001F0EFF84549280001F0DAF9CA
:102B7000049B01373A339BB20493062FAFD1002355
:102B800000223C4E0193C83300931100300001F045
:102B900013FE3C4D280003F0D7F800282ED1280062
:102BA00003F0D4F8F5E7039B0293029B039393E7AA
:102BB0006B46280010229A5E0A2101F0C1F80F210D
:102BC000714323682800591804F03EFA28002B4965
:102BD00001F0A8F9049A2800143212B2502101F031
:102BE000AFF8A3682800D90FC9180F234910891915
:102BF00059432368591804F027FAB5E7C827059BFD
:102C00002122019300213B003000009700F0EBFDF2
:102C1000002301933A33009330003B005A220021F5
:102C200000F0E1FD280003F08FF8002800D153E701
:102C3000280003F0B6F8002806D1029B002BB4DA76
:102C4000A26894466344AFE7012806D10398A168BF
:102C5000013009F0EBFA0291A7E7022807D0033808
:102C60000128A0D803992000FFF76EFEFDE607B00B
:102C7000F0BDC04628090020FFFF0000180E01002B
:102C8000240E0100E8050020F0B5070085B00129F9
:102C900034D100237D497E4E7E4C89B230000393AF
:102CA0003C4001F050F8002C04DA0421013C494278
:102CB0000C43013403232425FA171A40D219921029
:102CC0006C435543039BA4B2ADB22A00210001938B
:102CD000232334321F3112B209B20093300000F0C6
:102CE00082FD0F2F19D8380009F026F90B1D252D6C
:102CF000434D57616B757F89939DA7C60021634B38
:102D0000C9E72A002A344C3221B212B2300001F055
:102D100017F86149300004F097F90021300001F004
:102D200012F805B0F0BD2A3421B24C22300001F077
:102D300007F85A49EEE72A3421B24C22300000F05D
:102D4000FFFF5749E6E721004C352DB228312A0014
:102D500009B2300000F0F4FF5249300004F074F979
:102D600021002A002C3109B2300000F0E9FF4E4961
:102D7000D0E72A002A344C3221B212B2300000F0DF
:102D8000DFFF4A49C6E72A002A344C3221B212B288
:102D9000300000F0D5FF4649BCE72A002A344C3207
:102DA00021B212B2300000F0CBFF4249B2E72A0054
:102DB0002A344C3221B212B2300000F0C1FF3E4939
:102DC000A8E72A002A344C3221B212B2300000F0B7
:102DD000B7FF3A499EE72A002A344C3221B212B298
:102DE000300000F0ADFF364994E72A002A344C3217
:102DF00021B212B2300000F0A3FF32498AE72A0064
:102E000023344C3221B212B2300000F099FF2E4927
:102E100080E72A002A344C3221B212B2300000F08E
:102E20008FFF2A4976E72A002A344C3221B212B2A7
:102E3000300000F085FF26496CE72A00210045326A
:102E4000233112B209B2300000F07AFF214930007C
:102E500004F0FAF82A0021004C322A3112B209B2E9
:102E6000300000F06DFF51351B493000323404F062
:102E7000EBF82AB221B277E72A002A344C3221B289
:102E800012B2300000F05CFF144943E7FFFF00007E
:102E90002809002003000080080E0100CA1E01005E
:102EA000CC1E0100CE1E0100D01E0100D21E01006A
:102EB000D41E0100D61E0100D81E0100DA1E01003A
:102EC000DC1E0100DE1E0100E01E0100E31E010009
:102ED0000E0E0100E51E01002F310100D724010074
:102EE00073B5494B00220193C82300240600474DC7
:102EF00011000093280000F076FCB8230B221E215D
:102F00002800009400F016FCB8230B221D21280095
:102F1000009400F00FFC90233322422128000094FB
:102F200000F008FC9023332266212800009400F072
:102F300001FC902333228A212800009400F0FAFB40
:102F4000B8230B22AE212800009400F0F3FBB82335
:102F50000B22AF212800009400F0ECFB90233222DA
:102F60001E212800009400F0EDFB90230B221E216F
:102F70002800009400F0E6FB90230A221E2128007E
:102F8000009400F0DFFB902333221E2128000094E0
:102F900000F0D8FB902357221E212800009400F057
:102FA000D1FB90237B221E212800009400F0CAFB55
:102FB00090239F221E212800009400F0C3FB902341
:102FC000C3221E212800009400F0BCFB28222A21E5
:102FD000280000F0B5FE0A223100280004F096F81F
:102FE000200000210134FFF74FFE102CF8D1012101
:102FF0000020FFF749FE0021C8232800019100931B
:103000000A0001F0D9FB73BDFFFF00002809002072
:10301000F0B5002585B003900020FFF761FF012186
:103020000020FFF731FE2C000F265D4F380002F024
:103030008DFE380002F088FE0028F6D0280000211E
:10304000FFF722FE380002F0ACFE04280DD808F08D
:1030500073FF0315181C1E002B1F00D510333340BF
:103060001D0001212800FFF70FFE0021C823019158
:1030700000930A004B4801F09FFBD6E7043535402A
:10308000EFE7013DEDD20F25EBE70135F7E7012131
:103090002800FFF7F9FD0F2D13D8280008F04CFF8A
:1030A0000C2A333C424B547D5D666F0911787B08D6
:1030B000039C200005B0F0BD0A23002C17DA5C4306
:1030C000013C394B374F01932623380000930C22E3
:1030D00069331F2100F087FB380028222A2100F0E5
:1030E0002FFE0A222100380004F010F8BDE75C43EF
:1030F0000134E6E70A23002C02DA5C43023CE0E7F5
:103100005C430234DDE70A23002C02DA5C43033C13
:10311000D7E75C430334D4E720000A2108F0A0FF7E
:103120000400CEE70A23002C02DA5C43043CC8E723
:103130005C430434C5E70A23002C02DA5C43053CF7
:10314000BFE75C430534BCE70A23002C02DA5C438A
:10315000063CB6E75C430634B3E70A23002C02DAE8
:103160005C43073CADE75C430734AAE70A23002C25
:1031700002DA5C43083CA4E75C430834A1E70A2375
:10318000002C02DA5C43093C9BE75C43093498E776
:103190000A235C4395E7644293E7002491E7C04625
:1031A000E805002028090020FFFF00001A4A1B4BF9
:1031B0001B491A600A004B78DB09FCD119491A4BEC
:1031C00019605378DB09FCD11849194B19805378E1
:1031D000DB09FCD1174B184A18491A800B00CA7B2F
:1031E000D209FCD116490A80DA7BD209FCD101212F
:1031F000144A1170DA7BD209FCD11A88124992B2B2
:103200001A80CA7BD209FCD1198822320A431A805B
:10321000DA7BD209FCD1704705080000080C004099
:10322000000C004005070300040C00401B45000093
:10323000020C0040182C0042A8610000002C004243
:103240001A2C0042142C00420030004210B5041E1B
:1032500004D004210C2005F051FA10BD01210C20EE
:1032600005F0C8F921000C2005F012FAF5E700007E
:1032700010B509F09BFD011C064809F0CBF809F0D8
:103280007DF8054B80B2054A1880D37BDB09FCD161
:1032900010BDC046001B374A182C0042002C0042CB
:1032A000F0B5494B85B00400984200DA1C00FA23BF
:1032B0009B009C4200DD1C00444B1A68444B944226
:1032C00022DA2000434A60431A600BF0EDFA424ACA
:1032D000424B0AF0FFFC060020000F000BF0E4FA5E
:1032E0003F4A404B0AF0F6FC02000B003000390068
:1032F00009F0ACFD00223C4B09F0A8FD0BF0A0FA50
:10330000FFF7B6FF05B0F0BD384A1268944256DDAB
:103310002500032265431A6028000BF0C5FA0090CF
:10332000019120000BF0C0FA314A06000F0000980E
:103330000199304B0AF0CEFC2F4A029003912F4B9B
:10334000300039000AF0C6FC02000B000298039915
:1033500009F07CFD00222A4B09F078FD0BF070FA91
:10336000FFF786FF280060430BF09EFA254A264BA4
:103370000AF0B0FC254A04000D0000980199244B86
:103380000AF0A8FC02000B002000290009F05EFDF5
:10339000204A04000D00204B300039000AF09AFC4E
:1033A00002000B00200029000AF014FF1B4B002232
:1033B00009F04CFD0BF044FA194B1860A2E701220A
:1033C00052421A609EE7C04618FCFFFF8C020020A4
:1033D000BC050020FFFF00002D431CEBE2363A3F06
:1033E000787AA52C431CE73F00207C40880200200F
:1033F000613255302AA9533F85EB51B81E850340F1
:1034000000507440665380B843747CBEC5CBD3B9BA
:10341000A294303FE5D022DBF97ECA3F00805040C5
:10342000C405002010B50E2005F01AF8FEF770FE56
:103430000423044A04481360044A136002F0B1FCF8
:1034400010BDC04608180040E805002010180040D4
:1034500010B50021132005F01BF90121192005F0FA
:1034600017F90021080005F013F90021122005F0DA
:103470000FF900211B2005F00BF90021062005F0B3
:1034800007F90021072005F003F90021092005F0C4
:10349000FFF80121162005F0ADF80121172005F0F5
:1034A000A9F80121182005F0A5F80021162005F043
:1034B000EFF80021172005F0EBF80021182005F0A7
:1034C000E7F801210A2005F095F801210B2005F00D
:1034D00091F801210D2005F08DF800210A2005F05A
:1034E000D7F800210B2005F0D3F800210D2005F0BE
:1034F000CFF810BD13B5184B00220193C723174C0A
:1035000000931100200000F06EF9642220001421C5
:1035100000F016FC1249200003F096FD200000F098
:10352000FFFF02210F4A200013788B4313700422FF
:103530000D490B6913430B610C4B5A6100F084FF7A
:1035400031220B4B0B491A700E20002204F00AFFA7
:10355000FFF77EFF30BF13BDFFFF000028090020EA
:10356000041F01000050004100ED00E00018004081
:103570000C3000422534000037B5344B0022019353
:10358000C723334C00931100200000F02CF9642273
:103590001421200000F0D4FB2E49200003F054FD3C
:1035A00078221421200000F0CBFB2B49200003F0EF
:1035B0004BFD200000F0B4FF200000F045FF00218B
:1035C000162005F017F80021172005F013F8002148
:1035D000182005F00FF80021092005F00BF8012153
:1035E000132005F055F80021192005F051F81B4D66
:1035F000280002F0A9FB0028F9D0280002F0D1FB36
:103600000428F4D100210F3005F042F8642003F0C3
:10361000BFFC0221162005F071F80221172005F0E9
:103620006DF80221182005F069F80121092004F045
:10363000E1FF0121092005F02BF80021192005F0F8
:1036400027F80021200001F095F937BDFFFF0000A9
:1036500028090020E71E0100F81E0100E8050020EF
:10366000F0B515000C001E0089B00EAB00229B5E69
:103670000FAA1288019005925A1BD11752184A407E
:103680000292321BD11752184A4003920399029AB0
:103690008A4205DD32001E00130022002C001500B6
:1036A000B44205DD2A001D0013002200340016007C
:1036B000321B92B204925A1BD11752184A400792F9
:1036C0006A461021515ECA0F52185210D90F00924B
:1036D000EA179D424A410123524213430693B442E2
:1036E00021DC019B029A1B6803991B691F00059B43
:1036F0008A4215DD220029000198B847009A079BED
:10370000D31A9BB21AB20092002A06DA069AAD18B2
:10371000049A2DB2D3181BB20093013424B2DEE711
:103720002A002100E8E709B0F0BD10B50468A468DC
:10373000A04710BD37B506AC258804680095246BFA
:10374000A04737BD37B506AC258804680095646B83
:10375000A04737BD73B506AC0025655F07AC26886A
:10376000046801960095A46BA04773BD7047F0B53F
:10377000160004000D0085B003930AAB1F88036890
:10378000DB689847039B2268013B9B191BB200939F
:103790000197176A2B00320029002000B8472368E0
:1037A00020005B6A984705B0F0BDF0B505001C002D
:1037B0000E00170085B00AAB1B88013C0393036819
:1037C000A419DB68984703992A680191009723B2EE
:1037D0003100146A28003A00A0472B6828005B6A71
:1037E000984705B0F0BDF0B50E0087B003930CAB61
:1037F000029200229B5E050004930DAB1B883400EF
:1038000005930368DB689847039B2A68F3189C427A
:103810000ADA059B210000939769049B029A28000D
:103820000134B84724B2EFE7536A2800984707B03D
:10383000F0BD13B501910E24015F0C22835E026876
:103840000091946B00221100A04713BDF0B585B024
:1038500002930AAB00241C5F0BAB1B881700039379
:10386000029B05000E000268994210D1A74202DDBA
:103870003B0027001C00039901340091E31B146BEB
:103880001BB23A0031002800A04705B0F0BDA742A6
:103890000CD1029B994201DD029E0291029B039989
:1038A00001339B1B00911BB2546BEAE7D368984726
:1038B000039A2B68019200941C6A2800029B3A002C
:1038C0003100A0472B6828005B6A9847DDE7F0B518
:1038D000040015000E0087B004930CAB00229B5E21
:1038E00005930DAB1B8803930368DB689847039A25
:1038F00023680092DF692A00049B31002000B8474A
:10390000059B03995A1E236800915219DF69310003
:10391000049B200012B2B847039A236800929F6963
:103920002A00059B31002000B8470499039A2368B8
:1039300001390092891909B29F692A00059B20006C
:10394000B847236820005B6A984707B0F0BD70470E
:1039500003231940417603894289012904D00329B0
:1039600002D08381C28170478281C381FBE700005E
:1039700001818181012100234281C281012210B590
:10398000074C494208344360046043760382438213
:103990000276C18281828276C376C36110BDC04641
:1039A00010240100F0B595B01D001AAB1B8804006F
:1039B00004931BAB1B88089105931CAB1F78C3694C
:1039C0000392002B00D0BDE00C22835E8B4200DC12
:1039D00082E00E22835E039A934200DC7CE00623A1
:1039E0007B435B18002B77DD039AFB009B18002BB1
:1039F00072DDC37E002B03D1AF2D01DD0135EDB2A9
:103A000023682000DB68984705235D430E9300235D
:103A10000A938E4B5B1911930A9A119B9B5CBAB265
:103A20000C936B461B8D0B93BBB209936B461B8C9F
:103A300006930B9B5343069AD3181BB20F936B4606
:103A40009D892B0008339BB2109307950D95012299
:103A50000C9B13424DD0206897423FD16B469B8B05
:103A600006991AB20B9B5918036909B21E00049BF0
:103A70002000B047099A0C9B94465B080C93099B65
:103A8000079E5D190D9B013663449BB20D93B3B243
:103A90000793079A109BADB29342D8D10A9B01338A
:103AA0005BB20A930E9B013BDBB20E93002BB3D1AA
:103AB000049B059A93420BD02068012F31D10699BF
:103AC00000920531856909B20823039A2000A847AE
:103AD000236820005B6A984715B0F0BD04993BB29B
:103AE0002AB201910093416920000E000F99B0475E
:103AF000C0E7049B059A9342BCD02068012F0AD1ED
:103B00006B469B8B06991AB20B9B5918036909B235
:103B10001E00059BACE76A463BB23421525E059914
:103B2000DFE70521099A3BB25143069A5118059ADD
:103B300009B20192099AD20000924569039A2000C5
:103B4000A847C5E71A7AAD1AEDB25A68ED001B68AE
:103B5000AD180E932B880793AB780F93EB781093E7
:103B60000523EB560B930623EB560C93012F51DDE7
:103B70006B462C229B5E09936B4630229B5E0A9318
:103B8000002623682000DB68984706960596109B60
:103B9000059A9A429CDABBB212936B469B890D93AD
:103BA0000A9B9B18BAB253430D9AD3181BB21393B6
:103BB0003300991B0F9AC9B2914241DA5A1CD2B212
:103BC00011920722134207D1079B07980E9A0133DF
:103BD000125C9BB2069207936B461B7E5BB2002B76
:103BE00012DA012F1AD10D9B0C9A08989A18059B8E
:103BF000D2180B9B12B21B185918236809B21B6903
:103C000020001D00049BA847069B5B00DBB20693C7
:103C1000119BCEE700230A930993B1E7099A049810
:103C20005118129A3BB25143089A019089182268A0
:103C30000093526909B215002000139AA847E3E7E0
:103C4000059D1E000135EAB20592A0E70E1F010096
:103C5000F0B5C26985B004000B00002A31D10A29F1
:103C600008D1037E0282DB00628A9B1863820120F6
:103C700005B0F0BD0D29FAD0817E007E00290DD05F
:103C80001025615F0625454349190C26A55FA94209
:103C900004DD2282628AC100521862820290E08AA8
:103CA0001221625E0190A08A1025615F00902000C1
:103CB000FFF778FE0622237E5343228A9B18238235
:103CC000D5E70A2905D100230382927A037E534364
:103CD000CAE70D29CBD0157AA942C8DB517A8B42AD
:103CE000C5DC5D1B5168ED006D18AE78002E24D048
:103CF000E978002921D0817E007E002911D005219C
:103D00006956891941431027E65F89190C27E65F38
:103D1000B14206DD00212182927A618A4243521823
:103D200062820290E08A1221625E0190A08A1026CF
:103D3000A15F00902000FFF735FE2B79227EBBE7C4
:103D4000018242827047C1828182704781767047CA
:103D5000407E7047C369002906D0002B02D1438AF8
:103D600006334382C1617047002BFBD0438A063B78
:103D7000F7E70C23C05E70470E23C05E704700005B
:103D8000F0B58DB0059312AB1B880492019313AB71
:103D90001B880390069314AB1F885B4B0A91FB189A
:103DA0005A1E93415B429BB2029315AB1B88079747
:103DB00000930223009A1A40089202D1029B0297B4
:103DC00007938024019B64000733DB100993009B59
:103DD0001C403FD12700069A23B2934200DB90E0BB
:103DE0000820099A00995A43059B0892A2B29B1891
:103DF000014203D0069B05995B189B1A00251BB254
:103E00000B93019B29B28B4279DD07237F00AAB275
:103E1000FFB21A4208D10720CB1703405B1808985D
:103E20000A99DB100918CF5C79B2029B002900DBEC
:103E3000079B0420009901425BD104998A1891B232
:103E4000039A09B2126803989268013516000B9A1A
:103E5000B047D6E700252C00069A2BB2934250DAE1
:103E60000820099A00995A43059B0792AAB29B1809
:103E7000014203D0069B05995B189B1A1BB20B935A
:103E8000002302936B460821595E019B8B422EDD75
:103E90006B461A8907236400E4B21A4208D107204E
:103EA000CB1703405B1807980A99DB100918CC5C04
:103EB00008994B1E9941E30999420FD00421009BB8
:103EC0000B420ED1049BD21891B2039B09B21B681E
:103ED0000B9A9B6803981E003B00B047029B01337E
:103EE000CFE7019B04995918891A89B2EDE701358A
:103EF000B2E7019904980918891A89B2A0E7013438
:103F000069E70DB0F0BDC0460100FFFF10B5040029
:103F1000FFF72EFD024B200023600123238410BDF8
:103F200068240100012310B50384FFF713FF10BDBF
:103F30009C46F0B585B00AAC25880BAC26880CAC45
:103F400027880DAC0023E45E029703940468019671
:103F50000095246D6346A04705B0F0BD10B5036819
:103F60005C6E0023A04710BD7047704710B5046811
:103F7000646EA04710BD00004B4259410300054A42
:103F80004942C9B222338018197001338342FBD1F0
:103F90007047C046AA130000F0B587B00CAC258866
:103FA0000DAC26880EAC27880FAC05930023E45E89
:103FB000E30701D506231C4303940297019600955D
:103FC000059BFFF7DDFE07B0F0BD0000F8B5070068
:103FD0000C0016001D00002929DBFFF7CAFEA042D5
:103FE00025DD002E23DB3800FFF7C6FEB0421EDDC4
:103FF0003800FFF7ADFE02281AD003281ED0012892
:1040000003D1C7239B1B26001CB20720E317274AB6
:1040100003401B19BA5EDB109BB2B6B2002A12DC59
:10402000123046439B1998B2214B984216D9F8BDDD
:10403000C7231C1B9E1B24B236B2E6E7C7231B1BFB
:1040400034001EB2E1E72820404250433618B6B291
:10405000272EECD819207043181880B2154938184B
:10406000C21C2140002D10D1002904DA0823013997
:104070005B4219430131072309B2591A063B8B40B1
:104080000330C17F0B43D377D1E7002904DA08233B
:1040900001395B4219430131072309B25B1A01213F
:1040A00099400330C37F8B43EDE7C046B013000057
:1040B0008713000007000080F8B51600C82204002E
:1040C0000F0011001D00FFF721FF0122094B524292
:1040D00008332360084B2000E750084BE2520023CE
:1040E000074AA354074AA354074BE654074BE55429
:1040F000F8BDC04648250100AC130000B013000015
:10410000B2130000B3130000B4130000B513000095
:10411000034B10B5C05803681B6B984710BDC046D1
:10412000AC13000070B504000E0002F001FF0500A2
:10413000174BE05604F0CAFA002810D0012002F014
:1041400027FF02F0F5FE134B401B9842F0D9124BAB
:10415000E35C002B1AD01149114802F087FF002EB2
:1041600014D00D4BE35C002B10D002F0E1FE0C4CA0
:10417000451B3100200002F067FF0A49200002F0D1
:1041800063FF0A222900200002F0D4FF70BDC04660
:10419000B513000080969800B3130000D9240100E5
:1041A000C0270020E724010030B51B4B8DB0040070
:1041B000C0560D0004F08AFA002824D0174903A83D
:1041C00004F042FB03A909A804F07FFB1022290098
:1041D00006A804F09DFB06A909A804F0F0FB010065
:1041E000684604F072FB06A804F0E6FA09A804F099
:1041F000E3FA03A804F0E0FA20000099FFF792FF29
:10420000684604F0D9FA064B2900E0580368DB6AD7
:1042100098470DB030BDC046B5130000CE24010054
:10422000AC130000F0B5264B8FB001920500C056CC
:104230000F0004F04BFA002824D0224905A804F00E
:1042400003FB05A90BA804F040FB1022397808A84D
:1042500004F05EFB08A90BA804F0B1FB010002A862
:1042600004F033FB08A804F0A7FA0BA804F0A4FAA2
:1042700005A804F0A1FA28000299FFF753FF02A84D
:1042800004F09AFA104C002628590368DB6C984712
:104290002859397803689B6B9847FF22019B32406D
:1042A000013B013628599A4204DA0368B95DDB6B99
:1042B0009847F2E703681B6D98470FB0F0BDC04602
:1042C000B5130000CE240100AC130000F0B50400CB
:1042D0000F00160085B001930AAB1B7844210293AE
:1042E0000BAB1B7803930CAB1D78FFF75DFF390018
:1042F0002000FFF70DFF31002000FFF709FF20002D
:104300004521FFF751FF01992000FFF701FF0299B6
:104310002000FFF7FDFE03992000FFF7F9FE2900BA
:104320002000FFF7F5FE05B0F0BDF8B504000F0062
:1043300016001D004E21FFF737FF39002000FFF760
:10434000E7FE20004F21FFF72FFF31002000FFF78D
:10435000DFFE29002000FFF7DBFEF8BD30B50400CA
:1043600085B00D00022900DD032511212000FFF793
:104370001BFF29002000FFF7CBFE032D20D80023D0
:104380002800029307F0D8FD020E1E2A0193009325
:104390000022C72318212000FFF798FF0023C7221F
:1043A00018210AE0019300931822C723002120005E
:1043B000FFF78CFF0023C72219002000FFF7B5FF8D
:1043C00005B030BDC72200930023019218211A00C6
:1043D0002000FFF77BFF00231A00E1E7C7220093CC
:1043E000002301921900AF3A2000FFF76FFF00236E
:1043F0001A001900E1E7000010B504002221FFF7C0
:10440000D3FE2000C021FFF783FE20002021FFF70C
:10441000CBFE02492000FFF785FE10BD2D250100CF
:1044200010B504002221FFF7BFFE2000C321FFF7D3
:104430006FFE20002021FFF7B7FE02492000FFF7A2
:1044400071FE10BD38250100002210B5024BC25488
:10445000FFF7E6FF10BDC046B213000070B50400C0
:104460000D0004220D49FFF7DDFE200004220C4957
:10447000FFF7D8FE200002220A49FFF7D3FE2000F2
:1044800002220949FFF7CEFE022220000749FFF76A
:10449000C9FE29002000FFF761FF70BDB0240100B4
:1044A0004225010029250100362501002B250100A8
:1044B00010B50400FFF7D2FF1F2204492000FFF7C8
:1044C000B1FE2000FFF798FF10BDC046EB240100AD
:1044D00010B50400FFF7C2FF1F2204492000FFF7B8
:1044E000A1FE2000FFF788FF10BDC0460A2501008D
:1044F00010B504002221FFF757FE2000C421FFF76A
:1045000007FE20002021FFF74FFE20000349FFF7A0
:1045100009FEFF212000FFF747FE10BDB424010073
:1045200070B5164B0500C35E013326D10024144B31
:104530000321C454FFF7BCFF24212800FFF734FEF9
:1045400026001936B6B2B4420ED00E4B00219C4262
:1045500002D82B190333D97FC9432800C9B20134CB
:10456000FFF7D6FDA4B2EEE7074B9C42E8D1280046
:10457000FFF7BEFF2800FFF753FF70BDB013000028
:10458000B2130000871300008813000010B5040068
:104590002221FFF709FE20000421FFF7B9FD2000CA
:1045A0002021FFF701FE20000349FFF7BBFDFF219B
:1045B0002000FFF7F9FD10BDC1240100F7B50192FD
:1045C0003B4A0F00825E0400013252D1DA0701D566
:1045D000042213439DB20C2300212B400C2B07D047
:1045E00001312B0704D4033129404B425941023198
:1045F0004026304B2E403DD001222000E254FFF7F0
:1046000067FF24212000FFF7CFFD0026019BFF213B
:10461000B34205D90223B95D1D4201D0C943C9B2D5
:104620002000FFF775FD244B01369E42EED120009D
:10463000FFF7ACFF052002F0ABFC24212000FFF7C0
:10464000B3FD0026019BFF21B34205D90223B95DCA
:104650001D4201D0C943C9B22000FFF759FD164BD6
:1046600001369E42EED1052002F092FC2000FFF7B9
:10467000D7FEF7BD2000E654FFF71AFF24212000E3
:10468000FFF792FD019BFF21B34205D90223B95DDB
:104690001D4201D0C943C9B22000FFF739FD064BC6
:1046A00001369E42EED12000FFF722FFDEE7C04632
:1046B000B0130000B21300008813000070B5224B45
:1046C0000400C35E013327D1204B002925D00121EE
:1046D000C154FFF7FDFE24212000FFF765FD1C4DAE
:1046E000FF212000013DFFF713FD002DF8D1200030
:1046F000FFF74CFF052002F04BFC24212000FFF7C0
:1047000053FD134DFF212000013DFFF701FD002D5A
:10471000F8D1052002F03CFC70BDC1540121FFF727
:10472000C7FE24212000FFF73FFD094DFF21200097
:10473000013DFFF7EDFC002DF8D12000FFF7D8FE7A
:104740002000FFF76DFEE7E7B0130000B213000092
:1047500088130000F8B5069F0D0014001E00FFF737
:10476000F7FA022812D003281CD001280DD12B887B
:1047700022882A80238033883A8832803B80C7236E
:1047800032889B1A2A889B1A2B80F8BDC72332884F
:1047900029889A1A521A2A803A889B1A22889B1AC8
:1047A0002380F2E72B8822882A8023803B88328866
:1047B00033803A80C723F0E7F0B516278FB008ADF5
:1047C0007F19122504000DAE328008AAAD182B8087
:1047D000664B3980E35E15A80078013300D0C2E053
:1047E000002807D014AB009332002B0039002000C2
:1047F000FFF7B0FF3B88C72B00DDB4E03288C72A43
:1048000000DDB0E014A909885218111C92B2C82A20
:1048100000D9C82101398AB20592DA0807922A889C
:104820009B181A1C9BB2C82B00D9C822013A92B21D
:10483000D308032120000893FFF74AFE6B461B7F35
:10484000202206936B469B181B780DAD09936B468F
:104850001B7D2A880A93059B20001B0A0B930B994A
:10486000D3B202910A99120A019100920699099A0B
:10487000FFF72CFD2A880699130A2000D2B2FFF711
:1048800054FD00212000FFF74DFC24212000FFF7FC
:104890008BFC2B8819255D431FB2059BADB29F424F
:1048A00019DC079B5E19B6B2731B089A1BB29342C0
:1048B0000DDC2F4B00219E4202D8A3190333D97F70
:1048C000C9432000C9B2FFF723FC0136EBE70137EB
:1048D0003FB21935E1E72000FFF758FE052002F04E
:1048E00057FB0DAD0B992A8802910A99D3B2120A8F
:1048F000019100920699099A2000FFF7E7FC2A88A7
:104900000699130A2000D2B2FFF70FFD0021200004
:10491000FFF708FC24212000FFF746FC2B8819250F
:104920005D431FB2059BADB2BB4219DB079B5E190D
:10493000B6B2731B089A1BB293420DDC0C4B0021DC
:104940009E4202D8A3190333D97FC9432000C9B2BC
:10495000FFF7DEFB0136EBE701373FB21935E1E740
:10496000052002F015FB0FB0F0BDC046B0130000EB
:104970008713000070B50400002905D0164802F026
:1049800099FD0122154BE254154D605903685B688F
:1049900098476059134D036813499B6898476057BF
:1049A000002806DB012103F073FE6057012103F0AC
:1049B00021FE0E4B0021E05603F01CFE23680C493B
:1049C000DB6B2000984701220A4B5242E252002240
:1049D000094BE25470BDC046C0270020B31300004D
:1049E000AC130000B413000000093D00B513000033
:1049F000FFFF0000B0130000B2130000002070475A
:104A000070B50400102020560D001600002802DBAF
:104A1000002103F03DFE236820005B6C320029007A
:104A2000984710202056002802DB012103F030FEB9
:104A300070BD10B5007C40B2002802DB002103F0FD
:104A400027FE10BD10B5007C40B2002802DB01211A
:104A500003F01EFE10BD10B5407C40B2002803DB01
:104A60000123594003F014FE10BD10B5C07C40B2C4
:104A7000002801DB03F00CFE10BD000010B504009F
:104A800010202056002807DB012103F001FE102032
:104A90000121205603F0AEFD11202056002807DB2F
:104AA000012103F0F5FD11200121205603F0A2FDA4
:104AB00012202056002807DB012103F0E9FD122017
:104AC0000121205603F096FD13202056002807DB15
:104AD000012103F0DDFD13200121205603F08AFDA2
:104AE000236820001B689847E06805F009FBE06830
:104AF000022105F069FBE068012105F05BFB2368FA
:104B000002499B682000984710BDC0460024F4006D
:104B1000084B13B50400994200D9190000236A46D6
:104B200053711371019AE06805F012FBE06805F01B
:104B30002DFB13BD001BB70010B5C9B2C06805F04E
:104B400057FB10BD70B50400102020560D00002842
:104B500002DB002103F09CFD2900E06805F050FB1A
:104B6000050010202056002802DB012103F090FDF3
:104B7000280070BD70B5040010202056002802DB0C
:104B8000002103F085FDFF21E06805F039FB0500F9
:104B900010202056002802DB012103F079FD2800B7
:104BA00070BD10B5FF21C06805F02AFB10BD70B5BF
:104BB0000400112020560D00002802DB002103F024
:104BC00067FD10202056002802DB002103F060FD65
:104BD0002900E06805F014FB10202056002802DBB5
:104BE000012103F055FD11202056002802DB012190
:104BF00003F04EFD70BD70B50400102020560D006E
:104C0000002802DB002103F043FD2900E06805F0E5
:104C1000F7FA10202056002802DB012103F038FDAE
:104C200070BD70B50400112020560D00002802DB75
:104C3000002103F02DFD2900E06805F0E1FA1120C4
:104C40002056002802DB012103F022FD70BD10B5C3
:104C5000C06805F0D5FA10BD70B506000C008D18BF
:104C6000AC4205D02178F06805F0CAFA0134F7E7C4
:104C700070BD70B505000C00C068090A05F0C0FAE7
:104C8000E868E1B205F0BCFA70BD70B50400102010
:104C900020560D00002802DB002103F0F9FC29005A
:104CA000E06805F0B7FA050010202056002802DB66
:104CB000012103F0EDFC280070BD000070B5040078
:104CC00010202056002802DB002103F0E1FC0749F8
:104CD000E06805F09FFA050010202056002802DB4E
:104CE000012103F0D5FC280070BDC046FFFF000085
:104CF00010B50249C06805F08DFA10BDFFFF000035
:104D000070B505000E001400002C05D03100E868D5
:104D100005F080FA013CF7E770BD10B5837C040014
:104D20007F2B12D8142002F033F9122000212056D4
:104D300003F0AEFC142002F02BF9122001212056C2
:104D400003F0A6FCC82002F023F910BD70B50026C0
:104D5000002504ACA65705AC6557064C8674446024
:104D6000054CC57408340460044CC160846002744E
:104D7000437470BDC4250100D4250100C92501007C
:104D80000023012243708370037083710733027123
:104D90004271C37070470300002208330270013073
:104DA0009842FBD1704770B500250400456005604E
:104DB000058145818581C58105824582057515304E
:104DC000FFF7DEFF2000257765771E30FFF7E3FF52
:104DD00070BD70B50600040010363000FFF7E3FF29
:104DE000200000254430FFF7DEFF30006560A5603D
:104DF000E560FFF7D8FF230041331D70200070BD30
:104E00000200002340321178994200D01370020052
:104E100001213832137003700232D1713D301370AA
:104E20000370704710B504002E30FFF7B4FF002365
:104E300023704134237010BD10B504002E30FFF7ED
:104E4000AAFF2300012239331A7000225A7002236C
:104E50004134237010BD0100F0B56C310B78002B8C
:104E600009D0030001223F331A7000222E331A703A
:104E70000B78013B0B70050004002E352A786E3448
:104E8000A4462378002A14D028225A4382181600F8
:104E90006236377806002D36002F04D0613217783D
:104EA0003278974205DA28225A43367882186132DE
:104EB000167002002F321278002A11D028225A438D
:104EC00007008218160029373F785D3637700700D3
:104ED0002A373F785F32777006002B3636781670A7
:104EE000020030321278002A15D028225A430700D7
:104EF000821816000837FF7F5B363770C71DFF7FAB
:104F0000013E3770871DFF7F013E377006002C364B
:104F1000367860321670020031321278002A07D0DB
:104F2000282206005A4382184432103690CE90C28E
:104F3000020032321278002A04D028225A438669AD
:104F40008218D664020034321278002A04D0282253
:104F50005A43066A82185665020033321278002AD4
:104F600004D028225A43C6698218166502003532D9
:104F70001278002A06D028225A43461D8218F67F4E
:104F8000583216702822534300226233C318AE5C95
:104F90009F5C3E439E540132082AF8D1403003788A
:104FA000002B07D00023624613700B78002B01D131
:104FB00001330B70F0BD0000F7B5002104780193B8
:104FC0008C4201D0013CE1B2124F4D1C8C00EDB27D
:104FD000AD00E6597D19B45C019B9C4216D0A342FA
:104FE00012DB0131C9B208290ED000242F68944287
:104FF00007DA335D9C463B5D9C4502D10134E4B247
:10500000F5E704353E00E6E70020FEBD0131017002
:105010000120FAE75826010010B50B0004002C29E6
:1050200004D10078431E9841400010BD02000120C9
:105030003A3212788242F8DD023AD2B202492000B6
:10504000FFF7BAFFF1E7C0467826010003003933C5
:105050001B78022B0FD103003A331B78002B0AD1A7
:105060000A00323A012A08D8030003222D331A70AD
:1050700001232E300370012070473129FBD102003B
:105080002D321370F4E7020000B53A3203001078B5
:10509000082814D806F050FF05151B2123292B31B1
:1050A0003A001A0000202C3210702C2907D0013051
:1050B00050740A000A21303A51430833D97701204D
:1050C00000BD08330A00D97F303A8918F6E70A0094
:1050D0000A21303A51430733F0E70733F2E70A0079
:1050E0000A21303A51430633E8E70633EAE72C2930
:1050F000E5D1012230331A70E1E72C29F9D00A00FA
:105100000A21303A51432C331970D8E72C29F0D0BA
:1051100018002C300278303951180170E9E702008C
:1051200000B53A320300107805280BD806F004FFCA
:10513000030C1116181D2C2904D00A2230395143B2
:1051400029331970012000BD29331A7830395118DC
:10515000F7E70A22303951432A33F2E72A33F4E7DA
:105160000A22303951432B33EBE718002B300278F9
:105170003039511801222F3301701A70E2E7030011
:105180003A331B78002B0BD10B00EF22313B13423B
:1051900008D1EC3A03002D331A7001232E3003702E
:1051A00001207047302904D00B00F7224E3B1342F8
:1051B00001D10022EEE7322901D0442901D1042295
:1051C000E8E707223329E5D006223429E2D0052278
:1051D0003529DFD0362901D04529E1D10122D9E78F
:1051E000F0B504003A3425780134002D11D10600C1
:1051F00001273D360D804D803770257015002D3DFF
:105200006E42754106003C3635702D2A3DD1002096
:105210001EE02C2A1DD12278002A01D10122227001
:1052200002254A5F002A09D00A252278561C2670DA
:105230009A4203DC4A886A434A80F6E73C300078A9
:10524000002820D04B885B424B800B885B420B8050
:10525000F0BD2E2A02D101232370D8E72078002840
:1052600006D10A230888303A43439A180A80CEE7C9
:10527000451C25709842CADC0A234888303A4343CB
:105280009A184A80C3E70120E2E72C2AC6D02E2ACA
:10529000E7D1E0E7030070B50C0001003A331B785A
:1052A00015003B31002B04D123603D300B700133DE
:1052B00003702E2D15D02C2D36D10B78002B10D04D
:1052C0000B78042B39D1642322685343236025686B
:1052D00003216800013006F039FE401920600120EA
:1052E00070BD01230B7062781009C30040001B18C9
:1052F0000F2002409B18A278DBB2002A01D0643351
:10530000DBB220780609F200760092190F263040B1
:1053100012183C204343D2B2D31823602E2D01D162
:105320000020DDE72C2DCBD0087800281CD1236885
:10533000303D1B011D432560D2E7052B01D105330C
:10534000C2E7062BC3D00120062BC9DC2268032B41
:1053500002D1FA239B00B8E7022B01D1114BB4E72D
:10536000012BB4D1104BB0E70130C0B20870062851
:1053700006DC0A232268303D53435D192560CFE7E0
:105380000728CDD1266803217000013006F0DEFD2C
:105390008019382D02DD02302060C1E7332DFBDD9E
:1053A0000130F9E710270000A086010003000A0081
:1053B000010010B53A331B783E31002B04D11300A5
:1053C0002C3B5C1EA3410B700B78002B03D001001B
:1053D0001031FFF75FFF012010BD03003E331B7843
:1053E000002B09D003003A331B78002B04D153293A
:1053F00002D103695B42036101207047030010B5CD
:105400000A003E332C2905D101003A3109780029E0
:1054100000D119701B78002B03D001001431FFF765
:1054200039FF012010BD03003E331B78002B0DD047
:1054300003003A331B78002B08D1030001223133DB
:105440001A70572902D143695B42436101207047BA
:10545000020010B5393203001078013806281DD833
:1054600006F06AFD04080C10141C18001800FFF761
:105470009DFF10BD1800FFF7B0FFFAE71800FFF717
:10548000BDFFF6E71800FFF7CEFFF2E71800FFF7C1
:10549000FAFDEEE71800FFF772FEEAE70120E8E701
:1054A0000A00010010B51C3103230400FFF798FE29
:1054B000002806D023003A331B7833345A1E934118
:1054C0002370012010BD0A00010010B52031022315
:1054D0000400FFF785FE002806D023003A331B782E
:1054E00034345A1E93412370012010BD020010B5C0
:1054F000393212780300013A0120082A0AD8100034
:1055000006F01AFD05090D1115191D2125001800B9
:10551000FFF7B9FD10BD1800FFF731FEFAE71800DC
:10552000FFF744FFF6E71800FFF757FFF2E7180010
:10553000FFF764FFEEE71800FFF775FFEAE71800D2
:10554000FFF7AEFFE6E71800FFF7BDFFE2E7180040
:10555000FFF7E5FDDEE7030010B539331B78052BB7
:1055600006D0092B07D0012B08D1FFF7ACFF10BDE7
:10557000FFF796FFFBE7FFF702FEF8E70120F6E7EB
:105580000A00010010B5183102230400FFF728FEBD
:10559000002806D023003A331B7832345A1E934138
:1055A0002370012010BD0300002210B53C331A7097
:1055B000023B1B78934209D12C2905D0431D303979
:1055C000D977012335300370012010BD2C29F8D084
:1055D0000A23421DD47F303963435918D177F0E74D
:1055E000020010B53932030010780138082826D897
:1055F00006F0A2FC05090D1115191D252100180042
:10560000FFF741FD10BD1800FFF7D0FEFAE71800C4
:10561000FFF7E3FEF6E71800FFF7F0FEF2E71800E9
:10562000FFF701FFEEE71800FFF7A9FDEAE7180012
:10563000FFF7B9FFE6E71800FFF7A2FFE2E7012056
:10564000E0E70300007810B50138062819D806F005
:1056500073FC04080C18181014001800FFF7C0FFA2
:1056600010BD1800FFF7F4FEFAE71800FFF7EEFC94
:10567000F6E71800FFF73AFFF2E71800FFF76BFFB5
:10568000EEE70120ECE703003D331A7810B5040083
:10569000002A09D000221A7002003A3213782C2115
:1056A00001331370FFF7CDFF63682200013363609D
:1056B00023784032023B5842584100234134107055
:1056C000237010BDF8B5C368040001330D00C3603A
:1056D000242904D1FFF794FB01252800F8BD070019
:1056E00041373E78022E2ED12A2905D103233B7063
:1056F00000233A342370EFE70B00203B5E2B1ED8CB
:105700000200383213784B401370FFF79AFF0028DD
:1057100003D12000FFF786FBDEE723003A332C2D70
:1057200009D1220000213D32117039342278013232
:1057300022701970D0E71A7801321A70CCE7FFF79F
:1057400071FB0025C9E7012E17D10200383213780A
:105750004B401370FFF760FC012803D13A342378E3
:105760000133C7E7022804D12000FFF765FB3500AD
:10577000B3E7002323703B70F9E7032E32D11D36C7
:1057800035432A002B00613A303BDBB2052A01D8B1
:10579000573DEBB2210022003A3108783832002818
:1057A00011D101250D7016783611F61A731E9E411F
:1057B000F6B2002E00D190E7A36820000133A36069
:1057C000FFF730FB89E70F21127801250A40D61A2E
:1057D000711E8E41F6B29A42EBD12000FFF753FFC3
:1057E0006D19E6E70125002E00D076E70670BEE7CA
:1057F00070B50500FFF766FF0400022802D12800FB
:10580000FFF729FB200070BD70B50C000500FFF705
:10581000CAFA22006C321378002B12D02600013B0A
:10582000137028236D363278280053434433E4182C
:105830002622210009F00BFA2000FFF7B4FA00231A
:105840003370280070BD37B5036801AC21701D6846
:10585000012321001A00A84720783EBD37B5036810
:1058600001AC217062701D68022200232100A8474C
:1058700037BDF8B51F0005000E001400FFF7E3FF69
:105880000123069ABC409340013BBB40E4B29843DD
:10589000C2B22340310028001A43FFF7DFFFF8BDF2
:1058A00010B50021FFF7CFFF10BD042307B50A0094
:1058B000009342210023FFF7DCFF07BD042307B557
:1058C0000A00009340210023FFF7D3FF07BD032305
:1058D00007B50A00009343210023FFF7CAFF07BD65
:1058E000042307B50A00009341210023FFF7C1FFFD
:1058F00007BD70B50400B6227E21FFF7AFFF01207F
:1059000001F046FB7F212000FFF79DFF012001F001
:105910003FFB11227E212000FFF7A0FF012001F0B4
:1059200037FB032631002000FFF78DFF05113540BE
:10593000012D03D0012001F02BFBF3E715227E217E
:105940002000FFF78BFF280001F022FB0325290030
:105950002000FFF778FF80102840012803D00120A5
:1059600001F016FBF3E720000321FFF7B0FF200052
:105970000321FFF7B5FF2000FF225521FFF76EFF3F
:105980002000F0225621FFF769FF00225721200056
:10599000FFF764FF70BD012307B50A00009377216C
:1059A0000633FFF766FF07BD70B50400402269218A
:1059B000FFF754FF03227E212000FFF74FFF082549
:1059C0001B212000FFF73FFF284203D1012001F0F7
:1059D000DFFAF5E770BD012307B50A000093472100
:1059E0000533FFF746FF07BD012307B50A00009303
:1059F00047210633FFF73DFF07BD10B5B0227E21DA
:105A0000FFF72CFF10BD012307B50A0000934721C3
:105A10000333FFF72EFF07BD10B50175012903D031
:105A200002290ED000200BE0C260002B06DB1822FA
:105A30005A43054B9B189B7D5BB2836000F0F0F8E6
:105A400010BD0261F1E7C046E432010070B5050007
:105A5000094C200004F080FCE9682000C9B204F081
:105A6000DBFC200004F016FD002803D003490448A5
:105A700001F0FCFA70BDC0460C270020882601000A
:105A8000C0270020006910B5002803DB012102F0C7
:105A9000B1FD10BD0249034801F0E8FAF9E7C0463C
:105AA000CF260100C02700201423C35610B5012BB8
:105AB00002D0022B03D010BDFFF7C8FFFBE7FFF7B2
:105AC000E1FFF8E7F0B5002585B0019302AB5D7109
:105AD00003230700160002AA137116480C00039A4C
:105AE000154904F035FB3869A84202DB290002F0B1
:105AF000CFFDA319250026000093009B9E4205D0F0
:105B000031780C4804F07CFB0136F6E7019BE41881
:105B1000A54206D00021074804F072FB2870013529
:105B2000F6E73869002802DB012102F0B1FD002010
:105B300005B0F0BD6C08002040420F00044A054B40
:105B400008321A60012252429A60DA601A61704784
:105B500014270100C8050020F0B50D002E001E4CD2
:105B600085B0017B070020000293019204F054FCF1
:105B7000019B0195EB180393019B039A934207D075
:105B80001978200004F0ACFB019B01330193F3E78B
:105B9000200004F07FFC002803D01049104801F0D9
:105BA00065FA029B002B14D0F9681A00C9B22000D4
:105BB00004F02DFC029BED18200004F082FB00286D
:105BC00007D0AE4205D0200004F080FB30700136D3
:105BD000F2E7002005B0F0BD0C270020B026010040
:105BE000C027002070B514240457012C03D0022CC8
:105BF00004D0002001E0FFF7AFFF70BD002B04D000
:105C000080240D7864422C430C70FFF75BFFF4E7AF
:105C100070470020704710B50468A468A04710BD05
:105C200037B5036804005B6898476B46D91D7F232E
:105C30000B70236820001D6801231A00A84720006C
:105C4000FFF757FE2000FFF72BFED13843425841A3
:105C5000C0B23EBD10B50623192917DD0133322924
:105C600014DD0133642911DD0133C8290EDDC8229A
:105C700001335200914209DD92180133914205DD52
:105C8000C8220133D200914200DD01331900FFF731
:105C90000CFE10BD70B50D1C04001A49281C06F03E
:105CA00025FB0521002829D11749281C06F01EFBD9
:105CB0000621002822D11549281C06F017FB0721D0
:105CC00000281BD11249281C06F010FB08210028CF
:105CD00014D11049281C06F009FB092100280DD118
:105CE0000D49281C06F002FB0A21002806D10B49A9
:105CF000281C06F0FBFA414241410B312000FFF71E
:105D0000DDFD70BD000048410000C8410000484270
:105D10000000C842000048430000C8430000484457
:105D200010B50400FFF740FE01212000FFF733FE0D
:105D300010BD0000024B034A083313607047C04691
:105D400028270100E00500204068704710B50400D6
:105D50002A2002F0BBFC002808D1A0602368002B99
:105D600001D1012363600123236010BD0F2002F0E5
:105D7000ADFC0123002812D00E2002F0A7FC022364
:105D800000280CD0112002F0A1FC0323002806D02B
:105D9000102002F09BFC00230028E5D10423A3601F
:105DA000DCE703000022426080689A60704700B51B
:105DB0000300082909D8080006F0BEF805070907FE
:105DC0000B070D070F0001229A61D96100BD022265
:105DD000FAE70322F8E70522F6E70A22F4E70000D3
:105DE00037B500246B460A4D5C711C71019A28007E
:105DF000084904F0ADF92100062002F049FC280012
:105E00001E2104F0FDF90121062002F041FC37BDFE
:105E10006C08002040420F00F8B50D000400C16C72
:105E2000806C06F0E1FA060028000F0008F07EFD05
:105E300002000B003000390007F04CFF00220B4B32
:105E400007F048FF06000F00206C616C06F0CCFAEA
:105E500002000B003000390008F0BCF9FC230022DE
:105E60009B0507F037FF06F0A1FAF8BD0000A03E41
:105E700073B500256B4606000B4C5D711D71019AD0
:105E800020000A4904F064F92900062002F000FC11
:105E9000F16920004031C9B204F0B2F901210620B5
:105EA00002F0F6FB73BDC0466C08002040420F00B4
:105EB00073B500256B4606000B4C5D711D71019A90
:105EC00020000A4904F044F92900062002F0E0FB12
:105ED000F16920005031C9B204F092F90121062085
:105EE00002F0D6FB73BDC0466C08002040420F0094
:105EF000F7B53C4B0190C81808F018FD019B040051
:105F00001A6E5B6E0D0007F0E5FE019B9A6DDB6D6E
:105F100006F09CFF019B06009A6EDB6E0F002000CE
:105F2000290007F0D7FE22002B0007F0D3FE020065
:105F30000B003000390006F089FF019B06001A6F44
:105F40005B6F0F002000290007F0C4FE22002B0029
:105F500007F0C0FE22002B0007F0BCFE02000B0081
:105F60003000390006F072FF019B06009A6FDB6F6C
:105F70000F002000290007F0ADFE22002B0007F0E3
:105F8000A9FE22002B0007F0A5FE22002B0007F03F
:105F9000A1FE02000B003000390006F057FF019B04
:105FA000060080331A685B680F002000290007F0A4
:105FB00091FE22002B0007F08DFE22002B0007F03F
:105FC00089FE22002B0007F085FE22002B0007F03F
:105FD00081FE02000B003000390006F037FF03B0ED
:105FE000F0BDC04670A0FEFFF8B504000800150023
:105FF00008F05AFC174A184B07F06CFE06000F0019
:10600000606A642106F02CF808F04EFC32003B0078
:1060100006F01CFF114A124B06F018FF02000B009D
:106020003000390007F022FA02000B0000200D4971
:1060300008F0D0F80C4A0D4B04F094FE06000F0057
:10604000280008F073FC32003B0007F043FE206597
:106050006165F8BD39B4C876BE9F7A3F66666666EC
:10606000661271400000F03FBA490C022B0715C0C0
:1060700010B50400080008F017FC2065616510BD2C
:1060800073B50C000620002102F002FB00266B46CF
:106090000E4D5E711E71019A28000D4904F058F8EA
:1060A0002100280004F0ACF83100280004F0A8F822
:1060B00031000400280004F0A3F8050001210620A7
:1060C00002F0E6FA2002284380B276BD6C08002078
:1060D00040420F0070B506000500A22421003000E8
:1060E000FFF7CEFF0234E4B201C5AE2CF6D170BD8D
:1060F00070B504000E000B4D280004F02DF92800A7
:10610000094904F049F92000FFF76AFE3100200038
:10611000FFF74DFE642000F03BFF2000FFF7DAFFA1
:10612000012070BD0C270020801A0600F7B50C0076
:106130000620002102F0ACFA00276B46114D5F717A
:106140001F71019A2800104904F002F8210028006C
:1061500004F056F83900280004F052F83900040021
:10616000280004F04DF839000600280004F048F833
:1061700005000121062002F08BFA3602200430438C
:106180002843FEBD6C08002040420F0010B50021DE
:10619000FFF7CCFF10BD10B50400FFF7F7FF0100BB
:1061A0002000FFF739FEE06310BD0000F0B50500E8
:1061B0008BB0012907D1FFF7E9FF68632800FFF7DB
:1061C00077FE0BB0F0BD0229FBD1FFF7DFFF002403
:1061D0002B69A8631B02C31A0093AB62009ADB17FA
:1061E000E8682100039306F09FF87F26CF17374019
:1061F0003A002300801859414B06C6091E4323006C
:10620000CF116968A8680A04B6185F4132003B00E4
:1062100021002A646B64009A039B0496059706F09C
:1062200083F82300CE17F2B2801859410E06020AF5
:1062300032432E680B12F003710C12184B4168693F
:1062400006920793AA64EB642100009A039B06F070
:106250006BF802000B00CE1721007602700A80183E
:1062600059414B02C60D1E43FA23DB00F318089375
:106270006B62089A6A4BEC622C632C629A4230DCA7
:106280003300052773435F437B10009A0993EB6249
:10629000039BBF10100019002F6306F045F8009013
:1062A0000191019B089AD91749008C466346210049
:1062B0005808009B019CC01861414B00C00F184357
:1062C000584B28629A420CDA574B099AF618072362
:1062D000764373439B180B2256437610F719EB62F3
:1062E0002F63EA6A04980599D317801A994103002D
:1062F0000C002A6B2B646C64D317009001910698F4
:106300000799801A99412A6A089BA864E9649B1A34
:106310006B6202000B00686B002106F005F8002795
:10632000CB17DB02DE0A80197941CC02420D2243F1
:106330004B1500980199121A8B413900DC1764043F
:10634000600C12184B4111005B04CA0B1A43EA633C
:10635000364B374A286D696D04F004FD08F070FB78
:1063600008F01CFB009001916421686A05F078FE3A
:1063700008F09AFA2F4A304B06F068FD06000F002D
:10638000009801992D4A2E4B07F0A4FC2D4A2E4B64
:1063900007F020FF32003B0007F09CFC2B4AA86569
:1063A000E965009801992A4B07F094FC32003B0004
:1063B00007F090FC274A2866696600980199264BE9
:1063C00007F088FC32003B0007F084FC234AA866F3
:1063D000E96600980199224B07F07CFC32003B00F3
:1063E00007F078FC1F4A28676967009801991E4BDF
:1063F00007F070FC32003B0007F06CFC1B4AA867FA
:10640000E967009801991A4B07F064FC2C003200F0
:106410003B0007F05FFC803420606160D1E6C0463D
:10642000CF07000024FAFFFFAC0D0000ED43C83F8A
:1064300098309A95666666666612714051DA1B7CE2
:1064400061B231407B14AE47E13A63406AEE7E9B15
:10645000198B03BFD137E541C8EDF03D1796AC5B12
:1064600085FEE1BC9D28202B7FE5D43BBAB2A82352
:106470000180C9BA00200249024B1865596570476E
:10648000D0BCF840F805002070B5F424640003592E
:106490009A00821815001668F43501332E601160D9
:1064A0003C2B01DC035170BD0023FBE7020003001D
:1064B000002010B5F43202CB40189342FBD13D21AD
:1064C00005F044FD10BD03000200002010B5E933C3
:1064D000F432FF3302CA40189A42FBD13D2105F045
:1064E00035FD10BDF4230021014A5B00D1507047F7
:1064F000800600201FB502230293002301930B3373
:1065000000930A2202330349034803F0C5FD05B096
:1065100000BDC046842800206C08002073B52348C5
:10652000FEF757FC224D002428002C816C81AC81A1
:10653000EC812C826C826C602C6015302C75FEF71F
:106540001FFC6B1CDC77AB1CDC77EB1CDC772B1D9A
:10655000DC776B1DDC77012305262C776C77AC7715
:10656000EC770635EC77134D5B42019300962800DB
:10657000033326221049FEF7E9FB320029000323EA
:106580000E48FDF799FD02220D4B0E485C719C717F
:106590009C721C730C4B1A600133DC770B4B0C4A5A
:1065A0005C601A605C7202F0A1FA73BDA40800205E
:1065B0007C080020E01C0020F42600202809002090
:1065C000180900201C1D0020441D0020F41C002080
:1065D000BC320100F0B5264C9BB02000FFF7B4FBA5
:1065E00000281DD02000FFF7DCFB042818D121482B
:1065F000FCF7E4F8C82400221F4D204B1100019342
:10660000280023000094FDF7EEF8002128000191F6
:10661000009423000A00FEF7CFF82800FDF780FF62
:10662000002510AC164965712571164862681091F5
:1066300003F08EFD2900280002F02AF8FF211148FE
:1066400003F0DEFD104D010006002800FFF7D0F832
:10665000071EF3D1FF2EF1D1012102F019F82B0012
:106660006C331B78002B11D1642000F091FCDCE22C
:10667000E8050020AC05002028090020FFFF0000ED
:1066800040420F00F4260020A4080020290020002A
:10669000FFF7BAF8F74DF84E2B0007CC07C307CC2D
:1066A00007C307CC07C32288F4491A80300000F0E2
:1066B000DDFCF34BF34C0193C8233A0000933900FF
:1066C0002000FDF790F8142220001100FDF738FBA0
:1066D000ED49200000F0B8FC286806F067FBEB49A4
:1066E00006F088F808F05AF905270B000200009719
:1066F000200000F0E5FD282214212000FDF720FBFA
:10670000E349200000F0A0FC686806F04FFBDF4979
:1067100006F070F808F042F900970B000200200024
:1067200000F0CEFD3C2214212000FDF709FBD949E1
:10673000200000F089FC0E23E85E06F037FB08F02D
:106740002DF9D54BD54A07F0C5FA029003910C23D9
:10675000E85E06F02BFB08F021F902000B0002981E
:10676000039906F073FB08F06BF9CD4906F042F887
:1067700008F014F9043F0B0002000097200000F01D
:106780009FFD502214212000FDF7DAFAC5492000B0
:1067900000F05AFC1223E85E06F008FB08F0FEF851
:1067A000C14BC24A07F096FA029003911023E85EAB
:1067B00006F0FCFA08F0F2F802000B0002980399C8
:1067C00006F044FB08F03CF908F0E8F800970B00ED
:1067D0000200200000F074FD642214212000FDF767
:1067E000AFFA0A22E97D200000F0A0FCB04F2000A3
:1067F000390000F029FC0A22A97D200000F096FC57
:106800003900200000F020FC697D0A22200000F001
:106810008DFC782214212000FDF792FAA548FFF79D
:1068200045FE0100A448FFF763FB0B0002210200B4
:106830000091200000F044FD6B1CDB7F002B0CD08E
:106840009E4F6B7DAA7DE97D3800FBF7A7FDEB7EAF
:10685000AA7E697E3800FBF7EDFDAA2214212000F4
:10686000FDF76EFA964B0125186808F097F8009529
:1068700002000B00200000F023FDC823002200933B
:10688000019511002000FDF797FF8E4B1B68AB426E
:1068900000D0C6E08C49300000F0E8FB8B4F0921A6
:1068A000380002F025FA8A4904A801F0CDFF834D93
:1068B0002800FBF72DFE0A22010010A802F028F89C
:1068C00010A904A802F068F810A801F075FF814C27
:1068D00004A8210002F066F82800FBF70FFE0A2248
:1068E000010010A802F014F810A904A802F054F84E
:1068F00010A801F061FF210004A802F053F828005D
:10690000FBF7F2FD0A22010010A802F001F810A91D
:1069100004A802F041F810A801F04EFF002328223D
:1069200010A904A802F058F810A9380002F0C2FA21
:106930006949002808D110A9300000F097FB10A980
:10694000380002F0C3FA6549300000F08FFB61495E
:1069500004A802F027F82800FBF7BCFD07AC0A22C8
:106960000100200001F0D4FF210004A802F014F877
:10697000200001F021FF2800FBF7A2FD0A22010000
:10698000200001F0C5FF210004A802F005F8200056
:1069900001F012FF2800FBF789FD0A220100200008
:1069A00001F0B6FF210004A801F0F6FF200001F07D
:1069B00003FF4B49200001F047FF210004A801F02C
:1069C000EBFF200001F0F8FE0023282210A904A804
:1069D00002F002F8132310AA3900200002F016FA80
:1069E000404D089B6B60A368AB60E368EB601023CD
:1069F000E25CEA5401331D2BFAD1236A3A4928009C
:106A00002B6200F033FB3949280000F02FFB384996
:106A1000280000F02BFB02222A4B04A81A6001F088
:106A2000CBFE304C200002F09EF8002800D1FCE0A4
:106A30003049114800F01AFB0E4DAB1CDB7F002BD8
:106A400000D1DBE02C49200000F0FEFA286806F0B7
:106A5000ADF90E4905F0CEFE07F0A0FF0B000621B0
:106A600002000091200000F02BFC2449200000F0DF
:106A7000EBFA45E07C080020741D00200231010083
:106A8000FFFF0000280900200C31010095BFD6331C
:106A900011310100163101004D62503FFCA9F1D2C5
:106AA000560EED3F1B310100E17A843F7B14AE4767
:106AB0001931010080060020F8050020580500204B
:106AC00014090020401D0020203101007424002002
:106AD000283101002F310100313101003A3101002C
:106AE000443101001C1D0020493101004F310100DB
:106AF00057310100643101006C3101007F31010028
:106B0000686806F053F94A4905F074FE07F046FF3D
:106B10000B00052102000091200000F0D1FB454947
:106B2000200000F0A3FA4449200000F08DFA0A2367
:106B3000E85E06F03BF907F031FF404B404A07F0B2
:106B4000C9F806000823E85E0F0006F02FF907F0E9
:106B500025FF02000B003000390006F077F907F03E
:106B60006FFF07F01BFF0B000121020000912000C6
:106B700000F0A6FB3349200000F078FA32492000EB
:106B800000F062FA0A22E97E200000F0CFFA2F4ED0
:106B90002000310000F058FA0A22A97E200000F0FF
:106BA000C5FA3100200000F04FFA0A22697E200069
:106BB00000F0BCFA2649200000F046FA0A22E97DDE
:106BC000200000F0B3FA234E2000310000F03CFA20
:106BD0000A22A97D200000F0A9FA3100200000F06F
:106BE00033FA697D0A22200000F0A0FA1A49200039
:106BF00000F03CFA1949200000F038FA184B1B68E5
:106C0000002B12D11749184800F030FA174920001C
:106C100000F02CFA1649200000F028FA154920004F
:106C200000F024FA200001F091FF1BB0F0BDC04637
:106C300095BFD633873101008A310100E17A843F64
:106C40007B14AE47983101009F310100D01E010036
:106C5000AE31010019310100B0310100B93101003C
:106C6000401D0020C8310100741D0020D0310100FA
:106C7000DE310100E731010073B57E4C00212000B8
:106C8000FBF780FC200028233B221721FBF786FB23
:106C90000122DE2311002000FBF7CCFBFBF7DEFC1A
:106CA00002210E2001F0A6FC0221112001F0A2FC1D
:106CB00002212A2001F09EFC02210F2001F09AFC03
:106CC0000221102001F096FC0121122001F092FC1B
:106CD0000121122001F0DCFC01211B2001F08AFCC3
:106CE00001211B2001F0D4FC0121092001F082FCCC
:106CF0000121092001F0CCFC0021082001F07AFCE0
:106D00000121132001F076FC0021132001F0C0FCCA
:106D10000121192001F06EFC0121192001F0B8FCBD
:106D20000021042001F066FC0121072001F062FC33
:106D30000121072001F0ACFC0121242001F05AFCC4
:106D40000121242001F0A4FC0121062001F052FCC5
:106D50000121062001F09CFC0121072001F04AFCE2
:106D60000121072001F094FC0121002001F042FCE8
:106D70000121002001F08CFC0121080001F03AFC07
:106D80000121080001F084FC02210A2001F0B6FC78
:106D900002210B2001F0B2FC02210D2001F0AEFC1B
:106DA000354803F0ADF908213448FFF7A1F9022373
:106DB000334C190007222000FEF72EFE2000FEF7BC
:106DC000AFFF20001921FEF745FF20002D49FEF7F7
:106DD00061FF20000121FEF707FE20000121FEF7E0
:106DE000FAFD00212000FEF70EFE2000FEF705FE52
:106DF000254C00212000FDF7BDFD20002349FDF7B3
:106E000091F820000021FCF79EFFC82600220025F3
:106E10001F4B11000193009633002000FCF7E3FCA8
:106E20002000FDF77DFB20000021FCF791FD3300E1
:106E30002A002900019500962000FDF7BDFC2900DD
:106E40002000FCF783FFAA2220006421FCF778FFD2
:106E500096211048890100F02DFBFBF759F9FCF74A
:106E6000A5F9FA208000FCF703FA0120FCF7EEF9FF
:106E700073BDC04658050020F4260020F805002008
:106E8000C80500200000C841280900203C27010057
:106E9000FFFF000020280020FEE7FEE7034B10B5AF
:106EA0001B68002B00D0984710BDC0466C1D002009
:106EB00070B51049104CA14206D107F06FFE00F0EA
:106EC00049FA00F081F8FEE70C4D00238D42F4D022
:106ED000CA18E818A24205D39042EED0084B0949DF
:106EE000002204E0006804331060F1E704C38B4221
:106EF000FCD3E2E7000000202C0500201C3B010031
:106F000030050020B428002010B500F05AF8002801
:106F100001D100F04BF810BD014B18607047C0461E
:106F20006C1D0020014B18687047C046701D002082
:106F3000F7B51348012284461249134C8E686368E2
:106F400005689B0E1340019288686268019F920E4B
:106F50003A4067463F6893420ED1BD420CD186420B
:106F60000AD35B19FA254868AD00861B07486B43B6
:106F70007043000DC018FEBD3D0013000600E3E79E
:106F8000701D002010E000E000ED00E0555500000D
:106F900070B5041E07D0044D2E6800F011F82B6860
:106FA0009B1B9C42F9D870BD701D002010B5034A90
:106FB00013680133136000F09BF910BD701D0020B1
:106FC000704700207047704710B501F077FAFFF75F
:106FD000FAFF0120FFF7DCFF084C200000F0FCFC6A
:106FE000200000F059FDFFF747FEFFF7F3FA044BCE
:106FF000002BFAD000E000BFF7E7C046981E002043
:1070000000000000F7B506000D000C008B1801937E
:10701000019B671B9C4207D0336821781B683000B6
:10702000984701340028F3D13800FEBD70B5050043
:107030000C00081E07D008F099FB2B6802005B6863
:1070400021002800984770BD10B5FFF7EFFF10BD75
:1070500010B503681B68984710BD000010B50249C1
:10706000FFF7E4FF10BDC046FA31010070B504001F
:10707000FFF7DCFF05002000FFF7F0FF401970BDAF
:10708000F0B58BB06B4615000022053306000F00EB
:10709000DA77012D00DC0A2509AC2900380004F05C
:1070A00055FF01006943791AC9B20B003733013C1F
:1070B000DBB2092901D83031CBB22370071EECD1E5
:1070C00021003000FFF7B2FF0BB0F0BDF8B50600AD
:1070D0000C00151E04D10368C9B21B689847F8BD9F
:1070E000D2B20A2D0DD12A0000290ADA2D21FFF78C
:1070F000AFFF614207002A003000FFF7C1FF3818D8
:10710000EDE721003000FFF7BBFFE8E710B5FFF720
:10711000DDFF10BD10B5002A04D10368C9B21B6899
:10712000984710BDD2B2FFF7ABFFFAE710B5FFF7F3
:10713000F1FF10BD70B50500FFF7ECFF040028005B
:10714000FFF78CFF201870BDF0B51E0085B00AABAC
:107150001B7805000193100033003100170007F081
:107160004FFB00287BD04D4990E0E0224C4B1206AB
:107170003800310005F08AF8002801D0494985E03F
:10718000E022494B12063800310005F06BF8002868
:10719000F4D1002200233800310005F063F8002804
:1071A00014D02D212800FFF753FF80231B060290E7
:1071B000F618002400203D49019B9C4208DA002279
:1071C0003B4B013406F052F9E4B2F5E70290F0E7E8
:1071D00033003A0005F03AFE0F00060005F0E6F82D
:1071E0000A22039001002800FFF74AFF029BC418FF
:1071F000019B002B4ED0039807F098FB02000B0078
:107200003000390006F0E6FF06000F00280029498B
:10721000FFF70CFF2418019B002B3BD0244B0022CE
:107220003000390006F056FD0F00060007F008FB9D
:107230000A22010002902800FFF748FF2418029854
:1072400007F032FB0B0002003900300006F0C2FFED
:10725000019B0600013BDBB20F000193DBE701223B
:10726000740064085242144B3800210007F0C8FA39
:10727000002800D079E701220F4B5242380021004C
:1072800004F0FAFF002800D06FE70C492800FFF750
:10729000CDFE0400200005B0F0BDC046F63101006F
:1072A000FFFFEF41F2310100FFFFEFC10000E03FBF
:1072B0000000244010270100FFFFEF7FEE310100A6
:1072C00037B51D006B461B7E00932B00FFF73CFF7C
:1072D0003EBD0000014B18607047C0469002002080
:1072E0000122024B52421A607047C04690020020B1
:1072F000124A1368591C20D0013B1360002B1CD18B
:1073000072B60F4B01221900187D1042FCD02022CA
:10731000188BFF3202431A830A4ADA610A4A1A803A
:1073200001230A7D1A42FCD0BFF34F8F074A084B56
:10733000DA60BFF34F8FC046FDE770479002002030
:10734000004000410210000002A5FFFF0400FA0502
:1073500000ED00E01E2230B5454946484B68934396
:107360001C3A13434B60082381690B4383614249F4
:10737000424B9982998A11439982D9681142FCD073
:1073800001213F4A117014780C4203D0547864B242
:10739000002CF8DB01219160517849B20029FBDB18
:1073A00038495160517849B20029FBDB8221C9017B
:1073B0005180517849B20029FBDB8024998CA1438C
:1073C00099841021DC680C42FCD02F49D96210212D
:1073D000DC680C42FCD09C8C2C4921439984102100
:1073E000DC680C42FCD002219C8C802521439984CE
:1073F0004021DC682C42FCD0DC680C42F9D0102122
:10740000DC680C42FCD000219160517849B200291F
:10741000FBDB1F495160517849B20029FBDB196A37
:107420001C4C214080241962196AA143196203236C
:107430009360194B536053785BB2002BFBDB002346
:10744000037243728372C372FF20144B144A1A6092
:10745000144B154A1B6811689A065B01C90E03405C
:10746000520F12020B431343104A138530BDC0461E
:1074700000400041000400400C06000000080040ED
:10748000000C004001050100B805FF7D040A000062
:1074900000070300FFFCFFFF030601000C030020B0
:1074A000006CDC022460800020608000004000420C
:1074B0000120704710B503681322DB69984710BD9F
:1074C00010B50400006903F07EF92000143003F0C9
:1074D00021F910BD10B5006903F08AF910BD10B58F
:1074E000143003F029F910BD10B5143003F02AF957
:1074F00010BD10B5143003F011F910BD10B50069BE
:1075000003F093F9012010BDF7B51D0008AB1B78FF
:107510000400009309AB1B7816000193002343601D
:10752000FA239B0083600A4B0F000833036014307A
:1075300003F0DAF86A46230012785C3327619A7008
:107540006A4612791E705D702000DA70FEBDC0467A
:107550000032010010B50400006903F052F9002860
:1075600007D0206903F05DF901002000143003F01A
:10757000C6F8206903F04AF9002805D0206903F015
:1075800049F9206903F039F910BDF0200140303984
:10759000484248417047F0231B01194080230620D0
:1075A0009B0099420AD00133FF330130994205D044
:1075B000802302385B00994200D0002070470F20E2
:1075C00001400020012903D00239481E8141481C96
:1075D000704700000300F0B5182685B003915C33B6
:1075E000040018783300082143431B4D1700EB18A3
:1075F000595601F083F8230008215D33187846437B
:10760000AD19695601F07AF80122039B1100206937
:1076100003F0E2FA39002000FFF7BDFF3900050052
:107620002000FFF7CCFF390006002000FFF7ADFF78
:107630003300009029002069012203F098F823000C
:107640005E331A785978206903F0ABF8206903F0AB
:10765000C6F805B0F0BDC046E4320100094B1A007F
:10766000FC3251689268914207D11A00FF32527A77
:10767000002A02D10120404270471A00FC32926871
:10768000985CF9E78C1D002013B56B460268D97130
:107690000733546819000122A04716BD8023F0B5B6
:1076A000C3B05B0002AA0221006900F069FBEFF39E
:1076B000108301242340009372B6134B00211A005B
:1076C0001D00FF26FC325268FF350194884212D01B
:1076D0006F7A002F0FD102AC645C571C9C543A00A7
:1076E0001F00FC37BF683240BA4202D16C46247991
:1076F0006C720131EAE7FC335A60009B002B00D129
:1077000062B643B0F0BDC0468C1D002070B5184C69
:1077100005002300FC335A689B689A420ED123006F
:10772000FF335B7A002B09D10221006900F0B4FA23
:10773000002803D02B6828009B6998472300FC335E
:107740005A689B689A4207D12300FF335B7A002B6B
:1077500002D10120404270BD2200FC329368E05CFF
:107760009368FF340133DBB2936000236372F2E766
:107770008C1D002010B50321006900F077FA10BDC0
:107780000C4B1A00FF32527A002A10D11A00FC3238
:1077900051689268914204D14A2201200649FF3281
:1077A0008854FC3358689B68C01AC0B27047802068
:1077B0004000FBE78C1D00200050004110B5130075
:1077C000074A0400D279002A06D00A000069032182
:1077D00000F01EFB002801D001236360002010BDD3
:1077E0009802002010B50378422202330370024948
:1077F000024800F077FB10BDA0020020981E002078
:1078000010B50178030042780020A12908D1212A6F
:1078100005D11A3A1649174800F064FB012010BD43
:107820002129FCD1202A11D1193A1149114800F01F
:107830006DFA96220E4BD2001968914203D10124B1
:10784000D87904400ED0FFF74BFD0EE0222A03D179
:107850009A78074BDA71ECE7232AE0D15A88064B75
:107860001A60DCE7FA20FFF735FD0020D7E7C046B5
:1078700098020020981E0020940200200022054B50
:107880005A60FA2292009A60034A08321A60034A48
:107890001A617047741D002030320100981E0020CC
:1078A00070B5C026C1B21B4C4B01E3189A681A4D43
:1078B000B6052A4032439A60184A800110180A001F
:1078C00058600720246808325201115D8143080086
:1078D0000121014370201155996929403143996173
:1078E0000F495961115D8143080010210143115571
:1078F00099680C48A2180840802149030143996007
:107900009968890B89039960402351790B4353711E
:1079100070BDC04628230020FFFFFF8F5C200020A1
:107920009C1E0020FF3F00F070B50400012320CC16
:1079300000212A782000134380222B70520007F088
:10794000A1F9AB78DB07FCD46C6270BD1F22144B2D
:1079500070B51B68590B9C0C9B0111405B0F2240BA
:107960001F2900D11A391F2A00D1023A072B00D152
:10797000043B1F2500688E01048D0A492A402140DE
:1079800031430185018D14000A00AA432243028578
:10799000028D1903044B13400B43038570BDC04691
:1079A000246080003FF8FFFFFF8FFFFF37B56B4675
:1079B000DC1D00230D0020002370FFF713FF2B6850
:1079C0001818286003F0BCF9210003F075F92B6842
:1079D0001818286020783EBD202370B5254A040081
:1079E000D1690F200B43D361012223490B78134344
:1079F0000B70224B19788143197006211D78294399
:107A000019701F490D782A430A701A7802401A70BB
:107A1000602219780A431A701A4B1B4A5A805A7806
:107A2000D209FCD11948FFF777FA194D2800FFF762
:107A30007BFF2800FFF78AFF7F212B68C1201A787F
:107A400080000A401A70042219780A430C211A7027
:107A50001A898A430F491A810A581202120A0A50D7
:107A600080220A6019787E3A0A431A700123237033
:107A700070BDC04600040040584400413C440041F1
:107A800059440041000C00400640000055830000AE
:107A90002823002000E100E00078002810D0012118
:107AA000084B1B681A898A431A810822198B0A43DA
:107AB0001A830422198B0A431A830022024B1A608C
:107AC0007047C046282300202023002010B5104A0C
:107AD0008020936940429B0B9B03936113680222B1
