:1020000000800020B9EA0000A3EA0000A3EA000073
:1020100000000000000000000000000000000000C0
:10202000000000000000000000000000A3EA000023
:102030000000000000000000A3EA000011EB000017
:10204000A3EA0000A3EA0000A3EA0000256800005C
:1020500039060100A3EA0000A3EA0000A5EA000097
:10206000A3EA000015290100A3EA0000A3EA00008A
:10207000ED280100A3EA000025290100A3EA0000E1
:10208000A3EA0000A3EA0000A3EA0000E947000079
:1020900000000000A3EA0000A3EA0000A3EA000099
:1020A000A3EA0000A3EA0000A3EA0000A3EA0000FC
:1020B00010B5064C2378002B07D1054B002B02D01E
:1020C000044800E000BF0123237010BDC0050020BC
:1020D00000000000902F0200084B10B5002B03D029
:1020E0000749084800E000BF07480368002B00D1FB
:1020F00010BD064B002BFBD09847F9E7000000000D
:10210000C4050020902F0200B80500200000000048
:10211000F7B506003E4B05000C001E4004D5082212
:10212000013E5242164301360720EA17104040197B
:10213000C010234004D50822013B5242134301330F
:102140000721E21711400919324DCA1001922F00E0
:1021500000222C0039788E4205D17978884202D14C
:10216000B97801291AD001320637202AF2D1012686
:10217000213A00202F78BB4206D16F780199B942ED
:1021800002D1AF78012F25D0013006352028F1D1BA
:10219000002E05D00120350040421CE00026E8E773
:1021A0000620504323546B4601211B7920184370AD
:1021B000417106235343E418E378012B09D1637876
:1021C000002B01D0072B04D106214A43114B9A184A
:1021D000D170F7BD00252E43B446EAD106273E0054
:1021E000784356432018A51929790779B942E0D0D8
:1021F000A3556B461B7961466B7001236B7181702F
:10220000C1780529D5D12100C3310B70D1E7C04673
:1022100007000080DC05002001226F4BF0B5991CFF
:10222000CA7719000831CA7719002D310A701900D0
:102230000226333118000E70002130300170180072
:102240003930067018000724363004701800032552
:102250003F30057018003C30027018001C004530FB
:102260000570062042341F00207004244B373C7058
:102270001F0048373E701F0051373C704E27BC4648
:102280009C446146493F0F7057218C469C446146EF
:10229000087054218C469C4461460D705D218C462B
:1022A0009C44614605270F705A218C469C44614628
:1022B0000C7063218C469C4461460A7069218C46EF
:1022C0009C4461460A706F218C469C4461460A70AA
:1022D00075218C469C4461460A707B218C469C4447
:1022E00061460A7081218C469C4461460A708721B0
:1022F0008C469C446146DA705A72DA735A75DA7603
:102300000A708D218C469C4461460A7093218C464C
:102310009C4461460E7090218C469C446146002787
:102320000F7099218C469C4461460E7096218C4614
:102330009C44614607270F709F218C469C44614650
:102340000D709C218C469C4461460A70A5218C46E8
:102350009C4461460D70A2218C469C4461460870E5
:10236000AB218C469C4461460C70A8218C469C4451
:1023700061460E701E00B13634701E000521AE3667
:1023800031701E00B73630701E00B43635701D0037
:102390000521BD3529701D000021BA352C700D00B6
:1023A00003349A705D710F2909DC1D71072910DC57
:1023B00058701970013106332029F2D1F0BD1A711D
:1023C000172901DD5D70F5E70E0026405A701E707A
:1023D000F0E75C70EEE7C046DC05002010B5FFF7C3
:1023E0001BFF074BFF211A00C23211701900002297
:1023F000C1310A701900C033C3310A701A7010BDA0
:10240000DC050020F0B5172568434D4399B083B231
:1024100003930933CE4CCF4EADB21BB206931700D7
:102420006A1D12B2009604230699200009F00BFBE6
:10243000039B009608331BB20593AB1D1BB2099397
:10244000099A06230599200009F0FDFA039B0096DE
:1024500007331BB20493EB1D1BB20A930A9A08239D
:102460000499200009F0EFFA2B0008331BB20B93FC
:10247000009608230B9A0499200009F0E4FA2B0037
:1024800009331BB20C93009608230C9A0499200080
:1024900009F0D9FA2B000A331BB20D9300960823DA
:1024A0000D9A0499200009F0CEFA2B000B331BB2D1
:1024B0000E93009606230E9A0599200009F0C3FAA0
:1024C0002B000C331BB2089300960823089A04993A
:1024D000200009F0B8FA039B009606331BB2029362
:1024E0002B000D331BB20F930F9A0A230299200081
:1024F00009F0A9FA2B000E331BB2109300960A23A1
:10250000109A0299200009F09EFA039B0096053369
:102510001BB207932B000F331BB21193119A0C239C
:102520000799200009F08FFA2B0010331BB2129389
:1025300000960C23129A0799200009F084FA2B00C8
:1025400011331BB2139300960C23139A07992000A2
:1025500009F079FA2B0012331BB2149300960C2366
:10256000149A0799200009F06EFA2B0013331BB25E
:10257000159300960C23159A0799200009F063FA29
:102580002B0014331BB2169300960C23169A07994E
:102590002000153509F057FA00962AB20C23079946
:1025A000200009F050FA039E0A36002F00D0D3E035
:1025B00033B20793099A3B000799200009F054FEB3
:1025C000039B099A0B331BB2179317993B0020000A
:1025D00009F04AFE3B000A9A0699200009F044FEE1
:1025E000039E3B000C3636B20A9A3100200009F0F7
:1025F0003BFE3B000B9A0599200009F035FE039D38
:102600003B000D352DB229000B9A200009F02CFE5D
:102610003B000C9A0599200009F026FE29003B009A
:102620000C9A200009F020FE3B000D9A069920002C
:1026300009F01AFE3B000D9A3100200009F014FE4B
:102640003B000E9A0799200009F00EFE3B000E9AFF
:102650001799200009F008FE3B00089A069920000F
:1026600009F002FE3B00089A0799200009F0FCFDE2
:102670003B00089A1799200009F0F6FD3B00089AE4
:102680003100200009F0F0FD3B000F9A0599200071
:1026900009F0EAFD29003B000F9A200009F0E4FD53
:1026A0003B00109A0499200009F0DEFD039D3B00D9
:1026B0000E352DB22900109A200009F0D5FD3B00FF
:1026C000119A0499200009F0CFFD29003B00119ACE
:1026D000200009F0C9FD3B00129A0299200009F080
:1026E000C3FD039D3B000F352DB2129A2900200037
:1026F00009F0BAFD3B00139A0299200009F0B4FDDD
:102700003B00139A2900200009F0AEFD3B00149A0B
:102710000299200009F0A8FD3B00149A290020002E
:1027200009F0A2FD3B00159A0299200009F09CFDDA
:102730003B00159A2900200009F096FD00970A2316
:10274000169A0299200009F07EF919B0F0BDC04632
:10275000280C0020FFFF0000002536B20223099A52
:1027600031002000009509F06EF904230A9A0699B9
:102770002000009509F067F906230B9A05992000BF
:10278000009509F060F906230C9A05992000009540
:1027900009F059F904230D9A06992000009509F0D3
:1027A00052F902230E9A31002000009509F04BF9EE
:1027B0000423089A06992000009509F044F906239D
:1027C0000F9A05992000009509F03DF90823109A09
:1027D00004992000009509F036F90823119A04990C
:1027E0002000009509F02FF90A23129A029920007F
:1027F000009509F028F90A23139A02992000009500
:1028000009F021F90A23149A02992000009509F091
:102810001AF900950A23159A0299200009F013F974
:1028200000958CE7F0B5172670434E439DB083B2F8
:1028300003930A33F04CB6B2F04F1BB21A93150053
:10284000F21C12B203231A992000009709F0FBF83A
:10285000039B200008331BB21693331D1BB2179342
:10286000179A07231699009709F0EDF8039B2000AB
:1028700007331BB21893731D1BB20793079A0923E2
:102880001899009709F0DFF8039B200006331BB26C
:102890000A93B31D1BB20B930B9A0B230A99009753
:1028A00009F0D1F8039B200005331BB20593F31DFB
:1028B0001BB20C930C9A0D230599009709F0C3F8ED
:1028C000330008331BB20D930D9A0D230599200098
:1028D000009709F0B8F8039B200004331BB204935F
:1028E000330009331BB20893089A0F230499009709
:1028F00009F0A9F833000A331BB20E930E9A0F2386
:1029000004992000009709F09EF8039B20000333F0
:102910001BB2069333000B331BB20F930F9A112394
:102920000699009709F08FF833000C331BB2099316
:10293000099A112306992000009709F084F83300C2
:102940000D331BB21093109A1123069920000097A3
:1029500009F079F833000E331BB21193119A112349
:1029600006992000009709F06EF833000F331BB270
:102970001293129A112306992000009709F063F828
:10298000330010331BB21393139A112306992000BE
:10299000009709F058F8330011331BB21493149ABE
:1029A000112306992000009709F04DF833001233E7
:1029B0001BB21593159A112306992000009709F070
:1029C00042F8330013331BB20693069A0F2304997F
:1029D0002000009709F037F8330014331BB2199325
:1029E000199A0F23049920000097153609F02BF847
:1029F0000F2332B200970499200009F024F8039BBA
:102A00000B331BB2002D00D0FAE01B93179A2B005A
:102A10001B99200009F028FC039B079A09331BB27D
:102A2000179317992B00200009F01EFC2B00079A22
:102A30001A99200009F018FC03992B000C3109B2F7
:102A4000079A200009F010FC03992B000D3109B200
:102A5000079A200009F008FC2B000B9A1699200019
:102A600009F002FC03992B000E3109B20B9A2000E9
:102A700009F0FAFB2B000C9A1899200009F0F4FBDE
:102A800003992B000F3109B20C9A200009F0ECFBDE
:102A90002B000D9A0A99200009F0E6FB039E2B00FB
:102AA000103636B231000D9A200009F0DDFB2B0004
:102AB000089A0A99200009F0D7FB31002B00089AE8
:102AC000200009F0D1FB2B000E9A0599200009F097
:102AD000CBFB039F2B0011373FB20E9A3900200029
:102AE00009F0C2FB2B000F9A0599200009F0BCFBEE
:102AF0002B000F9A3900200009F0B6FB2B00099A31
:102B00000499200009F0B0FB039E2B00123636B268
:102B1000099A3100200009F0A7FB2B00109A0499B4
:102B2000200009F0A1FB2B00109A3100200009F0D1
:102B30009BFB2B00119A0499200009F095FB2B00B8
:102B4000119A3100200009F08FFB2B00129A049992
:102B5000200009F089FB2B00129A3100200009F0B7
:102B600083FB2B00139A0499200009F07DFB2B00B6
:102B7000139A3100200009F077FB2B00149A049976
:102B8000200009F071FB2B00149A3100200009F09D
:102B90006BFB2B00159A0599200009F065FB2B00B3
:102BA000159A3900200009F05FFB2B00069A059961
:102BB000200009F059FB2B00069A3900200009F08B
:102BC00053FB0D23199A05992000009508F03BFF4F
:102BD0000923089A00931B99073B0195200008F0F0
:102BE00050FF0223099A179900930195043320009E
:102BF00008F047FF1DB0F0BD280C0020FFFF0000CB
:102C000000251A93179A00231A99200009F02CFB2B
:102C1000039E0523093636B2079A3100200000953D
:102C200008F011FF07230B9A16992000009508F071
:102C30000AFF09230C9A18992000009508F003FF59
:102C40000B230D9A0A992000009508F0FCFE0B2337
:102C5000089A0A992000009508F0F5FE0D230E9AB7
:102C600005992000009508F0EEFE0D230F9A0599B6
:102C70002000009508F0E7FE0F23099A0499200030
:102C8000009508F0E0FE0F23109A049920000095AB
:102C900008F0D9FE0F23119A04992000009508F03E
:102CA000D2FE0F23129A04992000009508F0CBFE63
:102CB0000F23139A04992000009508F0C4FE0F23F7
:102CC000149A04992000009508F0BDFE0D23159A72
:102CD00005992000009508F0B6FE0D23069A059987
:102CE0002000009508F0AFFE0D23199A05992000E9
:102CF000009508F0A8FE0923089A00931A99073B4B
:102D00000197200008F0BDFE022301970093099A65
:102D1000043331006BE7C046F0B5172568434D43D7
:102D20009BB083B202930A33754CADB2754E1BB2A1
:102D300009931700EA1C12B2032309992000009698
:102D400008F081FE2B1D1BB21793179A03230999D4
:102D50002000009608F077FE029B200009331BB28A
:102D600005936B1D1BB21893189A052305990096BD
:102D700008F069FEAB1D1BB20F930F9A052305994E
:102D80002000009608F05FFEEB1D1BB21093109A16
:102D9000052305992000009608F055FE029B2000AF
:102DA00001331BB206932B0008331BB21193119A07
:102DB00015230699009608F046FE2B0009331BB236
:102DC0000393039A152306992000009608F03BFE12
:102DD0002B000A331BB20493049A15230699200092
:102DE000009608F030FE029B200002331BB21293C3
:102DF0002B000B331BB20793079A132312990096EB
:102E000008F021FE2B000C331BB20893089A132301
:102E100012992000009608F016FE029B2000033352
:102E20001BB20A932B000D331BB20C930C9A112387
:102E30000A99009608F007FE2B000E331BB20D9383
:102E40000D9A11230A992000009608F0FCFD029BC0
:102E5000200004331BB20B932B000F331BB20E93D5
:102E60000E9A0F230B99009608F0EDFD2B001033FE
:102E70001BB21393139A0F230B992000009608F0AE
:102E8000E2FD2B0011331BB21493149A0F230B99FC
:102E90002000009608F0D7FD029B200005331BB2EE
:102EA00006932B0012331BB21593159A0D23069926
:102EB000009608F0C8FD2B0013331BB21693169A28
:102EC0000D2306992000009608F0BDFD2B00143359
:102ED0001BB21993199A0D230699200015350096F7
:102EE00008F0B1FD2AB200960D230699200008F0E3
:102EF000AAFD029D0B352DB2002F00D06AE103E040
:102F0000280C0020FFFF000029003B00179A20003A
:102F100009F0AAF929003B00189A200009F0A4F949
:102F20003B000F9A0999200009F09EF9029D3B0091
:102F30000C352DB229000F9A200009F095F93B00BD
:102F4000109A0999200009F08FF929003B00109A86
:102F5000200009F089F93B00119A0999200009F035
:102F600083F929003B00119A200009F07DF93B000C
:102F7000039A0599200009F077F9029E3B000D366F
:102F800036B23100039A200009F06EF93B00039A33
:102F90001299200009F068F93B00039A0A99200071
:102FA00009F062F9029D3B0013352DB22900039A06
:102FB000200009F059F902993B00143109B2039A33
:102FC000200009F051F93B00049A0599200009F00E
:102FD0004BF931003B00049A200009F045F93B0011
:102FE000049A0A99200009F03FF93B00049A0B99D2
:102FF000200009F039F93B00049A0699200009F0F5
:1030000033F9029B049A11331BB2099309993B00CF
:10301000200009F029F9029B049A12331BB20F9386
:103020000F993B00200009F01FF929003B00049A8A
:10303000200009F019F93B00079A0599200009F0D2
:1030400013F931003B00079A200009F00DF93B000D
:10305000079A0A99200009F007F9029B079A06339C
:103060001BB2039303993B00200009F0FDF8029B7B
:10307000079A10331BB2049304993B00200009F017
:10308000F3F829003B00079A200009F0EDF83B0017
:10309000089A0599200009F0E7F831003B00089AEA
:1030A000200009F0E1F83B00089A0B99200009F094
:1030B000DBF8029B089AD91D09B23B00200009F0F9
:1030C000D3F802993B000F3109B2089A200009F0A9
:1030D000CBF83B00089A0F99200009F0C5F8029E32
:1030E0003B00083636B20C9A3100200009F0BCF8DB
:1030F000029D3B000E352DB20C9A2900200009F0EC
:10310000B3F83B000C9A0B99200009F0ADF83B0096
:103110000C9A0F99200009F0A7F83B000D9A310096
:10312000200009F0A1F83B000D9A2900200009F0C9
:103130009BF83B000D9A0699200009F095F83B009A
:103140000D9A0999200009F08FF83B000E9A069914
:10315000200009F089F83B000E9A0999200009F037
:1031600083F83B00139A0699200009F07DF83B0094
:10317000139A0999200009F077F83B00149A0399F3
:10318000200009F071F83B00149A0499200009F01E
:103190006BF83B00159A0399200009F065F83B0095
:1031A000159A0499200009F05FF83B00169A0399DC
:1031B000200009F059F83B00169A0499200009F004
:1031C00053F80B23199A03990097200008F03BFC51
:1031D0001BB0F0BD002629000023179A200009F03B
:1031E00043F829000023189A200009F03DF8032332
:1031F0000F9A09992000009608F025FC0323109AE5
:1032000009992000009608F01EFC0323119A0999E1
:103210002000009608F017FC0523039A059920006A
:10322000009608F010FC3300039A1299200009F070
:103230001BF83300039A0A99200009F015F8029947
:103240003300133109B2039A200009F00DF80299F6
:103250003300143109B2039A200009F005F8052360
:10326000049A05992000009608F0EDFB0323049AC8
:103270000A992000009608F0E6FB029D0323113511
:103280002DB22900049A2000009608F0DCFB0523EB
:10329000079A05992000009608F0D5FB0423079AA9
:1032A0000A992000009608F0CEFB02990423103101
:1032B00009B2079A2000009608F0C5FB0523089A7A
:1032C00005992000009608F0BEFB0423089A0B998C
:1032D0002000009608F0B7FB029904230F3109B2D1
:1032E000089A2000009608F0AEFB0F230C9A0B9969
:1032F0002000009608F0A7FB0D230D9A06992000E8
:10330000009608F0A0FB0D230E9A06992000009667
:1033100008F099FB290033000E9A200008F0A4FF62
:103320000D23139A06992000009608F08CFB029D4D
:103330000B2306352DB2149A29002000009608F0C0
:1033400082FB0B23159A29002000009608F07BFBD6
:103350000B23169A29000096200008F074FB0096B3
:103360000B23199A290030E7F0B5172568434D4320
:1033700095B083B202930A33C84CADB2C84E1BB2AB
:1033800003931700AA1C12B204230399200000968D
:1033900008F059FBEB1C1BB21193119A04230399FB
:1033A0002000009608F04FFB029B2A1D08331BB239
:1033B000059312B2082305992000009608F043FBFC
:1033C0006B1D1BB21293129A0823059920000096D8
:1033D00008F039FBAA1D12B20823059920000096B7
:1033E00008F031FBEA1D12B208230599200000966F
:1033F00008F029FB2A00083212B2042303992000A6
:10340000009608F020FB2A00093212B20723059922
:103410002000009608F017FB029B200006331BB229
:1034200008932B000A331BB21393139A0B230899AA
:10343000009608F008FB029B200005331BB20493A2
:103440002B000B331BB20693069A0D2304990096AA
:1034500008F0F9FA029B200004331BB203932B00FF
:103460000C331BB20993099A0F230399009608F0B5
:10347000EAFA2B000D331BB20A930A9A0F23039921
:103480002000009608F0DFFA029B200003331BB2F5
:1034900007932B000E331BB20B930B9A1123079942
:1034A000009608F0D0FA2B000F331BB20C930C9A45
:1034B000112307992000009608F0C5FA2B0010335D
:1034C0001BB20D930D9A112307992000009608F066
:1034D000BAFA2B0011331BB20E930E9A11230799DF
:1034E0002000009608F0AFFA2B0012331BB20F93A6
:1034F0000F9A112307992000009608F0A4FA2B00D8
:1035000013331BB21093109A1123079920000096D1
:1035100008F099FA2B0014331BB20793079A0F2374
:10352000039920000096153508F08DFA04992AB207
:1035300000960D23200008F086FA02990B3109B29B
:10354000002F00D0AEE00723119A00932000053B26
:10355000019708F096FA0223029D009309352DB2D7
:1035600029000433129A2000019708F08AFA2900F2
:103570000523139A2000009708F065FA029B069A2B
:10358000D91D09B23B00200008F06EFE3B00069AF0
:103590000599200008F068FE02993B000E3109B23F
:1035A000069A200008F060FE02993B000F3109B234
:1035B000069A200008F058FE3B00099A089920005E
:1035C00008F052FE02993B00103109B2099A20001E
:1035D00008F04AFE3B000A9A0499200008F044FED5
:1035E000029E3B00113636B20A9A3100200008F0E4
:1035F0003BFE3B000B9A0499200008F035FE3B008F
:103600000B9A3100200008F02FFE3B000C9A039922
:10361000200008F029FE029D3B0012352DB20C9AC5
:103620002900200008F020FE3B000D9A039920009D
:1036300008F01AFE3B000D9A2900200008F014FE45
:103640003B000E9A0399200008F00EFE3B000E9AF4
:103650002900200008F008FE3B000F9A0399200083
:1036600008F002FE3B000F9A2900200008F0FCFD44
:103670003B00109A0499200008F0F6FD3B00109AD8
:103680003100200008F0F0FD00970B23079A0899FD
:10369000200008F0D8F915B0F0BDC046280C002075
:1036A000FFFF000000260723119A00932000053B2E
:1036B000019608F0E6F90223029D009309352DB228
:1036C0000433129A29002000019608F0DAF9052344
:1036D000139A29002000009608F0B5F902990923F1
:1036E000073109B2069A2000009608F0ACF90B23C6
:1036F000099A08992000009608F0A5F90D230A9A66
:1037000004992000009608F09EF90D230B9A049965
:103710002000009608F097F90F230C9A03992000D7
:10372000009608F090F90F230D9A03992000009657
:1037300008F089F90F230E9A03992000009608F0EB
:1037400082F90F230F9A03992000009608F07BF965
:1037500000960D23109A0499200008F074F9009641
:1037600093E7C046F0B515001722504395B083B2D9
:103770004A430393991C092397B2E04CE04E3A1D4B
:1037800012B209B20196009320000A3308F079F9C9
:10379000039B009605331BB204933B000D331BB211
:1037A0000993099A0D230499200008F04CF9039B12
:1037B000009606331BB205933B000E331BB20A93EF
:1037C0000A9A0B230599200008F03DF93B000F33BE
:1037D0001BB20B9300960B230B9A0599200008F05F
:1037E00032F93B0010331BB20C9300960D230C9A58
:1037F0000499200008F027F9039B009604331BB2BC
:1038000007933B0011331BB20F930F9A0F230799B5
:10381000200008F018F93B0012331BB20D930096FC
:103820000F230D9A0799200008F00DF93B00133380
:103830001BB20E9300960F230E9A0799200008F0F2
:1038400002F93B0014331BB2109300960F23109A19
:103850000799200008F0F7F83A00153200960F2378
:1038600012B20799200008F0EEF8039B7E1D033387
:103870001BB2069336B2002D00D043E13200042380
:1038800006992000009508F0DEF8039B320009330A
:103890001BB21193119905232000009508F0D3F86D
:1038A000039B320010331BB21293BE1D36B20423A9
:1038B00012992000009508F0C6F832002B000699F6
:1038C000200008F0D1FC32002B000599200008F000
:1038D000CBFC32002B001199200008F0C5FC039BA3
:1038E00032000D331BB2139313992B00200008F004
:1038F000BBFC32002B001299200008F0B5FC039BA2
:10390000320013331BB20893FE1D36B22B00089908
:10391000200008F0A9FC32002B000699200008F0D6
:10392000A3FC32002B000599200008F09DFC32001A
:103930002B001199200008F097FC32002B001399FE
:10394000200008F091FC32002B001299200008F0B2
:103950008BFC32003E00083636B22B00089920005E
:1039600008F082FC32002B000699200008F07CFC55
:103970003200042305992000009508F064F8320015
:10398000042313992000009508F05DF832003E00F2
:10399000093636B22B000899200008F065FC320089
:1039A0002B000699200008F05FFC32003E000A362A
:1039B00036B22B000899200008F056FC32002B008C
:1039C0000699200008F050FC32003E000B3636B25B
:1039D0002B000899200008F047FC32002B000699C4
:1039E000200008F041FC32002B000799200008F06D
:1039F0003BFC32002B000499200008F035FC039BAF
:103A0000320011331BB2069306992B00200008F0F8
:103A10002BFC03993200123109B22B00200008F070
:103A200023FC32002B000899200008F01DFC3A000E
:103A30000C3212B20B2305992000009508F003F810
:103A4000039B099ADF1D3FB22B003900200008F0CC
:103A50000BFC039E2B000F3636B2099A3100200072
:103A600008F002FC2B000A9A3900200008F0FCFB49
:103A70002B000A9A3100200008F0F6FB2B000B9A6D
:103A80003900200008F0F0FB2B000B9A31002000D9
:103A900008F0EAFB2B000C9A3900200008F0E4FB48
:103AA0002B000C9A3100200008F0DEFB0B230F9A4C
:103AB00005992000009507F0C6FF2B000D9A049988
:103AC000200008F0D1FB2B000D9A0699200008F089
:103AD000CBFB2B000E9A0499200008F0C5FB2B00AD
:103AE0000E9A0699200008F0BFFB00950D23109A4E
:103AF0000499200007F0A7FF15B0F0BD280C0020A6
:103B0000FFFF0000002532000699200000950423E5
:103B100007F099FF039B320009331BB20793079903
:103B200020000095052307F08EFF039B3200103321
:103B30001BB20893BE1D36B20899200000950423DD
:103B400007F081FF3200069920000095042307F05A
:103B50007AFF3200079920000095052307F073FFD4
:103B60003200FE1D36B2089920000095042307F0AC
:103B70006AFF3200069920000095042307F063FFD6
:103B80003200079920000095052307F05CFF320002
:103B9000089920000095042307F055FF3A000832E9
:103BA0000699200012B20095112307F04CFF3A004D
:103BB00009320699200012B20095112307F043FF45
:103BC0003A000A320699200012B20095112307F03C
:103BD0003AFF3A000B320699200012B200951123E9
:103BE00007F031FF3A000C320599200012B200951F
:103BF0000B2307F028FF039E099A073636B23100DF
:103C000020000095092307F01EFF0A9A31002000CA
:103C10000095092307F017FF0B9A3100200000954B
:103C2000092307F010FF0C9A3100200000950923AA
:103C300007F009FF0F9A0599200000950B2307F064
:103C400002FF0D9A0499200000950D2307F0FBFE5A
:103C500000950D230E9A0499200007F0F4FE44E726
:103C6000F0B5172670434E439DB083B202930833DC
:103C7000734CB6B2734F1BB204931500F21C12B210
:103C8000062304992000009707F0DDFE331D1BB2C8
:103C90000993099A062304992000009707F0D3FEA0
:103CA000029B200007331BB20393731D1BB20D93BD
:103CB0000D9A08230399009707F0C5FEB31D1BB2A8
:103CC0001193119A092303992000009707F0BBFE76
:103CD000029B200006331BB20593F31D1BB20E930B
:103CE0000E9A0B230599009707F0ADFE029B20006A
:103CF00005331BB20A93330008331BB20893089AAA
:103D00000C230A99009707F09EFE029B20000433C3
:103D10001BB20F93330009331BB21293129A0E2376
:103D20000F99009707F08FFE029B200003331BB210
:103D30000C9333000A331BB21393139A10230C997C
:103D4000009707F080FE33000B331BB20B930B9AE6
:103D500010230C992000009707F075FE33000C33F8
:103D60001BB20693069A10230C992000009707F0C7
:103D70006AFE33000D331BB20793079A10230C9988
:103D80002000009707F05FFE33000E331BB20C9348
:103D90000C9A10230F992000009707F054FE33006F
:103DA0000F331BB21493149A0F230A992000009723
:103DB00007F049FE330010331BB21593159A0E23FA
:103DC00005992000009707F03EFE330011331BB227
:103DD0001693169A0E2305992000009707F033FEDC
:103DE000330012331BB21793179A0E230599200044
:103DF000009707F028FE330013331BB21993199A6A
:103E00000D2305992000009707F01DFE33001433A1
:103E10001BB21A931A9A0D230599200015360097A4
:103E200007F011FE32B200970C230399200007F02F
:103E30000AFE029E0936002D00D090E104E0C04643
:103E4000280C0020FFFF000033B21093099A2B00CA
:103E50001099200008F008FA029B099A0B331BB254
:103E6000189318992B00200008F0FEF9029B099A7C
:103E70000C331BB21B931B992B00200008F0F4F9A4
:103E80002B000D9A1099200008F0EEF9029B0D9A74
:103E90000A331BB2099309992B00200008F0E4F9BA
:103EA0002B000D9A1899200008F0DEF92B000D9ACE
:103EB0001B99200008F0D8F92B00119A04992000D2
:103EC00008F0D2F92B00119A1099200008F0CCF9D3
:103ED00002992B000D3109B2119A200008F0C4F9A3
:103EE0002B000E9A0499200008F0BEF92B000E9AC0
:103EF0000999200008F0B8F9029E2B000E3636B260
:103F000031000E9A200008F0AFF92B00089A0399AF
:103F1000200008F0A9F92B00089A1099200008F059
:103F2000A3F92B00089A0999200008F09DF9029F37
:103F30002B000F373FB23900089A200008F094F99F
:103F40002B00129A0599200008F08EF931002B0001
:103F5000129A200008F088F939002B00129A2000EC
:103F600008F082F92B00139A0A99200008F07CF9D6
:103F700039002B00139A200008F076F9029E2B00DE
:103F8000103636B2139A3100200008F06DF92B007C
:103F90000B9A0F99200008F067F92B000B9A1899DB
:103FA000200008F061F92B000B9A1B99200008F003
:103FB0005BF939002B000B9A200008F055F9029F9D
:103FC0002B0011373FB20B9A3900200008F04CF952
:103FD0002B00069A0F99200008F046F92B00069A4C
:103FE0000A99200008F040F92B00069A1099200049
:103FF00008F03AF92B00069A0999200008F034F9E4
:104000002B00069A1899200008F02EF92B00069A2A
:104010003100200008F028F92B00069A3900200012
:1040200008F022F92B00079A0A99200008F01CF9E1
:104030002B00079A0399200008F016F92B00079A25
:104040000499200008F010F92B00079A1899200015
:1040500008F00AF92B00079A3100200008F004F953
:104060002B00079A3900200008F0FEF82B000C9A6C
:104070000599200008F0F8F82B000C9A0999200007
:1040800008F0F2F82B000C9A3100200008F0ECF850
:104090002B000C9A3900200008F0E6F82B00149A47
:1040A0001099200008F0E0F82B00149A310020004D
:1040B00008F0DAF8029B149A12331BB202930299A9
:1040C0002B00200008F0D0F82B00159A049920004E
:1040D00008F0CAF82B00159A3100200008F0C4F847
:1040E0002B00159A0299200008F0BEF82B00169AB2
:1040F0000399200008F0B8F82B00169A3100200030
:1041000008F0B2F82B00169A0299200008F0ACF8DB
:104110002B00179A0399200008F0A6F82B00179A95
:104120003100200008F0A0F82B00179A3900200079
:1041300008F09AF82B00199A0399200008F094F8D7
:104140002B00199A3900200008F08EF800950A23F8
:104150001A9A0499200007F076FC1DB0F0BD0025E6
:1041600036B2099A31002000002308F07DF8029B46
:10417000099A0B331BB2109310992000002308F00A
:1041800073F80299099A0C31200009B2002308F053
:104190006BF80D9A310020000095042307F053FCC2
:1041A000119A049920000095062307F04CFC0E9A02
:1041B000049920000095072307F045FC029B0E9A06
:1041C0000A331BB2029302993B00200008F04CF81E
:1041D000089A039920000095092307F034FC3B005E
:1041E000089A3100200008F03FF83B00089A029935
:1041F000200008F039F8129A0599200000950A234A
:1042000007F021FC139A0A99200000950C2307F06F
:104210001AFC0B9A0F99200000950E2307F013FC4F
:10422000069A0F99200000950E2307F00CFC079AC0
:104230000A9920000095042307F005FC079A1099BD
:1042400020000095072307F0FEFB2B000C9A059930
:10425000200008F009F80C9A029920000095082324
:1042600007F0F1FB149A3100200000950A2307F0B3
:10427000EAFB159A0499200000950B2307F0E3FB55
:10428000169A0399200000950C2307F0DCFB179A7F
:104290000399200000950B2307F0D5FB00950B2315
:1042A000199A0399200007F0CEFB4FE7C82300229C
:1042B000F0B500240127454E454D85B0019500938A
:1042C0001100300007F0DDFB0395002523002B4390
:1042D0003B4004D12AB221B2300007F0C5FF3C4276
:1042E00007D03D4205D02AB221B20023300007F0AA
:1042F000BBFF0135B82DE9D10134B82CE5D100253B
:104300002E00002427002BB20293330001223B43EE
:10431000134208D1039B21B201931723029A009301
:104320002A4807F0AEFB01231E420AD01F4208D0E4
:10433000039B21B201931723029A0093234807F0AD
:10434000A0FB17340137A4B2082FDED11735013690
:10435000ADB2082ED5D11F4C2500C035A378012B56
:104360002FD1E378012B04D1227961782078FEF7F0
:1043700049F8E378022B04D1227961782078FFF79D
:10438000F1F9E378032B04D1227961782078FFF7E3
:1043900067FCE378042B04D1227961782078FEF75A
:1043A00041FAE378062B04D1227961782078FEF770
:1043B000B3FCE378052B04D1227961782078FEF7ED
:1043C000D3FF0634A542C9D105B0F0BD280C0020AA
:1043D000FFFF0000DC050020F0B5C3B287B03F2B23
:1043E0002DD80721172501400F000024C310059385
:1043F0006B436F43134E039304912B00039A3900D0
:104400003000009407F01FFB059B39005A1C6A43DB
:10441000013A12B22B003000009407F014FB2B007D
:10442000039A39003000009407F0EFFA049B0094DF
:10443000591C69432B00039A300007F0E6FA07B0D5
:10444000F0BDC046280C0020F0B5C3B28DB03F2BA4
:1044500000D9E9E007241723044063430794172495
:1044600005936B460026C5106C4314229B5EA4B2D4
:104470006E4F039323B20493049A082303993800E0
:10448000009607F0E0FA631C1BB20893089A082311
:10449000039938000234009607F0D5FA23B2099345
:1044A000099A082303993800009607F0CCFA1723DD
:1044B00001355D43ABB20693013B1BB20A930A9AE6
:1044C000082303993800009607F0BDFA069B03996C
:1044D000023B1BB20B930B9A08233800009607F09F
:1044E000B2FA069B0399DD1E2DB22A00082338007C
:1044F000009607F0A8FA079B049A5C1C17235C43FC
:10450000083C24B221000F3B3800009607F09BFACC
:1045100021000823089A3800009607F094FA210039
:104520000823099A3800009607F08DFA2100082325
:104530000A9A3800009607F086FA210008230B9AA1
:104540003800009607F07FFA2A002100082338007F
:10455000009607F078FA0823049A03993800009629
:1045600007F053FA059B049A01331BB2079307998E
:1045700008233800009607F048FA059B049A9D1C12
:104580002DB2290008233800009607F03EFA069C59
:104590000823083C24B2220003993800009607F053
:1045A00034FA0823220007993800009607F02DFA04
:1045B0002900082322003800009607F026FA059B00
:1045C000049A16331BB2039303990823380000960C
:1045D00007F01BFA059B049A15331BB20693069944
:1045E00008233800009607F010FA059D08231435BB
:1045F0002DB2049A29003800009607F006FA082325
:10460000220003993800009607F0FFF908232200E2
:1046100006993800009607F0F8F900960823220062
:104620002900380007F0F1F90DB0F0BD280C00208A
:10463000F7B5FDF7D3FEFFF739FEC220334C3F2517
:104640002056FFF7C9FEC1202056FFF7FDFE304877
:1046500008F0B6F82F4F380009F03EFB380009F09B
:1046600039FB00284AD0380009F034FB061E32D04E
:10467000380009F08FFB0428F5D811F009FC030A73
:104680000F1419002200C1321378083B2B4013701D
:10469000E9E72200C13213780833F7E72200C1327C
:1046A0001378013BF2E72200C13213780133EDE7C2
:1046B000230026000020C133C236197830568142CB
:1046C00002D1FF233370CEE7431C01D13170CAE71A
:1046D000FDF71EFDF5E7FFF7E9FDC2202056FFF7C5
:1046E0007BFEC1202056FFF7AFFE01230193C733A5
:1046F000009332003100064808F028FA2300C33343
:104700001B785BB2002BA5D0F7BDC046DC050020AE
:10471000280C0020580A0020C122254B2549920070
:1047200010B51A600A004B78DB09FCD12249234BF3
:1047300019605378DB09FCD12149224B1980537849
:10474000DB09FCD10422204B19880A431A80DA7B4A
:10475000D209FCD1FF211D4A1170DA7BD209FCD1AC
:10476000FF211B4A1170DA7BD209FCD1FF21194AC3
:104770001170DA7BD209FCD1C424C0201649A400F0
:104780000A5900061202120A02430A518022120339
:104790000A603121114802780A430270104A1170F0
:1047A0001988104A0A431A80DA7BD209FCD110BD5D
:1047B000080C0040000C004004070300040C0040FB
:1047C0001C440000020C004000300042183000423F
:1047D000193000421430004200E100E00E30004287
:1047E0000D30004202070000F0B5002491B00EAB7E
:1047F0005C711C71D7490F9AD7480E910DF070FE6D
:10480000D64B1B78DB0700D456E1079405F02EFA4F
:10481000079B834200DBBAE005F03AFAD04CD14B5B
:104820001D68E369E81A12F0D7FBA16912F0E0F8FD
:1048300012F0B2FBCC4B626A1860CC4B08901B683C
:10484000981A099312F0C8FB216A12F0D1F812F0FD
:10485000A3FBC74BE26A1860C64B0A901B68981A04
:104860000B9312F0B9FBA16A12F0C2F812F094FB9C
:10487000C14B0C901860C14BC1481F68E36B4743A4
:10488000FF18C04B1E68636C4643F618BE4B216B85
:104890001B685843636BC01811F08EFBBB4BA16BB8
:1048A00018600D90380011F087FBB94B216C18602F
:1048B0000700300011F080FBB64AB74B1168186052
:1048C0004B015B1A5D196D111560B44A0400116843
:1048D0004B015B1A09995B185B111360B04A1168B0
:1048E0004B015B1A0B995B185B111360AD4AAE4B21
:1048F00011681D684B015B1A5B195B111360AB4AB1
:104900001168AB4B1E684B015B1A9B195B1113605E
:10491000A84AA94B116818684B015B1A1B185B1158
:10492000136012F059FBA54912F062F809903000AB
:1049300012F052FBA14912F05BF8061C280012F09D
:104940004BFB9E4912F054F8051C200012F044FB6A
:104950000590380012F040FB04900D9812F03CFBDB
:1049600003900C9812F038FB02900A9812F034FB76
:104970000190089812F030FB099B0090321C291C12
:104980008F4801F095F9079B153307933EE7764B67
:10499000186812F021FBE221890512F029F8744B06
:1049A0000990186812F018FBE221890512F020F82E
:1049B000714B0A90186812F00FFBE221890512F082
:1049C00017F87F4C0B906068A16812F011F8E66848
:1049D0002769051C391C301C12F00AF8011C281C20
:1049E00011F084FC0790A068A16812F001F8011C86
:1049F000FC20800512F01CF9E668E768051C391CEC
:104A0000301C11F0F5FF011C281C12F011F9079958
:104A1000051C081C11F0ECFF291C061C281C11F0B9
:104A2000E7FF011C301C11F061FC00F0A9FE061C20
:104A3000A06821696368E768089311F0D9FF391C01
:104A4000041C089811F0D4FF011C201C12F0F0F88F
:104A5000C021090611F0CCFF011C041C11F0C8FF95
:104A6000011CFE20800512F0E3F80EF0D1FB291C9A
:104A7000071C0B9811F0BCFF311C11F0B9FF391C59
:104A800011F0B6FF211C051C099811F0B1FF011CA3
:104A9000281C12F0CDF80799041C0A9811F0A8FF01
:104AA000311C11F0A5FF391C11F0A2FF011C201CC4
:104AB00011F01CFC434B1860284B1B789B0721D539
:104AC00005F0A4F924480DF029FD05F025FA3E492A
:104AD00011F08EFF3D4B051C18603A4B3C4918689D
:104AE00011F086FF3A4912F0A3F83A4C011C3A4BF8
:104AF0003A4A281C009400F08BFC206812F04CFA13
:104B000004F002FF364C374B22681B6801209A42A2
:104B100000DB002004F0C8FE334A13680133136041
:104B2000236801332360314B22681B689A4201DD00
:104B3000002323602E4809F0CFF82E4A1368013372
:104B4000136020222C4B1A701F3A1A700F321A7001
:104B500011B0F0BD404B4C00AC0A0020940B00207B
:104B6000A00B0020C80A0020D00A0020D40A002090
:104B7000DC0A0020E00A0020E80A0020800B002068
:104B800040420F00880B0020780B00207C0B002097
:104B9000840B0020CC0A00208C0B0020D80A0020B7
:104BA000E40A0020000B0020FC0A0020080B002073
:104BB000040B0020100B00200C0B00207D7D0B3916
:104BC000A0060020BC0A00200000C842C00A002045
:104BD00000007A44180C0020C40A00208988883C10
:104BE000F0070020F4070020FC060020F807002052
:104BF000580A0020F41F00200E30004210B507486C
:104C000001F0FAFD064B074A1A60FE2292055A602F
:104C100000229A60DA601A6110BDC046C406002006
:104C2000A0060020CDCCCC3D0022002330B5026090
:104C300043608260C36000248261C3610023034D2E
:104C4000836304614561C36330BDC0460000F03F2B
:104C50000023F0B587B001930022002305000C006B
:104C6000029203936868019B83423EDADE00AB68E0
:104C70009919086849682268636813F007FCEB68B3
:104C8000049005919E1930687168A268E36813F07A
:104C9000FDFB049A059B06000F001000190013F09D
:104CA00075F93200049005913B003000390013F093
:104CB0006DF902000B000498059912F023FA0EF02A
:104CC000EFF92269636913F0E1FB02000B0013F0B6
:104CD0005DF90B0002000298039912F013FA019B90
:104CE0000290039101330193BCE713F039FF0200F6
:104CF0000B000298039912F015FD0EF0D1F907B0E0
:104D0000F0BD0000F0B5ABB007910690FFF78CFF47
:104D1000079800F0EFFA079B002600275B681496BF
:104D20001597109300230E960F970C960D970A96E1
:104D30000B97089609970093009B109A934200DB0B
:104D40007DE0DC00079B9B6819190293079B0868AC
:104D500049681A695B6913F099FB079B02900391FC
:104D6000DB681C190493079B206861689A69DB69FA
:104D700013F08CFB029A039B04900591100019001C
:104D800013F004F9049A059B129013911000190076
:104D900013F0FCF802000B0016901791129813996B
:104DA00012F0B0F9049A059B04000D0002980399D3
:104DB00013F0ECF802000B000898099912F0A2F920
:104DC000129A139B089009910A980B9912F09AF97C
:104DD000169A179B0A900B910C980D9912F092F964
:104DE00022000C900D91029803992B0013F0CEF83D
:104DF00002000B000E980F9912F084F922000E9019
:104E00000F91049805992B0013F0C0F802000B00D5
:104E10001498159912F076F92200149015912B0030
:104E20002000290013F0B2F80B0002003900300016
:104E300012F068F9009B06000F0001337BE7109821
:104E400013F08EFE04000D0002000B000A980B996F
:104E500012F068FC22002B00109011910C980D9913
:104E600012F060FC22002B0012901391089809990F
:104E700012F058FC22002B00009001910E980F991F
:104E800012F050FC22002B000890099114981599FB
:104E900012F048FC22000A900B912B0030003900E0
:104EA00012F040FC129A139B06000F001098119903
:104EB00012F028F9129A139B0490059110981199F9
:104EC00013F064F8009A019B04000D001000190013
:104ED00013F05CF802000B002000290013F0D6FA52
:104EE000049A059B189019911000190013F04EF8C0
:104EF00002000B003000390013F0C8FA00220290C3
:104F0000039104980599E04B13F040F800221490A7
:104F1000159104980599DD4B13F038F8049A059B18
:104F200013F034F832003B0013F0B0FA0022060010
:104F30000F0018981999D44B13F028F8049A059B80
:104F400013F024F8029A039B04000D0004980599BD
:104F500013F01CF802000B002000290012F0D2F818
:104F6000089A099B04000D001000190013F00EF8B8
:104F700002000B002000290013F088FA0A9A0B9B0C
:104F800004000D001000190013F000F802000B00DF
:104F90002000290013F07AFA0A9A0B9B1C901D91AD
:104FA0000098019912F0F2FF089A099B1E901F9138
:104FB0000098019912F0EAFF089A099B209021912C
:104FC0001298139912F0E2FF1E9A1F9B13F05EFADB
:104FD000089A099B12F0DAFF0A9A0B9B04000D0055
:104FE0001098119912F0D2FF209A219B13F04EFADB
:104FF0000A9A0B9B12F0CAFF02000B002000290046
:1050000012F080F8029A039B04000D001898199979
:1050100012F0BCFF02000B002000290013F036FA4A
:105020003200239024913B003000390012F06AF8DE
:10503000149A159B269027911000190012F062F81F
:10504000149A159B12F05EF8239B289029911A93CD
:10505000249B0C930023009302931693009A029BC7
:105060002898299912F092FF269A279B12F04AF865
:10507000009A029B12F08AFF1C9A1D9B12F042F8C4
:1050800002000B001A980C9912F04CFB02000B0066
:105090000098029913F0FAF9009A029B0C0005009F
:1050A0000E9111F085F8002862D101226400640895
:1050B0005242774B2800210013F0FEFC002857D104
:1050C0000122734B52422800210011F08BF8002876
:1050D0004ED1149815992A000E9B12F057FF3200FA
:1050E0003B0012F00FF82A000E9B12F04FFF1C9AA3
:1050F0001D9B12F007F82A000E9B12F047FF239A1F
:10510000249B11F0FFFF1B912591002300221B9986
:10511000040011F067F81B9B2293002805D1802220
:1051200012069446259B63442293002200231A987A
:105130000C9911F057F8002805D1802212069446E8
:105140000C9B63440C931A9A0C9B2000229911F03B
:1051500053F800280CD1169B0095013316930E9B33
:105160001A9402931B9B0C93169B632B00D075E73C
:10517000009A029B0098029912F008FF009A029B85
:1051800004000D000498059912F000FF02000B00C6
:105190002000290013F07AF9189A199B11F0B2FF38
:1051A00006000F0012981399009A029B13F06EF9F3
:1051B000089A099B12F0EAFE1E9A1F9B13F066F9EB
:1051C00032003B0012F0AEFA0022324B12F0DEFE4B
:1051D000009A04000D0010981199029B13F056F9E3
:1051E0000A9A0B9B12F0D2FE209A219B13F04EF9E3
:1051F00032003B0012F096FA0022264B12F0C6FE57
:105200000F00079906000869496922002B0011F078
:1052100079FF069B32001860596007993B00886946
:10522000C96911F06FFF069B22009860D9602B00BE
:105230002000290012F0AAFE320004000D003B00FD
:105240003000390012F0A2FE02000B0020002900FD
:1052500011F058FF049A059B11F054FF0DF020FF48
:10526000069B1861596119000798FFF7F1FC069B2E
:10527000069A9861D9610023936313001800169A67
:10528000DA632BB008E0C04600001040000008C000
:10529000FFFFEF7F0000E03FF0BDC046F8B5002300
:1052A000134D040003604160C800A94201D90120E8
:1052B000404209F0ABFCA0606068A84213D8C0006F
:1052C00009F0A4FC0026002300276568E060AB42DB
:1052D0000CDAA168DA00891882180E604F60013379
:1052E00016605760F3E701204042E9E72000F8BD6F
:1052F000FFFFFF0FF8B50022002304000025026124
:1053000043618261C3614668B54216DA206961690A
:10531000A368EF00DB191A685B6811F0F3FEE3681D
:1053200020616161A069E169DF193A687B6811F069
:10533000E9FE0135A061E161E6E7300013F010FC01
:1053400006000F0002000B002069616912F0EAF903
:10535000320020616161A069E1693B0012F0E2F96D
:10536000A061E161F8BD10B504008068002801D09B
:1053700009F050FCE068002801D009F04BFC200047
:1053800010BD000010B5124C206012480160124997
:105390000A60124A12491360029A124B1A60039A69
:1053A000114B1A60FE22114B92051A6000230B600C
:1053B0000F490B600F490B600F490A600F4A1360D9
:1053C0000F4A13600F4A13600F4A104B1A6010BD4A
:1053D0000007002004070020080700201007002015
:1053E000300700200C070020380700203407002079
:1053F0002C07002028070020240700202007002079
:105400001C070020180700200050C3471407002085
:10541000F0B595B01293CB4B171C1B681190081C6C
:10542000191C089311F004FC391C11F0E1FAC64B69
:10543000196810F05BFF0990011C381C11F0D8FAB4
:10544000C24B196810F052FF391C0A90381C11F039
:10545000CFFAFC2189050B9011F0CAFABC4B041C51
:105460001B68381C0493BB4B1E68BB4B1B68029324
:10547000BA4B02991B68059311F0BAFAB84B196838
:1054800010F034FF0599051C201C11F0B1FA011C25
:10549000281C11F0CDFBB34B0C901B68201C06930D
:1054A000B14B1B68191C039311F0A2FA0699051C55
:1054B000381C11F09DFAAD4B196810F017FF291C2C
:1054C00011F0B6FB05990190381C11F091FA0D907E
:1054D000011C029811F0ACFB03990E90381C11F0DE
:1054E00087FA0F90011C069811F0A2FB0D99079006
:1054F000301C10F0FBFE291C11F09AFB9C4B049908
:105500001B680D90381C069311F072FA994B1968BC
:1055100010F0ECFE311C051C201C11F069FA011C76
:10552000281C11F085FB0C99051C381C11F060FA41
:10553000011C281C10F0DAFE0199051C201C11F03A
:1055400057FA011C281C11F073FB211C051C201CA0
:1055500011F04EFA069911F04BFA011C281C10F0BC
:10556000C5FE211C0290381C11F042FA069911F078
:105570003FFA0199051C381C11F03AFA011C0C98ED
:1055800011F056FB291C10F0B1FE311C0C90381C98
:1055900011F02EFA011C049811F04AFB0E99061C1A
:1055A000381C11F025FA011C301C10F09FFE0799E1
:1055B000061C201C11F01CFA011C301C11F038FBD9
:1055C000291C10F093FE6C4B10901968039810F092
:1055D0008DFE0A991390119811F02AFB674B051C58
:1055E0001968029810F082FE011CFE20800511F05F
:1055F0000FF8061C011C029811F0FAF9311C041C6A
:10560000109811F0F5F9311C03900D9811F0F0F994
:10561000211C0490281C11F0EBF90A9910F066FE89
:105620004A4B039918600A90281C11F0E1F9099976
:1056300010F05CFE444B04991860061C281C11F005
:10564000D7F9089910F052FE3E4B0A9A1860129B47
:10565000211C1A601A9B1E60029811F0C9F9011CE6
:10566000029811F0E5FA434B061C1860211C0C98B7
:1056700011F0BEF9011C0C9811F0DAFA384B051C38
:105680001860211C019811F0B3F9011C019811F068
:10569000CFFA364B041C1860311C039811F0A8F99E
:1056A000011C109811F0C4FA294B07991860381C96
:1056B00011F09EF9011C0E9811F0BAFA0699071C18
:1056C0000B9811F095F9011C381C10F00FFE291CE5
:1056D000071C039811F08CF9011C381C11F0A8FA72
:1056E0001D4B211C1860039811F082F9011C0798CA
:1056F00011F09EFA1B4B311C1860049811F078F9D8
:10570000011C0D9811F094FA124B0F99186005982E
:1057100011F08EFA291C061C049811F069F9011C7D
:10572000301C11F085FA0D4B211C1860049811F003
:105730005FF9011C139811F07BFA0B4B186015B040
:10574000F0BDC046380700200C07002010070020DD
:10575000280700201C07002024070020180700202D
:105760003007002020070020140700202C0700200D
:10577000040700203407002008070020000700204D
:1057800010B50DF045FD011CFE20800510F040FF16
:1057900010BD0000F0B507001C1C8068FB6895B0C8
:1057A000029380231B06C0180192009111F020F98A
:1057B0000199061C029811F01BF9011C301C11F014
:1057C00037FA3D69061C211C281C11F011F9011C37
:1057D000301C11F02DFAFC21890511F009F97968C6
:1057E000FB6804900098029311F002F90299061CDC
:1057F000201C11F0FDF8011C301C10F077FD3D69F4
:10580000061C291C019811F0F3F8011C301C11F042
:105810000FFAFC21890511F0EBF87968BE683B6945
:1058200005900198029311F0E3F8311C051C201C2F
:1058300011F0DEF8011C281C11F0FAF90299051C80
:10584000009811F0D5F8011C281C10F04FFDFC2128
:10585000890511F0CDF879680690201C11F0C8F880
:10586000BD68041C291C019811F0C2F8011C201C01
:1058700010F03CFDFE68041C311C009811F0B8F8D3
:10588000011C201C11F0D4F9FC21890511F0B0F89D
:10589000002107901A9810F0C5FC00280CD00021B8
:1058A0001B9810F0BFFC002806D000211C9810F0B7
:1058B000B9FC002800D091E11A99081C11F098F861
:1058C0001B99041C081C11F093F8011C201C10F0FB
:1058D0000DFD1C99041C081C11F08AF8011C201CE9
:1058E00010F004FDFFF74CFF041C011C1A9811F086
:1058F0007FF8211C00901B9811F07AF8211C019070
:105900001C9811F075F80B907868011C10F0EEFCF3
:105910000C90B868011C10F0E9FC0D90F868011CAF
:1059200010F0E4FC0E903869011C10F0DFFC8121BE
:105930000F90C905786811F05BF88121041CC90536
:10594000B86811F055F881210890C905F86811F080
:105950004FF882210990C905B86811F049F88221F1
:105960001090C905F86811F043F87B6811907D68C4
:10597000B868B968139311F03BF80290F868F968B9
:1059800011F036F803903869396911F031F803994C
:105990001290201C11F02CF80E99061C009811F0A2
:1059A00027F8011C301C10F0A1FC0299061C201CD9
:1059B00011F01EF8011C301C10F098FC0D99041C0D
:1059C000019811F015F8011C201C11F031F9291C67
:1059D0000A90139811F00CF88121C90511F008F80C
:1059E0001299041C089811F003F80F99051C0098EF
:1059F00010F0FEFF011C281C11F01AF9BE68051CEE
:105A0000311C201C10F0F4FF011C281C10F06EFC4F
:105A10000C99051C019810F0EBFF011C281C11F0DB
:105A200007F9089911F004F90299051C109810F073
:105A3000DFFF011C281C10F059FC0399051C10986D
:105A400010F0D6FF011C281C10F050FC0899051C12
:105A50000B9810F0CDFF011C281C10F047FCF968D2
:105A60000890201C10F0C4FF0C99041C009810F042
:105A7000BFFF011C201C10F039FC1299041C09986E
:105A800010F0B6FF011C201C10F030FC0F99041C14
:105A9000019810F0ADFF011C201C11F0C9F8099904
:105AA00011F0C6F80299041C119810F0A1FF011C16
:105AB000201C10F01BFC0399041C119810F098FF97
:105AC000011C201C10F012FC0999041C0B9810F00A
:105AD0008FFF011C201C10F009FC81213C690990FA
:105AE000C905029810F084FF211C10F081FF0D9968
:105AF000041C009810F07CFF011C201C11F098F889
:105B000081213D69041CC905039810F071FF291C0F
:105B100010F06EFF011C201C10F0E8FB0E99041C15
:105B2000019810F065FF011C201C11F081F80A9902
:105B3000051C081C10F05CFF0899041C081C10F0E0
:105B400057FF011C201C10F0D1FB0999041C081CF4
:105B500010F04EFF011C201C10F0C8FB291C041C77
:105B6000281C10F045FF011C201C10F0BFFBFFF7A4
:105B700007FE3E68041C011C0A9810F039FF311C16
:105B800010F036FF011C049811F052F83E680490A2
:105B9000211C089810F02CFF311C10F029FF011C6B
:105BA000059811F045F83E680590211C099810F001
:105BB0001FFF311C10F01CFF011C069811F038F873
:105BC0003E680690211C281C10F012FF311C10F0BA
:105BD0000FFF011C079811F02BF807907C680498C0
:105BE000324910F005FF211C10F080FB7860BC6882
:105BF00005982E4910F0FCFE211C10F077FBB860D0
:105C0000FC680698294910F0F3FE211C10F06EFB89
:105C1000F8603C690798254910F0EAFE211C10F055
:105C200065FB386178687968BE68BB680093FB687B
:105C3000FC6801933B6902933B69039310F0D8FE23
:105C40000099051C301C10F0D3FE011C281C10F01C
:105C50004DFB211C051C019810F0CAFE011C281CDC
:105C600010F044FB0399041C029810F0C1FE011CC3
:105C7000201C10F03BFBFFF783FD7968041C10F03B
:105C8000B7FE7860B968201C10F0B2FEB860F96801
:105C9000201C10F0ADFEF8603969201C10F0A8FE41
:105CA00000227B1C3861DA7715B0F0BD0AD7233C9F
:105CB000F0B5ABB0070005913398002106921C1C8B
:105CC00010F0B0FA002819D00021349810F0AAFA88
:105CD000002813D00021359810F0A4FA00280DD028
:105CE000329B069A0293319B05990193309B3800B1
:105CF0000093231CFFF74EFD2BB0F0BDB868FB6886
:105D00000599079380231B06C01810F071FE0799B0
:105D1000061C069810F06CFE011C301C10F088FF69
:105D20003D69061C291C201C10F062FE011C301C61
:105D300010F07EFFFC21890510F05AFE7968FB689F
:105D400011900598079310F053FE0799061C201C2C
:105D500010F04EFE011C301C10F0C8FA3D69061C04
:105D6000291C069810F044FE011C301C10F060FF46
:105D7000FC21890510F03CFE7968BE683B691290F1
:105D80000698079310F034FE311C051C201C10F0FF
:105D90002FFE011C281C10F04BFF0799051C0598CD
:105DA00010F026FE011C281C10F0A0FAFC21890529
:105DB00010F01EFE79681390201C10F019FEBD68CB
:105DC000041C291C069810F013FE011C201C10F066
:105DD0008DFAFE68041C311C059810F009FE011CA8
:105DE000201C10F025FFFC21890510F001FE002188
:105DF0001490309810F016FA00280DD00021319838
:105E000010F010FA002807D00021329810F00AFA9A
:105E1000002801D000F00EFC3099081C10F0E8FDBD
:105E20003199041C081C10F0E3FD011C201C10F02B
:105E30005DFA3299041C081C10F0DAFD011C201CCC
:105E400010F054FAFFF79CFC041C011C309810F071
:105E5000CFFD211C2790319810F0CAFD211C2890FD
:105E6000329810F0C5FD33992990081C10F0C0FD40
:105E70003499041C081C10F0BBFD011C201C10F000
:105E800035FA3599041C081C10F0B2FD011C201CC9
:105E900010F02CFAFFF774FC041C011C339810F06E
:105EA000A7FD211C0890349810F0A2FD211C06903B
:105EB000359810F09DFD07907868011C10F016FAD7
:105EC000089910F095FD17907868011C10F00EFAF3
:105ED000069910F08DFD18907868011C10F006FAF4
:105EE000079910F085FD0590B868011C10F0FEF9C7
:105EF000089910F07DFD19907868011C10F0F6F9F2
:105F00001A90B868011C10F0F1F90B90F868011CA8
:105F100010F0ECF90C903869011C10F0E7F97B687F
:105F20001B901093FB681D93FB6816933B69786880
:105F300079681E9310F05CFD0F907868B96810F0D6
:105F400057FD15907868F96810F052FD7B681C9039
:105F50001F933B69B868B968209310F049FDBB688E
:105F60000A902193FB68B8683969229310F040FDCC
:105F70000D90F868F96810F03BFDFB6809902393D9
:105F80003B6938693969249310F032FD3E69FC6839
:105F9000FB680F9925933B690E900898269310F0A3
:105FA00027FD311C051C189810F022FD011C281C2F
:105FB00010F03EFE211C051C059810F019FD011C77
:105FC000281C10F093F90A99041C089810F010FD91
:105FD000011C201C10F08AF90B99041C069810F083
:105FE00007FD259910F004FD011C201C10F07EF91E
:105FF0000B99041C079810F0FBFC269910F0F8FC94
:10600000011C201C10F072F90999041C089810F06A
:10601000EFFC011C201C10F00BFE0E99041C0898CC
:1060200010F0E6FC011C201C10F002FE3969BB6870
:10603000FC6825933B69061C1798269310F0D8FC42
:106040000F99051C069810F0D3FC011C281C10F0B9
:106050004DF92599051C059810F0CAFC011C281C57
:1060600010F0E6FD211C051C199810F0C1FC011C64
:10607000281C10F03BF90A99041C069810F0B8FC93
:10608000011C201C10F0D4FD0999041C069810F086
:10609000AFFC011C201C10F029F90C99041C079876
:1060A00010F0A6FC269910F0A3FC011C201C10F097
:1060B0001DF90E99041C069810F09AFC011C201C76
:1060C00010F0B6FD311C041C301C10F091FC211C9A
:1060D000051C201C10F08CFC011C281C10F006F97B
:1060E0000DF096F8802212069446F968BB68059078
:1060F0002593179B3C696344180010F079FC25999F
:10610000051C189810F074FC011C281C10F0EEF807
:106110000F99051C079810F06BFC011C281C10F04F
:10612000E5F8211C051C199810F062FC011C281CC4
:1061300010F0DCF80A99041C079810F059FC011CB7
:10614000201C10F075FD3E69041C0C99069810F097
:106150004FFC311C10F04CFC011C201C10F0C6F848
:106160000999041C079810F043FC011C201C10F036
:106170005FFD0E99041C079810F03AFC011C201CCE
:1061800010F0B4F8011C061C10F0B0F80D9917902F
:10619000081C10F0ABF81099041C081C10F0A6F8AD
:1061A0001D9910F025FC011C201C10F041FD2799C1
:1061B00010F03EFD16990F90081C10F097F81E99EC
:1061C00010F016FC1599041C081C10F08FF8011C27
:1061D000201C10F08BF8289910F02AFD1090FC205C
:1061E000FB6809998005169310F022FD0E9910F0B6
:1061F0001FFD059910F0FCFB1C99041C0D9810F074
:1062000017FD311C10F0F4FB011C201C10F06EF87F
:10621000089910F00DFD802212069446059B3D69F9
:1062200063440E93BB68229908902198189310F04C
:10623000DFFB2099041C1F9810F0DAFB011C201CC6
:1062400010F0F6FC059910F0D3FB2499041C239858
:1062500010F0CEFB159910F049F8311C10F0C8FB76
:10626000011C201C10F042F8069910F0E1FC069089
:10627000FC20FB680A998005159310F0D9FC099958
:1062800010F0D6FC311C10F0B3FB0D99041C1C98C7
:1062900010F02CF8059910F0ABFB011C201C10F03D
:1062A00025F8079910F0C4FC80220C9B12060F9968
:1062B0000790981810F09CFB1099041C0B9810F094
:1062C00097FB011C201C10F011F81699041C301CBF
:1062D00010F08EFB089910F08BFB011C201C10F0B5
:1062E000A7FC291C041C0E9810F082FB1899051CB1
:1062F000301C10F07DFB011C281C0FF0F7FF0699E5
:1063000010F076FB011C201C0FF0F0FF0599041C17
:10631000159810F06DFB079910F06AFB011C201C0A
:106320000FF0E4FF0D900A99BB68081C15930FF05D
:10633000DDFF011CFE20800510F07AFC0999041C89
:10634000081C0FF0D3FF011C201C10F071FC2999D0
:1063500010F06EFC3C69FB680F9909937B680A900A
:1063600016933B691B981893BB68199310F040FB78
:106370001099051C1A9810F03BFB011C281C0FF00B
:10638000B5FF8121051CC905159810F031FB0A994C
:1063900010F02EFB011C281C10F04AFC211C051CCF
:1063A000301C10F025FB089910F022FB011C281C62
:1063B0000FF09CFF0599041C099810F019FB169921
:1063C000051C301C10F014FB011C281C0FF08EFF64
:1063D000069910F00DFB011C201C0FF087FF05999A
:1063E000041C189810F004FB1999051C179810F05C
:1063F000FFFA011C281C10F01BFC079910F0F8FA9A
:10640000011C201C0FF072FF0599FB680990081C05
:1064100016930FF06BFF80228023120694461B0612
:10642000C318FC6815937B681893BB6819933B6984
:106430001C937B681D93FB681E931A9B0F99634402
:10644000180010F0D5FA1099051C1B9810F0D0FA1E
:10645000011C281C0FF04AFF8121051CC905169854
:1064600010F0C6FA0A9910F0C3FA011C281C10F0AB
:10647000DFFB211C051C159810F0BAFA1899041CB2
:10648000301C10F0B5FA011C201C10F0D1FB08994B
:1064900010F0AEFA011C281C0FF028FF0599041C0F
:1064A000199810F0A5FA1C99051C301C10F0A0FAE0
:1064B000011C281C0FF01AFF069910F099FA011C14
:1064C000201C0FF013FF0599041C1D9810F090FA82
:1064D0001E99051C179810F08BFA011C281C10F04F
:1064E000A7FB079910F084FA011C201C0FF0FEFE98
:1064F0003969BB687C681693FB680A901793BB6880
:106500001598189310F074FA1699051C301C10F0A9
:106510006FFA011C281C0FF0E9FE089910F068FAC8
:106520000F99051C0B9810F063FA109908900C98BD
:1065300010F05EFA011C08980FF0D8FE011C281C10
:106540000FF0D4FE211C051C0E9810F051FA17997B
:10655000041C301C10F04CFA011C201C0FF0C6FE6D
:10656000069910F045FA011C281C0FF0BFFE059992
:10657000041C189810F03CFA079910F039FA011C25
:10658000201C0FF0B3FE0D99051C081C10F030FA0A
:106590000999041C081C10F02BFA011C201C0FF098
:1065A000A5FE0A99041C081C10F022FA011C201CEC
:1065B0000FF09CFE291C041C281C10F019FA011C69
:1065C000201C0FF093FEFFF7DBF83E68041C011C53
:1065D0000D9810F00DFA311C10F00AFA011C1198F8
:1065E00010F026FB3E681190211C099810F000FA6B
:1065F000311C10F0FDF9011C129810F019FB3E68D7
:106600001290211C0A9810F0F3F9311C10F0F0F9E7
:10661000011C139810F00CFB3E681390211C281CE1
:1066200010F0E6F9311C10F0E3F9011C149810F099
:10663000FFFA14907C683349119810F0D9F9211CA5
:106640000FF054FE7860BC682E49129810F0D0F913
:10665000211C0FF04BFEB860FC682A49139810F01B
:10666000C7F9211C0FF042FEF8603C6925491498D7
:1066700010F0BEF9211C0FF039FE38617868796896
:10668000BE68BB680593FB68FC6806933B6907938B
:106690003B69089310F0ACF90599051C301C10F00B
:1066A000A7F9011C281C0FF021FE211C051C0698CF
:1066B00010F09EF9011C281C0FF018FE0899041C0C
:1066C000079810F095F9011C201C0FF00FFEFFF742
:1066D00057F87968041C10F08BF97860B968201CB1
:1066E00010F086F9B860F968201C10F081F9F860A4
:1066F0003969201C10F07CF900227B1C3861DA77A4
:10670000FFF7FAFA0AD7233CF0B50400436885B0D6
:10671000009383680193C368029303698068A1684A
:10672000039310F065F9011CFC20800510F080FA3D
:10673000E668E768051C391C301C10F059F9011C8B
:10674000281C10F075FA0199051C009810F050F9FA
:106750000399061C029810F04BF9011C301C0FF035
:10676000C5FD291C0CF050FD6061A068216910F086
:106770003FF96668E768051C391C301C10F038F9D1
:10678000011C281C10F054FAC021090610F030F941
:106790000CF0E6FCA368A0610093E36801936368D2
:1067A00002932369E068E168039310F021F9011C6A
:1067B000FC20800510F03CFA26692769051C391C6D
:1067C000301C10F015F9011C281C10F031FA019949
:1067D000051C009810F00CF90399061C029810F0A3
:1067E00007F9011C301C0FF081FD291C0CF00CFD79
:1067F000E06105B0F0BD00000023FE224360920579
:10680000C360036143618361C3610362030002608B
:106810008260002234331A70014B43627047C046D5
:106820000AD7233C044B10B51B68002B00D09847B7
:106830000122024B1A7210BD3C07002000140040D8
:10684000037810B5002B0BD00724064B21401A7F8C
:106850000800A2431100014319779A7AD209FCD1AA
:1068600010BDC04600140040014B19607047C0467F
:106870003C0700200022014B1A6070473C070020B3
:10688000037810B5002B0BD03F24064B21401A692A
:106890000800A2431100014319619A7AD209FCD180
:1068A00010BDC046001400400378002B0BD03F20E1
:1068B000054B08401A6905498001114001431961DF
:1068C0009A7AD209FCD17047001400403FF0FFFFD4
:1068D0000378002B0BD01F20054B08401A6905498F
:1068E00000031140014319619A7AD209FCD1704723
:1068F00000140040FF0FFEFF70B516000278040080
:106900000D00002A0AD01900FFF7BAFF310020005D
:10691000FFF7CAFF29002000FFF7DAFF70BD000073
:106920000378002B0BD01F20054B08401A6905493E
:1069300040041140014319619A7AD209FCD1704791
:1069400000140040FFFFC1FF0378002B0BD00F2085
:10695000054B08401A69054980051140014319613A
:106960009A7AD209FCD1704700140040FFFF3FFC27
:106970000378002B09D0054A880613699901890913
:1069800001431161937ADB09FCD170470014004088
:1069900070B51D00037804001600002B09D0FFF726
:1069A000BFFF31002000FFF7CFFF29002000FFF7D5
:1069B000DFFF70BD037810B5002B0BD03F24064BD2
:1069C00021409A690800A2431100014399619A7A13
:1069D000D209FCD110BDC046001400400378002B42
:1069E0000BD03F20054B08409A69054980011140B2
:1069F000014399619A7AD209FCD170470014004092
:106A00003FF0FFFF0378002B0BD01F20054B084001
:106A10009A69054900031140014399619A7AD209A4
:106A2000FCD1704700140040FF0FFEFF70B5160048
:106A3000027804000D00002A0AD01900FFF7BAFFFF
:106A400031002000FFF7CAFF29002000FFF7DAFF1E
:106A500070BD00000378002B0BD01F20054B0840B1
:106A60009A69054940041140014399619A7AD20913
:106A7000FCD1704700140040FFFFC1FF0378002BDA
:106A80000BD00F20054B08409A690549800511403D
:106A9000014399619A7AD209FCD1704700140040F1
:106AA000FFFF3FFC0378002B09D0054A8806936955
:106AB0009901890901439161937ADB09FCD17047FF
:106AC0000014004070B51D00037804001600002B70
:106AD00009D0FFF7BFFF31002000FFF7CFFF2900EB
:106AE0002000FFF7DFFF70BD037837B50500002BEE
:106AF00019D00D4B994200D2190001A8019112F052
:106B0000B7F9040043690269643B0132017BDBB2DF
:106B1000D2B22800FFF7D6FFA16823782279C9B244
:106B20002800FFF783FF37BD80436D38094B0A4AC1
:106B30009A605A7852B2002AFBDB084A5A605A78A7
:106B400052B2002AFBDB064A5A805A78D209FCD19D
:106B50007047C046000C004002040000020511000E
:106B6000044200000378002B05D0034B034A5A80EF
:106B70009A7AD209FCD17047001400400080FFFFD0
:106B800010B5FFF7EFFF024B18698006800E10BDAD
:106B90000014004010B5FFF7E5FF024B186900052F
:106BA000800E10BD0014004010B5FFF7DBFF024B54
:106BB0001869C003C00E10BD0014004010B5FFF7E7
:106BC000D1FF024B18698002C00E10BD00140040B6
:106BD00010B5FFF7C7FF024B18698001000F10BD09
:106BE0000014004010B5FFF7BDFF024B1869800E7E
:106BF00010BDC0460014004000B58BB0FFF7B2FFD7
:106C000001220F4B52421B690992002208920792FF
:106C10009A0E643206929A01120F013A05929A0274
:106C2000D20E0492DA03D20E03921A059B06920E3C
:106C30009B0E01A80292019312F044FB0BB000BD21
:106C4000001400400221044B1A888A431A809A7A61
:106C5000D209FCD17047C046001400400222044B08
:106C600019880A431A809A7AD209FCD17047C04623
:106C7000001400400122044B19880A431A809A7AB2
:106C8000D209FCD17047C046001400400121044BDA
:106C90001A888A431A809A7AD209FCD17047C04672
:106CA000001400402023F7B500262A4A0F009169FE
:106CB00005000B439361284A284B294C9A82B7421E
:106CC00014D1284B1A7870231A4209D13E000DE0E6
:106CD000002E3CD0019B2361A37ADB09FCD136E076
:106CE00023881B07F2D50126236901932800FFF7AB
:106CF0001DFF2800FFF7A6FF2800FFF7BBFF6388F2
:106D0000194A13406380194B2380A37ADB09FCD115
:106D1000C021C020164A083313608900535800066A
:106D20001B021B0A034353500123E279134307223A
:106D3000E371237F93432377A37ADB09FCD12800F7
:106D4000FFF78CFF2800FFF7A1FF002FC0D0012321
:106D50002B70F7BD00040040CE0600000008004084
:106D60000014004038040040FFBFFFFF080A000085
:106D700000E100E00022014B1A707047400700203C
:106D80003D4B3E4A70B51A6007229A603C4A3D4C22
:106D90005A603D4A86B01268DA603C4B3C4A1A6041
:106DA00005229A603B4A5A603B4A1268DA603B4BC4
:106DB0003B4A1A6003229A603A4A5A603A4A126879
:106DC000DA603A4B236001232376394E0023F05ECC
:106DD00010F002F937490FF01BFC0222011C684633
:106DE00009F065FF344D6846290009F099FF2168D4
:106DF00000230F223C31684609F0ACFF0223F05E0D
:106E000010F0EAF82B490FF003FC0222011C03A842
:106E100009F04DFF03A9684609F00DFF03A809F02A
:106E200077FE2900684609F07BFF216868464B31F0
:106E300000230F2209F08EFF0822204BA26063601E
:106E40001F4B20491B686846E3601F4B9A601F4A2E
:106E500019605A601E4A1268DA601E4B1E4A1A6098
:106E600006229A601D4A5A601D4A1268DA6009F0CB
:106E70004FFE06B070BDC046D407002004000020BD
:106E80009C02002080070020980200204807002074
:106E900074000020BF000020700000206407002064
:106EA000D400002001010020D000002014010020A7
:106EB000A00B00200000C8428AC801008C010020FD
:106EC00010010020A00100209C07002018020020D3
:106ED0009C010020B80700202C0200208602002020
:106EE0002802002010B5064C200006F0F3FE002812
:106EF00005D1200006F0F0FE04F0FCFBF3E710BD26
:106F0000580A002000230C4A1361536113760B4A80
:106F10001361536113760A4A136153611376094A68
:106F2000136153611376084A136153611376074A5C
:106F30001361536113767047D4070020480700207F
:106F400064070020800700209C070020B80700206D
:106F5000F7B5204E0D1E204C019624D00022592357
:106F60001100009320006F3304F08BFD00253A23BD
:106F70005A22009301958E332900200004F081FDF0
:106F8000342395220093019694332900200004F0C5
:106F900078FD00210323019100931E22C5332000B8
:106FA00004F06FFDF7BD66270A00C8232000009794
:106FB00004F067FD20233A0000930195A8332900CF
:106FC000200004F05EFD4123019600938722873361
:106FD000DBE7C046FFFF0000280C0020F0B50600EC
:106FE0004B4C85B00021200004F0FBFF14220A2145
:106FF000200004F0F3FF7168200007F031FE002547
:10700000B368039333690399981E40190FF0BAF8D7
:107010000F1E01DA039BCF186B1C0393022D15D1B1
:107020003C49200004F0DDFF7C220A21200004F00E
:10703000D5FF0F21794333682000591807F010FE5F
:107040000021200004F0CDFF039DD9E76D012A0047
:107050003C3212B20A21200004F0C0FF0F235F432C
:1070600033682000D91907F0FBFD039D052DC7D11A
:107070000025C82329000093200001952A0005F06F
:1070800065FD336923497361200004F0AAFF6A019A
:107090003C3212B20A21200004F0A0FFB36803932F
:1070A00033690399981E40190FF06CF80F1E01DA2E
:1070B000039BCF186B1C0393022D10D100212000DD
:1070C00004F08FFF0F21794333682000591807F02F
:1070D000C7FD1049200004F084FF039DD7E70F236C
:1070E0005F4333682000D91907F0BAFD039D052DD1
:1070F000CDD1142220000A2104F070FF7168200015
:1071000007F0AEFD0021200004F06BFF05B0F0BDDC
:10711000280C0020FFFF0000F0B5012185B005001C
:10712000FFF716FF3A2300270393AB68DC0FE41840
:107130002B696410581EC01921000FF023F80E1E91
:1071400000DA0E19022F37DC374C012F45D13749B1
:10715000200004F046FF74220A21200004F03EFFC4
:107160000F2171432B682000591807F079FD002189
:10717000200004F036FF2E49200005F021F82B49AD
:10718000200004F02EFF88225021200004F026FF6A
:10719000AB682000D90FC9180F234910891959432A
:1071A0002B68591807F05CFD0021200004F019FF3E
:1071B0002049200005F004F8039B01373A339BB2C5
:1071C0000393062FB1D10021C823019100930A0037
:1071D000154805F0BBFC05B0F0BD6B4620000C2245
:1071E0009A5E0A2104F0FAFE0F2171432B682000F9
:1071F000591807F035FD20000D4904F0E1FF039A0E
:107200002000143212B2502104F0E8FEAB682000D6
:10721000D90FC9180F234910891959432B685918D8
:1072200007F01EFDC4E7C046280C0020FFFF000049
:1072300090C801009CC80100037E10B5002B02D04D
:10724000FFF76AFF10BDFFF7C9FEFBE7F0B50021AD
:1072500085B0FD4804F0B4FFFC4D280006F03AFD6F
:10726000F94C0290002800D0C3E204F043FAF84B36
:10727000029A0193C82311000093200004F001FC3E
:10728000029A2000322104F0A9FEF249200007F002
:10729000E7FC029A20008C2104F0A0FEEE492000B9
:1072A00007F0DEFC0A222000052104F097FEEB49DE
:1072B000200007F0D5FC20000A22232104F08EFED6
:1072C000E74F0A223968200007F02CFD1422200025
:1072D000052104F083FEE349200007F0C1FC2000F3
:1072E0001422232104F07AFEDF4E0A2231682000A6
:1072F00007F018FD1E222000052104F06FFEDB4977
:10730000200007F0ADFC20001E22232104F066FEC1
:10731000D74D0A222968200007F004FD20000A2228
:10732000782104F05BFED34B0A221968200007F095
:10733000F9FC20001422782104F050FECE4B0A22E2
:107340001968200007F0EEFC20001E22782104F0CE
:1073500045FECA4B0A221968200007F0E3FC2822E8
:107360002000052104F03AFEC549200007F078FC12
:1073700028222321200004F031FE38680FF02CFE73
:10738000071C30680FF028FE061C28680FF024FE4A
:10739000391C051C381C0FF02BFB311C071C301C42
:1073A0000FF026FB011C381C0EF0A0FF291C061C48
:1073B000281C0FF01DFB011C301C0EF097FF11F074
:1073C00049FC0022AF4B10F0E1FD0022AE4B0BF068
:1073D000BBFC03270B0002000097200007F086FD8E
:1073E00028227821200004F0F9FDA24B18680FF044
:1073F000F3FDA14B039018680FF0EEFD9F4B061CA8
:1074000018680FF0E9FD0399051C081C0FF0F0FA4D
:10741000311C0390301C0FF0EBFA011C03980EF0A6
:1074200065FF291C061C281C0FF0E2FA011C301C09
:107430000EF05CFF11F00EFC0022924B10F0A6FD46
:107440000022914B0BF080FC00970B000200200003
:1074500007F04CFD32222000052104F0BFFD8B49CE
:10746000200007F0FDFB20003222232104F0B6FDAE
:10747000874D0A222968200007F054FC32222000A0
:10748000782104F0ABFD286811F06AFB814A824B39
:1074900010F048F902250B0002000095200007F0CB
:1074A00025FD3C222000052104F098FD7B492000A9
:1074B00007F0D6FB20003C22232104F08FFD784EFC
:1074C0000A223168200007F02DFC3C2220007821A0
:1074D00004F084FD306811F043FB6E4A6E4B10F0EF
:1074E00021F900950B000200200007F0FFFC462266
:1074F0002000052104F072FD6A49200007F0B0FB6E
:1075000020004622232104F069FD674E0A223168DB
:10751000200007F007FC46222000782104F05EFDE1
:10752000306811F01DFB5B4A5B4B10F0FBF80095D7
:107530000B000200200007F0D9FC5022200005219A
:1075400004F04CFD5949200007F08AFB200050222E
:10755000232104F043FD564B0A221968200007F04E
:10756000E1FB20005022782104F038FD5A2220004F
:10757000052104F033FD4F49200007F071FB200086
:107580005A22232104F02AFD4B4B0A2219682000BD
:1075900007F0C8FB20005A22782104F01FFD642266
:1075A0002000052104F01AFD4449200007F058FB93
:1075B00020006422232104F011FD414B0A221968A6
:1075C000200007F0AFFB20006422782104F006FDC4
:1075D00078222000322104F001FD3A49200007F012
:1075E0003FFB782220008C2104F0F8FC3649200073
:1075F00007F036FB82222000052104F0EFFC33491E
:10760000200007F02DFB82222000232104F0E6FC5D
:107610002F4EB06911F01EFB00970B0002002000F6
:1076200007F064FC200082228C2104F0D7FCF16971
:107630000A22200007F076FB8C222000052104F0AE
:10764000CDFC2449200047E0280C0020580A0020E7
:10765000FFFF00000EC7010010C7010014C70100A2
:10766000C80A002017C70100D40A002050C8010032
:10767000E00A0020D00A0020DC0A0020E80A0020EE
:1076800088C701000000303E0000E03F1AC701003B
:10769000FC0A002066666666666660401DC70100DB
:1076A000040B002020C701000C0B002023C70100A1
:1076B0007C0B002026C70100840B002029C7010095
:1076C0008C0B00202CC7010031C7010033E2010000
:1076D000A00B002018C7010007F0C2FA8C2220007E
:1076E000232104F07BFC306A11F0B4FA00970B0000
:1076F0000200200007F0FAFB8C222000110004F0A9
:107700006DFC716A0A22200007F00CFB9622200013
:10771000052104F063FC3B49200007F0A1FA962202
:107720002000232104F05AFCB06A11F093FA00976C
:107730000B000200200007F0D9FB200096228C21CC
:1077400004F04CFCF16A0A22200007F0EBFAA022B8
:107750002000052104F042FC2B49200007F080FAAC
:10776000A02220003C2104F039FC284B186811F0BD
:1077700071FA00950B000200200007F0B7FBAA2267
:107780002000052104F02AFC2149200007F068FAB6
:10779000AA2220003C2104F021FC1E4B186811F0A5
:1077A00059FA00950B000200200007F09FFBB4225D
:1077B0002000052104F012FC1749200007F050FAC0
:1077C000B42220003C2104F009FC144B186811F08D
:1077D00041FA009502000B00200007F087FB01230F
:1077E000029A0193C73300931100200005F0AEF90F
:1077F00032E50B49200004F0E3FC280006F0CAFA49
:1078000005B0F0BD51C8010038C70100240C0020AC
:107810003CC70100900B002042C701009C0B0020D8
:107820009CC80100F7B53E4C3E49200004F0C8FC5E
:10783000C8273D4E300006F04DFA051E67D103F013
:1078400059FF3A4B2A0001932900C82320000097D2
:1078500004F017F91E222000052104F0BFFB344973
:10786000200007F0FDF91E222000462104F0B6FB9F
:10787000304BD86811F0EEF90B00022102000091A4
:10788000200007F033FB2D222000052104F0A6FB89
:107890002949200007F0E4F920002D22462104F0B8
:1078A0009DFB264E0A223168200007F049FA3C224F
:1078B0002000052104F092FB2149200007F0D0F9B7
:1078C00020003C22462104F089FB71680A22200036
:1078D00007F008FA4B222000052104F07FFB19492C
:1078E000200007F0BDF920004B22462104F076FB72
:1078F000B1680A22200007F023FA012300970193C0
:107900002A00C7332900200005F020F991E70E492D
:10791000200004F055FC300006F03CFAF7BDC046EC
:10792000280C002090C80100580A0020FFFF00002A
:10793000F8C60100A00B0020FDC60100EC0A0020E3
:1079400003C7010008C701009CC80100F7B5234C1C
:107950002349200004F034FC01F068FF07210800EF
:1079600009F078F8C8271F4E300006F0B3F9051E5D
:1079700025D103F0BFFE1C4B2A0001932900C82328
:107980002000009704F07DF81E222000052104F05D
:1079900025FB1649200007F075F91549200007F06E
:1079A00071F91449200007F06DF901230097019344
:1079B0002A00C7332900200005F0C8F8D3E70121C9
:1079C000072008F0C3FF01F0E5FE0B49200004F09A
:1079D000F7FB300006F0DEF9F7BDC046280C0020AA
:1079E00090C80100580A0020FFFF000047C70100AF
:1079F00059C701006BC701009CC8010073B52D4C2D
:107A00002D49200004F0DCFBC82500222B4B11007F
:107A1000019320002B00009504F033F81E2205216D
:107A2000200004F0DBFA2649200007F02BF9254955
:107A3000200007F027F901230022019300952B0075
:107A40001100200005F082F81F4D280006F042F9D1
:107A5000002821D103F04EFE642007F09DF81B4D55
:107A60001B4B0A221968280007F05CF9194E280000
:107A7000310007F0F5F8184B0A221968280007F0C2
:107A800051F93100280007F0EBF8144B0A2219686D
:107A9000280007F04BF9D7E70121072008F056FF2F
:107AA00001F078FE0E49200004F08AFB280006F061
:107AB00071F973BD280C002090C80100FFFF000081
:107AC00033C801004AC80100580A002000200020E5
:107AD000C80A002074DA0100D40A0020E00A00205D
