:102000000080002029FA000013FA000013FA0000F3
:1020100000000000000000000000000000000000C0
:1020200000000000000000000000000013FA0000A3
:10203000000000000000000013FA000081FA000018
:1020400013FA000013FA000013FA00006D79000083
:102050000915010013FA000013FA000015FA000038
:1020600013FA0000F936010013FA000013FA000019
:10207000D136010013FA00000937010013FA0000FD
:1020800013FA000013FA000013FA0000A54900003B
:102090000000000013FA000013FA000013FA000019
:1020A00013FA000013FA000013FA000013FA0000FC
:1020B00010B5064C2378002B07D1054B002B02D01E
:1020C000044800E000BF0123237010BD000700207A
:1020D00000000000D04E0200084B10B5002B03D0CA
:1020E0000749084800E000BF07480368002B00D1FB
:1020F00010BD064B002BFBD09847F9E7000000000D
:1021000004070020D04E0200FC0600200000000062
:10211000F7B506003E4B05000C001E4004D5082212
:10212000013E5242164301360720EA17104040197B
:10213000C010234004D50822013B5242134301330F
:102140000721E21711400919324DCA1001922F00E0
:1021500000222C0039788E4205D17978884202D14C
:10216000B97801291AD001320637202AF2D1012686
:10217000213A00202F78BB4206D16F780199B942ED
:1021800002D1AF78012F25D0013006352028F1D1BA
:10219000002E05D00120350040421CE00026E8E773
:1021A0000620504323546B4601211B7920184370AD
:1021B000417106235343E418E378012B09D1637876
:1021C000002B01D0072B04D106214A43114B9A184A
:1021D000D170F7BD00252E43B446EAD106273E0054
:1021E000784356432018A51929790779B942E0D0D8
:1021F000A3556B461B7961466B7001236B7181702F
:10220000C1780529D5D12100C3310B70D1E7C04673
:10221000070000801C07002001226F4BF0B5991CBD
:10222000CA7719000831CA7719002D310A701900D0
:102230000226333118000E70002130300170180072
:102240003930067018000724363004701800032552
:102250003F30057018003C30027018001C004530FB
:102260000570062042341F00207004244B373C7058
:102270001F0048373E701F0051373C704E27BC4648
:102280009C446146493F0F7057218C469C446146EF
:10229000087054218C469C4461460D705D218C462B
:1022A0009C44614605270F705A218C469C44614628
:1022B0000C7063218C469C4461460A7069218C46EF
:1022C0009C4461460A706F218C469C4461460A70AA
:1022D00075218C469C4461460A707B218C469C4447
:1022E00061460A7081218C469C4461460A708721B0
:1022F0008C469C446146DA705A72DA735A75DA7603
:102300000A708D218C469C4461460A7093218C464C
:102310009C4461460E7090218C469C446146002787
:102320000F7099218C469C4461460E7096218C4614
:102330009C44614607270F709F218C469C44614650
:102340000D709C218C469C4461460A70A5218C46E8
:102350009C4461460D70A2218C469C4461460870E5
:10236000AB218C469C4461460C70A8218C469C4451
:1023700061460E701E00B13634701E000521AE3667
:1023800031701E00B73630701E00B43635701D0037
:102390000521BD3529701D000021BA352C700D00B6
:1023A00003349A705D710F2909DC1D71072910DC57
:1023B00058701970013106332029F2D1F0BD1A711D
:1023C000172901DD5D70F5E70E0026405A701E707A
:1023D000F0E75C70EEE7C0461C07002010B5FFF781
:1023E0001BFF074BFF211A00C23211701900002297
:1023F000C1310A701900C033C3310A701A7010BDA0
:102400001C070020F8B505000F0016001C0000296D
:102410005CDB0BF094FBB84258DD002E56DB280045
:102420000BF090FBB04251DD324BEB5C002B05D042
:1024300028000BF084FBFF433F183FB228000BF04D
:102440006DFB022843D003284AD0012804D1F6436B
:102450002B899B193E001FB2274BEA5ABA1A12B2B7
:10246000002A33DB254BEB5A9A422FDA2449695A6A
:10247000711A89B208B2002828DB224EAE5BB04246
:1024800024DA9F2040012F5A1F48285A7843081AFF
:102490001E4986B2695C002902D0781E861BB6B23E
:1024A00031B2002912DBB94210DAD8087043D310D8
:1024B000C01807239343012280B228184C309A4059
:1024C000002C13D01300027813430370F8BDF343BC
:1024D0002A896E89013AD71BF6183FB236B2BBE79C
:1024E0006B89013BDB1B37001EB2B5E703789343D2
:1024F000EBE7C046D6130000E2130000E61300002D
:10250000E4130000E8130000DC130000D713000000
:10251000F0B59F2300240600070089B007910494BA
:10252000039402945B01C35E203601930822835E0C
:102530004C3722000500009339002300300003F0DF
:1025400079FB0799300003F025FD9F235B01EB5ECB
:10255000049401930822AB5E039400930294230039
:1025600022003900300003F065FB09B0F0BD000027
:10257000F0B5172568434D4399B083B203930933EF
:10258000CE4CCF4EADB21BB2069317006A1D12B2ED
:1025900000960423069920000AF0EDFF039B0096A5
:1025A00008331BB20593AB1D1BB20993099A06238E
:1025B000059920000AF0DFFF039B009607331BB24A
:1025C0000493EB1D1BB20A930A9A08230499200076
:1025D0000AF0D1FF2B0008331BB20B93009608239F
:1025E0000B9A049920000AF0C6FF2B0009331BB296
:1025F0000C93009608230C9A049920000AF0BBFF64
:102600002B000A331BB20D93009608230D9A0499F0
:1026100020000AF0B0FF2B000B331BB20E93009684
:1026200006230E9A059920000AF0A5FF2B000C3313
:102630001BB2089300960823089A049920000AF018
:102640009AFF039B009606331BB202932B000D33B7
:102650001BB20F930F9A0A23029920000AF08BFFF6
:102660002B000E331BB2109300960A23109A029986
:1026700020000AF080FF039B009605331BB20793EE
:102680002B000F331BB21193119A0C2307992000D2
:102690000AF071FF2B0010331BB2129300960C232B
:1026A000129A079920000AF066FF2B0011331BB223
:1026B000139300960C23139A079920000AF05BFFEE
:1026C0002B0012331BB2149300960C23149A079913
:1026D00020000AF050FF2B0013331BB21593009615
:1026E0000C23159A079920000AF045FF2B0014339C
:1026F0001BB2169300960C23169A079920001535E5
:102700000AF039FF00962AB20C23079920000AF03C
:1027100032FF039E0A36002F00D0D3E033B2079376
:10272000099A3B0007992000FFF76CFE039B099A6A
:102730000B331BB2179317993B002000FFF762FE83
:102740003B000A9A06992000FFF75CFE039E3B00BF
:102750000C3636B20A9A31002000FFF753FE3B00D8
:102760000B9A05992000FFF74DFE039D3B000D35A8
:102770002DB229000B9A2000FFF744FE3B000C9A73
:1027800005992000FFF73EFE29003B000C9A20002F
:10279000FFF738FE3B000D9A06992000FFF732FE46
:1027A0003B000D9A31002000FFF72CFE3B000E9AF3
:1027B00007992000FFF726FE3B000E9A179920008C
:1027C000FFF720FE3B00089A06992000FFF71AFE4B
:1027D0003B00089A07992000FFF714FE3B00089A77
:1027E00017992000FFF70EFE3B00089A31002000E9
:1027F000FFF708FE3B000F9A05992000FFF702FE45
:1028000029003B000F9A2000FFF7FCFD3B00109AC7
:1028100004992000FFF7F6FD039D3B000E352DB215
:102820002900109A2000FFF7EDFD3B00119A049952
:102830002000FFF7E7FD29003B00119A2000FFF779
:10284000E1FD3B00129A02992000FFF7DBFD039D9A
:102850003B000F352DB2129A29002000FFF7D2FD60
:102860003B00139A02992000FFF7CCFD3B00139A1E
:1028700029002000FFF7C6FD3B00149A02992000B2
:10288000FFF7C0FD3B00149A29002000FFF7BAFDB6
:102890003B00159A02992000FFF7B4FD3B00159A02
:1028A00029002000FFF7AEFD00970A23169A02992F
:1028B00020000AF060FE19B0F0BDC046D00E002026
:1028C000FFFF0000002536B20223099A31002000E4
:1028D00000950AF050FE04230A9A069920000095FC
:1028E0000AF049FE06230B9A0599200000950AF08C
:1028F00042FE06230C9A0599200000950AF03BFE43
:1029000004230D9A0699200000950AF034FE022354
:102910000E9A3100200000950AF02DFE0423089A3B
:102920000699200000950AF026FE06230F9A0599C5
:10293000200000950AF01FFE0823109A0499200039
:1029400000950AF018FE0823119A049920000095BA
:102950000AF011FE0A23129A0299200000950AF04B
:102960000AFE0A23139A0299200000950AF003FE3A
:102970000A23149A0299200000950AF0FCFD0095A4
:102980000A23159A029920000AF0F5FD00958CE7BC
:10299000F0B5172568434D439BB083B202930A33C9
:1029A000754CADB2754E1BB209931700EA1C12B2FA
:1029B00003230999200000960AF0DDFD2B1D1BB2B0
:1029C0001793179A03230999200000960AF0D3FD64
:1029D000029B200009331BB205936B1D1BB2189399
:1029E000189A0523059900960AF0C5FDAB1D1BB288
:1029F0000F930F9A05230599200000960AF0BBFD5E
:102A0000EB1D1BB21093109A052305992000009628
:102A10000AF0B1FD029B200001331BB206932B008C
:102A200008331BB21193119A1523069900960AF0E8
:102A3000A2FD2B0009331BB20393039A15230699B9
:102A4000200000960AF097FD2B000A331BB2049376
:102A5000049A15230699200000960AF08CFD029B2B
:102A6000200002331BB212932B000B331BB20793CF
:102A7000079A1323129900960AF07DFD2B000C3360
:102A80001BB20893089A13231299200000960AF0AB
:102A900072FD029B200003331BB20A932B000D33FF
:102AA0001BB20C930C9A11230A9900960AF063FD4D
:102AB0002B000E331BB20D930D9A11230A9920009F
:102AC00000960AF058FD029B200004331BB20B93C2
:102AD0002B000F331BB20E930E9A0F230B99009607
:102AE0000AF049FD2B0010331BB21393139A0F23E6
:102AF0000B99200000960AF03EFD2B0011331BB20B
:102B00001493149A0F230B99200000960AF033FDBA
:102B1000029B200005331BB206932B0012331BB21D
:102B20001593159A0D23069900960AF024FD2B00A3
:102B300013331BB21693169A0D23069920000096A4
:102B40000AF019FD2B0014331BB21993199A0D23A7
:102B500006992000153500960AF00DFD2AB2009660
:102B60000D23069920000AF006FD029D0B352DB2BB
:102B7000002F00D06AE103E0D00E0020FFFF00002C
:102B800029003B00179A2000FFF73CFC29003B007E
:102B9000189A2000FFF736FC3B000F9A0999200095
:102BA000FFF730FC029D3B000C352DB229000F9A37
:102BB0002000FFF727FC3B00109A09992000FFF73F
:102BC00021FC29003B00109A2000FFF71BFC3B0072
:102BD000119A09992000FFF715FC29003B00119A72
:102BE0002000FFF70FFC3B00039A05992000FFF738
:102BF00009FC029E3B000D3636B23100039A2000DC
:102C0000FFF700FC3B00039A12992000FFF7FAFB44
:102C10003B00039A0A992000FFF7F4FB029D3B005A
:102C200013352DB22900039A2000FFF7EBFB029920
:102C30003B00143109B2039A2000FFF7E3FB3B008D
:102C4000049A05992000FFF7DDFB31003B00049A50
:102C50002000FFF7D7FB3B00049A0A992000FFF7FA
:102C6000D1FB3B00049A0B992000FFF7CBFB3B0004
:102C7000049A06992000FFF7C5FB029B049A1133C2
:102C80001BB2099309993B002000FFF7BBFB029B95
:102C9000049A12331BB20F930F993B002000FFF7E9
:102CA000B1FB29003B00049A2000FFF7ABFB3B007F
:102CB000079A05992000FFF7A5FB31003B00079A12
:102CC0002000FFF79FFB3B00079A0A992000FFF7BF
:102CD00099FB029B079A06331BB2039303993B00AF
:102CE0002000FFF78FFB029B079A10331BB204935F
:102CF00004993B002000FFF785FB29003B00079A61
:102D00002000FFF77FFB3B00089A05992000FFF7A2
:102D100079FB31003B00089A2000FFF773FB3B0072
:102D2000089A0B992000FFF76DFB029B089AD91DAA
:102D300009B23B002000FFF765FB02993B000F3111
:102D400009B2089A2000FFF75DFB3B00089A0F9933
:102D50002000FFF757FB029E3B00083636B20C9A64
:102D600031002000FFF74EFB029D3B000E352DB2D7
:102D70000C9A29002000FFF745FB3B000C9A0B99A9
:102D80002000FFF73FFB3B000C9A0F992000FFF754
:102D900039FB3B000D9A31002000FFF733FB3B006D
:102DA0000D9A29002000FFF72DFB3B000D9A069994
:102DB0002000FFF727FB3B000D9A09992000FFF741
:102DC00021FB3B000E9A06992000FFF71BFB3B00FE
:102DD0000E9A09992000FFF715FB3B00139A0699FC
:102DE0002000FFF70FFB3B00139A09992000FFF723
:102DF00009FB3B00149A03992000FFF703FB3B00FB
:102E0000149A04992000FFF7FDFA3B00159A0399E4
:102E10002000FFF7F7FA3B00159A04992000FFF70E
:102E2000F1FA3B00169A03992000FFF7EBFA3B00FA
:102E3000169A04992000FFF7E5FA0B23199A0399D3
:102E4000009720000AF097FB1BB0F0BD0026290078
:102E50000023179A2000FFF7D5FA29000023189ABB
:102E60002000FFF7CFFA03230F9A0999200000965C
:102E70000AF081FB0323109A0999200000960AF0BA
:102E80007AFB0323119A0999200000960AF073FB3C
:102E90000523039A0599200000960AF06CFB330085
:102EA000039A12992000FFF7ADFA3300039A0A99AA
:102EB0002000FFF7A7FA02993300133109B2039AF1
:102EC0002000FFF79FFA02993300143109B2039AE8
:102ED0002000FFF797FA0523049A05992000009631
:102EE0000AF049FB0323049A0A99200000960AF08D
:102EF00042FB029D032311352DB22900049A2000C4
:102F000000960AF038FB0523079A059920000096E1
:102F10000AF031FB0423079A0A99200000960AF070
:102F20002AFB02990423103109B2079A2000009667
:102F30000AF021FB0523089A0599200000960AF063
:102F40001AFB0423089A0B99200000960AF013FB41
:102F5000029904230F3109B2089A200000960AF062
:102F60000AFB0F230C9A0B99200000960AF003FB32
:102F70000D230D9A0699200000960AF0FCFA0D2305
:102F80000E9A0699200000960AF0F5FA29003300FF
:102F90000E9A2000FFF736FA0D23139A06992000A7
:102FA00000960AF0E8FA029D0B2306352DB2149A1A
:102FB0002900200000960AF0DEFA0B23159A29005A
:102FC000200000960AF0D7FA0B23169A29000096E3
:102FD00020000AF0D0FA00960B23199A290030E756
:102FE000F0B5172670434E439DB083B20293083369
:102FF000734CB6B2734F1BB204931500F21C12B29D
:1030000006230499200000970AF0B5FA331D1BB27D
:103010000993099A06230499200000970AF0ABFA55
:10302000029B200007331BB20393731D1BB20D9349
:103030000D9A0823039900970AF09DFAB31D1BB25D
:103040001193119A09230399200000970AF093FA2B
:10305000029B200006331BB20593F31D1BB20E9397
:103060000E9A0B23059900970AF085FA029B20001F
:1030700005331BB20A93330008331BB20893089A36
:103080000C230A9900970AF076FA029B2000043379
:103090001BB20F93330009331BB21293129A0E2303
:1030A0000F9900970AF067FA029B200003331BB2C6
:1030B0000C9333000A331BB21393139A10230C9909
:1030C00000970AF058FA33000B331BB20B930B9A9C
:1030D00010230C99200000970AF04DFA33000C33AE
:1030E0001BB20693069A10230C99200000970AF051
:1030F00042FA33000D331BB20793079A10230C9941
:10310000200000970AF037FA33000E331BB20C93FD
:103110000C9A10230F99200000970AF02CFA330024
:103120000F331BB21493149A0F230A9920000097AF
:103130000AF021FA330010331BB21593159A0E23AF
:103140000599200000970AF016FA330011331BB2DC
:103150001693169A0E230599200000970AF00BFA91
:10316000330012331BB21793179A0E2305992000D0
:1031700000970AF000FA330013331BB21993199A1F
:103180000D230599200000970AF0F5F93300143358
:103190001BB21A931A9A0D23059920001536009731
:1031A0000AF0E9F932B200970C23039920000AF0E3
:1031B000E2F9029E0936002D00D090E104E0C046FD
:1031C000D00E0020FFFF000033B21093099A2B00AD
:1031D00010992000FFF716F9029B099A0B331BB2D6
:1031E000189318992B002000FFF70CF9029B099AFD
:1031F0000C331BB21B931B992B002000FFF702F925
:103200002B000D9A10992000FFF7FCF8029B0D9AF5
:103210000A331BB2099309992B002000FFF7F2F83B
:103220002B000D9A18992000FFF7ECF82B000D9A4F
:103230001B992000FFF7E6F82B00119A0499200053
:10324000FFF7E0F82B00119A10992000FFF7DAF849
:1032500002992B000D3109B2119A2000FFF7D2F824
:103260002B000E9A04992000FFF7CCF82B000E9A41
:1032700009992000FFF7C6F8029E2B000E3636B2E1
:1032800031000E9A2000FFF7BDF82B00089A039931
:103290002000FFF7B7F82B00089A10992000FFF7DD
:1032A000B1F82B00089A09992000FFF7ABF8029FAC
:1032B0002B000F373FB23900089A2000FFF7A2F821
:1032C0002B00129A05992000FFF79CF831002B0083
:1032D000129A2000FFF796F839002B00129A20006E
:1032E000FFF790F82B00139A0A992000FFF78AF84D
:1032F00039002B00139A2000FFF784F8029E2B0060
:10330000103636B2139A31002000FFF77BF82B00FD
:103310000B9A0F992000FFF775F82B000B9A18995C
:103320002000FFF76FF82B000B9A1B992000FFF786
:1033300069F839002B000B9A2000FFF763F8029F11
:103340002B0011373FB20B9A39002000FFF75AF8D3
:103350002B00069A0F992000FFF754F82B00069ACD
:103360000A992000FFF74EF82B00069A10992000CA
:10337000FFF748F82B00069A09992000FFF742F85A
:103380002B00069A18992000FFF73CF82B00069AAC
:1033900031002000FFF736F82B00069A3900200094
:1033A000FFF730F82B00079A0A992000FFF72AF858
:1033B0002B00079A03992000FFF724F82B00079AA7
:1033C00004992000FFF71EF82B00079A1899200097
:1033D000FFF718F82B00079A31002000FFF712F8CA
:1033E0002B00079A39002000FFF70CF82B000C9AED
:1033F00005992000FFF706F82B000C9A0999200088
:10340000FFF700F82B000C9A31002000FEF7FAFFBE
:103410002B000C9A39002000FEF7F4FF2B00149AC1
:1034200010992000FEF7EEFF2B00149A31002000C7
:10343000FEF7E8FF029B149A12331BB20293029923
:103440002B002000FEF7DEFF2B00159A04992000C8
:10345000FEF7D8FF2B00159A31002000FEF7D2FFAF
:103460002B00159A02992000FEF7CCFF2B00169A2C
:1034700003992000FEF7C6FF2B00169A31002000AA
:10348000FEF7C0FF2B00169A02992000FEF7BAFF44
:103490002B00179A03992000FEF7B4FF2B00179A10
:1034A00031002000FEF7AEFF2B00179A39002000F4
:1034B000FEF7A8FF2B00199A03992000FEF7A2FF40
:1034C0002B00199A39002000FEF79CFF00950A2373
:1034D0001A9A049920000AF04EF81DB0F0BD00259C
:1034E00036B2099A310020000023FEF78BFF029BC1
:1034F000099A0B331BB21093109920000023FEF79A
:1035000081FF0299099A0C31200009B20023FEF7CD
:1035100079FF0D9A31002000009504230AF02BF862
:10352000119A04992000009506230AF024F80E9AB7
:1035300004992000009507230AF01DF8029B0E9ABB
:103540000A331BB2029302993B002000FEF75AFF98
:10355000089A03992000009509230AF00CF83B0013
:10356000089A31002000FEF74DFF3B00089A0299AF
:103570002000FEF747FF129A0599200000950A23C4
:1035800009F0F9FF139A0A99200000950C2309F01D
:10359000F2FF0B9A0F99200000950E2309F0EBFF24
:1035A000069A0F99200000950E2309F0E4FF079A70
:1035B0000A9920000095042309F0DDFF079A10996D
:1035C00020000095072309F0D6FF2B000C9A0599DF
:1035D0002000FEF717FF0C9A02992000009508239F
:1035E00009F0C9FF149A3100200000950A2309F060
:1035F000C2FF159A0499200000950B2309F0BBFF28
:10360000169A0399200000950C2309F0B4FF179A2D
:103610000399200000950B2309F0ADFF00950B23C3
:10362000199A0399200009F0A6FF4FE7F0B5172675
:1036300070434E439DB083B203930A33F04CB6B24D
:10364000F04F1BB21A931500F21C12B203231A9901
:103650002000009709F08FFF039B200008331BB266
:103660001693331D1BB21793179A072316990097C9
:1036700009F081FF039B200007331BB21893731DD1
:103680001BB20793079A09231899009709F073FF53
:10369000039B200006331BB20A93B31D1BB20B938E
:1036A0000B9A0B230A99009709F065FF039B2000F2
:1036B00005331BB20593F31D1BB20C930C9A0D231B
:1036C0000599009709F057FF330008331BB20D939B
:1036D0000D9A0D2305992000009709F04CFF039BDC
:1036E000200004331BB20493330009331BB2089348
:1036F000089A0F230499009709F03DFF33000A331D
:103700001BB20E930E9A0F2304992000009709F024
:1037100032FF039B200003331BB2069333000B33AD
:103720001BB20F930F9A11230699009709F023FFFC
:1037300033000C331BB20993099A11230699200018
:10374000009709F018FF33000D331BB21093109A45
:10375000112306992000009709F00DFF33000E3366
:103760001BB21193119A112306992000009709F0BA
:1037700002FF33000F331BB21293129A11230699E2
:103780002000009709F0F7FE330010331BB21393AB
:10379000139A112306992000009709F0ECFE3300DC
:1037A00011331BB21493149A112306992000009729
:1037B00009F0E1FE330012331BB21593159A112361
:1037C00006992000009709F0D6FE330013331BB290
:1037D0000693069A0F2304992000009709F0CBFE68
:1037E000330014331BB21993199A0F230499200044
:1037F0000097153609F0BFFE0F2332B200970499E7
:10380000200009F0B8FE039B0B331BB2002D00D043
:10381000FAE01B93179A2B001B992000FEF7F2FD8C
:10382000039B079A09331BB2179317992B002000AB
:10383000FEF7E8FD2B00079A1A992000FEF7E2FD3B
:1038400003992B000C3109B2079A2000FEF7DAFD2C
:1038500003992B000D3109B2079A2000FEF7D2FD23
:103860002B000B9A16992000FEF7CCFD03992B0034
:103870000E3109B20B9A2000FEF7C4FD2B000C9A02
:1038800018992000FEF7BEFD03992B000F3109B2F5
:103890000C9A2000FEF7B6FD2B000D9A0A99200025
:1038A000FEF7B0FD039E2B00103636B231000D9AA4
:1038B0002000FEF7A7FD2B00089A0A992000FEF7CA
:1038C000A1FD31002B00089A2000FEF79BFD2B0084
:1038D0000E9A05992000FEF795FD039F2B001137E6
:1038E0003FB20E9A39002000FEF78CFD2B000F9A94
:1038F00005992000FEF786FD2B000F9A3900200065
:10390000FEF780FD2B00099A04992000FEF77AFD4E
:10391000039E2B00123636B2099A31002000FEF7C2
:1039200071FD2B00109A04992000FEF76BFD2B000F
:10393000109A31002000FEF765FD2B00119A0499C2
:103940002000FEF75FFD2B00119A31002000FEF7EA
:1039500059FD2B00129A04992000FEF753FD2B000D
:10396000129A31002000FEF74DFD2B00139A0499A6
:103970002000FEF747FD2B00139A31002000FEF7D0
:1039800041FD2B00149A04992000FEF73BFD2B000B
:10399000149A31002000FEF735FD2B00159A059989
:1039A0002000FEF72FFD2B00159A39002000FEF7AE
:1039B00029FD2B00069A05992000FEF723FD2B0018
:1039C000069A39002000FEF71DFD0D23199A05996E
:1039D0002000009509F0CFFD0923089A00931B9958
:1039E000073B0195200009F0E4FD0223099A17998D
:1039F000009301950433200009F0DBFD1DB0F0BDFC
:103A0000D00E0020FFFF000000251A93179A002314
:103A10001A992000FEF7F6FC039E0523093636B2FC
:103A2000079A31002000009509F0A5FD07230B9AA5
:103A300016992000009509F09EFD09230C9A18990B
:103A40002000009509F097FD0B230D9A0A9920009C
:103A5000009509F090FD0B23089A0A992000009523
:103A600009F089FD0D230E9A05992000009509F0B3
:103A700082FD0D230F9A05992000009509F07BFD2A
:103A80000F23099A04992000009509F074FD0F2373
:103A9000109A04992000009509F06DFD0F23119AEA
:103AA00004992000009509F066FD0F23129A0499ED
:103AB0002000009509F05FFD0F23139A0499200060
:103AC000009509F058FD0F23149A049920000095E1
:103AD00009F051FD0D23159A05992000009509F074
:103AE0004AFD0D23069A05992000009509F043FD33
:103AF0000D23199A05992000009509F03CFD092332
:103B0000089A00931A99073B0197200009F051FD8C
:103B1000022301970093099A043331006BE7C046F2
:103B2000F0B5172568434D4395B083B202930A332D
:103B3000C84CADB2C84E1BB203931700AA1C12B2F8
:103B4000042303992000009609F015FDEB1C1BB21D
:103B50001193119A042303992000009609F00BFD9C
:103B6000029B2A1D08331BB2059312B20823059944
:103B70002000009609F0FFFC6B1D1BB21293129AF5
:103B8000082305992000009609F0F5FCAA1D12B241
:103B9000082305992000009609F0EDFCEA1D12B2F9
:103BA000082305992000009609F0E5FC2A00083258
:103BB00012B2042303992000009609F0DCFC2A00CD
:103BC000093212B2072305992000009609F0D3FCB0
:103BD000029B200006331BB208932B000A331BB252
:103BE0001393139A0B230899009609F0C4FC029BC7
:103BF000200005331BB204932B000B331BB206933A
:103C0000069A0D230499009609F0B5FC029B20004A
:103C100004331BB203932B000C331BB20993099A94
:103C20000F230399009609F0A6FC2B000D331BB25D
:103C30000A930A9A0F2303992000009609F09BFC2F
:103C4000029B200003331BB207932B000E331BB2E1
:103C50000B930B9A11230799009609F08CFC2B000B
:103C60000F331BB20C930C9A112307992000009676
:103C700009F081FC2B0010331BB20D930D9A112318
:103C800007992000009609F076FC2B0011331BB237
:103C90000E930E9A112307992000009609F06BFCF1
:103CA0002B0012331BB20F930F9A11230799200098
:103CB000009609F060FC2B0013331BB21093109A8E
:103CC000112307992000009609F055FC2B001433AE
:103CD0001BB20793079A0F2303992000009615350E
:103CE00009F049FC04992AB200960D23200009F03E
:103CF00042FC02990B3109B2002F00D0AEE007233D
:103D0000119A00932000053B019709F052FC022311
:103D1000029D009309352DB229000433129A200028
:103D2000019709F046FC29000523139A200000970B
:103D300009F021FC029B069AD91D09B23B00200024
:103D4000FEF760FB3B00069A05992000FEF75AFB40
:103D500002993B000E3109B2069A2000FEF752FB91
:103D600002993B000F3109B2069A2000FEF74AFB88
:103D70003B00099A08992000FEF744FB02993B009A
:103D8000103109B2099A2000FEF73CFB3B000A9A69
:103D900004992000FEF736FB029E3B00113636B236
:103DA0000A9A31002000FEF72DFB3B000B9A049984
:103DB0002000FEF727FB3B000B9A31002000FEF7A6
:103DC00021FB3B000C9A03992000FEF71BFB029D90
:103DD0003B0012352DB20C9A29002000FEF712FB91
:103DE0003B000D9A03992000FEF70CFB3B000D9A57
:103DF00029002000FEF706FB3B000E9A03992000E5
:103E0000FEF700FB3B000E9A29002000FEF7FAFAAD
:103E10003B000F9A03992000FEF7F4FA3B000F9A3B
:103E200029002000FEF7EEFA3B00109A04992000CA
:103E3000FEF7E8FA3B00109A31002000FEF7E2FAA4
:103E400000970B23079A0899200009F094FB15B0FE
:103E5000F0BDC046D00E0020FFFF00000026072363
:103E6000119A00932000053B019609F0A2FB022362
:103E7000029D009309352DB20433129A29002000C7
:103E8000019609F096FB0523139A2900200000965D
:103E900009F071FB02990923073109B2069A200043
:103EA000009609F068FB0B23099A089920000096F8
:103EB00009F061FB0D230A9A04992000009609F08D
:103EC0005AFB0D230B9A04992000009609F053FB2E
:103ED0000F230C9A03992000009609F04CFB0F2346
:103EE0000D9A03992000009609F045FB0F230E9AC6
:103EF00003992000009609F03EFB0F230F9A0399C7
:103F00002000009609F037FB00960D23109A0499C3
:103F1000200009F030FB009693E7C046F0B515008D
:103F20001722504395B083B24A430393991C092347
:103F300097B2E04CE04E3A1D12B209B201960093DE
:103F400020000A3309F035FB039B009605331BB2B2
:103F500004933B000D331BB20993099A0D23049976
:103F6000200009F008FB039B009606331BB2059363
:103F70003B000E331BB20A930A9A0B2305992000CB
:103F800009F0F9FA3B000F331BB20B9300960B2399
:103F90000B9A0599200009F0EEFA3B0010331BB292
:103FA0000C9300960D230C9A0499200009F0E3FA73
:103FB000039B009604331BB207933B0011331BB2E3
:103FC0000F930F9A0F230799200009F0D4FA3B00B2
:103FD00012331BB20D9300960F230D9A0799200000
:103FE00009F0C9FA3B0013331BB20E9300960F235E
:103FF0000E9A0799200009F0BEFA3B0014331BB259
:10400000109300960F23109A0799200009F0B3FA35
:104010003A00153200960F2312B20799200009F0DA
:10402000AAFA039B7E1D03331BB2069336B2002D02
:1040300000D043E13200042306992000009509F0E6
:104040009AFA039B320009331BB21193119905238D
:104050002000009509F08FFA039B320010331BB249
:104060001293BE1D36B2042312992000009509F068
:1040700082FA32002B0006992000FEF7C3F93200C5
:104080002B0005992000FEF7BDF932002B00119995
:104090002000FEF7B7F9039B32000D331BB21393D8
:1040A00013992B002000FEF7ADF932002B00129976
:1040B0002000FEF7A7F9039B320013331BB20893CD
:1040C000FE1D36B22B0008992000FEF79BF9320046
:1040D0002B0006992000FEF795F932002B00059978
:1040E0002000FEF78FF932002B0011992000FEF717
:1040F00089F932002B0013992000FEF783F9320072
:104100002B0012992000FEF77DF932003E000836A0
:1041100036B22B0008992000FEF774F932002B000C
:1041200006992000FEF76EF932000423059920005D
:10413000009509F020FA320004231399200000951D
:1041400009F019FA32003E00093636B22B00089900
:104150002000FEF757F932002B0006992000FEF7E9
:1041600051F932003E000A3636B22B000899200081
:10417000FEF748F932002B0006992000FEF742F9BD
:1041800032003E000B3636B22B0008992000FEF7B5
:1041900039F932002B0006992000FEF733F932007E
:1041A0002B0007992000FEF72DF932002B0004990F
:1041B0002000FEF727F9039B320011331BB2069350
:1041C00006992B002000FEF71DF9039932001231E9
:1041D00009B22B002000FEF715F932002B000899D8
:1041E0002000FEF70FF93A000C3212B20B230599AA
:1041F0002000009509F0BFF9039B099ADF1D3FB22B
:104200002B0039002000FEF7FDF8039E2B000F362F
:1042100036B2099A31002000FEF7F4F82B000A9A12
:1042200039002000FEF7EEF82B000A9A310020003A
:10423000FEF7E8F82B000B9A39002000FEF7E2F8B1
:104240002B000B9A31002000FEF7DCF82B000C9AB3
:1042500039002000FEF7D6F82B000C9A3100200020
:10426000FEF7D0F80B230F9A05992000009509F06E
:1042700082F92B000D9A04992000FEF7C3F82B0059
:104280000D9A06992000FEF7BDF82B000E9A0499AE
:104290002000FEF7B7F82B000E9A06992000FEF7D3
:1042A000B1F800950D23109A0499200009F063F9E4
:1042B00015B0F0BDD00E0020FFFF00000025320039
:1042C000069920000095042309F055F9039B32005C
:1042D00009331BB20793079920000095052309F0C5
:1042E0004AF9039B320010331BB20893BE1D36B24D
:1042F000089920000095042309F03DF93200069941
:1043000020000095042309F036F9320007992000B7
:104310000095052309F02FF93200FE1D36B20899E9
:1043200020000095042309F026F9320006992000A8
:104330000095042309F01FF9320007992000009529
:10434000052309F018F9320008992000009504238C
:1043500009F011F93A0008320699200012B20095CE
:10436000112309F008F93A0009320699200012B227
:104370000095112309F0FFF83A000A32069920004F
:1043800012B20095112309F0F6F83A000B320699A3
:10439000200012B20095112309F0EDF83A000C321A
:1043A0000599200012B200950B2309F0E4F8039E52
:1043B000099A073636B2310020000095092309F02A
:1043C000DAF80A9A310020000095092309F0D3F8A1
:1043D0000B9A310020000095092309F0CCF80C9AC3
:1043E000310020000095092309F0C5F80F9A0599BE
:1043F000200000950B2309F0BEF80D9A04992000C7
:1044000000950D2309F0B7F800950D230E9A049935
:10441000200009F0B0F844E7F7B50023FF20434F30
:10442000434A190001334C3178549342F9D10025A5
:1044300001261721280012F0B1FC00243040019021
:104440002B00234333420ED1019B17212000002B68
:104450005CD012F0A3FC0300334004D122B229B295
:104460003800FDF7CFFF354210D034420ED0019B0B
:1044700017212000002B51D012F090FC0300334094
:1044800004D122B229B23800FDF7BCFF0134B82CA8
:10449000D6D10135B82DCCD1264C2500C035A37816
:1044A000012B2FD1E378012B04D122796178207878
:1044B000FEF75EF8E378022B04D122796178207848
:1044C000FFF72CFDE378032B04D122796178207863
:1044D000FEF786FDE378042B04D1227961782078F9
:1044E000FFF7A4F8E378062B04D1227961782078CD
:1044F000FEF74EFAE378052B04D122796178207813
:10450000FFF70EFB0634A542C9D1F7BD12F046FCF9
:104510003042A8D022B229B2019BA1E712F03EFCA2
:104520003042B3D022B229B2019BACE7D00E0020BA
:10453000881300001C070020F0B5C3B289B03F2BE0
:1045400057D80724C31004401725069323006B4354
:1045500007936B4600270594069C1C229B5E6C43C8
:10456000A4B2254E039323B20493049A2B0003991B
:1045700030000134009708F0FEFF22B22B000399AF
:104580003000009708F0F7FF069B03995C1C6C4312
:10459000A4B222B22B003000013C009708F0EBFFE0
:1045A00022B22B0003993000009708F0E4FF2B00A3
:1045B000049A03993000009708F0BFFF059B049A06
:1045C0005C1C6C432B0021B23000009708F0B5FF53
:1045D000079B049A591C09B22B0030000097013C3C
:1045E00008F0ABFF21B200972B00049A300008F0CE
:1045F000A4FF09B0F0BDC046D00E0020F0B5C3B294
:104600008DB03F2B00D9E9E0072417230440634312
:104610000794172405936B460026C5106C4314229B
:104620009B5EA4B26E4F039323B20493049A0823B3
:1046300003993800009608F09EFF631C1BB2089394
:10464000089A0823039938000234009608F093FF73
:1046500023B20993099A082303993800009608F0B9
:104660008AFF172301355D43ABB20693013B1BB2B2
:104670000A930A9A082303993800009608F07BFFF2
:10468000069B0399023B1BB20B930B9A082338003D
:10469000009608F070FF069B0399DD1E2DB22A00DC
:1046A00008233800009608F066FF079B049A5C1CFC
:1046B00017235C43083C24B221000F3B38000096CE
:1046C00008F059FF21000823089A3800009608F0E6
:1046D00052FF21000823099A3800009608F04BFF8A
:1046E000210008230A9A3800009608F044FF2100B0
:1046F00008230B9A3800009608F03DFF2A0021009D
:1047000008233800009608F036FF0823049A03991E
:104710003800009608F011FF059B049A01331BB284
:104720000793079908233800009608F006FF059BB9
:10473000049A9D1C2DB2290008233800009608F029
:10474000FCFE069C0823083C24B222000399380092
:10475000009608F0F2FE0823220007993800009620
:1047600008F0EBFE2900082322003800009608F02C
:10477000E4FE059B049A16331BB2039303990823A6
:104780003800009608F0D9FE059B049A15331BB239
:104790000693069908233800009608F0CEFE059D82
:1047A000082314352DB2049A29003800009608F029
:1047B000C4FE0823220003993800009608F0BDFECD
:1047C0000823220006993800009608F0B6FE0096ED
:1047D000082322002900380008F0AFFE0DB0F0BD1C
:1047E000D00E0020F7B5FDF7F9FDFFF715FEC2204A
:1047F000354C01272056FFF79FFEC1202056FFF7BA
:10480000FDFE00213148FDF783FE314E300009F0F6
:1048100065FF300009F060FF00284DD000230193B0
:10482000300009F059FF002836D0300009F0B4FFFD
:104830000428F5D812F01EFA030B10151A002200F6
:10484000C1321378083B3F210B401370E8E7220088
:10485000C13213780833F6E72200C1321378013BE6
:10486000F1E72200C13213780133ECE72300250081
:104870000020C133C23519782856814202D1FF2366
:104880002B70CDE7431C01D12970C9E7FDF740FC2F
:10489000FF2301972B70C3E7FFF7BEFDC220205610
:1048A000FFF74AFEC1202056FFF7A8FE01990748EE
:1048B00079403940FDF72CFE2300C3331B785BB2EF
:1048C000002BA2D0F7BDC0461C070020D00E002050
:1048D000CC0B0020C122254B2549920010B51A604F
:1048E0000A004B78DB09FCD12249234B196053782D
:1048F000DB09FCD12149224B19805378DB09FCD11B
:104900000422204B19880A431A80DA7BD209FCD191
:10491000FF211D4A1170DA7BD209FCD1FF211B4A0D
:104920001170DA7BD209FCD1FF21194A1170DA7BB0
:10493000D209FCD1C424C0201649A4000A5900069B
:104940001202120A02430A51802212030A60312124
:10495000114802780A430270104A11701988104AEF
:104960000A431A80DA7BD209FCD110BD080C004042
:10497000000C004004070300040C00401C4400002D
:10498000020C004000300042183000421930004252
:104990001430004200E100E00E3000420D300042D1
:1049A00002070000F0B5002491B00EAB5C711C71E1
:1049B000D9490F9AD9480E910EF0D2FCD84B1B78EA
:1049C000DB0700D456E1079406F040FE079B8342C4
:1049D00000DBBAE006F04CFED24CD34B1D68E36915
:1049E000E81A13F0EBF9A16912F0F4FE13F0C6F91E
:1049F000CE4B626A1860CE4B08901B68981A0993D8
:104A000013F0DCF9216A12F0E5FE13F0B7F9C94B97
:104A1000E26A1860C84B0A901B68981A0B9313F04F
:104A2000CDF9A16A12F0D6FE13F0A8F9C34B0C9091
:104A30001860C34BC3481F68E36B4743FF1AC24B60
:104A40001E68636C4643F61AC04B216B1B685843C3
:104A5000636BC01A12F0A2F9BD4BA16B18600D90E8
:104A6000380012F09BF9BB4B216C18600700300036
:104A700012F094F9B84AB94B116818604B015B1AEF
:104A80005D196D111560B64A040011684B015B1A7F
:104A900009995B185B111360B24A11684B015B1AEC
:104AA0000B995B185B111360AF4AB04B11681D681E
:104AB0004B015B1A5B195B111360AD4A1168AD4B7A
:104AC0001E684B015B1A9B195B111360AA4AAB4B22
:104AD000116818684B015B1A1B185B11136013F007
:104AE0006DF9A74912F076FE0990300013F066F9CF
:104AF000A34912F06FFE061C280013F05FF9A049CD
:104B000012F068FE051C200013F058F905903800DB
:104B100013F054F904900D9813F050F903900C9889
:104B200013F04CF902900A9813F048F90190089894
:104B300013F044F9099B0090321C291C914802F0A3
:104B40005BF9079B153307933EE7784B186813F022
:104B500035F9E221890512F03DFE764B099018687F
:104B600013F02CF9E221890512F034FE734B0A9000
:104B7000186813F023F9E221890512F02BFE814C0D
:104B80000B906068A16812F025FEE6682769051C95
:104B9000391C301C12F01EFE011C281C12F098FA61
:104BA0000790A068A16812F015FE011CFC2080058A
:104BB00012F030FFE668E768051C391C301C12F063
:104BC00009FE011C281C12F025FF0799051C081C72
:104BD00012F000FE291C061C281C12F0FBFD011C13
:104BE000301C12F075FA01F06FFE061CA0682169F6
:104BF0006368E768089312F0EDFD391C041C0898FF
:104C000012F0E8FD011C201C12F004FFC02109066F
:104C100012F0E0FD011C041C12F0DCFD011CFE2062
:104C2000800512F0F7FE0FF0E5F9291C071C0B9820
:104C300012F0D0FD311C12F0CDFD391C12F0CAFD6E
:104C4000211C051C099812F0C5FD011C281C12F03E
:104C5000E1FE0799041C0A9812F0BCFD311C12F009
:104C6000B9FD391C12F0B6FD011C201C12F030FAFF
:104C7000454B18602A4B1B789B0721D506F0B6FDE3
:104C800026480EF08BFB06F037FE404912F0A2FDDD
:104C90003F4B051C18603C4B3E49186812F09AFDCA
:104CA0003C4912F0B7FE3C4C011C3C4B3C4A281CD2
:104CB000009401F051FC206813F060F806F014FB3A
:104CC000384C394B22681B6801209A4200DB0020D7
:104CD00006F0DAFA354A13680133136023680133AA
:104CE0002360334B22681B689A4201DD0023236056
:104CF000304809F0F3FC304A1368013313602F4A3F
:104D000013680133136020222D4B1A701F3A1A705A
:104D10000F321A7011B0F0BD404B4C00200C002037
:104D2000180D0020240D00203C0C0020440C002015
:104D3000480C0020500C0020540C00205C0C00207B
:104D4000000D002040420F00080D0020F80C00204C
:104D5000FC0C0020040D0020400C00200C0D002055
:104D60004C0C0020580C0020800C00207C0C0020F3
:104D7000880C0020840C0020900C00208C0C00205B
:104D80007D7D0B39E0070020300C00200000C84278
:104D9000340C002000007A44C00E0020380C0020A3
:104DA0008988883C680900206C0900203C080020A4
:104DB00070090020CC0B0020BC220020680C0020D1
:104DC0000E30004210B5074802F0BAFD064B074A04
:104DD0001A60FE2292055A6000229A60DA601A6117
:104DE00010BDC04604080020E0070020CDCCCC3D1B
:104DF0000022002330B5026043608260C36000245B
:104E00008261C3610023034D836304614561C36311
:104E100030BDC0460000F03F0023F0B587B00193DD
:104E20000022002305000C00029203936868019B96
:104E300083423EDADE00AB68991908684968226847
:104E4000636814F015FAEB68049005919E193068B8
:104E50007168A268E36814F00BFA049A059B0600D7
:104E60000F001000190013F083FF32000490059129
:104E70003B003000390013F07BFF02000B00049868
:104E8000059913F031F80EF0FDFF2269636914F003
:104E9000EFF902000B0013F06BFF0B000200029809
:104EA000039913F021F8019B0290039101330193C0
:104EB000BCE714F047FD02000B000298039913F0C1
:104EC00023FB0EF0DFFF07B0F0BD0000F0B5ABB084
:104ED00007910690FFF78CFF079800F0EFFA079B09
:104EE000002600275B6814961597109300230E96F2
:104EF0000F970C960D970A960B97089609970093B3
:104F0000009B109A934200DB7DE0DC00079B9B68CE
:104F100019190293079B086849681A695B6914F0BC
:104F2000A7F9079B02900391DB681C190493079B68
:104F3000206861689A69DB6914F09AF9029A039B08
:104F4000049005911000190013F012FF049A059BBC
:104F5000129013911000190013F00AFF02000B00C9
:104F6000169017911298139912F0BEFF049A059BA0
:104F700004000D000298039913F0FAFE02000B00E2
:104F80000898099912F0B0FF129A139B08900991A2
:104F90000A980B9912F0A8FF169A179B0A900B918A
:104FA0000C980D9912F0A0FF22000C900D91029820
:104FB00003992B0013F0DCFE02000B000E980F99F2
:104FC00012F092FF22000E900F91049805992B0089
:104FD00013F0CEFE02000B001498159912F084FF16
:104FE0002200149015912B002000290013F0C0FE20
:104FF0000B0002003900300012F076FF009B060023
:105000000F0001337BE7109814F09CFC04000D00A6
:1050100002000B000A980B9913F076FA22002B007D
:10502000109011910C980D9913F06EFA22002B003C
:10503000129013910898099913F066FA22002B0038
:10504000009001910E980F9913F05EFA22002B0048
:10505000089009911498159913F056FA22000A90B5
:105060000B912B003000390013F04EFA129A139B6B
:1050700006000F001098119912F036FF129A139B38
:10508000049005911098119913F072FE009A019BFB
:1050900004000D001000190013F06AFE02000B005E
:1050A0002000290014F0E4F8049A059B1890199147
:1050B0001000190013F05CFE02000B0030003900F4
:1050C00014F0D6F800220290039104980599E04B61
:1050D00013F04EFE00221490159104980599DD4BB3
:1050E00013F046FE049A059B13F042FE32003B008B
:1050F00014F0BEF8002206000F0018981999D44B3E
:1051000013F036FE049A059B13F032FE029A039BBD
:1051100004000D000498059913F02AFE02000B000C
:105120002000290012F0E0FE089A099B04000D00FF
:105130001000190013F01CFE02000B0020002900D3
:1051400014F096F80A9A0B9B04000D001000190049
:1051500013F00EFE02000B002000290014F088F866
:105160000A9A0B9B1C901D910098019913F000FE68
:10517000089A099B1E901F910098019913F0F8FD61
:10518000089A099B209021911298139913F0F0FD31
:105190001E9A1F9B14F06CF8089A099B13F0E8FD07
:1051A0000A9A0B9B04000D001098119913F0E0FD72
:1051B000209A219B14F05CF80A9A0B9B13F0D8FDFF
:1051C00002000B002000290012F08EFE029A039BC1
:1051D00004000D001898199913F0CAFD02000B0085
:1051E0002000290014F044F83200239024913B0061
:1051F0003000390012F078FE149A159B2690279102
:105200001000190012F070FE149A159B12F06CFE3B
:10521000239B289029911A93249B0C93002300939D
:1052200002931693009A029B2898299913F0A0FDE7
:10523000269A279B12F058FE009A029B13F098FDC5
:105240001C9A1D9B12F050FE02000B001A980C993C
:1052500013F05AF902000B000098029914F008F8B4
:10526000009A029B0C0005000E9111F093FE00289D
:1052700062D10122640064085242774B2800210069
:1052800014F00CFB002857D10122734B5242280026
:10529000210011F099FE00284ED1149815992A008A
:1052A0000E9B13F065FD32003B0012F01DFE2A003C
:1052B0000E9B13F05DFD1C9A1D9B12F015FE2A003B
:1052C0000E9B13F055FD239A249B12F00DFE1B91AB
:1052D0002591002300221B99040011F075FE1B9BF1
:1052E0002293002805D1802212069446259B634410
:1052F0002293002200231A980C9911F065FE0028D1
:1053000005D18022120694460C9B63440C931A9A92
:105310000C9B2000229911F061FE00280CD1169BF5
:105320000095013316930E9B1A9402931B9B0C93CA
:10533000169B632B00D075E7009A029B0098029998
:1053400013F016FD009A029B04000D0004980599C5
:1053500013F00EFD02000B002000290013F088FF5F
:10536000189A199B12F0C0FD06000F0012981399AD
:10537000009A029B13F07CFF089A099B13F0F8FC3B
:105380001E9A1F9B13F074FF32003B0013F0BCF811
:105390000022324B13F0ECFC009A04000D00109830
:1053A0001199029B13F064FF0A9A0B9B13F0E0FC27
:1053B000209A219B13F05CFF32003B0013F0A4F80D
:1053C0000022264B13F0D4FC0F0007990600086951
:1053D000496922002B0012F087FD069B32001860FD
:1053E000596007993B008869C96912F07DFD069BE9
:1053F00022009860D9602B002000290013F0B8FC2F
:10540000320004000D003B003000390013F0B0FC06
:1054100002000B002000290012F066FD049A059B93
:1054200012F062FD0EF02EFD069B18615961190005
:105430000798FFF7F1FC069B069A9861D961002353
:10544000936313001800169ADA632BB008E0C04685
:1054500000001040000008C0FFFFEF7F0000E03FA9
:10546000F0BDC046F8B50023134D04000360416051
:10547000C800A94201D9012040420AF07FFBA06088
:105480006068A84213D8C0000AF078FB0026002309
:1054900000276568E060AB420CDAA168DA00891881
:1054A00082180E604F60013316605760F3E70120E9
:1054B0004042E9E72000F8BDFFFFFF0FF8B50022EA
:1054C000002304000025026143618261C3614668D4
:1054D000B54216DA20696169A368EF00DB191A6822
:1054E0005B6812F001FDE36820616161A069E16918
:1054F000DF193A687B6812F0F7FC0135A061E161C1
:10550000E6E7300014F01EFA06000F0002000B0060
:105510002069616912F0F8FF320020616161A069C1
:10552000E1693B0012F0F0FFA061E161F8BD10B548
:1055300004008068002801D00AF024FBE0680028FD
:1055400001D00AF01FFB200010BD10B50368DB6816
:10555000984710BDF0B587B00CAC0025645FA44639
:105560000DAC0025655F0EAC26780FAC277810AC2B
:105570002478039704946446009404680296019585
:105580002469A04707B0F0BDF0B591B016AC002576
:10559000645F0B93A44617AC0025645F06AB0C94C4
:1055A00018AC0025645F0D9419AC0025645F0E945F
:1055B0001AAC0025645F0F941BAC0025655F1CAC22
:1055C00026781DAC27784124E418E47F07970894D7
:1055D0000F9C069604940E9C059503940D9C0B9BC2
:1055E00002940C9C01946446009404686469A0478A
:1055F00011B0F0BD7047F0B591B01A0016AB0024A1
:105600001B5F17AC0025645F0B93A44618AC002504
:10561000645F06AB0C9419AC0025645F0D941AAC62
:105620000025645F0E941BAC0025645F0F941CACD6
:105630000025655F1DAC26784124E418E77F4524EA
:10564000E418E47F002911D008940F9C0797049474
:105650000E9C069603940D9C059502940C9C0B9B46
:1056600001946446009404686469A04711B0F0BDD9
:10567000F0B587B01A000CAB00241B5F0DAC002501
:10568000645FA4460EAC0025655F0FAC267810ACB5
:10569000277811AC2478002908D00494644600943B
:1056A00004680397029601952469A04707B0F0BDEE
:1056B000F0B515001E0004008DB012AB00229B5EF9
:1056C0000891069313AB00229B5E079314AB1B78E3
:1056D000099315AB1B780A9316AB1B780B930B9AA7
:1056E000036804920A9A0392099A0292079A019215
:1056F000069A00921F692A003300B847079A236868
:1057000000921F6C3200069B29002000B8470B9ABC
:10571000236804920A9A08990392099A2000029237
:10572000079A0192069A00921F692A003300B8472F
:105730000DB0F0BDF0B595B00E931AAB0D920022EE
:105740009B5E04000F931BAB00229B5E0C91109399
:105750001CAB00255D5F1DAB00269E5F1EAB0022CB
:105760009B5E0A931FAB00229B5E0AAA0B9320ABA1
:105770001B78119321AB1B78129341239B18DB7F7D
:105780001393139A03680892129A03960792119A38
:1057900006920B9A05920A9A04920295109A019227
:1057A0000F9A00925F690D9A0E9BB8470B9A236877
:1057B00000921F6C32000A9B29002000B847139A00
:1057C00023680892129A03960792119A02950692FC
:1057D0000B9A0C9905920A9A20000492109A019251
:1057E0000F9A00925F690D9A0E9BB84715B0F0BDF5
:1057F000F0B51D0004008FB014AB00269E5F15AB02
:105800000A9200229B5E0991079316AB00229B5ED1
:10581000089317AB1B780B9318AB1B780C9319AB41
:105820001B780D930D9A036805920C9A00960492CA
:105830000B9A0392089A0292079A01929F690A9A18
:105840002B00B847089A236800921F6C3200079B10
:1058500029002000B8470D9A236805920C9A0096FB
:1058600004920B9A09990392089A20000292079ACF
:1058700001929F690A9A2B00B8470FB0F0BDF0B5AE
:1058800097B00F931CAB0E9200229B5E0400109306
:105890001DAB00229B5E0D9111931EAB00229B5EFF
:1058A00012931FAB00255D5F20AB00269E5F21ABEE
:1058B00000229B5E0B9322AB00229B5E0CAA0C93F2
:1058C00023AB1B78139341239B18DB7F1493452351
:1058D0009B18DB7F1593159A03680992149A089216
:1058E000139A07920C9A06920B9A0592129A0496B2
:1058F0000292119A03950192109A0092DF690E9A12
:105900000F9BB8470C9A236800921F6C32000B9BC8
:1059100029002000B847159A23680992149A049622
:105920000892139A039507920C9A0D9906920B9A76
:1059300020000592129A0292119A0192109A0092F6
:10594000DF690E9A0F9BB84717B0F0BD70B50026FF
:1059500000258AB004000EA88657012006950595FB
:10596000C83504950395074D08900790019002955E
:105970000096200000F010FC2000034B0833236049
:105980000AB070BD8096980048D50100F0B50E00B1
:105990001F000400F508F619072785B00AAB1B881D
:1059A00011210192039300F0C1FC0321200000F0BB
:1059B000EDFCEDB24421200000F0B8FC013E2900CE
:1059C000200000F0E3FCF11739408919C910C9B271
:1059D000200000F0DBFC4521200000F0A7FC6B4616
:1059E0001F792000390000F0D1FC019B20001B0A28
:1059F0001900029300F0CAFC019A039B9446634489
:105A00001E001549013E314003D5144B013919439D
:105A100001312000C9B200F0B9FCF117C9B28919EF
:105A200009122000C9B200F0B1FC20004E2100F0A4
:105A30007DFC2900200000F0A9FC20004F2100F08F
:105A400075FC3900200000F0A1FC0299200000F054
:105A50009DFC05B0F0BDC046FF00008000FFFFFFC9
:105A600070B5C51DEB7F0400002B0FD1222100F083
:105A70005DFCC021200000F089FC2021200000F006
:105A800055FC50220349200000F00EFC0123EB7767
:105A900070BDC04634D5010010B50400222100F0CD
:105AA00045FC2000C32100F071FC2000202100F003
:105AB0003DFC20005022044900F0F6FB0023E21DCB
:105AC0000834D377E37710BD3DD5010010B5FFF75B
:105AD000E3FF10BD10B50400FFF7DEFFA37B7F2BB3
:105AE0000AD82000102100F021FC2000012100F044
:105AF0004DFC01232834237010BD030013B5283357
:105B00001B780400002B01D000F094FB2000012141
:105B100000F00CFC2000C72100F038FC2000002120
:105B200000F034FC2000002100F030FC20000C21AB
:105B300000F0FCFB2000D72100F028FC2000D6213B
:105B400000F024FC20009D2100F020FC20002C21EE
:105B500000F0ECFB20009B2100F018FC20003A2113
:105B600000F0E4FB20001A2100F010FC20003B2193
:105B700000F0DCFB2000082100F008FCC823002214
:105B8000009311002000FFF701FF13BD10B50400C2
:105B9000FFF7B3FF1F220549200000F019FC200089
:105BA000FFF75EFF00230834E37710BDF6D4010051
:105BB00010B50400FFF7A1FF1F220549200000F0E7
:105BC00007FC2000FFF74CFF01230834E37710BDEA
:105BD00015D50100030073B50833DB7F04000E0008
:105BE000002B01D1FFF7E4FFC8230022009311002E
:105BF0002000FFF7CBFE2421200000F097FB044D8E
:105C000031002000013D00F0C1FB002DF8D173BD33
:105C100088130000002210B5431DDA77831DDB7F57
:105C2000934203D003689B68984710BDFFF7D2FFEB
:105C3000FBE70000F0B5424C1D00A544414B1700A6
:105C400004AA9B1800241C5F3F4B05919B1800225F
:105C50009B5E06000393431DDB7F002B03D003688C
:105C6000FF21DB689847012009F04EFF374B3B408E
:105C700004D50822013B5242134301330721E21DA0
:105C8000D4170C40FF1AA418BFB2E4103BB2E400D2
:105C900024B21A1C002B00DA00221B1912B2C72BE7
:105CA00002DDC824E41B24B2039BEB18C72B03DDE1
:105CB000C8235B1B1BB2039393B2DF1BE41BA4B28C
:105CC000049323B2002B37DD2F1C002D00DA0027B0
:105CD000039BBFB27D1B5D1BADB22BB2002B2BDD36
:105CE00033000833DB7F002B02D13000FFF760FF69
:105CF0002300002400953A0004993000FFF746FE87
:105D00002421300000F012FB114B06AD059A125D04
:105D1000625501349C42F9D1002126200BF0CCFDC4
:105D2000220029000B480AF0AAF9262001210BF0D5
:105D3000C3FD012009F0E8FE074B9D44F0BDC046BD
:105D40005CECFFFFA8130000AC130000070000800C
:105D500088130000E42D0020A4130000F0B591B0DA
:105D6000049316AB059200229B5E0390069317AB3B
:105D700000229B5E0EAA079318AB00241C5F19AB90
:105D800000255D5F1AAB00269E5F1BAB0027DF5F1F
:105D90001CAB1B780C910D931DAB1B780E9321232C
:105DA0009B18DB7F0F9303000533DB7F002B03D0B1
:105DB0000368FF21DB689847012009F0A5FE069BD8
:105DC000002B00DAC4E0079B002B00DAC0E0002EB5
:105DD00000DABDE0002F00DABAE0059B002B00DA04
:105DE000B6E0069B059A934200DCB1E0049B002BD1
:105DF00000DAADE0079B049A934200DCA8E0991A10
:105E0000B94200DD39005348204004D50823013849
:105E10005B4218430130201A0724059B069A80B282
:105E2000A34307B2D31AB34200DD3300DE1DF317DC
:105E300023409B19DB10DB001BB23A1C002F00DA59
:105E4000002212B22E1C002D00DA0026FF1836B2F6
:105E5000C72F02DDC8231B1A1BB26C18C72C64DCC9
:105E600092B2101AB6B2751B089282B20992AAB207
:105E70000A92099A09B29C1A0A9BA4B2C91A8DB255
:105E80002BB227B20B93002F62DD002B60DD039B4A
:105E90000833DB7F002B02D10398FFF789FE320025
:105EA0002300009508990398FFF770FD24210398BB
:105EB00000F03CFAFB100893059B0721DC106B46B1
:105EC00024229B5E0026DA170A40D2186B46D210B5
:105ED000A21828241C5F049B069DDB436D180799BC
:105EE0001B1BED10ADB25B186B4392B2D3189BB283
:105EF0000593049B1C196C431419A4B20027089A3B
:105F00003BB2934216DA0E9B002B11D0059BDB1996
:105F10000C9A1BB2D15C0D9B002B01D0C943C9B2B6
:105F2000039800F033FA0137E9E7C821491B97E7E6
:105F3000E319EDE7059B01365B1B9BB205930B9BB9
:105F40002C1936B2A4B2B342D8D1012009F0DCFD3D
:105F500011B0F0BD0700008010B50400222100F050
:105F6000E5F92000C42100F011FA2021200000F002
:105F7000DDF9002007F030F996222000D200044914
:105F800000F092F9FF21200000F0D0F910BDC046CA
:105F9000DCD4010037B50400002907D0C82302680B
:105FA0000093156C00221100A84737BD0300083389
:105FB000DB7F002B01D0FFF7E9FD2000FFF7CCFFCE
:105FC00000230634E377F0E710B50400222100F047
:105FD000ADF92000042100F0D9F92021200000F0C3
:105FE000A5F9002007F0F8F8962220005200044995
:105FF00000F05AF9FF21200000F098F910BDC046CA
:10600000E9D40100F0B50027431DDF7785B0831D7B
:106010000393DB7F04000D00C826BB4239D0FFF795
:10602000B5FD330000963A0039002000FFF7AEFCC2
:106030002421200000F07AF9254E29002000013E9D
:1060400000F0A4F9002EF8D12000FFF785FF039B94
:10605000DE7723000833DB7F002B02D12000FFF71F
:10606000A7FDC8230022009311002000FFF78EFC3B
:106070002421200000F05AF9154E29002000013E8D
:1060800000F084F9002EF8D12000FFF79DFF05B045
:10609000F0BD03000833DB7F002B01D1FFF788FD43
:1060A000002200961100C8232000FFF76FFC242176
:1060B000200000F03BF9064E29002000013E00F0D0
:1060C00065F9002EF8D12000FFF77EFFC1E7C0463A
:1060D00088130000F0B5050085B00AA80024045F0D
:1060E000A81DC07F002806D02B680021DB6B28008C
:1060F000984705B0F0BD0E002248064004D5082799
:10610000013E7F423E430136891B89B20EB23040C8
:1061100004D5082701387F42384301301B1A1BB2CF
:10612000301C002E00DA002000B2171C002A00DA12
:106130000027F6183FB2C72E02DDC8235B1A1BB238
:106140001619C72E02DDC824A41A24B286B2891BF0
:10615000CB189BB203932B00BFB20833D21BDB7F5B
:106160001419A4B2002B02D12800FFF721FD28004A
:106170000094039B3A003100FFF708FC2800FFF76A
:1061800023FFB6E70700008010B5036801225C68B2
:106190000023A04710BD0000F0B585B00AAC2478FC
:1061A00005AD64B200940BAC2478837364B201949F
:1061B0000DAC24886B46A4460EAC27880FAC24781F
:1061C0001B78029410AC2478C373039411AC267826
:1061D00015246419E57F154C6B4608340460644649
:1061E00084806C461B79247A037404720C9B6C4681
:1061F00043610023247B42730D4A0173C7804472BC
:106200008672C5720376C261821CD377421CD37733
:106210000122411DCA77811DCA77C21DD377013281
:10622000D3772032137005B0F0BDC046B4D501005D
:1062300000093D0070B504000E202056002818DB30
:10624000657E002D16D000210BF036FB0E200121BB
:1062500020560BF0E3FA142009F056FC0E20022120
:1062600020560BF0DBFAC82009F04EFC002328343E
:10627000237070BD01210BF01FFB0E200121205661
:106280000BF0CCFA142009F03FFC0E202900205618
:106290000BF012FB142009F037FC0E2001212056D0
:1062A0000BF00AFBDFE7000070B5C37B04000E00B3
:1062B0007F2B31D8012009F027FC09F0F5FB050000
:1062C0000F2020560BF016FB1023E35698420CD1FA
:1062D000012009F019FC09F0E7FB6369401B9842B3
:1062E000EED90F490F4809F085FC002E13D0237E0C
:1062F000002B10D009F0D8FB0A4C451B31002000C0
:1063000009F066FC0849200009F062FC0A22290015
:10631000200009F0DDFC70BD100009F0F5FBFAE784
:10632000A0D50100142D0020AED5010070B5164D8A
:106330000400026A0E00C16928000DF011F80D205A
:106340002056002802DB00210BF0B6FA0C20205664
:10635000002802DB00210BF0AFFA310028000DF01D
:1063600031F80C202056002802DB01210BF0A4FAA2
:106370000D202056002802DB01210BF09DFA280099
:106380000DF00CF870BDC046482C002070B50F4DC4
:106390000400026A0E00C16928000CF0E1FF0C2025
:1063A0002056002802DB00210BF086FA310028007D
:1063B0000DF008F80C202056002802DB01210BF01C
:1063C0007BFA28000CF0EAFF70BDC046482C002084
:1063D000F7B51D4D040001920F00026AC169280043
:1063E0000CF0BEFF0D202056002802DB00210BF030
:1063F00063FA0C202056002802DB00210BF05CFA27
:10640000397828000CF0DEFF0D202056002802DB32
:1064100001210BF051FA0026FF22019B3240013B83
:1064200001369A4204DAB95D28000CF0CBFFF3E79D
:106430000C202056002802DB01210BF03DFA280039
:106440000CF0ACFFF7BDC046482C002010B504008E
:106450000530C277A01DC27763760023E21DD37793
:106460000132D37720321370994204D015480AF0D4
:106470005FF8012323760C202056002807DB01213A
:106480000BF01AFA0C20012120560BF0C7F90D2051
:106490002056002807DB01210BF00EFA0D20012108
:1064A00020560BF0BBF92000FFF7C4FE0F2020564A
:1064B000002802DB00210BF0B1F903480CF028FFA3
:1064C00010BDC046142D0020482C002010B5124CE1
:1064D00020601248016012490A60124A1249136092
:1064E000029A124B1A60039A114B1A60FE22114B4A
:1064F00092051A6000230B600F490B600F490B6077
:106500000F490A600F4A13600F4A13600F4A136065
:106510000F4A104B1A6010BD4008002044080020AC
:106520004808002050080020700800204C08002077
:1065300078080020740800206C08002068080020FB
:1065400064080020600800205C0800205808002033
:106550000050C34754080020F0B595B01293CB4BC0
:10656000171C1B681190081C191C089311F052FA93
:10657000391C11F02FF9C64B196810F0A9FD0990CC
:10658000011C381C11F026F9C24B196810F0A0FD4F
:10659000391C0A90381C11F01DF9FC2189050B905B
:1065A00011F018F9BC4B041C1B68381C0493BB4B3E
:1065B0001E68BB4B1B680293BA4B02991B6805937C
:1065C00011F008F9B84B196810F082FD0599051C07
:1065D000201C11F0FFF8011C281C11F01BFAB34B12
:1065E0000C901B68201C0693B14B1B68191C03936D
:1065F00011F0F0F80699051C381C11F0EBF8AD4BC2
:10660000196810F065FD291C11F004FA0599019034
:10661000381C11F0DFF80D90011C029811F0FAF906
:1066200003990E90381C11F0D5F80F90011C0698B4
:1066300011F0F0F90D990790301C10F049FD291C5C
:1066400011F0E8F99C4B04991B680D90381C0693D7
:1066500011F0C0F8994B196810F03AFD311C051C77
:10666000201C11F0B7F8011C281C11F0D3F90C996B
:10667000051C381C11F0AEF8011C281C10F028FD78
:106680000199051C201C11F0A5F8011C281C11F013
:10669000C1F9211C051C201C11F09CF8069911F071
:1066A00099F8011C281C10F013FD211C0290381CC5
:1066B00011F090F8069911F08DF80199051C381C1D
:1066C00011F088F8011C0C9811F0A4F9291C10F0A5
:1066D000FFFC311C0C90381C11F07CF8011C049854
:1066E00011F098F90E99061C381C11F073F8011C72
:1066F000301C10F0EDFC0799061C201C11F06AF804
:10670000011C301C11F086F9291C10F0E1FC6C4BC7
:1067100010901968039810F0DBFC0A9913901198F7
:1067200011F078F9674B051C1968029810F0D0FC3D
:10673000011CFE20800510F05DFE061C011C029865
:1067400011F048F8311C041C109811F043F8311C6A
:1067500003900D9811F03EF8211C0490281C11F0B4
:1067600039F80A9910F0B4FC4A4B039918600A9062
:10677000281C11F02FF8099910F0AAFC444B049939
:106780001860061C281C11F025F8089910F0A0FCD0
:106790003E4B0A9A1860129B211C1A601A9B1E60BD
:1067A000029811F017F8011C029811F033F9434BCD
:1067B000061C1860211C0C9811F00CF8011C0C9898
:1067C00011F028F9384B051C1860211C019811F0B4
:1067D00001F8011C019811F01DF9364B041C1860DA
:1067E000311C039810F0F6FF011C109811F012F9FB
:1067F000294B07991860381C10F0ECFF011C0E980B
:1068000011F008F90699071C0B9810F0E3FF011C22
:10681000381C10F05DFC291C071C039810F0DAFFEF
:10682000011C381C11F0F6F81D4B211C1860039850
:1068300010F0D0FF011C079811F0ECF81B4B311C35
:106840001860049810F0C6FF011C0D9811F0E2F8D2
:10685000124B0F991860059811F0DCF8291C061CE2
:10686000049810F0B7FF011C301C11F0D3F80D4B49
:10687000211C1860049810F0ADFF011C139811F052
:10688000C9F80B4B186015B0F0BDC0467808002061
:106890004C08002050080020680800205C080020F8
:1068A00064080020580800207008002060080020BC
:1068B000540800206C0800204408002074080020C0
:1068C000480800204008002010B50DF093FB011C83
:1068D000FE20800510F08EFD10BD0000F0B5070011
:1068E0001C1C8068FB6895B0029380231B06C018AF
:1068F0000192009110F06EFF0199061C029810F0B1
:1069000069FF011C301C11F085F83D69061C211C33
:10691000281C10F05FFF011C301C11F07BF8FC21DB
:10692000890510F057FF7968FB680490009802937E
:1069300010F050FF0299061C201C10F04BFF011CA8
:10694000301C10F0C5FB3D69061C291C019810F095
:1069500041FF011C301C11F05DF8FC21890510F08D
:1069600039FF7968BE683B6905900198029310F081
:1069700031FF311C051C201C10F02CFF011C281CB1
:1069800011F048F80299051C009810F023FF011C33
:10699000281C10F09DFBFC21890510F01BFF796875
:1069A0000690201C10F016FFBD68041C291C0198DD
:1069B00010F010FF011C201C10F08AFBFE68041C64
:1069C000311C009810F006FF011C201C11F022F869
:1069D000FC21890510F0FEFE002107901A9810F0A6
:1069E00013FB00280CD000211B9810F00DFB002891
:1069F00006D000211C9810F007FB002800D091E180
:106A00001A99081C10F0E6FE1B99041C081C10F0D3
:106A1000E1FE011C201C10F05BFB1C99041C081CEF
:106A200010F0D8FE011C201C10F052FBFFF74CFFA9
:106A3000041C011C1A9810F0CDFE211C00901B981C
:106A400010F0C8FE211C01901C9810F0C3FE0B90A2
:106A50007868011C10F03CFB0C90B868011C10F029
:106A600037FB0D90F868011C10F032FB0E9038696E
:106A7000011C10F02DFB81210F90C905786810F0E2
:106A8000A9FE8121041CC905B86810F0A3FE81216C
:106A90000890C905F86810F09DFE82210990C9058B
:106AA000B86810F097FE82211090C905F86810F0C0
:106AB00091FE7B6811907D68B868B968139310F0F7
:106AC00089FE0290F868F96810F084FE0390386936
:106AD000396910F07FFE03991290201C10F07AFEA5
:106AE0000E99061C009810F075FE011C301C10F069
:106AF000EFFA0299061C201C10F06CFE011C301CE1
:106B000010F0E6FA0D99041C019810F063FE011CC8
:106B1000201C10F07FFF291C0A90139810F05AFED9
:106B20008121C90510F056FE1299041C089810F036
:106B300051FE0F99051C009810F04CFE011C281CFA
:106B400010F068FFBE68051C311C201C10F042FECE
:106B5000011C281C10F0BCFA0C99051C019810F0BF
:106B600039FE011C281C10F055FF089910F052FF47
:106B70000299051C109810F02DFE011C281C10F025
:106B8000A7FA0399051C109810F024FE011C281C7C
:106B900010F09EFA0899051C0B9810F01BFE011CC2
:106BA000281C10F095FAF9680890201C10F012FECD
:106BB0000C99041C009810F00DFE011C201C10F014
:106BC00087FA1299041C099810F004FE011C201C7D
:106BD00010F07EFA0F99041C019810F0FBFD011CC7
:106BE000201C10F017FF099910F014FF0299041CE3
:106BF000119810F0EFFD011C201C10F069FA0399A8
:106C0000041C119810F0E6FD011C201C10F060FA25
:106C10000999041C0B9810F0DDFD011C201C10F0DC
:106C200057FA81213C690990C905029810F0D2FDFC
:106C3000211C10F0CFFD0D99041C009810F0CAFD26
:106C4000011C201C10F0E6FE81213D69041CC905D1
:106C5000039810F0BFFD291C10F0BCFD011C201C86
:106C600010F036FA0E99041C019810F0B3FD011CC7
:106C7000201C10F0CFFE0A99051C081C10F0AAFD7C
:106C80000899041C081C10F0A5FD011C201C10F024
:106C90001FFA0999041C081C10F09CFD011C201C03
:106CA00010F016FA291C041C281C10F093FD011C7E
:106CB000201C10F00DFAFFF707FE3E68041C011CB3
:106CC0000A9810F087FD311C10F084FD011C049817
:106CD00010F0A0FE3E680490211C089810F07AFD88
:106CE000311C10F077FD011C059810F093FE3E68F2
:106CF0000590211C099810F06DFD311C10F06AFD03
:106D0000011C069810F086FE3E680690211C281C87
:106D100010F060FD311C10F05DFD011C079810F0B3
:106D200079FE07907C680498324910F053FD211CCD
:106D300010F0CEF97860BC6805982E4910F04AFD35
:106D4000211C10F0C5F9B860FC680698294910F0BC
:106D500041FD211C10F0BCF9F8603C6907982549F9
:106D600010F038FD211C10F0B3F9386178687968AB
:106D7000BE68BB680093FB68FC6801933B690293A3
:106D80003B69039310F026FD0099051C301C10F0A0
:106D900021FD011C281C10F09BF9211C051C0198E9
:106DA00010F018FD011C281C10F092F90399041C26
:106DB000029810F00FFD011C201C10F089F9FFF75C
:106DC00083FD7968041C10F005FD7860B968201C0B
:106DD00010F000FDB860F968201C10F0FBFCF860B2
:106DE0003969201C10F0F6FC00227B1C3861DA7730
:106DF00015B0F0BD0AD7233CF0B5ABB00700059144
:106E00003398002106921C1C10F0FEF8002819D0BF
:106E10000021349810F0F8F8002813D0002135989C
:106E200010F0F2F800280DD0329B069A0293319BA5
:106E300005990193309B38000093231CFFF74EFD0A
:106E40002BB0F0BDB868FB680599079380231B063B
:106E5000C01810F0BFFC0799061C069810F0BAFC89
:106E6000011C301C10F0D6FD3D69061C291C201C9D
:106E700010F0B0FC011C301C10F0CCFDFC21890589
:106E800010F0A8FC7968FB6811900598079310F042
:106E9000A1FC0799061C201C10F09CFC011C301C56
:106EA00010F016F93D69061C291C069810F092FC9A
:106EB000011C301C10F0AEFDFC21890510F08AFC8D
:106EC0007968BE683B6912900698079310F082FCBF
:106ED000311C051C201C10F07DFC011C281C10F02E
:106EE00099FD0799051C059810F074FC011C281CDD
:106EF00010F0EEF8FC21890510F06CFC7968139015
:106F0000201C10F067FCBD68041C291C069810F0BA
:106F100061FC011C201C10F0DBF8FE68041C311C15
:106F2000059810F057FC011C201C10F073FDFC218B
:106F3000890510F04FFC00211490309810F064F88F
:106F400000280DD00021319810F05EF8002807D0FD
:106F50000021329810F058F8002801D000F00EFC03
:106F60003099081C10F036FC3199041C081C10F0F4
:106F700031FC011C201C10F0ABF83299041C081CD9
:106F800010F028FC011C201C10F0A2F8FFF79CFC5C
:106F9000041C011C309810F01DFC211C2790319816
:106FA00010F018FC211C2890329810F013FC339933
:106FB0002990081C10F00EFC3499041C081C10F0D9
:106FC00009FC011C201C10F083F83599041C081CD6
:106FD00010F000FC011C201C10F07AF8FFF774FC84
:106FE000041C011C339810F0F5FB211C0890349808
:106FF00010F0F0FB211C0690359810F0EBFB079089
:107000007868011C10F064F8089910F0E3FB179001
:107010007868011C10F05CF8069910F0DBFB189002
:107020007868011C10F054F8079910F0D3FB059014
:10703000B868011C10F04CF8089910F0CBFB1990BF
:107040007868011C10F044F81A90B868011C10F020
:107050003FF80B90F868011C10F03AF80C90386972
:10706000011C10F035F87B681B901093FB681D9392
:10707000FB6816933B69786879681E9310F0AAFB49
:107080000F907868B96810F0A5FB15907868F968DA
:1070900010F0A0FB7B681C901F933B69B868B9682F
:1070A000209310F097FBBB680A902193FB68B868A7
:1070B0003969229310F08EFB0D90F868F96810F092
:1070C00089FBFB68099023933B69386939692493EC
:1070D00010F080FB3E69FC68FB680F9925933B69C3
:1070E0000E900898269310F075FB311C051C18981B
:1070F00010F070FB011C281C10F08CFC211C051CDE
:10710000059810F067FB011C281C0FF0E1FF0A999D
:10711000041C089810F05EFB011C201C0FF0D8FF27
:107120000B99041C069810F055FB259910F052FBA2
:10713000011C201C0FF0CCFF0B99041C079810F0C9
:1071400049FB269910F046FB011C201C0FF0C0FFE4
:107150000999041C089810F03DFB011C201C10F03C
:1071600059FC0E99041C089810F034FB011C201CDB
:1071700010F050FC3969BB68FC6825933B69061C1C
:107180001798269310F026FB0F99051C069810F00F
:1071900021FB011C281C0FF09BFF2599051C05985D
:1071A00010F018FB011C281C10F034FC211C051CDD
:1071B000199810F00FFB011C281C0FF089FF0A9989
:1071C000041C069810F006FB011C201C10F022FC89
:1071D0000999041C069810F0FDFA011C201C0FF000
:1071E00077FF0C99041C079810F0F4FA269910F018
:1071F000F1FA011C201C0FF06BFF0E99041C06987D
:1072000010F0E8FA011C201C10F004FC311C041CD6
:10721000301C10F0DFFA211C051C201C10F0DAFADB
:10722000011C281C0FF054FF0CF0E4FE8022120613
:107230009446F968BB6805902593179B3C696344A5
:10724000180010F0C7FA2599051C189810F0C2FA1A
:10725000011C281C0FF03CFF0F99051C079810F02B
:10726000B9FA011C281C0FF033FF211C051C1998CA
:1072700010F0B0FA011C281C0FF02AFF0A99041C18
:10728000079810F0A7FA011C201C10F0C3FB3E6900
:10729000041C0C99069810F09DFA311C10F09AFA13
:1072A000011C201C0FF014FF0999041C079810F012
:1072B00091FA011C201C10F0ADFB0E99041C0798DC
:1072C00010F088FA011C201C0FF002FF011C061CA4
:1072D0000FF0FEFE0D991790081C0FF0F9FE1099A3
:1072E000041C081C0FF0F4FE1D9910F073FA011C29
:1072F000201C10F08FFB279910F08CFB16990F9033
:10730000081C0FF0E5FE1E9910F064FA1599041C94
:10731000081C0FF0DDFE011C201C0FF0D9FE28997F
:1073200010F078FB1090FC20FB68099980051693FB
:1073300010F070FB0E9910F06DFB059910F04AFAF1
:107340001C99041C0D9810F065FB311C10F042FADA
:10735000011C201C0FF0BCFE089910F05BFB802282
:1073600012069446059B3D6963440E93BB682299BF
:1073700008902198189310F02DFA2099041C1F985A
:1073800010F028FA011C201C10F044FB059910F0A5
:1073900021FA2499041C239810F01CFA15990FF077
:1073A00097FE311C10F016FA011C201C0FF090FE05
:1073B000069910F02FFB0690FC20FB680A998005C7
:1073C000159310F027FB099910F024FB311C10F0E5
:1073D00001FA0D99041C1C980FF07AFE059910F023
:1073E000F9F9011C201C0FF073FE079910F012FB35
:1073F00080220C9B12060F990790981810F0EAF95A
:107400001099041C0B9810F0E5F9011C201C0FF0DA
:107410005FFE1699041C301C10F0DCF9089910F07E
:10742000D9F9011C201C10F0F5FA291C041C0E9837
:1074300010F0D0F91899051C301C10F0CBF9011C84
:10744000281C0FF045FE069910F0C4F9011C201C01
:107450000FF03EFE0599041C159810F0BBF9079932
:1074600010F0B8F9011C201C0FF032FE0D900A99A3
:10747000BB68081C15930FF02BFE011CFE20800535
:1074800010F0C8FA0999041C081C0FF021FE011C19
:10749000201C10F0BFFA299910F0BCFA3C69FB6877
:1074A0000F9909937B680A9016933B691B98189370
:1074B000BB68199310F08EF91099051C1A9810F0FA
:1074C00089F9011C281C0FF003FE8121051CC90548
:1074D000159810F07FF90A9910F07CF9011C281C0E
:1074E00010F098FA211C051C301C10F073F9089953
:1074F00010F070F9011C281C0FF0EAFD0599041C1E
:10750000099810F067F91699051C301C10F062F903
:10751000011C281C0FF0DCFD069910F05BF9011C22
:10752000201C0FF0D5FD0599041C189810F052F995
:107530001999051C179810F04DF9011C281C10F022
:1075400069FA079910F046F9011C201C0FF0C0FDE4
:107550000599FB680990081C16930FF0B9FD80226D
:107560008023120694461B06C318FC6815937B689B
:107570001893BB6819933B691C937B681D93FB6848
:107580001E931A9B0F996344180010F023F9109969
:10759000051C1B9810F01EF9011C281C0FF098FD0B
:1075A0008121051CC905169810F014F90A9910F0EC
:1075B00011F9011C281C10F02DFA211C051C15982E
:1075C00010F008F91899041C301C10F003F9011C84
:1075D000201C10F01FFA089910F0FCF8011C281C60
:1075E0000FF076FD0599041C199810F0F3F81C991A
:1075F000051C301C10F0EEF8011C281C0FF068FD73
:10760000069910F0E7F8011C201C0FF061FD0599A8
:10761000041C1D9810F0DEF81E99051C179810F038
:10762000D9F8011C281C10F0F5F9079910F0D2F8D0
:10763000011C201C0FF04CFD3969BB687C68169357
:10764000FB680A901793BB681598189310F0C2F85E
:107650001699051C301C10F0BDF8011C281C0FF0F9
:1076600037FD089910F0B6F80F99051C0B9810F02B
:10767000B1F8109908900C9810F0ACF8011C08981B
:107680000FF026FD011C281C0FF022FD211C051CFB
:107690000E9810F09FF81799041C301C10F09AF8FF
:1076A000011C201C0FF014FD069910F093F8011C2A
:1076B000281C0FF00DFD0599041C189810F08AF88D
:1076C000079910F087F8011C201C0FF001FD0D999F
:1076D000051C081C10F07EF80999041C081C10F009
:1076E00079F8011C201C0FF0F3FC0A99041C081CFB
:1076F00010F070F8011C201C0FF0EAFC291C041C7F
:10770000281C10F067F8011C201C0FF0E1FCFFF7AB
:10771000DBF83E68041C011C0D9810F05BF8311C6E
:1077200010F058F8011C119810F074F93E6811908F
:10773000211C099810F04EF8311C10F04BF8011C78
:10774000129810F067F93E681290211C0A9810F008
:1077500041F8311C10F03EF8011C139810F05AF952
:107760003E681390211C281C10F034F8311C10F0D6
:1077700031F8011C149810F04DF914907C683349CD
:10778000119810F027F8211C0FF0A2FC7860BC685B
:107790002E49129810F01EF8211C0FF099FCB860C9
:1077A000FC682A49139810F015F8211C0FF090FC82
:1077B000F8603C692549149810F00CF8211C0FF072
:1077C00087FC386178687968BE68BB680593FB6898
:1077D000FC6806933B6907933B6908930FF0FAFF37
:1077E0000599051C301C0FF0F5FF011C281C0FF03B
:1077F0006FFC211C051C06980FF0ECFF011C281CD7
:107800000FF066FC0899041C07980FF0E3FF011CB9
:10781000201C0FF05DFCFFF757F87968041C0FF08F
:10782000D9FF7860B968201C0FF0D4FFB860F96800
:10783000201C0FF0CFFFF8603969201C0FF0CAFF41
:1078400000227B1C3861DA77FFF7FAFA0AD7233C6B
:10785000F0B50400436885B0009383680193C36862
:10786000029303698068A16803930FF0B3FF011CC2
:10787000FC20800510F0CEF8E668E768051C391C8E
:10788000301C0FF0A7FF011C281C10F0C3F8019951
:10789000051C00980FF09EFF0399061C02980FF03C
:1078A00099FF011C301C0FF013FC291C0CF09EFBEF
:1078B0006061A06821690FF08DFF6668E768051CAC
:1078C000391C301C0FF086FF011C281C10F0A2F898
:1078D000C02109060FF07EFF0CF034FBA368A06105
:1078E0000093E3680193636802932369E068E168A9
:1078F00003930FF06FFF011CFC20800510F08AF845
:1079000026692769051C391C301C0FF063FF011C18
:10791000281C10F07FF80199051C00980FF05AFF01
:107920000399061C02980FF055FF011C301C0FF044
:10793000CFFB291C0CF05AFBE06105B0F0BD000044
:107940000023FE2243609205C360036143618361AB
:10795000C3610362030002608260002234331A7044
:10796000014B43627047C0460AD7233C044B10B515
:107970001B68002B00D098470122024B1A7210BDE1
:107980007C08002000140040037810B5002B0BD0B9
:107990000724064B21401A7F0800A243110001432F
:1079A00019779A7AD209FCD110BDC0460014004064
:1079B000014B19607047C0467C0800200022014B33
:1079C0001A6070477C080020037810B5002B0BD09C
:1079D0003F24064B21401A690800A24311000143CD
:1079E00019619A7AD209FCD110BDC046001400403A
:1079F0000378002B0BD03F20054B08401A6905493E
:107A000080011140014319619A7AD209FCD1704773
:107A1000001400403FF0FFFF0378002B0BD01F2025
:107A2000054B08401A6905490003114001431961DB
:107A30009A7AD209FCD1704700140040FF0FFEFF74
:107A400070B51600027804000D00002A0AD0190053
:107A5000FFF7BAFF31002000FFF7CAFF290020001E
:107A6000FFF7DAFF70BD00000378002B0BD01F205A
:107A7000054B08401A69054940041140014319614A
:107A80009A7AD209FCD1704700140040FFFFC1FF71
:107A90000378002B0BD00F20054B08401A690549CD
:107AA00080051140014319619A7AD209FCD17047CF
:107AB00000140040FFFF3FFC0378002B09D0054A6B
:107AC000880613699901890901431161937ADB09D9
:107AD000FCD170470014004070B51D00037804000D
