S00F0000566172696F53572E737265636A
S214002000008000201DAE000007AE000007AE0000F6
S21400201000000000000000000000000000000000BB
S21400202000000000000000000000000007AE0000F6
S214002030000000000000000007AE000075AE0000C3
S21400204007AE000007AE000007AE0000A93700008C
S2140020501DC4000007AE000007AE000009AE000079
S21400206007AE0000D5E6000007AE000007AE000091
S214002070ADE6000007AE0000E5E6000007AE000093
S21400208007AE000007AE000007AE0000E12100002A
S2140020900000000007AE000007AE000007AE00001C
S2140020A007AE000007AE000007AE000007AE000057
S2140020B010B5064C2378002B07D1054B002B02D019
S2140020C0044800E000BF0123237010BDB8050020BF
S2140020D00000000000F40100084B10B5002B03D0F0
S2140020E00749084800E000BF07480368002B00D1F6
S2140020F010BD064B002BFBD09847F9E70000000008
S214002100BC05002000F40100B0050020000000001F
S214002110C122254B2549920010B51A600A004B785B
S214002120DB09FCD12249234B19605378DB09FCD12B
S2140021302149224B19805378DB09FCD10422204B1D
S21400214019880A431A80DA7BD209FCD1FF211D4A7E
S2140021501170DA7BD209FCD1FF211B4A1170DA7BA1
S214002160D209FCD1FF21194A1170DA7BD209FCD1C1
S214002170C424C0201649A4000A5900061202120AF6
S21400218002430A51802212030A6031211148027864
S2140021900A430270104A11701988104A0A431A80BE
S2140021A0DA7BD209FCD110BD080C0040000C0040C0
S2140021B004070300040C00401C440000020C00400E
S2140021C000300042183000421930004214300042FD
S2140021D000E100E00E3000420D3000420207000031
S2140021E0F0B591B004F0AAFAC3B20593059B002B94
S2140021F000D165E100230693069B059A9342F1DA27
S21400220004F0AEFA984C994B1D68E369E81A11F091
S21400221085F8A16910F09EFB11F060F8944B626A95
S2140022201860944B07901B68981A089311F076F87C
S214002230216A10F08FFB11F051F88F4BE26A18609C
S2140022408E4B0C901B68981A0A9311F067F8A16AD7
S21400225010F080FB11F042F8894B8A4C18600D9004
S214002260206812F01FFE0022874B12F031F8002281
S214002270864B11F0F9FB060028000F0012F012FE44
S2140022800022824B11F0F0FB02000B0030003900F8
S21400229011F0DAF812F0D2FD7D4E2060306812F0B0
S2140022A001FE0022784B12F013F80022774B11F053
S2140022B0DBFB040008980D0012F0F4FD0022734BBF
S2140022C011F0D2FB02000B002000290011F0BCF830
S2140022D012F0B4FD30606F4E306812F0E3FD00225D
S2140022E0694B11F0F5FF0022684B11F0BDFB0400AE
S2140022F00A980D0012F0D6FD0022644B11F0B4FBD4
S21400230002000B002000290011F09EF812F096FD46
S214002310614B3060186812F0C5FD604E0890099158
S214002320306812F0BFFD0022574B11F0D1FF00229B
S214002330564B11F099FB002204000D0008980999ED
S214002340524B11F091FB02000B002000290011F007
S2140023507BF812F073FD524B3060186812F0A2FD45
S214002360504E0A900B91306812F09CFD0022464BAE
S21400237011F0AEFF0022454B11F076FB0022040060
S2140023800D000A980B99414B11F06EFB02000B00F2
S2140023902000290011F058F812F050FD424B306032
S2140023A0186812F07FFD414C060020680F0012F0FE
S2140023B079FD0022344B11F08BFF0022334B11F0D5
S2140023C053FB00220E900F91304B3000390011F075
S2140023D04BFB02000B000E980F9911F035F812F027
S2140023E02DFD334A2060334B3000390011F03CFBA2
S2140023F012F024FE2E4A2F4B061C0A980B9911F059
S21400240033FB12F01BFE2A4A2A4B051C0898099932
S21400241011F02AFB12F012FE041C0D9812F042FD79
S2140024200022254B11F054FF12F008FE02900C9883
S21400243012F038FD0022204B11F04AFF12F0FEFD8C
S2140024400190079812F02EFD00221B4B11F040FF62
S21400245012F0F4FD331C00902A1C211C174800F0D3
S2140024606FFF069B0C33C6E6940A0020D8090020AE
S214002470E0090020E4090020EC090020F009002013
S214002480F8090020DC09002000002240000024405B
S214002490E8090020F40900200C0A0020100A002099
S2140024A0140A0020180A00201C0A0020200A002017
S2140024B066666666666660400000103FD4050020CB
S2140024C08D4C230034331B78002B02D1200001F002
S2140024D005F98A49206B10F02DFC894910F0A8F800
S2140024E0884B1860230034331B78002B02D1200061
S2140024F001F0F4F88149E06A10F01CFC824B186089
S214002500230034331B78002B02D1200001F0E6F8BC
S214002510A06A7A4910F00EFC7C4B18607C4B186859
S21400252012F0C0FC00227B4B11F0D2FE12F086FDAA
S214002530794B0790186812F0B5FC0022754B11F025
S214002540C7FE12F07BFD754B0890186812F0AAFCC7
S2140025500022704B11F0BCFE12F070FDE668A16818
S2140025600C90301C10F0E6FB25696169071C281CDE
S21400257010F0E0FB011C381C10F05AF8311C071C48
S214002580301C10F0D7FB011CFC20800510F0F2FC7C
S214002590291C061C281C10F0CDFB011C301C10F05A
S2140025A0E9FC391C051C381C10F0C4FB291C061C51
S2140025B0281C10F0BFFB011C301C10F039F800F08E
S2140025C093FE61690590E06810F0B4FB2169061C73
S2140025D0A06810F0AFFB011C301C10F0CBFCC02133
S2140025E0090610F0A7FB011C041C10F0A3FB011C3D
S2140025F0FE20800510F0BEFC0CF042FF291C069061
S2140026000C9810F097FB059910F094FB069910F0C3
S21400261091FB211C051C079810F08CFB011C281C44
S21400262010F0A8FC391C041C089810F083FB0599D0
S21400263010F080FB069910F07DFB011C201C0FF0AB
S214002640F7FF374E306004F005F9002107200AF046
S214002650BDF804F063F904000D00072001210AF01C
S214002660B5F8306812F098FC00222E4B11F030FEC0
S21400267000222C4B12F0ACF812F0E0FC00222A4BA1
S214002680061C2900200011F023FE12F0D7FC274C70
S214002690274B284A311C009400F058FC206810F0A4
S2140026A01DFE03F0E1FE244C244B22681B6801202B
S2140026B09A4200DB002003F0ADFE214A1368013386
S2140026C013602368013323601E4B22681B689A42FE
S2140026D001DD002323601C4807F09CFD1B4A13689D
S2140026E00133136020221A4B1A701F3A1A700F32E9
S2140026F01A7011B0F0BDC046D4050020E12E654228
S21400270000003443F80A0020880A0020900A0020BF
S214002710E00900200000103FEC090020F809002026
S214002720D009002000408F4000005940EC0A0020ED
S214002730D40900208988883C040700200007002070
S2140027400C060020080700206C090020C81E002088
S2140027500E30004210B5024800F0B0FD10BDC04675
S214002760D40500200022002330B50260436082605A
S214002770C36000248261C3610023034D8363046148
S2140027804561C36330BDC0460000F03F0023F0B58E
S21400279087B001930022002305000C0002920393E9
S2140027A06868019B83423EDADE00AB6899190868C8
S2140027B049682268636812F00BF8EB68049005918C
S2140027C09E1930687168A268E36812F001F8049AEE
S2140027D0059B06000F001000190011F079FD32006D
S2140027E0049005913B003000390011F071FD0200A5
S2140027F00B000498059910F027FE0CF089FD22695D
S214002800636911F0E5FF02000B0011F061FD0B009B
S21400281002000298039910F017FE019B02900391A4
S21400282001330193BCE712F03DFB02000B00029857
S214002830039911F019F90CF06BFD07B0F0BD00001C
S214002840F0B5ABB007910690FFF78CFF079800F045
S214002850EFFA079B002600275B68149615971093DF
S21400286000230E960F970C960D970A960B970896D0
S21400287009970093009B109A934200DB7DE0DC00F2
S214002880079B9B6819190293079B086849681A6991
S2140028905B6911F09DFF079B02900391DB681C1992
S2140028A00493079B206861689A69DB6911F090FFC2
S2140028B0029A039B049005911000190011F008FD80
S2140028C0049A059B129013911000190011F000FD58
S2140028D002000B00169017911298139910F0B4FD91
S2140028E0049A059B04000D000298039911F0F0FC71
S2140028F002000B000898099910F0A6FD129A139B87
S214002900089009910A980B9910F09EFD169A179B4D
S2140029100A900B910C980D9910F096FD22000C90E1
S2140029200D91029803992B0011F0D2FC02000B00C7
S2140029300E980F9910F088FD22000E900F910498C3
S21400294005992B0011F0C4FC02000B001498159991
S21400295010F07AFD2200149015912B00200029001B
S21400296011F0B6FC0B0002003900300010F06CFDD0
S214002970009B06000F0001337BE7109812F092FAD6
S21400298004000D0002000B000A980B9911F06CF879
S21400299022002B00109011910C980D9911F064F8FC
S2140029A022002B00129013910898099911F05CF8F8
S2140029B022002B00009001910E980F9911F054F808
S2140029C022002B00089009911498159911F04CF8E4
S2140029D022000A900B912B003000390011F044F8C9
S2140029E0129A139B06000F001098119910F02CFDF8
S2140029F0129A139B049005911098119911F068FC97
S214002A00009A019B04000D001000190011F060FCF4
S214002A1002000B002000290011F0DAFE049A059B44
S214002A20189019911000190011F052FC02000B00CA
S214002A303000390011F0CCFE002202900391049879
S214002A400599E04B11F044FC00221490159104986F
S214002A500599DD4B11F03CFC049A059B11F038FCFF
S214002A6032003B0011F0B4FE002206000F0018985A
S214002A701999D44B11F02CFC049A059B11F028FCF4
S214002A80029A039B04000D000498059911F020FC9F
S214002A9002000B002000290010F0D6FC089A099BC3
S214002AA004000D001000190011F012FC02000B00CB
S214002AB02000290011F08CFE0A9A0B9B04000D00E2
S214002AC01000190011F004FC02000B002000290081
S214002AD011F07EFE0A9A0B9B1C901D91009801999E
S214002AE011F0F6FB089A099B1E901F910098019919
S214002AF011F0EEFB089A099B2090219112981399E9
S214002B0011F0E6FB1E9A1F9B11F062FE089A099BC5
S214002B1011F0DEFB0A9A0B9B04000D001098119929
S214002B2011F0D6FB209A219B11F052FE0A9A0B9BBD
S214002B3011F0CEFB02000B002000290010F084FCF0
S214002B40029A039B04000D001898199911F0C0FB17
S214002B5002000B002000290011F03AFE32002390FC
S214002B6024913B003000390010F06EFC149A159B3F
S214002B70269027911000190010F066FC149A159BF9
S214002B8010F062FC239B289029911A93249B0C93A7
S214002B900023009302931693009A029B2898299983
S214002BA011F096FB269A279B10F04EFC009A029B8B
S214002BB011F08EFB1C9A1D9B10F046FC02000B00C9
S214002BC01A980C9910F050FF02000B00009802991A
S214002BD011F0FEFD009A029B0C0005000E910FF00E
S214002BE01FFC002862D10122640064085242774B21
S214002BF02800210012F002F9002857D10122734B59
S214002C005242280021000FF025FC00284ED11498CF
S214002C1015992A000E9B11F05BFB32003B0010F06A
S214002C2013FC2A000E9B11F053FB1C9A1D9B10F000
S214002C300BFC2A000E9B11F04BFB239A249B10F0F2
S214002C4003FC1B912591002300221B9904000FF022
S214002C5001FC1B9B2293002805D180221206944675
S214002C60259B63442293002200231A980C990FF0A8
S214002C70F1FB002805D18022120694460C9B634483
S214002C800C931A9A0C9B200022990FF0EDFB00285B
S214002C900CD1169B0095013316930E9B1A94029343
S214002CA01B9B0C93169B632B00D075E7009A029B28
S214002CB00098029911F00CFB009A029B04000D008C
S214002CC00498059911F004FB02000B00200029006F
S214002CD011F07EFD189A199B10F0B6FB06000F0047
S214002CE012981399009A029B11F072FD089A099B9C
S214002CF011F0EEFA1E9A1F9B11F06AFD32003B009F
S214002D0010F0B2FE0022324B11F0E2FA009A0400F4
S214002D100D0010981199029B11F05AFD0A9A0B9B10
S214002D2011F0D6FA209A219B11F052FD32003B009A
S214002D3010F09AFE0022264B11F0CAFA0F000799EF
S214002D4006000869496922002B0010F07DFB069BEF
S214002D5032001860596007993B008869C96910F00D
S214002D6073FB069B22009860D9602B002000290088
S214002D7011F0AEFA320004000D003B0030003900BE
S214002D8011F0A6FA02000B002000290010F05CFBF0
S214002D90049A059B10F058FB0CF0BAFA069B1861D3
S214002DA0596119000798FFF7F1FC069B069A98618F
S214002DB0D9610023936313001800169ADA632BB0C8
S214002DC008E0C04600001040000008C0FFFFEF7F8C
S214002DD00000E03FF0BDC046F8B50023134D0400E8
S214002DE003604160C800A94201D90120404208F0B2
S214002DF0BFF8A0606068A84213D8C00008F0B8F812
S214002E000026002300276568E060AB420CDAA16864
S214002E10DA00891882180E604F600133166057601A
S214002E20F3E701204042E9E72000F8BDFFFFFF0F6F
S214002E30F8B5002200230400002502614361826188
S214002E40C3614668B54216DA20696169A368EF0077
S214002E50DB191A685B6810F0F7FAE36820616161B5
S214002E60A069E169DF193A687B6810F0EDFA013570
S214002E70A061E161E6E7300012F014F806000F00EA
S214002E8002000B002069616910F0EEFD320020613F
S214002E906161A069E1693B0010F0E6FDA061E161B7
S214002EA0F8BD10B504008068002801D008F064F86A
S214002EB0E068002801D008F05FF8200010BD000090
S214002EC010B5124C20601248016012490A60124A7E
S214002ED012491360029A124B1A60039A114B1A6039
S214002EE0FE22114B92051A6000230B600F490B60FF
S214002EF00F490B600F490A600F4A13600F4A1360B0
S214002F000F4A13600F4A104B1A6010BD10060020BF
S214002F101406002018060020200600204006002088
S214002F201C06002048060020440600203C06002020
S214002F303806002034060020300600202C0600202C
S214002F40280600200050C34724060020F0B595B0A0
S214002F501293CB4B171C1B681190081C191C089366
S214002F6010F008F8391C0FF0E5FEC64B19680FF094
S214002F705FFB0990011C381C0FF0DCFEC24B196881
S214002F800FF056FB391C0A90381C0FF0D3FEFC21BC
S214002F9089050B900FF0CEFEBC4B041C1B68381C3A
S214002FA00493BB4B1E68BB4B1B680293BA4B02993B
S214002FB01B6805930FF0BEFEB84B19680FF038FB80
S214002FC00599051C201C0FF0B5FE011C281C0FF0EF
S214002FD0D1FFB34B0C901B68201C0693B14B1B68AB
S214002FE0191C03930FF0A6FE0699051C381C0FF05B
S214002FF0A1FEAD4B19680FF01BFB291C0FF0BAFFA2
S21400300005990190381C0FF095FE0D90011C029852
S2140030100FF0B0FF03990E90381C0FF08BFE0F9048
S214003020011C06980FF0A6FF0D990790301C0FF0B4
S214003030FFFA291C0FF09EFF9C4B04991B680D900D
S214003040381C06930FF076FE994B19680FF0F0FACD
S214003050311C051C201C0FF06DFE011C281C0FF0F7
S21400306089FF0C99051C381C0FF064FE011C281CF7
S2140030700FF0DEFA0199051C201C0FF05BFE011C08
S214003080281C0FF077FF211C051C201C0FF052FE99
S21400309006990FF04FFE011C281C0FF0C9FA211CE0
S2140030A00290381C0FF046FE06990FF043FE019979
S2140030B0051C381C0FF03EFE011C0C980FF05AFF42
S2140030C0291C0FF0B5FA311C0C90381C0FF032FE9C
S2140030D0011C04980FF04EFF0E99061C381C0FF0CA
S2140030E029FE011C301C0FF0A3FA0799061C201CB1
S2140030F00FF020FE011C301C0FF03CFF291C0FF0C7
S21400310097FA6C4B1090196803980FF091FA0A9989
S214003110139011980FF02EFF674B051C1968029844
S2140031200FF086FA011CFE2080050FF013FC061C2B
S214003130011C02980FF0FEFD311C041C10980FF0C5
S214003140F9FD311C03900D980FF0F4FD211C04903E
S214003150281C0FF0EFFD0A990FF06AFA4A4B039904
S21400316018600A90281C0FF0E5FD09990FF060FA28
S214003170444B04991860061C281C0FF0DBFD0899C8
S2140031800FF056FA3E4B0A9A1860129B211C1A60E2
S2140031901A9B1E6002980FF0CDFD011C02980FF0DE
S2140031A0E9FE434B061C1860211C0C980FF0C2FD6C
S2140031B0011C0C980FF0DEFE384B051C1860211C15
S2140031C001980FF0B7FD011C01980FF0D3FE364BA7
S2140031D0041C1860311C03980FF0ACFD011C1098FD
S2140031E00FF0C8FE294B07991860381C0FF0A2FD97
S2140031F0011C0E980FF0BEFE0699071C0B980FF0E8
S21400320099FD011C381C0FF013FA291C071C0398A3
S2140032100FF090FD011C381C0FF0ACFE1D4B211C5E
S214003220186003980FF086FD011C07980FF0A2FEA9
S2140032301B4B311C186004980FF07CFD011C0D9888
S2140032400FF098FE124B0F99186005980FF092FE3B
S214003250291C061C04980FF06DFD011C301C0FF095
S21400326089FE0D4B211C186004980FF063FD011CAD
S21400327013980FF07FFE0B4B186015B0F0BDC046DC
S214003280480600201C0600202006002038060020E5
S2140032902C060020340600202806002040060020C9
S2140032A030060020240600203C06002014060020DD
S2140032B04406002018060020100600200023FE22E8
S2140032C043609205C360036143618361C361036227
S2140032D0030002608260002234331A70014B43629E
S2140032E07047C0460AD7233CFC2170B58905041CEC
S2140032F00FF020FD114B64101C1B211C051C0FF049
S21400330019FD211C0FF016FD011CFF2080050FF093
S21400331031FE211C0FF00EFD041C011C281C0FF0B2
S21400332009FD211C0FF006FD011CFF2080050FF093
S21400333021FE211C0FF0FEFC70BDC046DF59375F32
S214003340F0B5040089B0081CE349161C1D1C0FF0DC
S214003350F1FCE1490090301C0FF0ECFCDE490190D6
S214003360281C0FF0E7FC002102900E980FF092F850
S21400337000280CD000210F980FF08CF8002806D0FB
S214003380002110980FF086F8002800D0DCE00E9997
S214003390081C0FF0CFFC0F99051C081C0FF0CAFC88
S2140033A0011C281C0FF044F91099051C081C0FF08E
S2140033B0C1FC011C281C0FF03BF9FFF795FF051C0C
S2140033C0011C0E980FF0B6FC291C05900F980FF004
S2140033D0B1FC291C069010980FF0ACFC6769E668F3
S2140033E0A368391C0490301C03930FF0A3FC2569D6
S2140033F00790291C03980FF09DFC011C07980FF0FE
S214003400B9FD03990790301C0FF094FC291C061C8C
S214003410381C0FF08FFC011C301C0FF009F90399C3
S214003420051C081C0FF086FCFC2189050FF0A2FD88
S214003430391C061C381C0FF07DFC011C301C0FF0DC
S214003440F7F8011C061C06980FF074FC291C071CD4
S21400345004980FF06FFC011C381C0FF08BFD0799C9
S214003460039004980FF066FC311C071C05980FF0BB
S21400347061FC011C381C0FF07DFD291C049005988A
S2140034800FF058FC0799051C06980FF053FC011C1A
S214003490281C0FF06FFD656805900021281C0FF0B2
S2140034A013F8002800D111E1666A291C03980FF072
S2140034B041FC311C0FF03EFCA1690FF0B9F8291C45
S2140034C00690A06104980FF035FC311C0FF032FC1A
S2140034D0E1690FF0ADF8291C071CE06105980FF0B4
S2140034E029FC311C0FF026FC216A0FF0A1F8069982
S2140034F0051C206200980FF09BF8391C009001987C
S2140035000FF096F8291C019002980FF091F802909F
S21400351025680398291C0FF00DFC011C00980FF07D
S21400352087F8291C009004980FF004FC011C0198F1
S2140035300FF07EF8291C019005980FF0FBFB011C8C
S21400354002980FF075F80290FC21606A89050FF06A
S214003550F1FB051C011C00980FF0ECFB291C0390E6
S21400356001980FF0E7FB291C049002980FF0E2FB8D
S2140035708022A36812060093E368051C0193236962
S21400358003990293019B676998180FF0D3FB029981
S214003590061C04980FF0CEFB011C301C0FF0EAFC52
S2140035A0391C061C281C0FF0C5FB011C301C0FF034
S2140035B0E1FC00990FF03CF80099059003980FF095
S2140035C0B9FB0299061C281C0FF0B4FB011C301C2A
S2140035D00FF02EF8391C061C04980FF0ABFB011CEC
S2140035E0301C0FF0C7FC01990FF022F800990690E6
S2140035F004980FF09FFB0199061C281C0FF09AFBFD
S214003600011C301C0FF0B6FC391C061C03980FF08A
S21400361091FB011C301C0FF00BF802990FF008F814
S21400362000990790281C0FF085FB0199051C04984B
S2140036300FF080FB011C281C0EF0FAFF0299051CF7
S21400364003980FF077FB011C281C0FF093FC391C25
S2140036500EF0EEFF0599061C081C0FF06BFB069992
S214003660051C081C0FF066FB011C281C0EF0E0FF72
S2140036700799051C081C0FF05DFB011C281C0EF0AA
S214003680D7FF311C051C301C0FF054FB011C281CF6
S2140036900EF0CEFFFFF728FE051C011C05980FF064
S2140036A049FB291CA06006980FF044FB291CE0602B
S2140036B007980FF03FFB291C2061301C0FF03AFBE7
S2140036C0002360613434237009B0F0BD0023A36189
S2140036D0E36123621CE7C04639FA8E3CF8B5C6683B
S2140036E004000569311C301C0FF024FB011CFC2073
S2140036F080050FF03FFC291C071C281C0FF01AFB46
S214003700011C381C0FF036FCA168071C301C0FF09B
S21400371011FB6169061C281C0FF00CFB011C301CF9
S2140037200EF086FF391C0BF0A7FE6169A062E06808
S2140037300FF000FB2169051CA0680FF0FBFA011CC6
S214003740281C0FF017FCC02109060FF0F3FA0BF047
S2140037503FFE2669E062311C301C0FF0EBFA011CBC
S214003760FC2080050FF006FC6569071C291C281C38
S2140037700FF0E0FA011C381C0FF0FCFBE168071C98
S214003780301C0FF0D7FAA168061C281C0FF0D2FADE
S214003790011C301C0EF04CFF391C0BF06DFE012393
S2140037A0206334342370F8BD044B10B51B68002B1F
S2140037B000D098470122024B1A7210BD4C0600201A
S2140037C000140040037810B5002B0BD03F24064BA6
S2140037D021401A690800A2431100014319619A7A30
S2140037E0D209FCD110BDC046001400400378002B5F
S2140037F00BD03F20054B08401A690549800111404F
S214003800014319619A7AD209FCD17047001400402E
S2140038103FF0FFFF0378002B0BD01F20054B08401E
S2140038201A69054900031140014319619A7AD209C1
S214003830FCD1704700140040FF0FFEFF70B5160065
S214003840027804000D00002A0AD01900FFF7BAFF1C
S21400385031002000FFF7CAFF29002000FFF7DAFF3B
S21400386070BD00000378002B0BD01F20054B0840CE
S2140038701A69054940041140014319619A7AD20930
S214003880FCD1704700140040FFFFC1FF0378002BF7
S2140038900BD00F20054B08401A69054980051140DA
S2140038A0014319619A7AD209FCD17047001400408E
S2140038B0FFFF3FFC0378002B09D0054A88061369F2
S2140038C09901890901431161937ADB09FCD170479C
S2140038D00014004070B51D00037804001600002B8D
S2140038E009D0FFF7BFFF31002000FFF7CFFF290008
S2140038F02000FFF7DFFF70BD094B0A4A9A605A782E
S21400390052B2002AFBDB084A5A605A7852B2002AA2
S214003910FBDB064A5A805A78D209FCD17047C0466B
S214003920000C0040020400000205110004420000E2
S2140039300378002B05D0034B034A5A809A7AD209A3
S214003940FCD17047001400400080FFFF10B5FFF761
S214003950EFFF024B18698006800E10BD0014004071
S21400396010B5FFF7E5FF024B18690005800E10BD85
S2140039700014004010B5FFF7DBFF024B1869C003C8
S214003980C00E10BD0014004010B5FFF7D1FF024B6B
S21400399018698002C00E10BD0014004010B5FFF775
S2140039A0C7FF024B18698001000F10BD00140040CD
S2140039B010B5FFF7BDFF024B1869800E10BDC0465C
S2140039C00014004000B58BB0FFF7B2FF01220F4B8A
S2140039D052421B6909920022089207929A0E64329C
S2140039E006929A01120F013A05929A02D20E04929A
S2140039F0DA03D20E03921A059B06920E9B0E01A8BE
S214003A000292019311F0E8FE0BB000BD00140040D6
S214003A100221044B1A888A431A809A7AD209FCD16A
S214003A207047C046001400400222044B19880A431F
S214003A301A809A7AD209FCD17047C046001400401A
S214003A400122044B19880A431A809A7AD209FCD1BB
S214003A507047C046001400400121044B1A888A4370
S214003A601A809A7AD209FCD17047C04600140040EA
S214003A702023F7B50026294A0F00916905000B435D
S214003A809361274A274B284C9A82B74214D1274B7A
S214003A901A7870231A4209D13E000DE0002E39D064
S214003AA0019B2361A37ADB09FCD133E023881B0743
S214003AB0F2D50126236901932800FFF71DFF280091
S214003AC0FFF7A6FF2800FFF7BBFF6388184A1340DE
S214003AD06380184B2380A37ADB09FCD1C021164AE9
S214003AE008331360890053581B021B0A53500123E6
S214003AF0E27913430722E371237F93432377A37A64
S214003B00DB09FCD12800FFF78FFF2800FFF7A4FF92
S214003B10002FC3D001232B70F7BDC0460004004021
S214003B20CE060000000800400014004038040040A4
S214003B30FFBFFFFF080A000000E100E00022014B83
S214003B401A70704750060020F0B507253C4B3D4ADA
S214003B509D601A603C4A3D4C5A603D4A87B01268E8
S214003B60DA603C4B3C4A1A6005229A603B4A5A602F
S214003B703B4A1268DA603B4B3B4A1A6003229A6063
S214003B803A4A5A603A4A1268DA603A4B236001238E
S214003B902376394F0023F85E0FF0C0FB37490EF04E
S214003BA0D9FE0222011C684608F061FF344E6846C2
S214003BB0310008F095FF216800230F223C3168464B
S214003BC008F0A8FF0223F85E0FF0A8FB2B490EF0C2
S214003BD0C1FE0222011C03A808F049FF03A968469B
S214003BE008F01BFF03A808F085FE3100684608F0C1
S214003BF077FF216868464B3100230F2208F08AFFC2
S214003C000823A3601F4B204A6360204B68461B684E
S214003C10E3601F4B1A601F4A9D605A601E4A126876
S214003C20DA601E4B1E4A1A6006229A601D4A5A60C7
S214003C301D4A1268DA6008F05DFE07B0F0BDC046A7
S214003C40E4060020040000208C02002090060020DD
S214003C50880200205806002074000020BF000020C4
S214003C607000002074060020D4000020010100200F
S214003C70D000002014010020940A00200000C84252
S214003C80638D01008C010020A0010020100100209F
S214003C90AC060020090200209C010020C806002077
S214003CA01C020020760200201802002010B5064CE8
S214003CB0200006F0ADFA002805D1200006F0AAFA8A
S214003CC004F082F8F3E710BD6C09002000230C4ACC
S214003CD01361536113760B4A1361536113760A4AD4
S214003CE0136153611376094A136153611376084AC8
S214003CF0136153611376074A136153611376704755
S214003D00E4060020580600207406002090060020D6
S214003D10AC060020C8060020F7B5204E0D1E204C2D
S214003D20019624D0002259231100009320006F33FF
S214003D3004F0CDF900253A235A22009301958E33DC
S214003D402900200004F0C3F934239522009301963D
S214003D5094332900200004F0BAF9002103230191CE
S214003D6000931E22C533200004F0B1F9F7BD662784
S214003D700A00C8232000009704F0A9F920233A007F
S214003D8000930195A8332900200004F0A0F94123F0
S214003D900196009387228733DBE7C046FFFF0000CB
S214003DA0FC0A0020F0B506004B4C85B00021200030
S214003DB004F03DFC14220A21200004F035FC716852
S214003DC0200007F0FFF80025B368039333690399D2
S214003DD0981E40190EF00EFB0F1E01DA039BCF183B
S214003DE06B1C0393022D15D13C49200004F01FFCE8
S214003DF07C220A21200004F017FC0F217943336847
S214003E002000591807F0DEF80021200004F00FFC0F
S214003E10039DD9E76D012A003C3212B20A21200028
S214003E2004F002FC0F235F4333682000D91907F023
S214003E30C9F8039D052DC7D10025C8232900009386
S214003E40200001952A0005F02DF933692349736196
S214003E50200004F0ECFB6A013C3212B20A2120007A
S214003E6004F0E2FBB368039333690399981E401984
S214003E700EF0C0FA0F1E01DA039BCF186B1C0393DB
S214003E80022D10D10021200004F0D1FB0F21794330
S214003E9033682000591807F095F81049200004F000
S214003EA0C6FB039DD7E70F235F4333682000D9196D
S214003EB007F088F8039D052DCDD1142220000A2195
S214003EC004F0B2FB7168200007F07CF800212000A7
S214003ED004F0ADFB05B0F0BDFC0A0020FFFF0000BB
S214003EE0F0B5012185B00500FFF716FF3A2300273D
S214003EF00393AB68DC0FE4182B696410581EC019D6
S214003F0021000EF077FA0E1E00DA0E19022F37DCAB
S214003F10374C012F45D13749200004F088FB742226
S214003F200A21200004F080FB0F2171432B6820003B
S214003F30591807F047F80021200004F078FB2E49B6
S214003F40200004F063FC2B49200004F070FB88225C
S214003F505021200004F068FBAB682000D90FC91878
S214003F600F234910891959432B68591807F02AF866
S214003F700021200004F05BFB2049200004F046FCF2
S214003F80039B01373A339BB20393062FB1D100212E
S214003F90C823019100930A00154805F083F805B080
S214003FA0F0BD6B4620000C229A5E0A2104F03CFB12
S214003FB00F2171432B682000591807F003F82000E2
S214003FC00D4904F023FC039A2000143212B250214B
S214003FD004F02AFBAB682000D90FC9180F2349103C
S214003FE0891959432B68591806F0ECFFC4E7C046F8
S214003FF0FC0A0020FFFF0000688D0100748D0100A0
S214004000037E10B5002B02D0FFF76AFF10BDFFF746
S214004010C9FEFBE7F0B5FD4985B0FD4804F0F6FBA8
S214004020FC4D280006F0F4F8F94C0290002800D069
S21400403072E203F0C9FEF84B029A0193C8231100FE
S2140040400093200004F043F80A222000322104F0F6
S214004050EBFAF249200006F0B5FF0A2220008C2178
S21400406004F0E2FAEE49200006F0ACFF1822200029
S214004070052104F0D9FAEB49200006F0A3FF200042
S2140040801822232104F0D0FAE74F0A2239682000CC
S21400409006F0FAFF24222000052104F0C5FAE349C1
S2140040A0200006F08FFF20002422232104F0BCFA13
S2140040B0DF4E0A223168200006F0E6FF302220009C
S2140040C0052104F0B1FADB49200006F07BFF200052
S2140040D03022232104F0A8FAD74D0A2229682000AE
S2140040E006F0D2FF20001822782104F09DFAD34B68
S2140040F00A221968200006F0C7FF20002422782133
S21400410004F092FACE4B0A221968200006F0BCFF93
S21400411020003022782104F087FACA4B0A22196858
S214004120200006F0B1FF3C222000052104F07CFAB6
S214004130C549200006F046FF3C222321200004F05B
S21400414073FA38680FF0EAF8071C30680FF0E6F8E4
S214004150061C28680FF0E2F8391C051C381C0EF007
S214004160E9FD311C071C301C0EF0E4FD011C381C58
S2140041700EF05EFA291C061C281C0EF0DBFD011C46
S214004180301C0EF055FA10F007FF0022AF4B10F06F
S2140041909FF80022AE4B0AF00FFF03270B00020029
S2140041A00097200007F054F83C227821200004F005
S2140041B03BFAA24B18680FF0B1F8A14B03901868B1
S2140041C00FF0ACF89F4B061C18680FF0A7F8039981
S2140041D0051C081C0EF0AEFD311C0390301C0EF0C2
S2140041E0A9FD011C03980EF023FA291C061C281CA6
S2140041F00EF0A0FD011C301C0EF01AFA10F0CCFEDA
S2140042000022924B10F064F80022914B0AF0D4FE84
S21400421000970B000200200007F01AF8502220003A
S214004220052104F001FA8B49200006F0CBFE2000A1
S2140042305022232104F0F8F9874D0A22296820002D
S21400424006F022FF50222000782104F0EDF92868BD
S21400425010F028FE814A824B0FF006FC02250B0068
S21400426002000095200006F0F3FF5C2220000521E6
S21400427004F0DAF97B49200006F0A4FE20005C2258
S214004280232104F0D1F9784E0A223168200006F086
S214004290FBFE5C222000782104F0C6F9306810F09E
S2140042A001FE6E4A6E4B0FF0DFFB00950B0002001E
S2140042B0200006F0CDFF68222000052104F0B4F9A6
S2140042C06A49200006F07EFE20006822232104F0C2
S2140042D0ABF9674E0A223168200006F0D5FE682248
S2140042E02000782104F0A0F9306810F0DBFD5B4A6E
S2140042F05B4B0FF0B9FB00950B000200200006F0A8
S214004300A7FF78222000322104F08EF959492000B8
S21400431006F058FE782220008C2104F085F95649D4
S214004320200006F04FFE88222000052104F07CF9CC
S2140043305249200006F046FE88222000232104F081
S21400434073F94F4EB06910F027FE00970B0002007D
S214004350200006F07DFF200088228C2104F064F9FE
S214004360F1690A22200006F08FFE94222000052123
S21400437004F05AF94349200006F024FE9422200057
S214004380232104F051F9306A10F006FE00970B0066
S2140043900200200006F05CFF200094228C2104F02E
S2140043A043F9716A0A22200006F06EFEA022200061
S2140043B0052104F039F93449200006F003FEA02256
S2140043C02000232104F030F9B06A10F0E5FD0097D4
S2140043D00B000200200006F03BFF2000A0228C21EC
S2140043E004F022F9F16A0A22200006F04DFEAF2200
S2140043F02000052104F018F92449200006F0E2FD0B
S214004400AF2220003C2104F00FF941E0688D010046
S214004410FC0A00206C090020FFFF0000228C01002F
S214004420248C0100288C0100D80900202B8C010068
S214004430E40900202E8C0100F0090020E00900208D
S214004440EC090020F8090020968C01000000303EA0
S2140044500000E03F318C01000C0A002066666666AC
S21400446066666040348C0100140A0020378C010018
S2140044701C0A00203A8C01003F8C01000FA70100A7
S214004480940A00202C8C01002F8C0100468C010021
S214004490264B186810F080FD00950B0002002000E7
S2140044A006F0D6FEBB222000052104F0BDF8204908
S2140044B0200006F087FDBB2220003C2104F0B4F863
S2140044C01C4B186810F068FD00950B0002002000D9
S2140044D006F0BEFEC7222000052104F0A5F8164906
S2140044E0200006F06FFDC72220003C2104F09CF857
S2140044F0124B186810F050FD009502000B002000CB
S21400450006F0A6FE0123029A0193C733009311001A
S214004510200004F0C7FD83E50949200004F076F981
S214004520280005F0D5FE05B0F0BDC046F80A00200C
S2140045304A8C0100880A0020508C0100900A002056
S214004540748D0100F7B53E4C3E49200004F05EF93C
S214004550C8273D4E300005F05BFE051E67D103F010
S21400456033FC3A4B2A0001932900C8232000009709
S21400457003F0ADFD1E222000052104F055F8344955
S214004580200006F01FFD1E222000462104F04CF8F5
S214004590304BD86810F000FD0B000221020000919D
S2140045A0200006F055FE2D222000052104F03CF8E0
S2140045B02949200006F006FD20002D22462104F0A1
S2140045C033F8264E0A223168200006F06BFD3C22A6
S2140045D02000052104F028F82149200006F0F2FC0E
S2140045E020003C22462104F01FF871680A222000B1
S2140045F006F02AFD4B222000052104F015F8194983
S214004600200006F0DFFC20004B22462104F00CF8C8
S214004610B1680A22200006F045FD012300970193A9
S2140046202A00C7332900200004F03CFD91E70E491C
S214004630200004F0EBF8300005F04AFEF7BDC04657
S214004640FC0A0020688D01006C090020FFFF0000B6
S2140046500C8C0100940A0020118C0100FC0900203B
S214004660178C01001C8C0100748D0100F7B5234CDB
S2140046702349200004F0CAF801F08EFE0721080046
S21400468008F0DAF8C8271F4E300005F0C1FD051EF9
S21400469025D103F099FB1C4B2A0001932900C8235F
S2140046A02000009703F013FD1E222000052103F0D2
S2140046B0BBFF1649200006F097FC1549200006F0BF
S2140046C093FC1449200006F08FFC01230097019309
S2140046D02A00C7332900200004F0E4FCD3E70121B8
S2140046E0072008F025F801F00BFE0B49200004F027
S2140046F08DF8300005F0ECFDF7BDC046FC0A002042
S214004700688D01006C090020FFFF0000558C010039
S214004710678C0100798C0100748D0100F0B5BA49F0
S21400472085B0BA4804F072F8B94D280005F070FD5F
S214004730B64C0390002800D05CE103F045FBB54B77
S214004740039A0193C82311000093200003F0BFFCD6
S2140047500F222000052103F067FFAF49200006F076
S21400476031FC0F224621200003F05EFFAB4D2800EF
S21400477002F01BFA10F010FC0B000321020000915F
S214004780200006F065FDA64E2000310006F01AFC5B
S2140047901E222000052103F047FFA249200006F054
S2140047A011FC1E224621200003F03EFF280002F0E6
S2140047B007FA10F0F1FB0B00032102000091200025
S2140047C006F046FD3100200006F0FCFB2D222000FE
S2140047D0052103F029FF9449200006F0F3FB2D2263
S2140047E03C21200003F020FF280002F0C6F9022634
S2140047F010F0D2FB00960B000200200006F028FD09
S2140048008A4F2000390006F0DDFB3C2220000521FF
S21400481003F00AFF8649200006F0D4FB3C22200065
S214004820110003F001FF280002F0B3F910F0B4FB0A
S21400483000960B000200200006F00AFD390020005A
S21400484006F0C0FB4B222000052103F0EDFE79495F
S214004850200006F0B7FB4B223221200003F0E4FED6
S214004860280002F0B8F910F097FB00960B00020043
S214004870200006F0EDFC7049200006F0A3FB5A224B
S2140048802000052103F0D0FE6C49200006F09AFBBC
S2140048905A223221200003F0C7FE280002F0A6F9B3
S2140048A010F07AFB00960B000200200006F0D0FC09
S2140048B0634F2000390006F085FB692220000521A1
S2140048C003F0B2FE5F49200006F07CFB692232212D
S2140048D0200003F0A9FE280002F093F910F05CFB1C
S2140048E000960B000200200006F0B2FC3900200003
S2140048F006F068FB78222000052103F095FE524959
S214004900200006F05FFB78225A21200003F08CFE80
S214004910280002F011F910F03FFB0B00039902008B
S2140049200091200006F094FC4849200006F04AFB5F
S21400493087222000052103F077FE4549200006F077
S21400494041FB87225A21200003F06EFE280002F069
S214004950FEF810F021FB00960B000200200006F087
S21400496077FC3C4F2000390006F02CFB96222000F6
S214004970052103F059FE3849200006F023FB962255
S2140049805A21200003F050FE280002F0EBF810F049
S21400499003FB00960B000200200006F059FC3900CD
S2140049A0200006F00FFBA5222000052103F03CFEA8
S2140049B02A49200006F006FBA5225A21200003F013
S2140049C033FE280002F028F910F0E6FA00960200FE
S2140049D00B00200006F03CFC2149200006F0F2FA0D
S2140049E00123039A0193C73300931100200004F0BB
S2140049F059FB99E61B49200003F008FF280005F044
S214004A0067FC05B0F0BDC046688D0100FC0A0020BA
S214004A106C090020FFFF0000D78C01008C070020E7
S214004A20DD8C0100E08C0100E58C0100EA8C0100C1
S214004A30EE8C0100F38C0100F78C0100FA8C01006B
S214004A40FE8C0100028D0100068D01000D8D010017
S214004A50128D01001A8D01001F8D0100178C0100B8
S214004A60268D0100748D0100F0B587B0C64D280074
S214004A7005F0CEFBC54C0390002800D07AE103F089
S214004A80A3F9C349200003F0C1FEC24B039A019369
S214004A90C82311000093200003F019FB0F22052104
S214004AA0200003F0C1FDBC49200006F08BFABB4D88
S214004AB0BB49AB1CDB7F002B05D16B1CDB7FB949E8
S214004AC0002B00D1B849200006F07CFA1E220521F2
S214004AD0200003F0A9FDB549200006F073FA286807
S214004AE00EF01CFCB2490EF025F910F055FA0B003A
S214004AF0052102000091200006F0AAFB2D220521C8
S214004B00200003F091FDAB49200006F05BFA6868D0
S214004B100EF004FCA6490EF00DF910F03DFA0B005D
S214004B20052102000091200006F092FB3C220521A0
S214004B30200003F079FDA049200006F043FA0E237A
S214004B40E85E0EF0EBFB10F027FA9C4B9C4A0FF049
S214004B50BFFB06000C23E85E0F000EF0DFFB10F034
S214004B601BFA02000B00300039000EF06DFC10F04E
S214004B7065FA94490EF0DEF810F00EFA0B000121EB
S214004B8002000091200006F063FB8F49200006F02B
S214004B9019FA1223E85E0EF0C1FB10F0FDF98B4BFC
S214004BA08B4A0FF095FB06001023E85E0F000EF010
S214004BB0B5FB10F0F1F902000B00300039000EF0E2
S214004BC043FC10F03BFA10F0E7F90B00002102005E
S214004BD00091200006F03CFB4B220521200003F04C
S214004BE023FD7C49200006F0EDF90A23E85E0EF06E
S214004BF095FB10F0D1F9754B754A0FF069FB06006E
S214004C000823E85E0F000EF089FB10F0C5F90200DD
S214004C100B00300039000EF017FC10F00FFA10F001
S214004C20BBF90B00022102000091200006F010FBE9
S214004C305A220521200003F0F7FC0A22E97D200015
S214004C4006F03CFA644E2000310006F0BBF90A225A
S214004C50A97D200006F032FA3100200006F0B2F9F5
S214004C600A22697D200006F029FA5C49200006F039
S214004C70A9F90A22697E200006F020FA584E200084
S214004C80310006F09FF90A22A97E200006F016FAE7
S214004C903100200006F096F9E97E0A22200006F090
S214004CA00DFA504900260B00883318780623434334
S214004CB04D4A15335B189A4205D011780632481EC5
S214004CC081417618F7E700272000C723B92239006C
S214004CD0009703F0ABF96E2320005F2214210097A3
S214004CE003F09CF92000390003F090FD3D4B3F4C4B
S214004CF088330593059B1B789F422CDA6379002B3B
S214004D0026D0B420039B310058430DF08DFA1630A0
S214004D1003B23100AE2004930DF086FAB9220021CA
S214004D202579031F521B2DB21BB201911748049917
S214004D30009503F083F9BE220499144803F074FC2E
S214004D4021780A22114806F0B9F9039B0133039330
S214004D5001370634CEE70D4C0D49200003F056FD12
S214004D60012300220193C73300931100200004F0B2
S214004D7099F97BE61E49200003F048FD280005F05F
S214004D80A7FA07B0F0BDC0466C090020FC0A002058
S214004D90688D0100FFFF00002C8D0100DC0700205D
S214004DA0328D0100398D0100428D0100498D0100D0
S214004DB095BFD6334E8D0100538D01004D62503F96
S214004DC0FCA9F1D2560EED3F588D0100E17A843FE2
S214004DD07B14AE475E8D010014A7010068F3010046
S214004DE0D59E0100040800201908002014080020A1
S214004DF0748D0100C36870B505000C00012B0DD141
S214004E007348002908D07348012905D07248022942
S214004E1002D0032952D1714800F028F9EB68102B14
S214004E2004D1002C7BD16E4800F020F9EB68142BDF
S214004E300BD1002C09D108206A4E305600F0FEFA3D
S214004E40210030722800FEF767FFEB68112B14D1A3
S214004E50002C7AD1644B186859680FF0EFFF00F009
S214004E60EDFA624B196801F001FD6149614806F0F0
S214004E70BBF800212800FEF74FFFEB68122B10D17D
S214004E80002C74D1574E0023F05E00F0D7FA03B220
S214004E90002B69DB3380FEF757FE00212800FEF763
S214004EA03BFFEB68132B00D085E0002C6ED1FFF79C
S214004EB0B1F800212800FEF72FFF7CE004291DD161
S214004EC0484E4D4833793C300F220B420DD14B49AA
S214004ED011F09AFBFEF738FE3379494823433371C5
S214004EE0FEF770FD474B186098E7474911F08CFBBA
S214004EF0FEF72AFE3379A34333718FE7052906D1DF
S214004F0002F04AF800212800FEF706FF86E7062989
S214004F1084D102F0AFF83D4805F0DAF9F2E7022C4A
S214004F2006D101F087FF3A49324806F05DF87DE782
S214004F30032C03D101F02CFF3649F5E7042C00D0F2
S214004F4074E701F0CDFF3449EEE7012C91D13349E7
S214004F50284806F049F8234BD8680EF0BFF900F051
S214004F606DFA01F0D3FC84E74042308093E7012CD1
S214004F7093D11C4E0223F05E00F060FA03B2002BC1
S214004F8001DC738087E74042708084E7012C02D101
S214004F90FFF7D8FA8DE7022C02D1FFF7BFFB88E7B0
S214004FA0032C02D1FFF760FD83E7042C04D105F043
S214004FB087FAFEF7C9FD70BD052C03D1184805F029
S214004FC043FAF8E7062CF6D1FFF750FB71E7C04628
S214004FD058060020C806002090060020AC060020D8
S214004FE074060020940A0020A0020020FC0900207D
S214004FF0BF8C0100D41E0020040000208B8C010012
S21400500050060020E80A0020988C01006C09002059
S214005010A68C0100AF8C0100B78C0100CB8C010080
S2140050209009002070B5046905000F4805F050F996
S2140050300300042808D80DF063F8030B09111100CB
S214005040013C01D5AB68E41800232C61180070BD44
S214005050601CA9680DF0CEF90C00F5E721002800C9
S214005060FFF7C8FEF0E7C0466C09002070B50021C7
S2140050700400FEF751FE2000FEF7C2FF05F00EFF0B
S214005080FEF714FE05F00AFF2000FFF7CBFF084DE1
S214005090237E022801D12B6070BD2A689342EAD095
S2140050A000212000FEF738FE237E2B60E3E7C04693
S2140050B054060020F0B5070085B0012934D100233E
S2140050C07D497E4E7E4C89B2300003933C4003F00F
S2140050D0AEFA002C04DA0421013C49420C430134A8
S2140050E003232425FA171A40D21992106C4355430D
S2140050F0039BA4B2ADB22A002100019323233432CD
S2140051001F3112B209B20093300002F0E0FF0F2FF9
S21400511019D838000CF0F4FF0B1D252D434D5761B0
S2140051206B757F89939DA7C60021634BC9E72A004C
S2140051302A344C3221B212B2300003F075FA6149BB
S214005140300005F03FFF0021300003F070FA05B094
S214005150F0BD2A3421B24C22300003F065FA5A49D9
S214005160EEE72A3421B24C22300003F05DFA5749AC
S214005170E6E721004C352DB228312A0009B230006E
S21400518003F052FA5249300005F01CFF21002A00B5
S2140051902C3109B2300003F047FA4E49D0E72A0016
S2140051A02A344C3221B212B2300003F03DFA4A499A
S2140051B0C6E72A002A344C3221B212B2300003F07D
S2140051C033FA4649BCE72A002A344C3221B212B2DE
S2140051D0300003F029FA4249B2E72A002A344C325A
S2140051E021B212B2300003F01FFA3E49A8E72A00A7
S2140051F02A344C3221B212B2300003F015FA3A4982
S2140052009EE72A002A344C3221B212B2300003F054
S2140052100BFA364994E72A002A344C3221B212B2ED
S214005220300003F001FA32498AE72A0023344C3270
S21400523021B212B2300003F0F7F92E4980E72A00B7
S2140052402A344C3221B212B2300003F0EDF92A496A
S21400525076E72A002A344C3221B212B2300003F02C
S214005260E3F926496CE72A0021004532233112B2C1
S21400527009B2300003F0D8F92149300005F0A2FE4B
S2140052802A0021004C322A3112B209B2300003F053
S214005290CBF951351B493000323405F093FE2AB263
S2140052A021B277E72A002A344C3221B212B23000FB
S2140052B003F0BAF9144943E7FFFF0000FC0A002098
S2140052C003000080658C01001A9E01001C9E0100F0
S2140052D01E9E010097F30100209E0100229E010001
S2140052E0249E0100F58C0100269E0100289E0100E8
S2140052F02A9E01002C9E01004B9F01009AF301009C
S2140053002F9E0100D59E01000FA7010073B5494BE3
S21400531000220193C82300240600474D1100009385
S214005320280002F0D4FEB8230B221E212800009489
S21400533002F074FEB8230B221D212800009402F010
S2140053406DFE9023332242212800009402F066FE70
S2140053509023332266212800009402F05FFE9023FB
S21400536033228A212800009402F058FEB8230B222C
S214005370AE212800009402F051FEB8230B22AF2184
S2140053802800009402F04AFE902332221E212800B4
S214005390009402F04BFE90230B221E21280000945E
S2140053A002F044FE90230A221E212800009402F0F8
S2140053B03DFE902333221E212800009402F036FE84
S2140053C0902357221E212800009402F02FFE9023DF
S2140053D07B221E212800009402F028FE90239F22A4
S2140053E01E212800009402F021FE9023C3221E21D5
S2140053F02800009402F01AFE28222A21280003F032
S21400540013F90A223100280005F03EFE2000002194
S2140054100134FFF74FFE102CF8D101210020FFF7D2
S21400542049FE0021C8232800019100930A0003F0DA
S21400543039FE73BDFFFF0000FC0A0020F0B5002512
S21400544085B003900020FFF761FF01210020FFF7E1
S21400545031FE2C000F265F4F380004F0DBFE3800CC
S21400546004F0D6FE0028F6D0380004F0D1FE011E67
S21400547000D1A7E028000021FFF71CFE380004F04A
S21400548027FF0428F0D80CF03BFE030D101416007E
S2140054902B1F00D5103333401D0001212800FFF7D5
S2140054A009FEE1E704353540F7E7013DFBD235005C
S2140054B0F9E70135F7E701212800FFF7FBFD0F2D7F
S2140054C013D828000CF01CFE0C29323B414A537CB2
S2140054D05C656E0911777A08039C200005B0F0BD64
S2140054E00A23002C16DA5C43013C3B4B0C2201934A
S2140054F026231F2100933948693302F0E8FD28224D
S2140055002A21364803F090F80A222100334805F095
S214005510BBFDA9E75C430134E7E70A23002C02DA67
S2140055205C43023CE1E75C430234DEE70A23002CDE
S21400553002DA5C43033CD8E75C430334D5E720003B
S2140055400A210CF071FE0400CFE70A23002C02DAD1
S2140055505C43043CC9E75C430434C6E70A23002CDA
S21400556002DA5C43053CC0E75C430534BDE70A232A
S214005570002C02DA5C43063CB7E75C430634B4E72B
S2140055800A23002C02DA5C43073CAEE75C43073490
S214005590ABE70A23002C02DA5C43083CA5E75C4331
S2140055A00834A2E70A23002C02DA5C43093C9CE795
S2140055B05C43093499E70A235C4396E7644294E720
S2140055C0002492E7C823019002000093034803F0EA
S2140055D069FD40E76C090020FFFF0000FC0A002080
S2140055E000280AD04368002B07D08368002B04D01D
S2140055F0C36858425841404270470120FBE7F8B55F
S214005600050018000E0017001C00FFF7E9FF002831
S2140056100ED1A378012B01D080231D4360783B0078
S214005620646832002900A047002801D004204042C8
S214005630F8BDF0B5050087B00F001E00141C0A2A3E
S21400564000D90A243000E4B2FFF7CAFF00282ED1A2
S214005650002D2CD0002F2AD0002C2CD03B7801AA6D
S2140056601370B3787F21012B19D12300012C0ED0A3
S2140056706B46591D0123E85C0870F85C01334870DE
S214005680D8B20231A042F6D36400013CA3B2297816
S2140056907078B468A04700280BD0042008E02B5C84
S2140056A00B402B540130C3B2A342F8D3DDE70120F0
S2140056B0404207B0F0BD0320FAE737B56B46DC1D65
S2140056C0F22323706B460D00591D072318400870FF
S2140056D02B0001222000FFF7ACFF002810D16946FE
S2140056E0F4302B00012206312070FFF788FF0028D7
S2140056F006D169462B00012206312000FFF799FFEC
S2140057003EBDF7B56B460700F420DC1D0E00150005
S2140057109871210013000122FFF771FF002819D1AC
S214005720FB0707D51C21337822789B000B408A4361
S21400573013432370BB0706D51F22237813407278C5
S21400574052011343237068462B00012221000630C5
S214005750FFF76FFFFEBDF7B56B460700F520DC1DB3
S2140057600E0015009871210013000122FFF747FF75
S214005770002819D13B0707D51C21F37822789B0017
S2140057800B408A4313432370FB0606D51F2223785B
S2140057901340327952011343237068462B000122CE
S2140057A021000630FFF745FFFEBD70B50400080077
S2140057B00D00FFF715FF002809D12B00012221005C
S2140057C0F430FFF71CFF032223781340237070BDCC
S2140057D0F7B56B469E1DE02333706B46DF1DB62380
S2140057E005003B70FFF7FCFE041E09D12B000122CA
S2140057F039003000FFF71DFFEB68040002209847D1
S2140058002000FEBD70B588B06B46DE1C0023050088
S2140058103370FFF7E5FE002800D083E005242B0058
S21400582001223100D020FFF7EAFE002800D07BE0FE
S2140058303378602B00D077E02B702800FFF7C8FF86
S21400584000286FD101AC01001A2220000FF0F0FEF4
S2140058502B001A2221008820FFF7D1FE002861D1F4
S2140058606278237812021343E2782B82A37812021E
S214005870134362796B82237912021343E279AB8277
S214005880A37912021343627AEB82237A120213433D
S214005890E27A2B83A37A12021343627B6B83237B09
S2140058A012021343E27BAB83A37B12021343627C98
S2140058B0EB83237C12021343E27C2B84A37C12022C
S2140058C01343627D6B84237D12021343AB84E27D17
S2140058D0A37D12021343EB842B00627E28331A70DA
S2140058E021002B000722E130FFF789FE002819D19E
S2140058F062782378120213436B852B00A27803216B
S2140059002C331A700F226156237909011A400A4374
S214005910EA850522A2561B09120113432B86A3799A
S21400592032352B7008B070BD013C0120EB68E4B244
S2140059309847002C00D072E702204042F2E77FB57D
S21400594001AE0500030004223100F220FFF757FEE7
S214005950002825D10721337802AC0B40A370B3781A
S21400596028009A105B096370F3780A4022709A1038
S2140059700A405B09E2702371FFF72AFF00280FD167
S2140059802900A078FFF799FE2A0021001F20FFF7C4
S214005990B8FE002804D12A0021001F30FFF7DBFEE6
S2140059A004B070BDF7B5060008000C00FFF718FE3F
S2140059B0051E0FD16B46DF1D21003800FFF7F5FEF0
S2140059C0051E07D13B78002B06D173070BD1182391
S2140059D01E421CD12800FEBD2000FFF7B0FF0028A5
S2140059E0F3D00500F6E70120730705D523003A3308
S2140059F018782100FFF761FEB30705D021002200CA
S214005A0038313000FFF77DFE0028EAD1DFE72100BD
S214005A10220038313000FFF79EFEE2E7F7B50600B9
S214005A2008000C00FFF7DCFD002828D16B465D1D42
S214005A3021002800FFF7B9FE002820D12B78002B84
S214005A4018D16B46F420DD1D9F1D0122230029007E
S214005A503870FFF7D4FD002811D103222B781640AA
S214005A6093431E43023A2300290038002E70FFF7A6
S214005A70E0FD04E02000FFF762FF0028E1D0FEBD55
S214005A80037842781B0312011343827812091343EA
S214005A900B60C37802791B03120113434279120983
S214005AA013434B608379C2791B0213438B607047A4
S214005AB0F0B58DB00990089103921C00002900D122
S214005AC095E1002A00D192E1002C00D18FE100235D
S214005AD053601360936003005B072BD04A682088EE
S214005AE0D1084300C91A0225635F12095943121AE6
S214005AF00423E05ECB175B055B0D5B180521524364
S214005B0012135043C2179204920C12189213DB120F
S214005B109B18594380316362CB17DBB2B54A5B18DA
S214005B201B12934200DD1300B34A934200DA1300BF
S214005B30039A53600122099B134200D1F8E0012129
S214005B40626AAE484942D31712184B41190010003A
S214005B50069207930CF0F0FC0A900B910823E05E87
S214005B60069A079BC1170CF0E7FC030D0A031A43BD
S214005B70030304930A23E05E0592C1170A9A0B9B5F
S214005B800CF0DAFCFF22CB171A4000230092019398
S214005B90009A019B801859410B06020A1A430B1201
S214005BA00498059912184B4180210020090280189C
S214005BB05941E28800230CF0BFFC0125CF173D4079
S214005BC03A002B00801859414B10CF1704938C4A8B
S214005BD03B4300D1AAE01023E05E0A9A0B9BC11754
S214005BE00CF0AAFC0A900B910E23E05E069A079B27
S214005BF0C1170CF0A1FC8C466546C10B6B040B4329
S214005C0042040A980B9980185941089B0690079100
S214005C10069D079E1B680A9380230A9A5B039B1ABD
S214005C205908D8070C22A35E019ADB00521973416B
S214005C30801A9941734A00230CF07EFC049A3B00BC
S214005C400CF056FC04900591059BFF25D917C90456
S214005C50019BCA0C0498059912184B41D9045F138E
S214005C60560B1623E05E0E4332003B00C1170CF0C5
S214005C7063FC32003B000CF05FFCCE17019BF60184
S214005C80F20980185941CE01420E4B163243049E4B
S214005C90059FB6185F411423E05E049A059BC11762
S214005CA00CF04AFCCB175B035A0B019B801859413A
S214005CB04B03C20C1A43CB1492197B41DE173540B6
S214005CC02800019912184B4104920593059B1E0665
S214005CD0049B1A0A16433000059B19121223E65E2F
S214005CE0F317370F1B013B43320112184B41019942
S214005CF0D80F12184B41D907500808436422591090
S214005D0000230CF019FC7F26CF1737403A00019B82
S214005D1012184B4111005B06CA091A433A4B9A42C5
S214005D2000D91A00364B9A4200D21A00039B1A601A
S214005D30099B00205B0758D5636A344A9E18089B67
S214005D4098681E23E15E80030905421A2023E15E5F
S214005D5080237143DB01511AC918CB175B045B0C17
S214005D605B18217FDB137143CA175205520D521878
S214005D708021D21209025118E21CD27F52B2564339
S214005D80F2179205920D921992124A43D11789057D
S214005D90890D8A1880219212890352181A20215ED2
S214005DA00F205143802292018918CA179204920C40
S214005DB0521892135343DA175204520CD218D213C5
S214005DC05243217ED2115143CA1702405218121173
S214005DD09B1ADA43D2171340C8225205934200DDBD
S214005DE013000020039A1B1393600DB0F0BD012032
S214005DF04042FAE73421000060F0FFFF000CFEFF8F
S214005E00C0C62D00350C0000C0D8A70000D4FEFF89
S214005E1070B5140086B0082206000D0001A8002107
S214005E200FF006FC0C22002103A80FF001FC200056
S214005E30FFF7D6FB002816D1002D14D02300082229
S214005E4001A9F730FFF7DBFB00280AD103A901A858
S214005E50FFF716FE23002A00103303A93000FFF7D1
S214005E6027FE06B070BD01204042FAE700280AD09F
S214005E70C369002B07D0036A002B04D0436A58423C
S214005E805841404270470120FBE770B51D1E15D0F3
S214005E90DC69002C12D09B78012B01D17F3318438C
S214005EA06E7813000A0001003000A0476B6A0400F9
S214005EB001209847002C03D0022400E0012464420D
S214005EC0200070BDF7B50700009101921C1E2FD070
S214005ED01D6A002D2CD09B78012B01D17E331F40EC
S214005EE0237A112B17D0237C152B14D03E000025C7
S214005EF0F21B019BD2B29A4216D2009B31009A182E
S214005F00256A60780123A84701360500636A0120E8
S214005F10F6B29847ECE7019B6078009A3900A847EC
S214005F20636A050001209847002D03D0022500E093
S214005F3001256D422800FEBD73B56B46DE1DB623F7
S214005F40041E33702ED0436A002B2BD00300012290
S214005F5031007E20FFF7B6FF636A05000F209847E2
S214005F60002D14D1A278012A13D008231021022272
S214005F70637163730C332373002321710D39E2714F
S214005F80A171A3736368E273A360E36823612800CA
S214005F9076BD230031007F20FFF777FF0028E4D08E
S214005FA00500F4E701256D42F1E773B50500FFF73C
S214005FB05DFF041E1AD1AA78012A0ED000230426FB
S214005FC02B70013EF6B2002E1AD02B78D12B0FD1B3
S214005FD0002C1AD00324644208E069462B000731DF
S214005FE07F20FFF752FF0028E8D00400200076BD8F
S214005FF02B00012229000020FFF747FF0400E0E7FE
S214006000002CE7D12B78D12BE4D1FF232800EB70AE
S214006010FFF792FFE9E7F7B5041E00D171E0436A87
S214006020002B00D16DE06B469E1D00233370027975
S21400603011001039022967D8017A914233D06A4696
S2140060403100D371D71D030001224020FFF71DFF4A
S214006050051E49D122793378122A47D1923A134342
S21400606033708132230031004020FFF72BFF051EDE
S2140060703AD12300022239005820FFF723FF051EDD
S21400608032D12300211D01227E20FFF71BFF237A39
S21400609006000500102B02D10520636A9847237975
S2140060A02372002E20D1237B1A00143A012A01D92C
S2140060B0172B29D1227C00259A4215D021002300D7
S2140060C001220C317E20FFF7FDFE237C05005120C7
S2140060D0142B05D0172B05D1237B152B02D10A20B4
S2140060E0636A9847237B23742800FEBD5AB2002AB1
S2140060F0C7DA7F22134033707E3A230031004020F7
S214006100BBE701256D42EFE70425FBE737B5041E24
S21400611000D1B5E0436A002B00D1B1E0002301AD09
S2140061202B800222030029004020FFF7AEFE002845
S21400613004D162790F2A02D9042040423EBD637A18
S214006140934205D00F212B780A408B4313432B70C4
S214006150E379022BF0D8E27A9A4203D070222B78A9
S21400616093432B70A3790C2BE6D8A27A9A4205D0DB
S2140061700F216A780B408A4313436B702300012279
S21400618029004020FFF79EFE0028D7D16379012022
S2140061906372E379E372636A9847694623000122D3
S2140061A005314120FFF78EFE0028C7D1A27928804E
S2140061B0A2722300022229004220FFF766FE002872
S2140061C0BCD1627B0D2AB7D8637C934205D00F21E1
S2140061D02B780A408B4313432B70E37B022BABD800
S2140061E030212A781B018A430B401343A27B2B7075
S2140061F0042AA1D8A37C934205D06B7829398B4317
S2140062000A4013436B702300012229004220FFF747
S21400621059FE002800D091E7637B01206374E37B7E
S214006220E374636A984769462300012205314320D8
S214006230FFF748FE002800D080E7A37B2000A37469
S214006240FFF7E9FE002800D078E728702300012237
S21400625029000230FFF719FE2B78DB061B0F012BF7
S21400626008D0022B08D0032B08D0072B00D065E7F8
S214006270092062E7062060E707205EE708205CE763
S21400628001205AE7F7B56B46DC1D002305000F001A
S214006290160023709A422FD01300210001224720B7
S2140062A0FFF7F3FD002823D101239D4304D0237874
S2140062B0012F1ED11D4325703300012221004720E7
S2140062C0FFF700FE002813D13300012221004730DB
S2140062D0FFF7DBFD00280BD110212378B2691940A7
S2140062E01C00D1711F218C4302210B401472937144
S2140062F0FEBDAB432370DFE701204042F8E7000015
S214006300194A1A4B1A491A600A004B78DB09FCD165
S2140063101849194B19605378DB09FCD11749184BFB
S21400632019805378DB09FCD1164B174A17491A8097
S2140063300B00CA7BD209FCD115490A80DA7BD20948
S214006340FCD114490A70DA7BD209FCD11A8892B2C1
S2140063501A80DA7BD209FCD1198822320A431A80C5
S214006360DA7BD209FCD1704705080000080C004013
S214006370000C004005070300040C00401B4500000D
S214006380020C0040182C0042A8610000002C0042BD
S2140063901A2C0042142C00420522164B1A60164A8C
S2140063A011005378DB09FCD1144A154B1A604B7860
S2140063B0DB09FCD1134A144913800B00CA7BD209AF
S2140063C0FCD112490A80DA7BD209FCD110490A7046
S2140063D0DA7BD209FCD11A8892B21A80DA7BD2090B
S2140063E0FCD1198822320A431A80DA7BD209FCD102
S2140063F07047C046080C0040000C004005050B0026
S214006400040C0040182C0042002C00421A2C0042BB
S214006410142C004210B5041E04D004210C2006F0F3
S2140064200BFA10BD01210C2006F082F921000C2089
S21400643006F0CCF9F5E7000010B50CF06FFF011C74
S21400644006480CF087FA0CF0A1F8054B80B2054A16
S2140064501880D37BDB09FCD110BDC046001B374A31
S214006460182C0042002C0042F0B5494B85B00400C1
S214006470984200DA1C00FA239B009C4200DD1C00B8
S214006480444A0223D15E444B8C4222DA2000434A1F
S21400649060431A600EF006FD414A424B0DF018FFAD
S2140064A0060020000F000EF0FDFC3F4A3F4B0DF0AB
S2140064B00FFF02000B00300039000CF0C5FF002271
S2140064C03B4B0CF0C1FF0EF0B9FCFFF7B5FF05B073
S2140064D0F0BD0021525E944256DD2500032265433E
S2140064E01A6028000EF0DEFC0090019120000EF0ED
S2140064F0D9FC304A06000F00009801992E4B0DF08B
S214006500E7FE2E4A029003912D4B300039000DF025
S214006510DFFE02000B00029803990CF095FF0022A4
S214006520284B0CF091FF0EF089FCFFF785FF280042
S21400653060430EF0B7FC244A244B0DF0C9FE244AF3
S21400654004000D0000980199224B0DF0C1FE0200D8
S2140065500B00200029000CF077FF1F4A04000D00F6
S2140065601E4B300039000DF0B3FE02000B00200079
S21400657029000EF02DF91A4B00220CF065FF0EF0E4
S2140065805DFC184B1860A2E7012252421A609EE793
S21400659018FCFFFF940A002000070020FFFF000001
S2140065A02D431CEBE2363A3F787AA52C431CE73F96
S2140065B000207C40613255302AA9533F85EB51B804
S2140065C01E85034000507440665380B843747CBEFA
S2140065D0C5CBD3B9A294303FE5D022DBF97ECA3FC3
S2140065E00080504008070020FA239B00584310B54F
S2140065F0002806D03023032158430BF08BFD0138CA
S214006600FDD110BD70B506000C008D18AC4206D04A
S2140066102178300007F09CFE20700134F6E770BD4C
S214006620F0B500240F00060085B00021009201930B
S21400663006F0CCF802AB0C4D5C711C71039A280076
S2140066400A4907F02DFE3900280007F081FE019A5E
S21400665000992800FFF7D6FF3000012106F0B6F8B3
S214006660200005B0F0BDC046C009002040420F0023
S214006670F0B5002485B00E000021070000920193BB
S21400668006F0A4F802AB0C4D5C711C71039A28004E
S2140066900A4907F005FE80212800314307F058FE1E
S2140066A0019A00992800FFF7ADFF3800012106F097
S2140066B08DF8200005B0F0BDC0090020404B4C000E
S2140066C0122370B50126184C6370184B2000E36146
S2140066D0174BA6702362174B6362FFF766FC022314
S2140066E00500112008210322E3712071E3732000C6
S2140066F013336171A2716173A2732373FFF706FDF2
S21400670000210D4B22000543FF209980A361FFF76F
S214006710B9FD6DB2310005432200C020FFF7B2FD7F
S2140067206DB2284340B270BD640700207166000059
S21400673021660000E96500004C07002013B5074BF2
S21400674001AC5878220002232221FFF791FF07238D
S2140067506078184023780002184316BD64070020AE
S2140067601FB51A4B01AC2200587824210C23FFF7E2
S2140067707FFF0123E35622781B021343144A13605B
S2140067800323E356A2781B021343124A1360052321
S214006790E35622791B0213430F4A13600723E3567E
S2140067A0A2791B0213430D4A13600923E356227A8B
S2140067B01B0213430A4A13600B23E356A27A1B02FA
S2140067C01343084A136004B010BDC0466407002097
S2140067D00C0A0020140A00201C0A0020D8090020F9
S2140067E0E4090020F0090020082370B50026154CA7
S2140067F06370154B20006360144BA670A360144BA7
S214006800E360FEF7FFFF220001233A3213702200F6
S21400681002213832117022003932137022003B32C6
S2140068201370230021003C3305001F201E70FFF765
S214006830B9F8210005430320FFF7F0F86DB22843AE
S21400684040B270BD0C070020716600002166000093
S214006850E965000010B5034A03490720FFF7D8FA98
S21400686010BDC0460C070020FC09002070B50E00C5
S2140068700EF018FB1B4A1C4B0DF02AFD04000D0001
S2140068801A4B642158680BF0CFFC0EF00BFB22006D
S2140068902B000CF0D9FD164A164B0CF0D5FD020065
S2140068A00B00200029000DF0DFF802000B0000208E
S2140068B011490DF08DFF114A114B08F07DFB0D00BC
S2140068C0040030000EF030FB00220E4B0DF0CCF82A
S2140068D02B0022000DF0FCFC0EF0B0FB0A4BD8603B
S2140068E070BDC04639B4C876BE9F7A3FFC0900200A
S2140068F066666666661271400000F03FBA490C0292
S2140069002B0715C000005940940A002010B50CF063
S21400691005FD014BD86010BD940A0020F8B52B4B3E
S2140069202B49D8680CF006FA2A4E041C30680CF086
S21400693045FD011C201C0CF00DF827490CF01AFB35
S214006940011C051C0CF0F6F92449041C281C0CF04C
S214006950F1F923490BF06CFE2249071C201C0CF0B1
S214006960E9F9011C381C0BF063FE1F49071C201CAC
S2140069700CF0E0F9291C0CF0DDF9011C381C0BF0BA
S21400698057FE1A49051C201C0CF0D4F9211C0CF0EB
S214006990D1F9011C281C0BF04BFEFE2189050CF0DA
S2140069A0E9FA041C70680CF0B9FC09490BF0D2FF38
S2140069B00F490BF03DFE011C201C0CF0BBF90D49E5
S2140069C00BF0C8FF0EF0E8FAF8BDC046940A0020A7
S2140069D00000C842FC0900206666A63FA4F01C3EE4
S2140069E00087863FACAC43BD3EABB53C3C5F44BC89
S2140069F033938843F4FDD43B084B0360362303717E
S214006A00FC239B058360064BC360064B0361064B65
S214006A104361EE239B0583617047C0460AD7233C3B
S214006A200000203E0AD7A338CDCCCC3AD0B504001F
S214006A300160081C0EF0B0FA06000F0002000B0002
S214006A400B480C490DF010F80EF0F8FA3B00320037
S214006A50A060094909480DF007F80EF0EFFA084B58
S214006A60E0602361074B6361EE239B05A361D0BD05
S214006A707B14AE47E17A743F9999593F9A99999950
S214006A800AD7A338CDCCCC3A10B50248FFF7B4FFEE
S214006A9010BDC0468C07002070B50E0015000A4CCD
S214006AA00179200007F052FD3100200007F0C0FCFD
S214006AB0E9B2200007F0BCFC290A200007F0B8FC69
S214006AC0200007F081FD70BD6C28002010B5040082
S214006AD008000CF023FCA1680BF03CFF0BF056FD01
S214006AE0182182B22000FFF7D7FF10BD70B50E0048
S214006AF004000F4D0179280007F028FD310028001A
S214006B0007F096FC2800002107F02BFD21790222D1
S214006B10280007F016FD280007F080FC0400280077
S214006B2007F07CFC034B00021840204380B270BD87
S214006B306C28002000FFFF0010B504001821FFF7A6
S214006B40D5FF0CF0EBFBA1680CF0F4F810BD10B507
S214006B5004001021FFF7CAFF0CF0E0FBA1680CF060
S214006B60E9F810BD10B504000521FFF7BFFF0CF0D3
S214006B70D5FBA1680CF0DEF810BD10B50A210400A4
S214006B80FFF7B4FF00B20CF0C9FBE1680CF0D2F8D6
S214006B9010BD10B50B210400FFF7A8FF00B20CF0E3
S214006BA0BDFBE1680CF0C6F810BD10B50400092165
S214006BB0FFF79CFF0CF0B2FB21690CF0BBF810BD90
S214006BC010B504001921FFF791FF0CF0A7FB21690F
S214006BD00CF0B0F810BD10B504000621FFF786FFD4
S214006BE00CF09CFBA1690CF0A5F810BD10B50400D4
S214006BF01121FFF77BFF0CF091FB61690CF09AF80E
S214006C0010BD10B504002021FFF770FF0CF086FBC6
S214006C1061690CF08FF810BD10B50821FFF766FF0C
S214006C2000B20EF03FF90022024B0DF051FB0EF0C1
S214006C3005FA10BD0000703F10B5102005F0D8FB17
S214006C4010BD002110B5080005F0C0FD0021112080
S214006C5005F0BCFD0021062005F0B8FD0021072048
S214006C6005F0B4FD0021082005F0B0FD002112203B
S214006C7005F0ACFD0021042005F0A8FD002105204C
S214006C8005F0A4FD0021022005F0A0FD002126202D
S214006C9005F09CFD0121162005F04AFD0121172074
S214006CA005F046FD0121182005F042FD00211620C2
S214006CB005F08CFD0021172005F088FD0021182026
S214006CC005F084FD01210A2005F032FD01210B208C
S214006CD005F02EFD01210D2005F02AFD00210A20D9
S214006CE005F074FD00210B2005F070FD00210D203D
S214006CF005F06CFD0221032005F01AFD10BD000012
S214006D00032110B5080005F013FD204B013BFDD113
S214006D100121062005F05AFD0121072005F056FD49
S214006D200121042005F052FD0021080005F04EFD6B
S214006D300121122005F04AFD0121112005F046FD33
S214006D400121052005F042FD0121022005F03EFD4F
S214006D500121262005F03AFD02210B2005F06CFDEE
S214006D6002210A2005F068FD02210D2005F064FDD1
S214006D700221172005F060FD0221162005F05CFDBB
S214006D800221182005F058FD10BDC04600E20400A0
S214006D90032370B5234A88B0117904AE0B431371F0
S214006DA02149102230000EF028FC6A46B5231370E5
S214006DB0533B53705C3B93708033D3708C2300241A
S214006DC093711E33D371194D02AB19495C711C7156
S214006DD0147154712800039A029107F061FA210099
S214006DE0112005F0F3FC315D2800013407F0B0FAFD
S214006DF0102CF8D10121112005F0E8FC002111200B
S214006E0005F0E4FC00246B462800195D013407F009
S214006E109FFA082CF7D10121112005F0D7FC08B005
S214006E2070BDC046940A0020319E01005428002000
S214006E3040420F00022270B5254988B00B7904AE97
S214006E4093431A000123134310220B71214930008B
S214006E5089180EF0D2FB6A46B5231370533B537065
S214006E605C3B93708033D3708C23002493711E3365
S214006E70D371194D02AB19495C711C7114715471B0
S214006E802800039A029107F00BFA2100112005F062
S214006E909DFC315D2800013407F05AFA102CF8D119
S214006EA00121112005F092FC0021112005F08EFC36
S214006EB000246B462800195D013407F049FA082CB7
S214006EC0F7D10121112005F081FC08B070BDC04645
S214006ED0940A0020319E01005428002040420F00F2
S214006EE0F0B5294C01272100284A8DB0137906AE4B
S214006EF0BB4313712031182230000EF07EFB2100B8
S214006F001022383102A80EF078FB00246B46204D84
S214006F105C711C711F49019A2800009107F0C0F9A6
S214006F202100112005F052FCFF21280007F010FA7E
S214006F303900112005F04AFCFA20400003F0DEFF7D
S214006F402100112005F042FC315D2800013407F0D5
S214006F50FFF9182CF8D10121112005F037FC00218B
S214006F60112005F033FC002408226B469B18195D9F
S214006F702800013407F0ECF9102CF5D1012111207E
S214006F8005F024FC0DB0F0BD319E0100940A0020EF
S214006F905428002040420F0037B5314B00220193A1
S214006FA0C723304C00931100200001F090F86422B3
S214006FB01421200001F038FB2B49200004F002F8D1
S214006FC078221421200001F02FFB2849200003F02E
S214006FD0F9FF200001F01AFF200001F0ABFE0021AF
S214006FE0162005F0A5FB0021172005F0A1FB0021C7
S214006FF0182005F09DFB0021042005F099FB0121D7
S214007000002005F0E3FB1A4D280003F001F90028E4
S214007010F9D0280003F05CF905000428F3D100211C
S214007020080005F0D3FB642003F068FF0221162059
S21400703005F002FC0221172005F0FEFB02211820B5
S21400704005F0FAFB2800012105F072FB280001215B
S21400705005F0BCFB0021200002F008F937BDC04651
S214007060FFFF0000FC0A0020899E01009A9E010096
S2140070706C090020F7B5484D2B68012B11D1474C01
S2140070804749200003F0B0FF4649200003F0ACFF5C
S2140070904549200003F0A8FF200005F0FFFD00236F
S2140070A02B600021414B4C1C5A5C414803F060F9B0
S2140070B021004C2CF6D1C72300223E4D3E4E0093B5
S2140070C011002800019601F002F86422280014211D
S2140070D001F0AAFA3949280003F074FF280001F0ED
S2140070E095FE0221364A102013788B431370042332
S2140070F0344A11690B4313618022334B92005A6164
S214007100324BD03AFF3A1A703149002205F0F2F8B5
S214007110FFF797FD30BF642407270021380005F0ED
S21400712055FB013C0121380005F050FB002CF4D142
S214007130FFF7E6FDFAF7ECFF8023264A9B00136074
S214007140254A28001360210002F090F8280021004C
S21400715001F06DFA0196C8262200330021002800AF
S214007160009600F0B4FF280001F050FE2800210031
S21400717001F062F8330022002800009621000194F6
S21400718001F090FF2100280001F054FAFFF798FA6A
S214007190FFF72AFBF7BDC046E00A002020090020C2
S2140071A0A69E0100B49E0100BD9E0100940A002028
S2140071B090090020FC0A0020FFFF0000C49E01008A
S2140071C00050004100ED00E0001800400C30004286
S2140071D0396C000008180040101800404B6830B5A5
S2140071E043608B6802008360CB680D00C360002399
S2140071F010321035EC5CD45401330D2BFAD10B6AE7
S214007200036230BDF0B56D4B9BB01A796C4B5207DC
S21400721003D41A68012A00D0CDE01F68002F00D0E2
S214007220BFE0684B0133DB7F002B00D1B9E0664C32
S2140072300421200005F004FE644904A805F0A2FB22
S214007240634E3000FCF7B4FB0A22010010A805F0DC
S214007250FDFB10A904A805F03DFC10A805F04AFBAC
S2140072605C4D04A8290005F03BFC3000FCF796FBBB
S2140072700A22010010A805F0E9FB10A904A805F0F1
S21400728029FC10A805F036FB290004A805F028FC08
S2140072903000FCF779FB0A22010010A805F0D6FBA7
S2140072A010A904A805F016FC10A805F023FB3B0067
S2140072B0282210A904A805F02DFC10A9200005F02E
S2140072C0A1FE454E4549002808D110A9300003F01C
S2140072D08BFE10A9200005F0A1FE4149300003F006
S2140072E083FE290004A805F0FBFB394D2800FCF7B7
S2140072F041FB0A22010007A805F0A8FB07A904A87D
S21400730005F0E8FB07A805F0F5FA2800FCF728FBCF
S2140073100A22010007A805F099FB07A904A805F0B2
S214007320D9FB07A805F0E6FA2800FCF70FFB0A22AF
S214007330010007A805F08AFB07A904A805F0CAFB08
S21400734007A805F0D7FA274907A805F01BFB07A9E9
S21400735004A805F0BFFB07A805F0CCFA00232822F6
S21400736010A904A805F0D6FB132310AA210007A82D
S21400737005F0F4FD1C4C07A92000FFF72FFF1B4962
S214007380200003F031FE1A49200003F02DFE1949B3
S214007390200003F029FE0122094B04A81A6005F01C
S2140073A0A9FA114C200005F086FC002803D0124BE9
S2140073B01B68002B22D11BB0F0BDC046940A0020EB
S2140073C0E00A0020DC070020D4250020CE9E010025
S2140073D050060020D59E0100D41E0020D79E010036
S2140073E0E09E0100EA9E010020090020EF9E0100B9
S2140073F0F59E0100FD9E0100F0080020FB4B0233C5
S214007400DB7F002B00D1A3E2F949200003F0DAFD70
S214007410F64B18680BF082FFF6490BF08BFC0DF06C
S214007420BBFD0B00062102000091200003F010FFB8
S214007430F149200003F0C6FDEC4B58680BF06EFFD8
S214007440EC490BF077FC0DF0A7FD0B0005210200C0
S2140074500091200003F0FCFEE849200003F0C4FD84
S214007460E749200003F0AEFDE04B0A20185E0BF063
S21400747055FF0DF091FDE34AE34B0CF029FFDB4B83
S21400748006000820185E0F000BF048FF0DF084FD84
S21400749002000B00300039000BF0D6FF0DF0CEFDD9
S2140074A001260DF079FD00960B000200200003F087
S2140074B0CFFED649200003F097FDD549200003F003
S2140074C081FDD44F32007968200003F0BDFDD24D17
S2140074D02000290003F076FD3200B968200003F092
S2140074E0E1FD2900200003F06DFD32003968200020
S2140074F003F0D8FD2900200003F064FDC74BC849FF
S21400750018680BF027FA0DF047FD009602000B00F6
S214007510200003F09DFE2900200003F053FDC14B20
S21400752018680DF039FD009602000B00200003F0ED
S2140075308FFE2900200003F045FDBB4B18680DF0B8
S2140075402BFD009602000B00200003F081FE2900B0
S214007550200003F037FDA54B0A220433D97F200014
S21400756003F092FD2900200003F02CFD9F4B0A2219
S2140075700533D97F200003F087FD2900200003F0A3
S21400758021FD9A4B0E20185E0BF0C8FE0DF004FD90
S214007590A64AA74B0CF09CFE944B06000C20185EE7
S2140075A00F000BF0BBFE0DF0F7FC02000B003000E6
S2140075B039000BF049FF0DF041FD9E490BF0BAFB78
S2140075C002270DF0E9FC009702000B00200003F0F4
S2140075D03FFE2900200003F0F5FC844B1220185EC5
S2140075E00BF09CFE0DF0D8FC864A874B0CF070FE24
S2140075F0029003917D4B1020185E0BF08FFE0DF06D
S214007600CBFC02000B00029803990BF01DFF0DF057
S21400761015FD0DF0C1FC009702000B00200003F0E2
S21400762017FE2900200003F0CDFC834B18680DF0F0
S214007630B3FC009702000B00200003F009FE2900AF
S214007640200003F0BFFC7D4B18680DF0A5FC0097EA
S21400765002000B00200003F0FBFD2900200003F0D1
S214007660B1FC774E009732687368200003F0F0FD97
S2140076702900200003F0A6FC0097B268F3682000FB
S21400768003F0E6FD2900200003F09CFC32697369D4
S2140076902000009703F0DCFD2900200003F092FC98
S2140076A0684B0A221968200003F0EEFC290020002F
S2140076B003F088FC644B0A221968200003F0E4FCFF
S2140076C02900200003F07EFC604B0A221968200087
S2140076D003F0DAFC2900200003F074FC5C4B0A225D
S2140076E01968200003F0D0FC2900200003F06AFC93
S2140076F0584B0A221968200003F0C6FC2900200017
S21400770003F060FC544B0A221968200003F0BCFC0E
S2140077102900200003F056FC504B0A22196820006E
S21400772003F0B2FC2900200003F04CFC4C4B0A226C
S2140077301968200003F0A8FC2900200003F042FC92
S214007740484B0A221968200003F09EFC29002000FE
S21400775003F038FC444B0A221968200003F094FC1E
S2140077602900200003F02EFC404B0A221968200056
S21400777003F08AFC2900200003F024FC3C4B0A227C
S2140077801968200003F080FC2900200003F01AFC92
S214007790384B18680DF000FC009702000B00200024
S2140077A003F056FD2900200003F00CFC324B18684D
S2140077B00DF0F2FB009702000B00200003F048FDDE
S2140077C02900200003F0FEFB2C4B18680DF0E4FBAC
S2140077D0009702000B00200003F03AFD290020006D
S2140077E003F0F0FB264B0A2219684BE0DC0700206A
S2140077F00A9F010095BFD6331D9F0100259F0100FB
S214007800289F01007B14AE47E17A843F369F010033
S2140078103D9F0100FC0900204B9F0100D409002079
S2140078200000C842EC0A00209C020020FCA9F1D20D
S2140078304D62503F560EED3FF40A0020F00A00203D
S214007840280A0020D8090020E4090020F0090020BA
S2140078500C0A0020140A00201C0A0020DC09002064
S214007860E8090020F4090020100A0020180A002069
S214007870200A0020F80A0020880A0020900A00202B
S214007880080A0020200003F0FFFB2900200003F078
S21400789099FB3E4B0A22D97F200003F0F5FB290016
S2140078A0200003F08FFB394B0A220133D97F2000DA
S2140078B003F0EAFB2900200003F084FB3449200093
S2140078C003F092FB3349200003F07CFB2F4B0A2287
